{
  "_format": "hh-sol-artifact-1",
  "contractName": "TrustFlow",
  "sourceName": "contracts/TrustFlow.sol",
  "abi": [
    {
      "anonymous": false,
      "inputs": [
        {
          "indexed": true,
          "internalType": "address",
          "name": "companyAddress",
          "type": "address"
        },
        {
          "indexed": false,
          "internalType": "uint256",
          "name": "companyId",
          "type": "uint256"
        },
        {
          "indexed": false,
          "internalType": "string",
          "name": "name",
          "type": "string"
        }
      ],
      "name": "CompanyRegistered",
      "type": "event"
    },
    {
      "anonymous": false,
      "inputs": [
        {
          "indexed": true,
          "internalType": "address",
          "name": "companyAddress",
          "type": "address"
        },
        {
          "indexed": false,
          "internalType": "string",
          "name": "newName",
          "type": "string"
        },
        {
          "indexed": false,
          "internalType": "address",
          "name": "newAddress",
          "type": "address"
        }
      ],
      "name": "CompanyUpdated",
      "type": "event"
    },
    {
      "anonymous": false,
      "inputs": [
        {
          "indexed": true,
          "internalType": "uint256",
          "name": "orderId",
          "type": "uint256"
        },
        {
          "indexed": false,
          "internalType": "string",
          "name": "status",
          "type": "string"
        },
        {
          "indexed": false,
          "internalType": "string",
          "name": "description",
          "type": "string"
        },
        {
          "indexed": false,
          "internalType": "address",
          "name": "updatedBy",
          "type": "address"
        }
      ],
      "name": "DeliveryEventAdded",
      "type": "event"
    },
    {
      "anonymous": false,
      "inputs": [
        {
          "indexed": true,
          "internalType": "uint256",
          "name": "productId",
          "type": "uint256"
        },
        {
          "indexed": false,
          "internalType": "uint256",
          "name": "quantityUsed",
          "type": "uint256"
        },
        {
          "indexed": false,
          "internalType": "address",
          "name": "consumer",
          "type": "address"
        }
      ],
      "name": "InventoryConsumed",
      "type": "event"
    },
    {
      "anonymous": false,
      "inputs": [
        {
          "indexed": true,
          "internalType": "uint256",
          "name": "productId",
          "type": "uint256"
        },
        {
          "indexed": false,
          "internalType": "uint256",
          "name": "ingredientCount",
          "type": "uint256"
        }
      ],
      "name": "ManufacturingRecipeCreated",
      "type": "event"
    },
    {
      "anonymous": false,
      "inputs": [
        {
          "indexed": true,
          "internalType": "uint256",
          "name": "orderId",
          "type": "uint256"
        },
        {
          "indexed": false,
          "internalType": "address",
          "name": "approver",
          "type": "address"
        }
      ],
      "name": "OrderApproved",
      "type": "event"
    },
    {
      "anonymous": false,
      "inputs": [
        {
          "indexed": true,
          "internalType": "uint256",
          "name": "orderId",
          "type": "uint256"
        }
      ],
      "name": "OrderCompleted",
      "type": "event"
    },
    {
      "anonymous": false,
      "inputs": [
        {
          "indexed": true,
          "internalType": "uint256",
          "name": "orderId",
          "type": "uint256"
        },
        {
          "indexed": false,
          "internalType": "string",
          "name": "reason",
          "type": "string"
        }
      ],
      "name": "OrderExpired",
      "type": "event"
    },
    {
      "anonymous": false,
      "inputs": [
        {
          "indexed": true,
          "internalType": "uint256",
          "name": "orderId",
          "type": "uint256"
        },
        {
          "indexed": false,
          "internalType": "address",
          "name": "buyer",
          "type": "address"
        },
        {
          "indexed": false,
          "internalType": "uint256",
          "name": "amount",
          "type": "uint256"
        }
      ],
      "name": "OrderPaid",
      "type": "event"
    },
    {
      "anonymous": false,
      "inputs": [
        {
          "indexed": true,
          "internalType": "uint256",
          "name": "orderId",
          "type": "uint256"
        },
        {
          "indexed": false,
          "internalType": "address",
          "name": "buyer",
          "type": "address"
        },
        {
          "indexed": false,
          "internalType": "address",
          "name": "seller",
          "type": "address"
        },
        {
          "indexed": false,
          "internalType": "uint256",
          "name": "quantity",
          "type": "uint256"
        },
        {
          "indexed": false,
          "internalType": "string",
          "name": "orderType",
          "type": "string"
        }
      ],
      "name": "OrderPlaced",
      "type": "event"
    },
    {
      "anonymous": false,
      "inputs": [
        {
          "indexed": true,
          "internalType": "uint256",
          "name": "orderId",
          "type": "uint256"
        },
        {
          "indexed": false,
          "internalType": "address",
          "name": "rejector",
          "type": "address"
        },
        {
          "indexed": false,
          "internalType": "string",
          "name": "reason",
          "type": "string"
        }
      ],
      "name": "OrderRejected",
      "type": "event"
    },
    {
      "anonymous": false,
      "inputs": [
        {
          "indexed": true,
          "internalType": "uint256",
          "name": "productId",
          "type": "uint256"
        },
        {
          "indexed": false,
          "internalType": "string",
          "name": "name",
          "type": "string"
        },
        {
          "indexed": false,
          "internalType": "address",
          "name": "owner",
          "type": "address"
        },
        {
          "indexed": false,
          "internalType": "uint256",
          "name": "quantity",
          "type": "uint256"
        }
      ],
      "name": "ProductCreated",
      "type": "event"
    },
    {
      "anonymous": false,
      "inputs": [
        {
          "indexed": true,
          "internalType": "uint256",
          "name": "newProductId",
          "type": "uint256"
        },
        {
          "indexed": false,
          "internalType": "uint256[]",
          "name": "ingredientIds",
          "type": "uint256[]"
        },
        {
          "indexed": false,
          "internalType": "uint256[]",
          "name": "quantities",
          "type": "uint256[]"
        },
        {
          "indexed": false,
          "internalType": "address",
          "name": "manufacturer",
          "type": "address"
        }
      ],
      "name": "ProductManufactured",
      "type": "event"
    },
    {
      "anonymous": false,
      "inputs": [
        {
          "indexed": true,
          "internalType": "uint256",
          "name": "productId",
          "type": "uint256"
        },
        {
          "indexed": false,
          "internalType": "address",
          "name": "from",
          "type": "address"
        },
        {
          "indexed": false,
          "internalType": "address",
          "name": "to",
          "type": "address"
        },
        {
          "indexed": false,
          "internalType": "uint256",
          "name": "quantity",
          "type": "uint256"
        }
      ],
      "name": "ProductTransferred",
      "type": "event"
    },
    {
      "anonymous": false,
      "inputs": [
        {
          "indexed": true,
          "internalType": "uint256",
          "name": "relationshipId",
          "type": "uint256"
        }
      ],
      "name": "RelationshipAccepted",
      "type": "event"
    },
    {
      "anonymous": false,
      "inputs": [
        {
          "indexed": true,
          "internalType": "uint256",
          "name": "relationshipId",
          "type": "uint256"
        },
        {
          "indexed": false,
          "internalType": "uint256",
          "name": "step",
          "type": "uint256"
        },
        {
          "indexed": false,
          "internalType": "uint256",
          "name": "pricePerUnit",
          "type": "uint256"
        },
        {
          "indexed": false,
          "internalType": "address",
          "name": "requestFrom",
          "type": "address"
        }
      ],
      "name": "RelationshipNegotiated",
      "type": "event"
    },
    {
      "anonymous": false,
      "inputs": [
        {
          "indexed": true,
          "internalType": "uint256",
          "name": "relationshipId",
          "type": "uint256"
        },
        {
          "indexed": false,
          "internalType": "uint256",
          "name": "quantity",
          "type": "uint256"
        },
        {
          "indexed": false,
          "internalType": "uint256",
          "name": "totalPrice",
          "type": "uint256"
        }
      ],
      "name": "RelationshipOrderPlaced",
      "type": "event"
    },
    {
      "anonymous": false,
      "inputs": [
        {
          "indexed": true,
          "internalType": "uint256",
          "name": "relationshipId",
          "type": "uint256"
        }
      ],
      "name": "RelationshipRejected",
      "type": "event"
    },
    {
      "anonymous": false,
      "inputs": [
        {
          "indexed": true,
          "internalType": "uint256",
          "name": "relationshipId",
          "type": "uint256"
        },
        {
          "indexed": false,
          "internalType": "address",
          "name": "supplier",
          "type": "address"
        },
        {
          "indexed": false,
          "internalType": "address",
          "name": "buyer",
          "type": "address"
        },
        {
          "indexed": false,
          "internalType": "uint256",
          "name": "productId",
          "type": "uint256"
        }
      ],
      "name": "RelationshipRequested",
      "type": "event"
    },
    {
      "anonymous": false,
      "inputs": [
        {
          "indexed": true,
          "internalType": "uint256",
          "name": "listingId",
          "type": "uint256"
        },
        {
          "indexed": false,
          "internalType": "uint256",
          "name": "productId",
          "type": "uint256"
        },
        {
          "indexed": false,
          "internalType": "address",
          "name": "seller",
          "type": "address"
        },
        {
          "indexed": false,
          "internalType": "uint256",
          "name": "quantity",
          "type": "uint256"
        }
      ],
      "name": "SpotListingCreated",
      "type": "event"
    },
    {
      "anonymous": false,
      "inputs": [
        {
          "indexed": true,
          "internalType": "uint256",
          "name": "listingId",
          "type": "uint256"
        }
      ],
      "name": "SpotListingRemoved",
      "type": "event"
    },
    {
      "anonymous": false,
      "inputs": [
        {
          "indexed": true,
          "internalType": "uint256",
          "name": "listingId",
          "type": "uint256"
        },
        {
          "indexed": false,
          "internalType": "address",
          "name": "buyer",
          "type": "address"
        },
        {
          "indexed": false,
          "internalType": "uint256",
          "name": "quantity",
          "type": "uint256"
        },
        {
          "indexed": false,
          "internalType": "uint256",
          "name": "totalPrice",
          "type": "uint256"
        }
      ],
      "name": "SpotPurchase",
      "type": "event"
    },
    {
      "anonymous": false,
      "inputs": [
        {
          "indexed": true,
          "internalType": "uint256",
          "name": "transactionId",
          "type": "uint256"
        },
        {
          "indexed": false,
          "internalType": "address",
          "name": "buyer",
          "type": "address"
        },
        {
          "indexed": false,
          "internalType": "address",
          "name": "seller",
          "type": "address"
        },
        {
          "indexed": false,
          "internalType": "string",
          "name": "transactionType",
          "type": "string"
        }
      ],
      "name": "TransactionCreated",
      "type": "event"
    },
    {
      "inputs": [
        {
          "internalType": "uint256",
          "name": "_relationshipId",
          "type": "uint256"
        }
      ],
      "name": "acceptRelationship",
      "outputs": [],
      "stateMutability": "nonpayable",
      "type": "function"
    },
    {
      "inputs": [
        {
          "internalType": "uint256",
          "name": "",
          "type": "uint256"
        }
      ],
      "name": "activeSpotListings",
      "outputs": [
        {
          "internalType": "uint256",
          "name": "",
          "type": "uint256"
        }
      ],
      "stateMutability": "view",
      "type": "function"
    },
    {
      "inputs": [
        {
          "internalType": "uint256",
          "name": "_orderId",
          "type": "uint256"
        },
        {
          "internalType": "string",
          "name": "_status",
          "type": "string"
        },
        {
          "internalType": "string",
          "name": "_description",
          "type": "string"
        }
      ],
      "name": "addDeliveryEvent",
      "outputs": [],
      "stateMutability": "nonpayable",
      "type": "function"
    },
    {
      "inputs": [
        {
          "internalType": "uint256",
          "name": "",
          "type": "uint256"
        }
      ],
      "name": "allCompanies",
      "outputs": [
        {
          "internalType": "address",
          "name": "",
          "type": "address"
        }
      ],
      "stateMutability": "view",
      "type": "function"
    },
    {
      "inputs": [
        {
          "internalType": "uint256",
          "name": "_listingId",
          "type": "uint256"
        },
        {
          "internalType": "uint256",
          "name": "_quantity",
          "type": "uint256"
        }
      ],
      "name": "buyFromSpotMarket",
      "outputs": [],
      "stateMutability": "payable",
      "type": "function"
    },
    {
      "inputs": [
        {
          "internalType": "uint256",
          "name": "_orderId",
          "type": "uint256"
        }
      ],
      "name": "cancelExpiredOrder",
      "outputs": [],
      "stateMutability": "nonpayable",
      "type": "function"
    },
    {
      "inputs": [
        {
          "internalType": "address",
          "name": "",
          "type": "address"
        }
      ],
      "name": "companies",
      "outputs": [
        {
          "internalType": "uint256",
          "name": "id",
          "type": "uint256"
        },
        {
          "internalType": "string",
          "name": "name",
          "type": "string"
        },
        {
          "internalType": "address",
          "name": "companyAddress",
          "type": "address"
        },
        {
          "internalType": "bool",
          "name": "exists",
          "type": "bool"
        }
      ],
      "stateMutability": "view",
      "type": "function"
    },
    {
      "inputs": [
        {
          "internalType": "uint256",
          "name": "_orderId",
          "type": "uint256"
        },
        {
          "internalType": "string",
          "name": "_paymentMethod",
          "type": "string"
        },
        {
          "internalType": "string",
          "name": "_paymentId",
          "type": "string"
        }
      ],
      "name": "completeOrderWithExternalPayment",
      "outputs": [],
      "stateMutability": "nonpayable",
      "type": "function"
    },
    {
      "inputs": [
        {
          "internalType": "uint256",
          "name": "_listingId",
          "type": "uint256"
        },
        {
          "internalType": "uint256",
          "name": "_quantity",
          "type": "uint256"
        },
        {
          "internalType": "string",
          "name": "_notes",
          "type": "string"
        }
      ],
      "name": "createMarketplaceOrder",
      "outputs": [],
      "stateMutability": "nonpayable",
      "type": "function"
    },
    {
      "inputs": [
        {
          "internalType": "string",
          "name": "_name",
          "type": "string"
        },
        {
          "internalType": "string",
          "name": "_description",
          "type": "string"
        },
        {
          "internalType": "string",
          "name": "_imageHash",
          "type": "string"
        },
        {
          "internalType": "uint256",
          "name": "_quantity",
          "type": "uint256"
        },
        {
          "internalType": "uint256",
          "name": "_pricePerUnit",
          "type": "uint256"
        }
      ],
      "name": "createProduct",
      "outputs": [],
      "stateMutability": "nonpayable",
      "type": "function"
    },
    {
      "inputs": [
        {
          "internalType": "address",
          "name": "_userAddress",
          "type": "address"
        }
      ],
      "name": "getActiveRelationships",
      "outputs": [
        {
          "internalType": "uint256[]",
          "name": "",
          "type": "uint256[]"
        }
      ],
      "stateMutability": "view",
      "type": "function"
    },
    {
      "inputs": [],
      "name": "getAllCompanies",
      "outputs": [
        {
          "internalType": "address[]",
          "name": "",
          "type": "address[]"
        }
      ],
      "stateMutability": "view",
      "type": "function"
    },
    {
      "inputs": [
        {
          "internalType": "address",
          "name": "_buyer",
          "type": "address"
        }
      ],
      "name": "getApprovedOrdersForBuyer",
      "outputs": [
        {
          "internalType": "uint256[]",
          "name": "",
          "type": "uint256[]"
        }
      ],
      "stateMutability": "view",
      "type": "function"
    },
    {
      "inputs": [
        {
          "internalType": "address",
          "name": "_seller",
          "type": "address"
        }
      ],
      "name": "getApprovedOrdersForSeller",
      "outputs": [
        {
          "internalType": "uint256[]",
          "name": "",
          "type": "uint256[]"
        }
      ],
      "stateMutability": "view",
      "type": "function"
    },
    {
      "inputs": [
        {
          "internalType": "address",
          "name": "_address",
          "type": "address"
        }
      ],
      "name": "getCompany",
      "outputs": [
        {
          "components": [
            {
              "internalType": "uint256",
              "name": "id",
              "type": "uint256"
            },
            {
              "internalType": "string",
              "name": "name",
              "type": "string"
            },
            {
              "internalType": "address",
              "name": "companyAddress",
              "type": "address"
            },
            {
              "internalType": "bool",
              "name": "exists",
              "type": "bool"
            }
          ],
          "internalType": "struct TrustFlow.Company",
          "name": "",
          "type": "tuple"
        }
      ],
      "stateMutability": "view",
      "type": "function"
    },
    {
      "inputs": [],
      "name": "getContractStats",
      "outputs": [
        {
          "internalType": "uint256",
          "name": "totalCompanies",
          "type": "uint256"
        },
        {
          "internalType": "uint256",
          "name": "totalProducts",
          "type": "uint256"
        },
        {
          "internalType": "uint256",
          "name": "totalRelationships",
          "type": "uint256"
        },
        {
          "internalType": "uint256",
          "name": "totalTransactions",
          "type": "uint256"
        },
        {
          "internalType": "uint256",
          "name": "activeListings",
          "type": "uint256"
        }
      ],
      "stateMutability": "view",
      "type": "function"
    },
    {
      "inputs": [
        {
          "internalType": "uint256",
          "name": "_relationshipId",
          "type": "uint256"
        }
      ],
      "name": "getCurrentNegotiationTerms",
      "outputs": [
        {
          "internalType": "uint256",
          "name": "pricePerUnit",
          "type": "uint256"
        },
        {
          "internalType": "uint256",
          "name": "endDate",
          "type": "uint256"
        },
        {
          "internalType": "address",
          "name": "requestFrom",
          "type": "address"
        }
      ],
      "stateMutability": "view",
      "type": "function"
    },
    {
      "inputs": [
        {
          "internalType": "uint256",
          "name": "_orderId",
          "type": "uint256"
        }
      ],
      "name": "getLatestDeliveryEvent",
      "outputs": [
        {
          "components": [
            {
              "internalType": "uint256",
              "name": "timestamp",
              "type": "uint256"
            },
            {
              "internalType": "string",
              "name": "status",
              "type": "string"
            },
            {
              "internalType": "string",
              "name": "description",
              "type": "string"
            },
            {
              "internalType": "address",
              "name": "updatedBy",
              "type": "address"
            }
          ],
          "internalType": "struct TrustFlow.DeliveryEvent",
          "name": "",
          "type": "tuple"
        }
      ],
      "stateMutability": "view",
      "type": "function"
    },
    {
      "inputs": [
        {
          "internalType": "uint256",
          "name": "_relationshipId",
          "type": "uint256"
        }
      ],
      "name": "getNegotiationHistory",
      "outputs": [
        {
          "components": [
            {
              "internalType": "uint256",
              "name": "step",
              "type": "uint256"
            },
            {
              "internalType": "uint256",
              "name": "pricePerUnit",
              "type": "uint256"
            },
            {
              "internalType": "address",
              "name": "requestFrom",
              "type": "address"
            },
            {
              "internalType": "uint256",
              "name": "timestamp",
              "type": "uint256"
            },
            {
              "internalType": "uint256",
              "name": "endDate",
              "type": "uint256"
            }
          ],
          "internalType": "struct TrustFlow.NegotiationStep[]",
          "name": "",
          "type": "tuple[]"
        }
      ],
      "stateMutability": "view",
      "type": "function"
    },
    {
      "inputs": [
        {
          "internalType": "uint256",
          "name": "_orderId",
          "type": "uint256"
        }
      ],
      "name": "getOrder",
      "outputs": [
        {
          "components": [
            {
              "internalType": "uint256",
              "name": "id",
              "type": "uint256"
            },
            {
              "internalType": "address",
              "name": "buyer",
              "type": "address"
            },
            {
              "internalType": "address",
              "name": "seller",
              "type": "address"
            },
            {
              "internalType": "uint256",
              "name": "productId",
              "type": "uint256"
            },
            {
              "internalType": "uint256",
              "name": "quantity",
              "type": "uint256"
            },
            {
              "internalType": "uint256",
              "name": "unitPrice",
              "type": "uint256"
            },
            {
              "internalType": "uint256",
              "name": "totalPrice",
              "type": "uint256"
            },
            {
              "internalType": "string",
              "name": "orderType",
              "type": "string"
            },
            {
              "internalType": "string",
              "name": "status",
              "type": "string"
            },
            {
              "internalType": "uint256",
              "name": "createdAt",
              "type": "uint256"
            },
            {
              "internalType": "uint256",
              "name": "approvalDeadline",
              "type": "uint256"
            },
            {
              "internalType": "uint256",
              "name": "paymentDeadline",
              "type": "uint256"
            },
            {
              "internalType": "string",
              "name": "notes",
              "type": "string"
            },
            {
              "components": [
                {
                  "internalType": "uint256",
                  "name": "timestamp",
                  "type": "uint256"
                },
                {
                  "internalType": "string",
                  "name": "status",
                  "type": "string"
                },
                {
                  "internalType": "string",
                  "name": "description",
                  "type": "string"
                },
                {
                  "internalType": "address",
                  "name": "updatedBy",
                  "type": "address"
                }
              ],
              "internalType": "struct TrustFlow.DeliveryEvent[]",
              "name": "deliveryEvents",
              "type": "tuple[]"
            },
            {
              "internalType": "bool",
              "name": "exists",
              "type": "bool"
            },
            {
              "internalType": "bool",
              "name": "isPartialTransfer",
              "type": "bool"
            },
            {
              "internalType": "uint256",
              "name": "originalProductId",
              "type": "uint256"
            },
            {
              "internalType": "uint256",
              "name": "listingId",
              "type": "uint256"
            }
          ],
          "internalType": "struct TrustFlow.Order",
          "name": "",
          "type": "tuple"
        }
      ],
      "stateMutability": "view",
      "type": "function"
    },
    {
      "inputs": [
        {
          "internalType": "uint256",
          "name": "_orderId",
          "type": "uint256"
        }
      ],
      "name": "getOrderDeliveryHistory",
      "outputs": [
        {
          "components": [
            {
              "internalType": "uint256",
              "name": "timestamp",
              "type": "uint256"
            },
            {
              "internalType": "string",
              "name": "status",
              "type": "string"
            },
            {
              "internalType": "string",
              "name": "description",
              "type": "string"
            },
            {
              "internalType": "address",
              "name": "updatedBy",
              "type": "address"
            }
          ],
          "internalType": "struct TrustFlow.DeliveryEvent[]",
          "name": "",
          "type": "tuple[]"
        }
      ],
      "stateMutability": "view",
      "type": "function"
    },
    {
      "inputs": [],
      "name": "getOrderStats",
      "outputs": [
        {
          "internalType": "uint256",
          "name": "totalOrders",
          "type": "uint256"
        },
        {
          "internalType": "uint256",
          "name": "pendingOrders",
          "type": "uint256"
        },
        {
          "internalType": "uint256",
          "name": "approvedOrders",
          "type": "uint256"
        },
        {
          "internalType": "uint256",
          "name": "completedOrders",
          "type": "uint256"
        }
      ],
      "stateMutability": "view",
      "type": "function"
    },
    {
      "inputs": [
        {
          "internalType": "address",
          "name": "_buyer",
          "type": "address"
        }
      ],
      "name": "getOrdersByBuyer",
      "outputs": [
        {
          "internalType": "uint256[]",
          "name": "",
          "type": "uint256[]"
        }
      ],
      "stateMutability": "view",
      "type": "function"
    },
    {
      "inputs": [
        {
          "internalType": "address",
          "name": "_seller",
          "type": "address"
        }
      ],
      "name": "getOrdersBySeller",
      "outputs": [
        {
          "internalType": "uint256[]",
          "name": "",
          "type": "uint256[]"
        }
      ],
      "stateMutability": "view",
      "type": "function"
    },
    {
      "inputs": [
        {
          "internalType": "address",
          "name": "_user",
          "type": "address"
        },
        {
          "internalType": "string",
          "name": "_status",
          "type": "string"
        }
      ],
      "name": "getOrdersByStatus",
      "outputs": [
        {
          "internalType": "uint256[]",
          "name": "",
          "type": "uint256[]"
        }
      ],
      "stateMutability": "view",
      "type": "function"
    },
    {
      "inputs": [
        {
          "internalType": "address",
          "name": "_seller",
          "type": "address"
        }
      ],
      "name": "getPendingOrdersForSeller",
      "outputs": [
        {
          "internalType": "uint256[]",
          "name": "",
          "type": "uint256[]"
        }
      ],
      "stateMutability": "view",
      "type": "function"
    },
    {
      "inputs": [
        {
          "internalType": "address",
          "name": "_userAddress",
          "type": "address"
        }
      ],
      "name": "getPendingRelationships",
      "outputs": [
        {
          "internalType": "uint256[]",
          "name": "",
          "type": "uint256[]"
        }
      ],
      "stateMutability": "view",
      "type": "function"
    },
    {
      "inputs": [
        {
          "internalType": "uint256",
          "name": "_productId",
          "type": "uint256"
        }
      ],
      "name": "getProduct",
      "outputs": [
        {
          "components": [
            {
              "internalType": "uint256",
              "name": "id",
              "type": "uint256"
            },
            {
              "internalType": "string",
              "name": "name",
              "type": "string"
            },
            {
              "internalType": "string",
              "name": "description",
              "type": "string"
            },
            {
              "internalType": "string",
              "name": "imageHash",
              "type": "string"
            },
            {
              "components": [
                {
                  "internalType": "uint256",
                  "name": "productId",
                  "type": "uint256"
                },
                {
                  "internalType": "uint256",
                  "name": "quantityUsed",
                  "type": "uint256"
                },
                {
                  "internalType": "address",
                  "name": "supplier",
                  "type": "address"
                },
                {
                  "internalType": "uint256",
                  "name": "timestamp",
                  "type": "uint256"
                }
              ],
              "internalType": "struct TrustFlow.ComponentSource[]",
              "name": "components",
              "type": "tuple[]"
            },
            {
              "internalType": "bool",
              "name": "isManufactured",
              "type": "bool"
            },
            {
              "internalType": "address",
              "name": "originalCreator",
              "type": "address"
            },
            {
              "internalType": "address[]",
              "name": "ownershipHistory",
              "type": "address[]"
            },
            {
              "internalType": "uint256",
              "name": "quantity",
              "type": "uint256"
            },
            {
              "internalType": "uint256",
              "name": "pricePerUnit",
              "type": "uint256"
            },
            {
              "internalType": "address",
              "name": "currentOwner",
              "type": "address"
            },
            {
              "internalType": "uint256",
              "name": "createdTime",
              "type": "uint256"
            },
            {
              "internalType": "bool",
              "name": "exists",
              "type": "bool"
            }
          ],
          "internalType": "struct TrustFlow.Product",
          "name": "",
          "type": "tuple"
        }
      ],
      "stateMutability": "view",
      "type": "function"
    },
    {
      "inputs": [
        {
          "internalType": "uint256",
          "name": "_productId",
          "type": "uint256"
        }
      ],
      "name": "getProductTraceability",
      "outputs": [
        {
          "internalType": "address[]",
          "name": "",
          "type": "address[]"
        }
      ],
      "stateMutability": "view",
      "type": "function"
    },
    {
      "inputs": [
        {
          "internalType": "uint256",
          "name": "_productId",
          "type": "uint256"
        }
      ],
      "name": "getProductTree",
      "outputs": [
        {
          "components": [
            {
              "internalType": "uint256",
              "name": "productId",
              "type": "uint256"
            },
            {
              "internalType": "uint256",
              "name": "quantityUsed",
              "type": "uint256"
            },
            {
              "internalType": "address",
              "name": "supplier",
              "type": "address"
            },
            {
              "internalType": "uint256",
              "name": "timestamp",
              "type": "uint256"
            }
          ],
          "internalType": "struct TrustFlow.ComponentSource[]",
          "name": "",
          "type": "tuple[]"
        }
      ],
      "stateMutability": "view",
      "type": "function"
    },
    {
      "inputs": [
        {
          "internalType": "address",
          "name": "_owner",
          "type": "address"
        }
      ],
      "name": "getProductsByOwner",
      "outputs": [
        {
          "internalType": "uint256[]",
          "name": "",
          "type": "uint256[]"
        }
      ],
      "stateMutability": "view",
      "type": "function"
    },
    {
      "inputs": [
        {
          "internalType": "uint256",
          "name": "_productId",
          "type": "uint256"
        }
      ],
      "name": "getRawMaterialSources",
      "outputs": [
        {
          "internalType": "uint256[]",
          "name": "",
          "type": "uint256[]"
        }
      ],
      "stateMutability": "view",
      "type": "function"
    },
    {
      "inputs": [
        {
          "internalType": "uint256",
          "name": "_relationshipId",
          "type": "uint256"
        }
      ],
      "name": "getRelationship",
      "outputs": [
        {
          "components": [
            {
              "internalType": "uint256",
              "name": "id",
              "type": "uint256"
            },
            {
              "internalType": "address",
              "name": "supplier",
              "type": "address"
            },
            {
              "internalType": "address",
              "name": "buyer",
              "type": "address"
            },
            {
              "internalType": "uint256",
              "name": "productId",
              "type": "uint256"
            },
            {
              "internalType": "uint256",
              "name": "startDate",
              "type": "uint256"
            },
            {
              "internalType": "uint256",
              "name": "endDate",
              "type": "uint256"
            },
            {
              "internalType": "string",
              "name": "status",
              "type": "string"
            },
            {
              "components": [
                {
                  "internalType": "uint256",
                  "name": "step",
                  "type": "uint256"
                },
                {
                  "internalType": "uint256",
                  "name": "pricePerUnit",
                  "type": "uint256"
                },
                {
                  "internalType": "address",
                  "name": "requestFrom",
                  "type": "address"
                },
                {
                  "internalType": "uint256",
                  "name": "timestamp",
                  "type": "uint256"
                },
                {
                  "internalType": "uint256",
                  "name": "endDate",
                  "type": "uint256"
                }
              ],
              "internalType": "struct TrustFlow.NegotiationStep[]",
              "name": "negotiationHistory",
              "type": "tuple[]"
            },
            {
              "internalType": "bool",
              "name": "exists",
              "type": "bool"
            }
          ],
          "internalType": "struct TrustFlow.Relationship",
          "name": "",
          "type": "tuple"
        }
      ],
      "stateMutability": "view",
      "type": "function"
    },
    {
      "inputs": [
        {
          "internalType": "uint256",
          "name": "_listingId",
          "type": "uint256"
        }
      ],
      "name": "getSpotListing",
      "outputs": [
        {
          "components": [
            {
              "internalType": "uint256",
              "name": "id",
              "type": "uint256"
            },
            {
              "internalType": "uint256",
              "name": "productId",
              "type": "uint256"
            },
            {
              "internalType": "address",
              "name": "seller",
              "type": "address"
            },
            {
              "internalType": "uint256",
              "name": "quantityAvailable",
              "type": "uint256"
            },
            {
              "internalType": "uint256",
              "name": "pricePerUnit",
              "type": "uint256"
            },
            {
              "internalType": "uint256",
              "name": "listedDate",
              "type": "uint256"
            },
            {
              "internalType": "bool",
              "name": "isActive",
              "type": "bool"
            }
          ],
          "internalType": "struct TrustFlow.SpotListing",
          "name": "",
          "type": "tuple"
        }
      ],
      "stateMutability": "view",
      "type": "function"
    },
    {
      "inputs": [
        {
          "internalType": "uint256",
          "name": "_transactionId",
          "type": "uint256"
        }
      ],
      "name": "getTransaction",
      "outputs": [
        {
          "components": [
            {
              "internalType": "uint256",
              "name": "id",
              "type": "uint256"
            },
            {
              "internalType": "address",
              "name": "buyer",
              "type": "address"
            },
            {
              "internalType": "address",
              "name": "seller",
              "type": "address"
            },
            {
              "internalType": "uint256",
              "name": "productId",
              "type": "uint256"
            },
            {
              "internalType": "uint256",
              "name": "quantity",
              "type": "uint256"
            },
            {
              "internalType": "uint256",
              "name": "totalPrice",
              "type": "uint256"
            },
            {
              "internalType": "string",
              "name": "transactionType",
              "type": "string"
            },
            {
              "internalType": "uint256",
              "name": "timestamp",
              "type": "uint256"
            },
            {
              "internalType": "string",
              "name": "status",
              "type": "string"
            }
          ],
          "internalType": "struct TrustFlow.Transaction",
          "name": "",
          "type": "tuple"
        }
      ],
      "stateMutability": "view",
      "type": "function"
    },
    {
      "inputs": [
        {
          "internalType": "address",
          "name": "_userAddress",
          "type": "address"
        }
      ],
      "name": "getTransactionHistory",
      "outputs": [
        {
          "internalType": "uint256[]",
          "name": "",
          "type": "uint256[]"
        }
      ],
      "stateMutability": "view",
      "type": "function"
    },
    {
      "inputs": [
        {
          "internalType": "address",
          "name": "_address",
          "type": "address"
        }
      ],
      "name": "isCompanyRegistered",
      "outputs": [
        {
          "internalType": "bool",
          "name": "",
          "type": "bool"
        }
      ],
      "stateMutability": "view",
      "type": "function"
    },
    {
      "inputs": [
        {
          "internalType": "uint256",
          "name": "_productId",
          "type": "uint256"
        },
        {
          "internalType": "uint256",
          "name": "_quantity",
          "type": "uint256"
        },
        {
          "internalType": "uint256",
          "name": "_pricePerUnit",
          "type": "uint256"
        }
      ],
      "name": "listProductForSale",
      "outputs": [],
      "stateMutability": "nonpayable",
      "type": "function"
    },
    {
      "inputs": [
        {
          "internalType": "string",
          "name": "_name",
          "type": "string"
        },
        {
          "internalType": "string",
          "name": "_description",
          "type": "string"
        },
        {
          "internalType": "string",
          "name": "_imageHash",
          "type": "string"
        },
        {
          "internalType": "uint256",
          "name": "_quantityToProduce",
          "type": "uint256"
        },
        {
          "internalType": "uint256[]",
          "name": "_ingredientIds",
          "type": "uint256[]"
        },
        {
          "internalType": "uint256[]",
          "name": "_quantitiesNeeded",
          "type": "uint256[]"
        },
        {
          "internalType": "uint256",
          "name": "_pricePerUnit",
          "type": "uint256"
        }
      ],
      "name": "manufactureProduct",
      "outputs": [],
      "stateMutability": "nonpayable",
      "type": "function"
    },
    {
      "inputs": [
        {
          "internalType": "uint256",
          "name": "_relationshipId",
          "type": "uint256"
        },
        {
          "internalType": "uint256",
          "name": "_newPricePerUnit",
          "type": "uint256"
        },
        {
          "internalType": "uint256",
          "name": "_newEndDate",
          "type": "uint256"
        }
      ],
      "name": "negotiateRelationship",
      "outputs": [],
      "stateMutability": "nonpayable",
      "type": "function"
    },
    {
      "inputs": [],
      "name": "nextCompanyId",
      "outputs": [
        {
          "internalType": "uint256",
          "name": "",
          "type": "uint256"
        }
      ],
      "stateMutability": "view",
      "type": "function"
    },
    {
      "inputs": [],
      "name": "nextOrderId",
      "outputs": [
        {
          "internalType": "uint256",
          "name": "",
          "type": "uint256"
        }
      ],
      "stateMutability": "view",
      "type": "function"
    },
    {
      "inputs": [],
      "name": "nextProductId",
      "outputs": [
        {
          "internalType": "uint256",
          "name": "",
          "type": "uint256"
        }
      ],
      "stateMutability": "view",
      "type": "function"
    },
    {
      "inputs": [],
      "name": "nextRelationshipId",
      "outputs": [
        {
          "internalType": "uint256",
          "name": "",
          "type": "uint256"
        }
      ],
      "stateMutability": "view",
      "type": "function"
    },
    {
      "inputs": [],
      "name": "nextSpotListingId",
      "outputs": [
        {
          "internalType": "uint256",
          "name": "",
          "type": "uint256"
        }
      ],
      "stateMutability": "view",
      "type": "function"
    },
    {
      "inputs": [],
      "name": "nextTransactionId",
      "outputs": [
        {
          "internalType": "uint256",
          "name": "",
          "type": "uint256"
        }
      ],
      "stateMutability": "view",
      "type": "function"
    },
    {
      "inputs": [
        {
          "internalType": "uint256",
          "name": "",
          "type": "uint256"
        }
      ],
      "name": "orders",
      "outputs": [
        {
          "internalType": "uint256",
          "name": "id",
          "type": "uint256"
        },
        {
          "internalType": "address",
          "name": "buyer",
          "type": "address"
        },
        {
          "internalType": "address",
          "name": "seller",
          "type": "address"
        },
        {
          "internalType": "uint256",
          "name": "productId",
          "type": "uint256"
        },
        {
          "internalType": "uint256",
          "name": "quantity",
          "type": "uint256"
        },
        {
          "internalType": "uint256",
          "name": "unitPrice",
          "type": "uint256"
        },
        {
          "internalType": "uint256",
          "name": "totalPrice",
          "type": "uint256"
        },
        {
          "internalType": "string",
          "name": "orderType",
          "type": "string"
        },
        {
          "internalType": "string",
          "name": "status",
          "type": "string"
        },
        {
          "internalType": "uint256",
          "name": "createdAt",
          "type": "uint256"
        },
        {
          "internalType": "uint256",
          "name": "approvalDeadline",
          "type": "uint256"
        },
        {
          "internalType": "uint256",
          "name": "paymentDeadline",
          "type": "uint256"
        },
        {
          "internalType": "string",
          "name": "notes",
          "type": "string"
        },
        {
          "internalType": "bool",
          "name": "exists",
          "type": "bool"
        },
        {
          "internalType": "bool",
          "name": "isPartialTransfer",
          "type": "bool"
        },
        {
          "internalType": "uint256",
          "name": "originalProductId",
          "type": "uint256"
        },
        {
          "internalType": "uint256",
          "name": "listingId",
          "type": "uint256"
        }
      ],
      "stateMutability": "view",
      "type": "function"
    },
    {
      "inputs": [
        {
          "internalType": "uint256",
          "name": "_orderId",
          "type": "uint256"
        }
      ],
      "name": "payForOrder",
      "outputs": [],
      "stateMutability": "payable",
      "type": "function"
    },
    {
      "inputs": [
        {
          "internalType": "uint256",
          "name": "_relationshipId",
          "type": "uint256"
        },
        {
          "internalType": "uint256",
          "name": "_quantity",
          "type": "uint256"
        },
        {
          "internalType": "string",
          "name": "_notes",
          "type": "string"
        }
      ],
      "name": "placeOrder",
      "outputs": [],
      "stateMutability": "nonpayable",
      "type": "function"
    },
    {
      "inputs": [
        {
          "internalType": "uint256",
          "name": "_relationshipId",
          "type": "uint256"
        },
        {
          "internalType": "uint256",
          "name": "_quantity",
          "type": "uint256"
        }
      ],
      "name": "placeRelationshipOrder",
      "outputs": [],
      "stateMutability": "nonpayable",
      "type": "function"
    },
    {
      "inputs": [
        {
          "internalType": "uint256",
          "name": "",
          "type": "uint256"
        }
      ],
      "name": "products",
      "outputs": [
        {
          "internalType": "uint256",
          "name": "id",
          "type": "uint256"
        },
        {
          "internalType": "string",
          "name": "name",
          "type": "string"
        },
        {
          "internalType": "string",
          "name": "description",
          "type": "string"
        },
        {
          "internalType": "string",
          "name": "imageHash",
          "type": "string"
        },
        {
          "internalType": "bool",
          "name": "isManufactured",
          "type": "bool"
        },
        {
          "internalType": "address",
          "name": "originalCreator",
          "type": "address"
        },
        {
          "internalType": "uint256",
          "name": "quantity",
          "type": "uint256"
        },
        {
          "internalType": "uint256",
          "name": "pricePerUnit",
          "type": "uint256"
        },
        {
          "internalType": "address",
          "name": "currentOwner",
          "type": "address"
        },
        {
          "internalType": "uint256",
          "name": "createdTime",
          "type": "uint256"
        },
        {
          "internalType": "bool",
          "name": "exists",
          "type": "bool"
        }
      ],
      "stateMutability": "view",
      "type": "function"
    },
    {
      "inputs": [
        {
          "internalType": "string",
          "name": "_name",
          "type": "string"
        },
        {
          "internalType": "address",
          "name": "_address",
          "type": "address"
        }
      ],
      "name": "registerCompany",
      "outputs": [],
      "stateMutability": "nonpayable",
      "type": "function"
    },
    {
      "inputs": [
        {
          "internalType": "uint256",
          "name": "_orderId",
          "type": "uint256"
        },
        {
          "internalType": "string",
          "name": "_reason",
          "type": "string"
        }
      ],
      "name": "rejectOrder",
      "outputs": [],
      "stateMutability": "nonpayable",
      "type": "function"
    },
    {
      "inputs": [
        {
          "internalType": "uint256",
          "name": "_relationshipId",
          "type": "uint256"
        }
      ],
      "name": "rejectRelationship",
      "outputs": [],
      "stateMutability": "nonpayable",
      "type": "function"
    },
    {
      "inputs": [
        {
          "internalType": "uint256",
          "name": "",
          "type": "uint256"
        }
      ],
      "name": "relationships",
      "outputs": [
        {
          "internalType": "uint256",
          "name": "id",
          "type": "uint256"
        },
        {
          "internalType": "address",
          "name": "supplier",
          "type": "address"
        },
        {
          "internalType": "address",
          "name": "buyer",
          "type": "address"
        },
        {
          "internalType": "uint256",
          "name": "productId",
          "type": "uint256"
        },
        {
          "internalType": "uint256",
          "name": "startDate",
          "type": "uint256"
        },
        {
          "internalType": "uint256",
          "name": "endDate",
          "type": "uint256"
        },
        {
          "internalType": "string",
          "name": "status",
          "type": "string"
        },
        {
          "internalType": "bool",
          "name": "exists",
          "type": "bool"
        }
      ],
      "stateMutability": "view",
      "type": "function"
    },
    {
      "inputs": [
        {
          "internalType": "uint256",
          "name": "_listingId",
          "type": "uint256"
        }
      ],
      "name": "removeSpotListing",
      "outputs": [],
      "stateMutability": "nonpayable",
      "type": "function"
    },
    {
      "inputs": [
        {
          "internalType": "address",
          "name": "_supplier",
          "type": "address"
        },
        {
          "internalType": "address",
          "name": "_buyer",
          "type": "address"
        },
        {
          "internalType": "uint256",
          "name": "_productId",
          "type": "uint256"
        },
        {
          "internalType": "uint256",
          "name": "_pricePerUnit",
          "type": "uint256"
        },
        {
          "internalType": "uint256",
          "name": "_startDate",
          "type": "uint256"
        },
        {
          "internalType": "uint256",
          "name": "_endDate",
          "type": "uint256"
        }
      ],
      "name": "requestRelationship",
      "outputs": [],
      "stateMutability": "nonpayable",
      "type": "function"
    },
    {
      "inputs": [],
      "name": "seedTestData",
      "outputs": [],
      "stateMutability": "nonpayable",
      "type": "function"
    },
    {
      "inputs": [
        {
          "internalType": "uint256",
          "name": "",
          "type": "uint256"
        }
      ],
      "name": "spotListings",
      "outputs": [
        {
          "internalType": "uint256",
          "name": "id",
          "type": "uint256"
        },
        {
          "internalType": "uint256",
          "name": "productId",
          "type": "uint256"
        },
        {
          "internalType": "address",
          "name": "seller",
          "type": "address"
        },
        {
          "internalType": "uint256",
          "name": "quantityAvailable",
          "type": "uint256"
        },
        {
          "internalType": "uint256",
          "name": "pricePerUnit",
          "type": "uint256"
        },
        {
          "internalType": "uint256",
          "name": "listedDate",
          "type": "uint256"
        },
        {
          "internalType": "bool",
          "name": "isActive",
          "type": "bool"
        }
      ],
      "stateMutability": "view",
      "type": "function"
    },
    {
      "inputs": [
        {
          "internalType": "uint256",
          "name": "",
          "type": "uint256"
        }
      ],
      "name": "transactions",
      "outputs": [
        {
          "internalType": "uint256",
          "name": "id",
          "type": "uint256"
        },
        {
          "internalType": "address",
          "name": "buyer",
          "type": "address"
        },
        {
          "internalType": "address",
          "name": "seller",
          "type": "address"
        },
        {
          "internalType": "uint256",
          "name": "productId",
          "type": "uint256"
        },
        {
          "internalType": "uint256",
          "name": "quantity",
          "type": "uint256"
        },
        {
          "internalType": "uint256",
          "name": "totalPrice",
          "type": "uint256"
        },
        {
          "internalType": "string",
          "name": "transactionType",
          "type": "string"
        },
        {
          "internalType": "uint256",
          "name": "timestamp",
          "type": "uint256"
        },
        {
          "internalType": "string",
          "name": "status",
          "type": "string"
        }
      ],
      "stateMutability": "view",
      "type": "function"
    },
    {
      "inputs": [
        {
          "internalType": "uint256",
          "name": "_productId",
          "type": "uint256"
        },
        {
          "internalType": "address",
          "name": "_newOwner",
          "type": "address"
        },
        {
          "internalType": "uint256",
          "name": "_quantity",
          "type": "uint256"
        }
      ],
      "name": "transferProduct",
      "outputs": [],
      "stateMutability": "nonpayable",
      "type": "function"
    },
    {
      "inputs": [
        {
          "internalType": "string",
          "name": "_newName",
          "type": "string"
        },
        {
          "internalType": "address",
          "name": "_newAddress",
          "type": "address"
        }
      ],
      "name": "updateCompanyDetails",
      "outputs": [],
      "stateMutability": "nonpayable",
      "type": "function"
    },
    {
      "inputs": [
        {
          "internalType": "address",
          "name": "",
          "type": "address"
        },
        {
          "internalType": "uint256",
          "name": "",
          "type": "uint256"
        }
      ],
      "name": "userOrders",
      "outputs": [
        {
          "internalType": "uint256",
          "name": "",
          "type": "uint256"
        }
      ],
      "stateMutability": "view",
      "type": "function"
    },
    {
      "inputs": [
        {
          "internalType": "address",
          "name": "",
          "type": "address"
        },
        {
          "internalType": "uint256",
          "name": "",
          "type": "uint256"
        }
      ],
      "name": "userTransactions",
      "outputs": [
        {
          "internalType": "uint256",
          "name": "",
          "type": "uint256"
        }
      ],
      "stateMutability": "view",
      "type": "function"
    },
    {
      "inputs": [],
      "name": "viewAllActiveListings",
      "outputs": [
        {
          "internalType": "uint256[]",
          "name": "",
          "type": "uint256[]"
        }
      ],
      "stateMutability": "view",
      "type": "function"
    }
  ],
  "bytecode": "0x608080604052346033576001600a556001600b556001600c556001600d556001600e556001600f5561a68290816100398239f35b600080fdfe60a0604052600436101561001257600080fd5b60003560e01c80621978b9146186f557806304f1c5fa146186d65780630946e5de146186265780630fecef481461851e57806310f3055314617f105780631a481ecf14617b385780631bbe77d6146179965780631cf93677146178745780631f061794146172345780631f2bf469146171ba57806324a37576146170155780632a58b33014616ff75780632c95f83c14616e7a578063313aa18e14616e0c5780633227851b14616a3c578063322e41b51461686457806333ea3dc8146166e4578063355e6ce81461665b57806337a6acde1461618a5780633a875a4314615160578063408bf4c31461611b57806342c53c761461609f57806343acd106146160815780634877d74414615bf05780634de91a6314615bd257806351f2ea9e14615a7557806355a5b04f146154db57806356cbee911461544c57806356ea04a31461540757806362bc56e6146152d2578063785c63c7146151655780637a202cc1146151605780637acc0b20146150485780637d16d1cc14614f52578063849d827f14614de7578063856652e914614d9d578063872a84ea14614c405780638eb933a114614bca57806394aa271814614b1b578063988ce1fe14613faa5780639ac5508b146137625780639ace38c21461368f578063a85c38ef146134ec578063b842ec44146134a2578063b9cd180514613442578063b9db15b414613148578063bb23a31a14612ef4578063bd70baa814612977578063c332b842146118bb578063c589ee1f1461185b578063c922121a1461177b578063d09ef2411461140c578063d1fa4be21461128f578063d20cf0e814611218578063d7ca38f3146111fa578063d8d3c829146111dc578063d9c2dcee14610b15578063dcd50ae614610ae2578063dfe6b5d614610a70578063e0a2019314610848578063e32eca8d14610662578063e810f824146104d0578063ec35356e14610341578063f7dc795c146103235763fcdaeb64146102e657600080fd5b3461031e57602036600319011261031e5760043560065481101561031e5761030f602091618ce4565b90549060031b1c604051908152f35b600080fd5b3461031e57600036600319011261031e576020600d54604051908152f35b3461031e57600036600319011261031e57600e54600090818060015b8381106103a15750600019830192831161038b57608093604051938452602084015260408301526060820152f35b634e487b7160e01b600052601160045260246000fd5b80600052600460205260ff600e60406000200154166103c3575b60010161035d565b938460005260046020526103e76103ee600860406000200160405192838092618bee565b0382618a85565b602081519101206103fd618f44565b6020815191012014600014610420576104176001916193f8565b945b90506103bb565b93908160005260046020526103e7610445600860406000200160405192838092618bee565b60208151910120610454619a1e565b60208151910120146000146104745761046e6001916193f8565b91610419565b908060005260046020526103e7610498600860406000200160405192838092618bee565b602081519101206104a7619989565b60208151910120146104bc575b600190610419565b916104c86001916193f8565b9290506104b4565b3461031e57602036600319011261031e576001600160a01b036104f161896a565b168060005260096020526040600020906040518083602082955493848152019060005260206000209260005b81811061064957505061053292500383618a85565b61053c82516193a5565b91600090815b81518110156105fa5761055581836193e4565b516000908152600460205260409020600101546001600160a01b03168414806105b0575b610586575b600101610542565b916105a860019161059785856193e4565b516105a282896193e4565b526193f8565b92905061057e565b506105bb81836193e4565b5160005260046020526103e76105de600860406000200160405192838092618bee565b602081519101206105ed619a1e565b6020815191012014610579565b8483610605816193a5565b9160005b82811061062a576040516020808252819061062690820187618996565b0390f35b80610637600192846193e4565b5161064282876193e4565b5201610609565b845483526001948501948794506020909301920161051d565b3461031e576107a861067336618e95565b92909233600052600060205261069660ff60026040600020015460a01c16619407565b8260005260016020526106b360ff600b60406000200154166190df565b6000838152600160205260409020600901546106d9906001600160a01b03163314619a44565b6106e48415156194ef565b6106ef81151561953b565b82600052600160205261070c846007604060002001541015619beb565b6006600d546040519261071e84618a32565b81845260208401908682526040850133815260608601908982526080870192835260a087019342855260c088019560018752600052600360205260406000209751885551600188015560018060a01b03905116600287019060018060a01b031660018060a01b03198254161790555160038601555160048501555160058401555115159101619599565b600d5491600654600160401b8110156108325761082d936107d48260016107ed94016006556006618d15565b90919082549060031b91821b91600019901b1916179055565b7fc5381a6c42951b57ed48d67edef856a28eff1a2de3ad867d5f4544b9078beb376060600d549384936040519182523360208301526040820152a26193f8565b600d55005b634e487b7160e01b600052604160045260246000fd5b3461031e5761085636618e95565b82600052600260205261087360ff60086040600020015416618eaf565b82600052600260205260018060a01b036001604060002001541633148015610a4c575b61089f90618ef9565b8260005260026020526108e16103e76108c5600660406000200160405192838092618bee565b602081519101206108d4618f44565b6020815191012014618f69565b6108ec82151561953b565b42811115610a07578260005260026020526040600020916007830191825492610916841515618fc0565b600019840184811161038b5761092c9082619012565b50600201546001600160a01b031633146109a6576001840180941161038b5760008051602061a5cd8339815191529461098e6005926040519061096e82618a17565b878252866020830152336040830152426060830152856080830152619b59565b01556109a1604051928392339184618d5f565b0390a2005b60405162461bcd60e51b815260206004820152603360248201527f43616e6e6f74206e65676f7469617465207768656e20796f752061726520746860448201527265207265717565737446726f6d20706172747960681b6064820152608490fd5b60405162461bcd60e51b815260206004820152601e60248201527f456e642064617465206d75737420626520696e207468652066757475726500006044820152606490fd5b50600083815260026020819052604090912001546001600160a01b03163314610896565b3461031e57600036600319011261031e57600a54600019810190811161038b57600b5460001981019190821161038b57600c5460001981019290831161038b57600f54600019810190811161038b5760a093600654926040519485526020850152604084015260608301526080820152f35b3461031e57602036600319011261031e57610626610b0160043561a03a565b604051918291602083526020830190618996565b602036600319011261031e57600435806000526004602052610b4160ff600e604060002001541661926b565b6000818152600460205260409020600101546001600160a01b0316330361119757806000526004602052604060002090600080600d8401908154925b83811061115b575b50156111015760005b82811061107d575050506006820191825491610bac83341015619ff7565b6000808080600286019660018060a01b03885416828215611074575bf11561105f57835480341161103a575b50807fa4678e82fe7b97eb2133ead828ed5d14ebb0c83961617dc347b698964d070b66604086548151903382526020820152a260409060008051602061a60d8339815191528251610c298482618a85565b601181527014185e5b595b9d0818dbdb5c1b195d1959607a1b602082015282600052600460205283600020610c956001820191600d60018060a01b0384541691885192610c75846189e0565b428452610c8061971d565b6020850152868a850152606084015201619747565b548451918291610cb1916001600160a01b0390911690836199d3565b0390a260088201610ccb610cc58254618bb4565b82619045565b60126818dbdb5c1b195d195960ba1b019055600f5460018301805485546003860154600487015498548651959994976007810196909590946001600160a01b03908116941692610d1a866189fb565b8b865260208601948552888601938452606086019081526080860191825260a08601928352885193610d5785610d50818c618bee565b0386618a85565b60c0870194855260e0870195428752610d6e619989565b610100890190815260009e8f52600560208190529e8c90209851895590516001890180546001600160a01b03199081166001600160a01b0393841617909155925160028a018054909416911617909155905160038701559051600486015590519984019990995551805160068401916001600160401b03821161083257610dff82610df98554618bb4565b8561909a565b602090601f8311600114610fce579180610e2892600897969594600092610fc3575b5050619586565b90555b51600782015501955195865160018060401b03811161083257610e5881610e528454618bb4565b8461909a565b6020601f8211600114610f445791610e938260008051602061a48d83398151915297969593610f2c95610f349c600092610f39575050619586565b90555b85546001600160a01b031660009081526008602052849020600f54610eba916199b0565b86546001600160a01b031660009081526008602052849020600f54610ede916199b0565b54916060845194859460008051602061a5ed833981519152600080a2600f54975498546001600160a01b03998a16865290981660208501529683019690965293948594906060830190618bee565b0390a26193f8565b600f55005b015190508c80610e21565b601f1982169883600052816000209960005b818110610fab575092610f349a610f2c95936001938360008051602061a48d8339815191529b9a999710610f92575b505050811b019055610e96565b015160001960f88460031b161c191690558b8080610f85565b838301518c556001909b019a60209384019301610f56565b015190508d80610e21565b90601f1983169184600052816000209260005b81811061102257509160019391856008999897969410611009575b505050811b019055610e2b565b015160001960f88460031b161c191690558c8080610ffc565b92936020600181928786015181550195019301610fe1565b60008080611049819434619005565b81811561106b575b3390f11561105f5784610bd8565b6040513d6000823e3d90fd5b506108fc611051565b506108fc610bc8565b600161109d61108c83856196d4565b506103e76040518094819301618bee565b602081519101206110ac61971d565b60208151910120146110c057600101610b8e565b60405162461bcd60e51b815260206004820152601960248201527814185e5b595b9d08185b1c9958591e4818dbdb5c1b195d1959603a1b6044820152606490fd5b60405162461bcd60e51b815260206004820152602c60248201527f43616e6e6f7420706179206265666f7265207175616c69747920636865636b2060448201526b1a5cc818dbdb5c1b195d195960a21b6064820152608490fd5b600161116a61108c83866196d4565b602081519101206111796196f0565b602081519101201461118d57600101610b7d565b5050600185610b85565b60405162461bcd60e51b815260206004820152601d60248201527f4f6e6c792062757965722063616e2070617920666f72206f72646572730000006044820152606490fd5b3461031e57600036600319011261031e576020600a54604051908152f35b3461031e57600036600319011261031e576020600f54604051908152f35b3461031e57602036600319011261031e576001600160a01b0361123961896a565b166000526008602052604060002060405190816020825491828152019160005260206000209060005b8181106112795761062685610b0181870382618a85565b8254845260209093019260019283019201611262565b3461031e57602036600319011261031e576001600160a01b036112b061896a565b168060005260096020526040600020906040518083602082955493848152019060005260206000209260005b8181106113f35750506112f192500383618a85565b6112fb82516193a5565b91600090815b81518110156113a85761131481836193e4565b516000908152600460205260409020600201546001600160a01b031684148061135e575b611345575b600101611301565b9161135660019161059785856193e4565b92905061133d565b5061136981836193e4565b5160005260046020526103e761138c600860406000200160405192838092618bee565b6020815191012061139b618f44565b6020815191012014611338565b84836113b3816193a5565b9160005b8281106113d4576040516020808252819061062690820187618996565b806113e1600192846193e4565b516113ec82876193e4565b52016113b7565b84548352600194850194879450602090930192016112dc565b3461031e57602036600319011261031e57600435600061022060405161143181618a69565b8281528260208201528260408201528260608201528260808201528260a08201528260c0820152606060e08201526060610100820152826101208201528261014082015282610160820152606061018082015260606101a0820152826101c0820152826101e082015282610200820152015280600052600460205260ff600e6040600020015416156117445760005260046020526040600020604051906114d782618a69565b8054825260018101546001600160a01b0390811660208401526002820154166040808401919091526003820154606084015260048201546080840152600582015460a0840152600682015460c084015251611539816103e78160078601618bee565b60e0830152604051611552816103e78160088601618bee565b6101008301526009810154610120830152600a810154610140830152600b81015461016083015260405161158d816103e781600c8601618bee565b61018083015260106115a1600d8301619307565b916101a0840192835260ff600e82015481811615156101c087015260081c1615156101e0850152600f810154610200850152015461022083015260405190602082528251602083015260018060a01b03602084015116604083015260018060a01b03604084015116606083015260608301516080830152608083015160a083015260a083015160c083015260c083015160e08301526116ac61167061165860e08601516102406101008701526102608601906188fd565b610100860151858203601f19016101208701526188fd565b610120850151610140850152610140850151610160850152610160850151610180850152610180850151601f19858303016101a08601526188fd565b905190601f19838203016101c0840152815180825260208201916020808360051b8301019401926000915b838310611717578680876102208b6101c081015115156101e08501526101e081015115156102008501526102008101518285015201516102408301520390f35b9091929394602080611735600193601f198682030187528951618922565b970193019301919392906116d7565b60405162461bcd60e51b815260206004820152600f60248201526e13dc99195c881b9bdd08199bdd5b99608a1b6044820152606490fd5b3461031e57602036600319011261031e576004356000606060405161179f816189e0565b82815281602082015281604082015201528060005260046020526117cd60ff600e604060002001541661926b565b6000526004602052600d6040600020018054801561181b57600019810190811161038b5761180161180791610626936196d4565b506192ae565b604051918291602083526020830190618922565b60405162461bcd60e51b8152602060048201526018602482015277139bc819195b1a5d995c9e48195d995b9d1cc8199bdd5b9960421b6044820152606490fd5b3461031e57602036600319011261031e5760043580600052600160205261188c60ff600b60406000200154166190df565b60005260016020526106266118a76004604060002001619f74565b604051918291602083526020830190618e35565b3461031e57600036600319011261031e576040516118d8816189e0565b6001815260409081516118eb8382618a85565b601381527254656368436f727020496e647573747269657360681b6020820152602082019081528282019160008051602061a5ad833981519152835260608101916001835260008051602061a5ad8339815191526000526000602052846000209151825560018201905180519060018060401b0382116108325761197382610df98554618bb4565b602090601f831160011461290c57918061199a926002969594600092612896575050619586565b90555b92519201805491516001600160a81b03199092166001600160a01b03939093169290921790151560a01b60ff60a01b1617905580516119db816189e0565b6002815281516119eb8382618a85565b601581527410dbdb5c1bdb995b9d14dd5c1c1b1a595c88131d19605a1b6020820152602082019081528282019160008051602061a4ed833981519152835260608101916001835260008051602061a4ed8339815191526000526000602052846000209151825560018201905180519060018060401b03821161083257611a7582610df98554618bb4565b602090601f83116001146128a1579180611a9c926002969594600092612896575050619586565b90555b92519201805491516001600160a81b03199092166001600160a01b03939093169290921790151560a01b60ff60a01b16179055600754600160401b81101561083257806001611af392016007556007618d15565b81546001600160a01b0360039290921b91821b191660008051602061a5ad83398151915290911b179055600754600160401b81101561083257806001611b3e92016007556007618d15565b81546001600160a01b03600392831b90811b1990911660008051602061a4ed83398151915290911b17909155600a55600160008181526020829052828120829055829020018054611b9290610cc590618bb4565b6022700496e74656c20693720435055204368697607c1b0190556001600052600160205260028160002001611bc78154618bb4565b601f8111612871575b506069815560005273736f72206368697020666f72206c6170746f707360601b600160206000207f486967682d706572666f726d616e636520496e74656c2069372070726f636573815501556001600052600160205260038160002001611c40611c3a8254618bb4565b8261906f565b60778155600090815260208082207f6261666b726569616e6f3333726c616137646c35616333727477746766787a6981557a7a73756473786c677369626e6b65666c64737378786b737972716160281b60019182015580835290819052828220606460079190910155828220670429d069189e00006008919091015582822060090180546001600160a01b03191660008051602061a4ed83398151915217905582822042600a9190910155828220600b01805460ff19908116909217905582822060059081018054909216909155828220018054610100600160a81b0319167470997970c51812dc3a010c7d01b50e0d17dc79c800179055819020611d47906006016195cf565b60026000526001602052600281600020556002600052600160205260018160002001611d738154618bb4565b601f811161284f575b5060247111d85b5a5b99c8135bdd1a195c989bd85c9960721b0190556002600052600160205260028160002001611db38154618bb4565b601f811161282a575b50606781556000527207570706f727420616e64205043496520352e3606c1b600160206000207f486967682d656e64206d6f74686572626f617264207769746820444452352073815501556002600052600160205260038160002001611e25611c3a8254618bb4565b607781556000908152602080822060008051602061a62d833981519152815560008051602061a50d83398151915260019182015560028352908190528282206050600791909101558282206702c68af0bb1400006008919091015582822060090180546001600160a01b03191660008051602061a4ed83398151915217905582822042600a9190910155828220600b01805460ff19908116909217905582822060059081018054909216909155828220018054610100600160a81b0319167470997970c51812dc3a010c7d01b50e0d17dc79c800179055819020611f0b906006016195cf565b60036000526001602052600381600020556003600052600160205260018160002001611f378154618bb4565b601f8111612808575b50602672135958da185b9a58d85b0812d95e589bd85c99606a1b0190556003600052600160205260028160002001611f788154618bb4565b601f81116127e3575b50605f81556000526e727279204d5820737769746368657360881b600160206000207f524742206d656368616e6963616c206b6579626f617264207769746820436865815501556003600052600160205260038160002001611fe6611c3a8254618bb4565b607781556000908152602080822060008051602061a62d833981519152815560008051602061a50d833981519152600191820155600383529081905282822060966007919091015582822066b1a2bc2ec500006008919091015582822060090180546001600160a01b03191660008051602061a4ed83398151915217905582822042600a9190910155828220600b01805460ff19908116909217905582822060059081018054909216909155828220018054610100600160a81b0319167470997970c51812dc3a010c7d01b50e0d17dc79c8001790558190206120cb906006016195cf565b600460005260016020526004816000205560046000526001602052600181600020016120fa610cc58254618bb4565b60227047616d696e67204c6170746f702050726f60781b019055600460005260016020526002816000200161212f8154618bb4565b601f81116127be575b5060718155600052772066726f6d207072656d69756d20636f6d706f6e656e747360401b600160206000207f486967682d656e642067616d696e67206c6170746f7020617373656d626c65648155015560046000526001602052600381600020016121a6611c3a8254618bb4565b607781556000908152602080822060008051602061a62d833981519152815560008051602061a50d8339815191526001918201556004835290819052828220600a6007919091018190558383206714d1120d7b1600006008919091015583832060090180546001600160a01b03191660008051602061a5ad83398151915217905583832042910155828220600b01805460ff199081168317909155838320600590810180549092169092179055828220018054610100600160a81b03191674f39fd6e51aad88f6f4ce6ab8827279cfffb92266001790558190206006018054600160401b811015610832576122a091600182018155618d15565b81546001600160a01b0360039290921b91821b191660008051602061a5ad83398151915290911b1790556004600081815260016020528290200142610e0f19810190811161038b576123246123b5928451906122fb826189e0565b600182526002602083015260008051602061a4ed83398151915286830152836060830152619f0e565b6004600052600160205260048360002001612370600091855190612347826189e0565b600282526001602083015260008051602061a4ed83398151915287830152846060830152619f0e565b600481526001602052600484822001905083519161238d836189e0565b600383526001602084015260008051602061a4ed833981519152858401526060830152619f0e565b6005600b556001600081815260026020819052838220839055838220830180546001600160a01b031990811660008051602061a4ed83398151915217909155848320909101805490911660008051602061a5ad833981519152179055828120600301919091558190204260049190910181905562ed4e0081019190821061038b576126f99060016000526002602052826005826000200155600160005260026020526006816000200161246b610cc58254618bb4565b6010671858d8d95c1d195960c21b019055600160008181526002602052828120600801805460ff1916909217909155818120825191946124e89291600701906124b383618a17565b600183526703e2c284391c0000602084015260008051602061a4ed833981519152858401524260608401526080830152619b59565b6002600c5561259d81516124fb81618a32565b600181526006602082016002815284830160008051602061a4ed83398151915281526060840160148152608085019067027f7d0bdb920000825260a086019242845260c08701946001865260018c526003602052898c209751885551600188015560018060a01b03905116600287019060018060a01b031660018060a01b03198254161790555160038601555160048501555160058401555115159101619599565b61264c81516125ab81618a32565b600281526006602082016003815284830160008051602061a4ed833981519152815260608401603281526080850190669fdf42f6e48000825260a086019242845260c08701946001865260028c526003602052898c209751885551600188015560018060a01b03905116600287019060018060a01b031660018060a01b03198254161790555160038601555160048501555160058401555115159101619599565b600681519161265a83618a32565b60038352602083016004815281840160008051602061a5ad83398151915281526060850160038152608086019167136dcc951d8c0000835260a087019342855260c08801956001875260038b5260036020528a209751885551600188015560018060a01b03905116600287019060018060a01b031660018060a01b03198254161790555160038601555160048501555160058401555115159101619599565b600654600160401b8110156127aa5780600161271a92016006556006618d15565b815460001960039290921b91821b1916600190911b179055600654600160401b8110156127aa5780600161275392016006556006618d15565b815460001960039290921b91821b1916600290911b179055600654600160401b8110156127aa5780600161278c92016006556006618d15565b81549060031b906003821b91600019901b19161790556004600d5580f35b634e487b7160e01b82526041600452602482fd5b6127dd90826000526002601f6020600020920160051c8201910161902e565b82612138565b61280290826000526002601f6020600020920160051c8201910161902e565b82611f81565b6128249082600052601f6020600020910160051c81019061902e565b82611f40565b61284990826000526002601f6020600020920160051c8201910161902e565b82611dbc565b61286b9082600052601f6020600020910160051c81019061902e565b82611d7c565b61289090826000526002601f6020600020920160051c8201910161902e565b82611bd0565b015190508980610e21565b90601f1983169184600052816000209260005b8181106128f45750916001939185600298979694106128db575b505050811b019055611a9f565b015160001960f88460031b161c191690558880806128ce565b929360206001819287860151815501950193016128b4565b90601f1983169184600052816000209260005b81811061295f575091600193918560029897969410612946575b505050811b01905561199d565b015160001960f88460031b161c19169055888080612939565b9293602060018192878601518155019501930161291f565b612980366189ca565b903360005260006020526129a160ff60026040600020015460a01c16619407565b8060005260036020526129be60ff60066040600020015416619667565b6129c98215156194ef565b8060005260036020526129e6826003604060002001541015619beb565b600081815260036020526040902060020154612a0d906001600160a01b0316331415619c2f565b80600052600360205260406000209060048201548015612ede5780600019048411612e9e5783612a3c91619cba565b90612a4982341015619ff7565b60038301612a58858254619005565b80915515612e20575b600283019260008080808660018060a01b03895416828215612e17575bf11561105f57823411612de4575b6001612aa79101548560018060a01b0386541691339061a166565b600f548454604051929492906001600160a01b0316612ac5826189fb565b828252602082019033825260408301908152606083019687526080830189815260a0840190868252604098895193612afd8b86618a85565b60048552631cdc1bdd60e21b602086015260c0870194855260e0870195428752612b25619989565b61010089019081526000998a5260056020819052998d90209851895590516001890180546001600160a01b03199081166001600160a01b0393841617909155925160028a018054909416911617909155905160038701559051600486015590519484019490945551805160068401916001600160401b03821161083257612bb082610df98554618bb4565b602090601f8311600114612d78579180612bd892600897969594600092610fc3575050619586565b90555b5160078201559151805191909201916001600160401b03821161083257612c0682610df98554618bb4565b602090601f8311600114612ce557610f349860a0956060999895612c558660008051602061a48d8339815191529a9760008051602061a4cd833981519152978e97600092612cda575050619586565b90555b336000526008602052612c7186600020600f54906199b0565b600180881b038954166000526008602052612c9286600020600f54906199b0565b855191338352602083015285820152a2600f54948594600180851b0390541691805192338452602084015282015260046060820152631cdc1bdd60e21b6080820152a26193f8565b015190508f80610e21565b90601f1983169184600052816000209260005b818110612d60575095606099989560018660008051602061a4cd833981519152968d96610f349f9660008051602061a48d8339815191529d9a60a09d10612d47575b505050811b019055612c58565b015160001960f88460031b161c191690558e8080612d3a565b92936020600181928786015181550195019301612cf8565b90601f1983169184600052816000209260005b818110612dcc57509160019391856008999897969410612db3575b505050811b019055612bdb565b015160001960f88460031b161c191690558c8080612da6565b92936020600181928786015181550195019301612d8b565b6000808080612df38734619005565b818115612e0e575b3390f1612a8c576040513d6000823e3d90fd5b506108fc612dfb565b506108fc612a7e565b60068301805460ff19169055919060005b60065480821015612e955784612e4683618ce4565b90549060031b1c14612e5b5750600101612e31565b9293919260001981019190821161038b576107d4612e7b612e8893618ce4565b90549060031b1c91618ce4565b612e906196a8565b612a61565b50509091612a61565b60405162461bcd60e51b815260206004820152601860248201527750757263686173652076616c756520746f6f206c6172676560401b6044820152606490fd5b634e487b7160e01b600052601260045260246000fd5b3461031e57612f0236618d80565b90612f0f81511515619d4f565b6001600160a01b038216612f24811515619d92565b80600052600060205260ff60026040600020015460a01c1661310657600a5460405190612f50826189e0565b815260208101838152604082019183835260608101916001835284600052600060205260406000209151825560018201905180519060018060401b03821161083257612fa082610df98554618bb4565b602090601f831160011461309b579180612fc7926002969594600092613090575050619586565b90555b92519201805491516001600160a81b03199092166001600160a01b03939093169290921790151560a01b60ff60a01b16179055600754600160401b8110156108325761308b9361302582600161304994016007556007618d15565b9080546001600160a01b0360039390931b83811b199091169290931690921b179055565b7f3f9267152d801902ccbd0de944e3020e6cfe19ec1c3f0060f45bea24716dc451610f2c600a54936040519182918683526040602084015260408301906188fd565b600a55005b015190508b80610e21565b90601f1983169184600052816000209260005b8181106130ee5750916001939185600298979694106130d5575b505050811b019055612fca565b015160001960f88460031b161c191690558a80806130c8565b929360206001819287860151815501950193016130ae565b60405162461bcd60e51b815260206004820152601a60248201527910dbdb5c185b9e48185b1c9958591e481c9959da5cdd195c995960321b6044820152606490fd5b3461031e57602036600319011261031e57600435600061018060405161316d81618a4d565b8281526060602082015260606040820152606080820152606060808201528260a08201528260c0820152606060e082015282610100820152826101208201528261014082015282610160820152015280600052600160205260ff600b60406000200154161561340957600052600160205260406000206040516131ef81618a4d565b81548152604051806132048160018601618bee565b0361320f9082618a85565b6020820190815260405190816132288160028701618bee565b036132339083618a85565b604083810192835251938461324b8160038401618bee565b036132569086618a85565b6060840194855261326960048201619f74565b926080850193845260058201549560a086019660ff81161515885260c0870190600160a01b600190039060081c168152600684016132a690619124565b9060e0880191825260078501549661010089019788526008860154936101208a01948552600160a01b60019003600988015416956101408b01968752600a880154976101608c01988952600b015460ff16986101808c019915158a526040519b60208d525160208d01525160408c016101a090526101c08c01613328916188fd565b90518b8203601f190160608d015261334091906188fd565b90518a8203601f190160808c015261335891906188fd565b9051898203601f190160a08b01526133709190618e35565b9851151560c0890152516001600160a01b031660e088015251868803601f190161010088015280518089526000986020908101979201905b808a106133e65750505161012087015251610140860152516001600160a01b0316610160850152516101808401525115156101a08301528190039150f35b81516001600160a01b0316885260019990990198602097880197909101906133a8565b60405162461bcd60e51b8152602060048201526011602482015270141c9bd91d58dd081b9bdd08199bdd5b99607a1b6044820152606490fd5b3461031e57602036600319011261031e5760043580600052600260205261347360ff60086040600020015416618eaf565b600052600260205261062661348e6007604060002001619acc565b604051918291602083526020830190618b4e565b3461031e57604036600319011261031e576134bb61896a565b6001600160a01b031660009081526008602052604090208054602435919082101561031e5760209161030f91618d15565b3461031e57602036600319011261031e57600435600052600460205260406000208054600160a01b600190036001830154169180600160a01b6001900360028201541660038201549060048301549160058401546006850154604051908180600789019061355991618bee565b036135649083618a85565b60405192836135768160088b01618bee565b036135819085618a85565b600988015496600a89015495600b8a01549760405180600c819d01906135a691618bee565b036135b1908c618a85565b600e8c01549d600f8d01549c601001549d604051608052608051526080516020015260805160400152608051606001526080516080015260805160a0015260805160c0015260805160e001610220905260805161022001613611916188fd565b60805181036080516101000152613627916188fd565b9260805161012001526080516101400152608051610160015260805181036080516101800152613656916188fd565b9260ff811615156080516101a0015260081c60ff1615156080516101c001526080516101e0015260805161020001526080519003608051f35b3461031e57602036600319011261031e5760043560005260056020526040600020805461062660018060a01b0360018401541692600861374e60018060a01b0360028401541660038401546004850154600586015491604051936136fa85610d508160068c01618bee565b61371a600789015498613713604051809a819301618bee565b0388618a85565b6040519a8b9a8b5260208b015260408a01526060890152608088015260a087015261012060c08701526101208601906188fd565b9160e08501528382036101008501526188fd565b3461031e5760e036600319011261031e576004356001600160401b03811161031e57613792903690600401618aa8565b6024356001600160401b03811161031e576137b1903690600401618aa8565b906044356001600160401b03811161031e576137d1903690600401618aa8565b91606435906084356001600160401b03811161031e576137f5903690600401618dd8565b9060a4356001600160401b03811161031e57613815903690600401618dd8565b9360c43533600052600060205261383960ff60026040600020015460a01c16619407565b6138458251151561944c565b61385183511515619497565b61385c8515156194ef565b61386781151561953b565b835115613f5b578351865103613f015760005b8451811015613a4e5761388d81866193e4565b51600052600160205260ff600b6040600020015416156139ff576138b181866193e4565b5160005260016020523360018060a01b0360096040600020015416036139ba576138db81866193e4565b516000526001602052600760406000200154613901876138fb848b6193e4565b51619cba565b116139765761391081886193e4565b511561391e5760010161387a565b60405162461bcd60e51b815260206004820152602a60248201527f496e6772656469656e74207175616e74697479206d75737420626520677265616044820152690746572207468616e20360b41b6064820152608490fd5b606460405162461bcd60e51b815260206004820152602060248201527f496e73756666696369656e7420696e6772656469656e74207175616e746974796044820152fd5b60405162461bcd60e51b815260206004820152601d60248201527f596f7520646f6e2774206f776e207468697320696e6772656469656e740000006044820152606490fd5b60405162461bcd60e51b815260206004820152602160248201527f496e6772656469656e742070726f6475637420646f6573206e6f7420657869736044820152601d60fa1b6064820152608490fd5b508694929460005b8551811015613ad85780613a70866138fb6001948c6193e4565b613a7a82896193e4565b51600052826020526007604060002001613a95828254619005565b90557f60dbca619ae4e83fcd69533b72e2502296c44b0d2190b6106048cbbe0fd5ee5f6040613ac4848b6193e4565b51928151908152336020820152a201613a56565b50600b5460008181526001602081905260409091209182558451949793949293929101906001600160401b03811161083257613b1881610e528454618bb4565b6020601f8211600114613e9b579080613b3992600091613e90575b50619586565b90555b600b54600052600160205260026040600020019080519060018060401b03821161083257613b6e82610df98554618bb4565b602090601f8311600114613e2957613b90929160009183613e1e575050619586565b90555b600b54600052600160205260036040600020019080519060018060401b03821161083257613bc582610df98554618bb4565b602090601f8311600114613db757613be7929160009183612896575050619586565b90555b600b8054600090815260016020819052604080832060070186905583548352808320600801949094558254825283822060090180546001600160a01b031916339081179091558354835284832042600a9190910155835483528483208401805460ff1990811684179091558454845285842060059081018054909216909317905592548252929020613c7c92016195aa565b600b546000526001602052613c98336006604060002001619618565b60005b8251811015613cfe57600190600b5460005281602052613cf86004604060002001613cc683876193e4565b5190613cd2848a6193e4565b5160405192613ce0846189e0565b83526020830152336040830152426060830152619f0e565b01613c9b565b507f1e58a7ce9ae3cc9a3a5306b5b0635a56337fafa4f2cb8d8779a1e6f8cbf37767602060008051602061a52d83398151915293613db2957f315ad08c7b8ebe955384c76ef6079ff89d54da1c53dc05a5a1a06cf9393abc76613d9c89600b54809981998296613d7560405192839233908461963b565b0390a260405191829160608352613d8f6060840188618996565b9083820389850152618996565b3360408301520390a251604051908152a26193f8565b600b55005b90601f1983169184600052816000209260005b818110613e065750908460019594939210613ded575b505050811b019055613bea565b015160001960f88460031b161c19169055888080613de0565b92936020600181928786015181550195019301613dca565b015190508a80610e21565b90601f1983169184600052816000209260005b818110613e785750908460019594939210613e5f575b505050811b019055613b93565b015160001960f88460031b161c19169055898080613e52565b92936020600181928786015181550195019301613e3c565b90508901518b613b33565b601f1982169083600052806000209160005b8b828210613ee95750509083600194939210613ed0575b5050811b019055613b3c565b8a015160001960f88460031b161c191690558a80613ec4565b60018495602093958493015181550194019201613ead565b60405162461bcd60e51b815260206004820152602c60248201527f496e6772656469656e747320616e64207175616e74697469657320617272617960448201526b0e640daeae6e840dac2e8c6d60a31b6064820152608490fd5b60405162461bcd60e51b815260206004820152602160248201527f4d7573742068617665206174206c65617374206f6e6520696e6772656469656e6044820152601d60fa1b6064820152608490fd5b3461031e57613fb836618afe565b826000526004602052613fd560ff600e604060002001541661926b565b82600052600460205260018060a01b036001604060002001541633148015614af8575b61400190619a84565b815115614aba57805115614a775782600052600460205260406000209060209160405161402e8482618a85565b60008152600d8201805480151590816149f0575b50865192868801938420614054619a1e565b80519089012003614770575061472c57604051614078816103e78160088801618bee565b858151910120614086618f44565b868151910120036146ef575b8551822061409e619a1e565b8681519101201480156146d6575b80156146bd575b614658575b855182206140c4619e19565b86815191012014801561463f575b6145e6575b855182206140e361971d565b8681519101201461457d57604051614117916140fe826189e0565b4282528787830152856040830152336060830152619747565b84519020614123619a1e565b84815191012014614174575b509161416961415c9260008051602061a60d833981519152946040519485946060865260608601906188fd565b91848303908501526188fd565b3360408301520390a2005b60088101614185610cc58254618bb4565b601067185c1c1c9bdd995960c21b01905562093a80420180421161038b57600b820155600381018054600052600184526040600020906007820191825492600485019384549081811061453857818103614379575050506001840180546009830180546001600160a01b0319166001600160a01b0392831617905590548995949392614218929190911690600601619618565b600e8301805461ff001916905554600f8301555b604051614240816103e78160078701618bee565b85815191012091604092600b8785516142598782618a85565b828152016a6d61726b6574706c61636560a81b815220146142b0575b50509260008051602061a60d83398151915294926141699260008051602061a56d8339815191528361415c9751338152a2929450925061412f565b60109192935001546000526003845281600020906003820190815490549081811061433557866141699561415c989560008051602061a60d8339815191529a989561430b8d9660008051602061a56d83398151915296619005565b80915515614324575b5094509650509281949650614275565b600601805460ff191690558b614314565b845162461bcd60e51b815260048101889052601d60248201527f496e73756666696369656e74206c697374696e67207175616e746974790000006044820152606490fd5b9061438c919a9795939a99969499619005565b9055600e820161010061ff00198254161790558654600f830155600b54806000526001875280604060002055600052600186526143d3600189016001604060002001619e40565b600b54600052600186526143f1600289016002604060002001619e40565b600b546000526001865261440f600389016003604060002001619e40565b8054600b54600052600187526007604060002001556005820154600b5460005260018752600860406000200155600182019660018060a01b03885416600b546000526001885260096040600020019060018060a01b031660018060a01b0319825416179055600b546000526001875242600a60406000200155600b5460005260018752600b604060002001600160ff19825416179055600660009901985b89548110156144f257600190600b546000528189526144ec8b6144d883600660406000200192618d15565b858060a01b0391549060031b1c1690619618565b016144ad565b50859850614525614530929394969598600b546000526001895260066040600020019060018060a01b0390541690619618565b600b548091556193f8565b600b5561422c565b60405162461bcd60e51b8152600481018a9052601d60248201527f496e73756666696369656e742070726f64756374207175616e746974790000006044820152606490fd5b60405162461bcd60e51b815260048101869052603b60248201527f7061796d656e745f73656e742063616e206f6e6c79206265206164646564207460448201527a343937bab3b4103830bca337b927b93232b910333ab731ba34b7b760291b6064820152608490fd5b60018301546001600160a01b031633146140d75760405162461bcd60e51b815260048101869052601f60248201527f4f6e6c792062757965722063616e20616464206275796572206576656e7473006044820152606490fd5b508551822061464c6196f0565b868151910120146140d2565b60028301546001600160a01b031633146140b85760405162461bcd60e51b815260048101869052602360248201527f4f6e6c792073656c6c65722063616e2061646420737570706c696572206576656044820152626e747360e81b6064820152608490fd5b50855182206146ca619df4565b868151910120146140b3565b50855182206146e3619dd0565b868151910120146140ac565b60405162461bcd60e51b81526004810186905260156024820152744f72646572206d7573742062652070656e64696e6760581b6044820152606490fd5b60405162461bcd60e51b815260048101869052601c60248201527b105c1c1c9bdd9959081b5d5cdd08189948199a5c9cdd08195d995b9d60221b6044820152606490fd5b90508651832061477e619dd0565b805190880120036147ed57858151910120614797619a1e565b868151910120036147a8575b614092565b60405162461bcd60e51b815260048101869052601f60248201527f4d75737420626520617070726f766564206265666f7265207061636b696e67006044820152606490fd5b865183206147f9619df4565b8051908801200361486257858151910120614812619dd0565b805190870120146140925760405162461bcd60e51b815260048101869052601e60248201527f4d757374206265207061636b6564206265666f7265207368697070696e6700006044820152606490fd5b8651832061486e619e19565b805190880120036148d757858151910120614887619df4565b805190870120146140925760405162461bcd60e51b815260048101869052601f60248201527f4d7573742062652073686970706564206265666f72652064656c6976657279006044820152606490fd5b865183206148e36196f0565b8051908801200361495b578581519101206148fc619e19565b868151910120146147a35760405162461bcd60e51b815260048101869052602660248201527f4d7573742062652064656c697665726564206265666f7265207175616c69747960448201526520636865636b60d01b6064820152608490fd5b8651832061496761971d565b87815191012014614979575b50614092565b8581519101206149876196f0565b868151910120036149985787614973565b60405162461bcd60e51b815260048101869052602a60248201527f4d75737420636f6d706c657465207175616c69747920636865636b206265666f6044820152691c99481c185e5b595b9d60b21b6064820152608490fd5b60001981019350831161038b57614a24614a0c600194846196d4565b50614a1d6040518096819301618bee565b0384618a85565b82518684012087518888012014614a3b5788614042565b60405162461bcd60e51b81526004810187905260146024820152734576656e7420616c72656164792065786973747360601b6044820152606490fd5b60405162461bcd60e51b815260206004820152601b60248201527a4465736372697074696f6e2063616e6e6f7420626520656d70747960281b6044820152606490fd5b60405162461bcd60e51b81526020600482015260166024820152755374617475732063616e6e6f7420626520656d70747960501b6044820152606490fd5b506000838152600460205260409020600201546001600160a01b03163314613ff8565b3461031e57602036600319011261031e5760043560005260026020526040600020805460018060a01b0360018301541691614bbe60018060a01b03600283015416916003810154600482015460058301549160ff600860405195614b86876137138160068501618bee565b015416956040519889988952602089015260408801526060870152608086015260a085015261010060c08501526101008401906188fd565b90151560e08301520390f35b3461031e57600036600319011261031e5760405160068054808352600091825260208301917ff652222313e28459528d920b65115c16c04f3efc82aaedc97be59f3f377c0d3f91905b818110614c2a5761062685610b0181870382618a85565b8254845260209093019260019283019201614c13565b3461031e57602036600319011261031e57614c5961896a565b600c5490614c66826193a5565b9160009160015b828110614cc057505050614c80816193a5565b9160005b828110614ca1576040516020808252819061062690820187618996565b80614cae600192846193e4565b51614cb982876193e4565b5201614c84565b80600052600260205260ff6008604060002001541680614d48575b80614d08575b614cee575b600101614c6d565b92614d0081856105a2600194896193e4565b939050614ce6565b508060005260026020526103e7614d2c600660406000200160405192838092618bee565b60208151910120614d3b619d29565b6020815191012014614ce1565b506000818152600260205260409020600101546001600160a01b0383811691168114908115614d78575b50614cdb565b600083815260026020819052604090912001546001600160a01b031614905086614d72565b3461031e57604036600319011261031e57614db661896a565b6001600160a01b031660009081526009602052604090208054602435919082101561031e5760209161030f91618d15565b3461031e57614df536618d80565b336000526000602052614e1560ff60026040600020015460a01c16619407565b614e2182511515619d4f565b6001600160a01b0316614e35811515619d92565b33600052600060205260406000209160018301815160018060401b03811161083257614e6581610e528454618bb4565b6020601f8211600114614eda5791614e998260008051602061a46d833981519152969793600295600091614ecf5750619586565b90555b0180546001600160a01b031916841790556040805181815291614ec1918301906188fd565b9260208201528033930390a2005b905086015189613b33565b601f1982169083600052806000209160005b818110614f3a575092600294926001928260008051602061a46d833981519152999a9610614f21575b5050811b019055614e9c565b87015160001960f88460031b161c191690558880614f15565b9192602060018192868a015181550194019201614eec565b3461031e57602036600319011261031e57600060c0604051614f7381618a32565b8281528260208201528260408201528260608201528260808201528260a08201520152600435600052600360205260e06040600020604051614fb481618a32565b81549182825260018101546020830190815260018060a01b0360028301541660408401908152600383015490606085019182526004840154926080860193845260c060ff600660058801549760a08a019889520154169601951515865260405196875251602087015260018060a01b0390511660408601525160608501525160808401525160a083015251151560c0820152f35b3461031e57602036600319011261031e57600435600052600160205260206040600020805490604051615082816103e78160018601618bee565b6040519161509783614a1d8160028501618bee565b604051926150b3846150ac8160038601618bee565b0385618a85565b600582015493600783015461511f60088501549261511160018060a01b036009880154169561510360ff600b600a8b01549a015416996101606040519e8f9e8f90815201526101608d01906188fd565b908b820360408d01526188fd565b9089820360608b01526188fd565b60ff87161515608089015260089690961c6001600160a01b031660a088015260c087015260e086015261010085015261012084015215156101408301520390f35b618c71565b3461031e57604036600319011261031e5761517e61896a565b6024356001600160401b03811161031e5761519d903690600401618aa8565b9060018060a01b031660005260096020526040600020906040518083602082955493848152019060005260206000209260005b8181106152b95750506151e592500383618a85565b6151ef82516193a5565b91600090819260208101935b825181101561526e5761520e81846193e4565b5160005260046020526103e7615231600860406000200160405192838092618bee565b60208151910120825186201461524a575b6001016151fb565b9261526660019161525b86866193e4565b516105a2828a6193e4565b939050615242565b8584615279816193a5565b9160005b82811061529a576040516020808252819061062690820187618996565b806152a7600192846193e4565b516152b282876193e4565b520161527d565b84548352600194850194879450602090930192016151d0565b3461031e57602036600319011261031e576152eb61896a565b600060606040516152fb816189e0565b828152816020820152826040820152015260018060a01b031680600052600060205260ff60026040600020015460a01c16156153ce576000526000602052604060002060405161534a816189e0565b81548152600260405192615365846150ac8160018501618bee565b602083019384520154604082019060018060a01b038116825260ff606084019160a01c16151581526153b260405194859460208652516020860152516080604086015260a08501906188fd565b91516001600160a01b0316606084015251151560808301520390f35b60405162461bcd60e51b815260206004820152601160248201527010dbdb5c185b9e481b9bdd08199bdd5b99607a1b6044820152606490fd5b3461031e57602036600319011261031e576001600160a01b0361542861896a565b166000526000602052602060ff60026040600020015460a01c166040519015158152f35b3461031e57602036600319011261031e5760043580600052600260205261547d60ff60086040600020015416618eaf565b60005260026020526007604060002001805461549a811515618fc0565b600019810190811161038b576154af91619012565b5060018101546004820154600290920154604051928392610626926001600160a01b0316919084618d5f565b3461031e576154e936618d2d565b9180600052600260205261550760ff60086040600020015416618eaf565b8060005260026020526103e761552a600660406000200160405192838092618bee565b60208151910120615539619d29565b6020815191012003615a3457600081815260026020819052604090912001546001600160a01b031633036159f1576155728215156194ef565b806000526002602052600460406000200154421015806159d6575b1561598e578060005260026020526003604060002001546000526001602052604060002060018060a01b0360098201541682600052600260205260018060a01b03600160406000200154160361594f578260076155ed9201541015619ccd565b600052600260205260406000209160078301805490600019820191821161038b5760019161561a91619012565b500154908115612ede576156348260001904841115619c76565b61563e8383619cba565b600e8054600081815260046020819052604080832093845560028a81018054600196870180546001600160a01b03199081166001600160a01b0393841617909155968d018054895488528588209094018054909816939091169290921790955560039a8b015486548552828520909b019a909a5584548352808320909101889055835482528082206005019690965582548152858120600601939093559054825292902060070180546156f490610cc590618bb4565b60186b072656c6174696f6e736869760a41b019055600e5460005260046020526008604060002001615729610cc58254618bb4565b600e6670656e64696e6760c81b019055600e546000526004602052426009604060002001556202a300420180421161038b57600e8054600090815260046020526040808220600a019390935581548152828120600b0181905590548152208151600c909101916001600160401b038211610832576157ab82610df98554618bb4565b602090601f83116001146158d257926157e48360c0946158cd999460008051602061a44d83398151915297600092613e1e575050619586565b90555b600e805460009081526004602090815260408083208401805460ff19166001179055835483528083208401805461ff001916905583548352808320600f018390558354835280832060100183905587546001600160a01b03168352600990915290209054615854916199b0565b80546001600160a01b03166000908152600960205260409020600e54615879916199b0565b600e5494859460018060a01b039054169160018060a01b039054166040519283526020830152604082015260806060820152600c60808201526b072656c6174696f6e736869760a41b60a0820152a26193f8565b600e55005b90601f1983169184600052816000209260005b8181106159375750936158cd989360008051602061a44d83398151915296936001938360c0981061591e575b505050811b0190556157e7565b015160001960f88460031b161c19169055898080615911565b929360206001819287860151815501950193016158e5565b60405162461bcd60e51b81526020600482015260248082015260008051602061a58d833981519152604482015263191d58dd60e21b6064820152608490fd5b60405162461bcd60e51b815260206004820152602c602482015260008051602061a4ad83398151915260448201526b6520666f72206f726465727360a01b6064820152608490fd5b5080600052600260205260056040600020015442111561558d565b60405162461bcd60e51b815260206004820152601b60248201527a4f6e6c792062757965722063616e20706c616365206f726465727360281b6044820152606490fd5b60405162461bcd60e51b815260206004820152601960248201527814995b185d1a5bdb9cda1a5c081b9bdd081858d8d95c1d1959603a1b6044820152606490fd5b3461031e57602036600319011261031e57615a8e61896a565b600c5490615a9b826193a5565b9160009160015b828110615af557505050615ab5816193a5565b9160005b828110615ad6576040516020808252819061062690820187618996565b80615ae3600192846193e4565b51615aee82876193e4565b5201615ab9565b80600052600260205260ff6008604060002001541680615b7d575b80615b3d575b615b23575b600101615aa2565b92615b3581856105a2600194896193e4565b939050615b1b565b508060005260026020526103e7615b61600660406000200160405192838092618bee565b60208151910120615b70618f44565b6020815191012014615b16565b506000818152600260205260409020600101546001600160a01b0383811691168114908115615bad575b50615b10565b600083815260026020819052604090912001546001600160a01b031614905086615ba7565b3461031e57600036600319011261031e576020600b54604051908152f35b3461031e57615bfe36618d2d565b91336000526000602052615c1f60ff60026040600020015460a01c16619407565b806000526003602052615c3c60ff60066040600020015416619667565b615c478215156194ef565b806000526003602052615c64826003604060002001541015619beb565b600081815260036020526040902060020154615c8b906001600160a01b0316331415619c2f565b80600052600360205260406000209060048201548015612ede57615cb58160001904851115619c76565b615cbf8482619cba565b90600184018054806000526001602052600260018060a01b036009604060002001541696019560018060a01b0387541603616031576000526001602052615d10866007604060002001541015619ccd565b600e80546000818152600460208190526040808320938455600190930180546001600160a01b0319908116331790915589548554845284842060020180549092166001600160a01b03919091161790559354835482528282206003015582548152818120909301889055815483528083206005019390935580548252828220600601939093559154825290206007018054615daa90618bb4565b601f811161600f575b5060166a6d61726b6574706c61636560a81b019055600e5460005260046020526008604060002001615de8610cc58254618bb4565b600e6670656e64696e6760c81b019055600e546000526004602052426009604060002001556202a300420180421161038b57600e546000526004602052600a60406000200155600e5460005260046020526000600b604082200155600e546000526004602052600c60406000200184519460018060401b03861161083257615e7486610e528454618bb4565b602090601f8711600114615fa5579580615e9a926158cd98600092615f9a575050619586565b90555b600e546000526004602052600e604060002001600160ff19825416179055600e546000526004602052600e60406000200161ff00198154169055600e5460005260046020526000600f604082200155600e546000526004602052601060406000200155336000526009602052615f1a6040600020600e54906199b0565b80546001600160a01b03166000908152600960205260409020600e54615f3f916199b0565b60008051602061a44d83398151915260c0600e5493849360018060a01b0390541690604051913383526020830152604082015260806060820152600b60808201526a6d61726b6574706c61636560a81b60a0820152a26193f8565b015190508880610e21565b90601f1987169183600052816000209260005b818110615ff757509160019391896158cd9a9410615fde575b505050811b019055615e9d565b015160001960f88460031b161c19169055878080615fd1565b92936020600181928786015181550195019301615fb8565b61602b9082600052601f6020600020910160051c81019061902e565b85615db3565b60405162461bcd60e51b815260206004820152602260248201527f53656c6c6572206e6f206c6f6e676572206f776e7320746869732070726f647560448201526118dd60f21b6064820152608490fd5b3461031e57600036600319011261031e576020600c54604051908152f35b3461031e57602036600319011261031e5760043560075481101561031e576000906007548110156161075760079091527fa66cc928b5edb82af9bd49922954155ab7b0942694bea4ce44661d9a8736c68801546040516001600160a01b039091168152602090f35b634e487b7160e01b82526032600452602482fd5b3461031e57600036600319011261031e576040516007548082526020820190600760005260206000209060005b81811061616b576106268561615f81870382618a85565b60405191829182618897565b82546001600160a01b0316845260209093019260019283019201616148565b3461031e5760c036600319011261031e576161a361896a565b6161ab618980565b90604435606435906084359160a435903360005260006020526161db60ff60026040600020015460a01c16619407565b60018060a01b0385169283600052600060205260ff60026040600020015460a01c1680616633575b156165ee5780600052600160205261622560ff600b60406000200154166190df565b33841494851586816165dc575b1561659a5786616529575b6001600160a01b038916968688146164d357906164ca575b156164795783811015616444576201517f19420142811161038b578111156163e4576163df976163af60008051602061a5cd833981519152966060967ff72a769a3b0806bed9141630b64fdca40f76ecb1d8f2727a60993091e20db7b8946163c39a6162c289151561953b565b604051936162cf85618a17565b600180865260208087018c905233604080890191909152428e89015260808801879052600c80546000818152600294859052838120918255940180546001600160a01b03199081169096179055805484528184209092018054909416909417909255815481528281206003018a9055815481528281206004019390935580548352818320600501939093559154815220600601805461637190610cc590618bb4565b600e6670656e64696e6760c81b019055600c8054600090815260026020526040808220600801805460ff191660011790559154815220600701619b59565b600c54978897889460405193849384619bc9565b0390a260405190600182526020820152336040820152a26193f8565b600c55005b60405162461bcd60e51b815260206004820152603260248201527f53746172742064617465206d757374206e6f74206265206d6f7265207468616e604482015271080c4819185e481a5b881d1a19481c185cdd60721b6064820152608490fd5b60405162461bcd60e51b815260206004820152600d60248201526c496e76616c696420646174657360981b6044820152606490fd5b60405162461bcd60e51b8152602060048201526024808201527f596f75206d7573742062652065697468657220737570706c696572206f7220626044820152633abcb2b960e11b6064820152608490fd5b50853314616255565b60405162461bcd60e51b815260206004820152602860248201527f43616e6e6f74206372656174652072656c6174696f6e736869702077697468206044820152673cb7bab939b2b63360c11b6064820152608490fd5b6000838152600160205260409020600901546001600160a01b0316861461623d5760405162461bcd60e51b815260206004820152602260248201527f537570706c69657220646f6573206e6f74206f776e20746869732070726f647560448201526118dd60f21b6064820152608490fd5b60405162461bcd60e51b815260206004820152601a6024820152794d757374206265206f6e65206f6620746865207061727469657360301b6044820152606490fd5b50336001600160a01b038a1614616232565b60405162461bcd60e51b815260206004820152601f60248201527f426f74682070617274696573206d7573742062652072656769737465726564006044820152606490fd5b506001600160a01b03871660009081526020819052604090206002015460a01c60ff16616203565b3461031e57602036600319011261031e576001600160a01b0361667c61896a565b166000526000602052604060002080546002604051926166a3846150ac8160018501618bee565b015460ff6166c360405194859485526080602086015260808501906188fd565b6001600160a01b038316604085015260a09290921c16151560608301520390f35b3461031e57602036600319011261031e576060610100604051616706816189fb565b60008152600060208201526000604082015260008382015260006080820152600060a08201528260c0820152600060e0820152015260043560005260056020526040600020604051616757816189fb565b8154815261062660018060a01b036001840154169260208301938452600861684960018060a01b036002840154166040860190815260038401546060870190815260048501546080880190815260058601549160a08901928352604051936167c685610d508160068c01618bee565b60c08a019485526167ed60078901549860e08c01998a52613713604051809a819301618bee565b6101008a019687526040519a8b9a60208c525160208c015260018060a01b0390511660408b015260018060a01b0390511660608a01525160808901525160a08801525160c08701525161012060e08701526101408601906188fd565b915161010085015251838203601f19016101208501526188fd565b3461031e57602036600319011261031e576004356000610100604051616889816189fb565b8281528260208201528260408201528260608201528260808201528260a0820152606060c0820152606060e0820152015280600052600260205260ff60086040600020015416156169fe57600052600260205260406000206040516168ed816189fb565b8154815260018060a01b0360018301541691602082019283526169f060018060a01b0360028301541691604084019283526169dc60038201546060860190815260048301546080870190815260058401549060a088019182526040519261695b846150ac8160068a01618bee565b60c0890193845260ff600861697260078901619acc565b9760e08c01988952015416976101008a0198151589526040519a8b9a60208c525160208c015260018060a01b0390511660408b015260018060a01b0390511660608a01525160808901525160a08801525160c08701525161012060e08701526101408601906188fd565b9051848203601f1901610100860152618b4e565b905115156101208301520390f35b60405162461bcd60e51b815260206004820152601660248201527514995b185d1a5bdb9cda1a5c081b9bdd08199bdd5b9960521b6044820152606490fd5b3461031e57602036600319011261031e57600435806000526004602052616a6d60ff600e604060002001541661926b565b80600052600460205260018060a01b036001604060002001541633148015616de9575b616a9990619a84565b8060005260046020526040600020906008820160405190616ac582616abe8184618bee565b0383618a85565b6000602094604051616ad78782618a85565b82815293805190878101918220616aec618f44565b8981519101201480616ddc575b15616bd857505050509050600190604051616b15604082618a85565b601a815279105c1c1c9bdd985b08191958591b1a5b9948195e18d95959195960321b85820152915b15616b97579283616b73610cc57f1084667f3bacb264cb7154ff48636e12255d167f23739b4724eb3af4f152b05a959654618bb4565b600e66195e1c1a5c995960ca1b0190556109a16040519282849384528301906188fd565b60405162461bcd60e51b815260048101859052601960248201527813dc99195c8818d85b9b9bdd0818994818d85b98d95b1b1959603a1b6044820152606490fd5b519020616be3619a1e565b878151910120149081616dce575b5015616b3d575090506001906040918251616c0c8482618a85565b601981527814185e5b595b9d08191958591b1a5b9948195e18d959591959603a1b86820152928460005260048652806000209060ff600e83015460081c16600014616cd557600382015460005282875280600020600b81019182549160ff83169081616cb7575b50616c82575b50505050616b3d565b60079260049260ff19169055600f8401546000528489526000209201549101805491820180921161038b575585808080616c79565b60090154858701546001600160a01b0390811691161490508a616c73565b6003820154600090815283885220600981018054848401805490949392916001600160a01b03918216911614616d0e5750505050616b3d565b60029092015482546001600160a01b0319166001600160a01b0391909116179091556006018054909181159081159081616d94575b50616d4f575b80616c79565b616d7e576000190190616d628282618d15565b81549060018060a01b039060031b1b1916905555858080616d49565b634e487b7160e01b600052603160045260246000fd5b9050600019830183811161038b57616dac9085618d15565b9054915460039190911b9190911c6001600160a01b0390811691161489616d43565b600b91500154421186616bf1565b50600a8301544211616af9565b506000818152600460205260409020600201546001600160a01b03163314616a90565b3461031e57606036600319011261031e57616e78600435616e2b618980565b90806000526001602052616e4960ff600b60406000200154166190df565b806000526001602052616e6d60018060a01b03600960406000200154163314619a44565b33916044359161a166565b005b3461031e57602036600319011261031e576001600160a01b03616e9b61896a565b168060005260096020526040600020906040518083602082955493848152019060005260206000209260005b818110616fde575050616edc92500383618a85565b616ee682516193a5565b91600090815b8151811015616f9357616eff81836193e4565b516000908152600460205260409020600201546001600160a01b0316841480616f49575b616f30575b600101616eec565b91616f4160019161059785856193e4565b929050616f28565b50616f5481836193e4565b5160005260046020526103e7616f77600860406000200160405192838092618bee565b60208151910120616f86619a1e565b6020815191012014616f23565b8483616f9e816193a5565b9160005b828110616fbf576040516020808252819061062690820187618996565b80616fcc600192846193e4565b51616fd782876193e4565b5201616fa2565b8454835260019485019487945060209093019201616ec7565b3461031e57600036600319011261031e576020600e54604051908152f35b3461031e57604036600319011261031e576004356024356001600160401b03811161031e57617048903690600401618aa8565b81600052600460205261706560ff600e604060002001541661926b565b6000828152600460205260409020600201546001600160a01b03163303617175578160005260046020526103e76170a9600860406000200160405192838092618bee565b602081519101206170b8618f44565b6020815191012003617132576109a17fb1544707a474e6118a9704a2715d102eb87f02b3b079f4bd32f085640173105e918360005260046020526008604060002001617107610cc58254618bb4565b6010671c995a9958dd195960c21b0190556040519182913383526040602084015260408301906188fd565b60405162461bcd60e51b815260206004820152601b60248201527a4f72646572206e6f7420696e2070656e64696e672073746174757360281b6044820152606490fd5b60405162461bcd60e51b815260206004820152601d60248201527f4f6e6c792073656c6c65722063616e2072656a656374206f72646572730000006044820152606490fd5b3461031e57602036600319011261031e57600435600052600360205260e0604060002080549060018101549060018060a01b03600282015416600382015460048301549160ff600660058601549501541694604051968752602087015260408601526060850152608084015260a0830152151560c0820152f35b3461031e5761724236618afe565b82600093929352600460205261726260ff600e604060002001541661926b565b816000526004602052604060002090600182019360018060a01b03855416330361782f576000936000600d8501958654915b8281106177f3575b50156177995760009695965b818110617762575050617364604051967502830bcb6b2b73a1031b7b6b83632ba32b2103b34b0960551b6020890152617336600160068a603688519960208a019a6172f7818d858701906188da565b8301650101424a21d160d51b8382015261731b825180936020603c850191016188da565b0101602960f81b838201520301601e1981018b520189618a85565b60405190617343826189e0565b42825261734e61971d565b6020830152886040830152336060830152619747565b60088401617375610cc58254618bb4565b60126818dbdb5c1b195d195960ba1b019055600f549260018060a01b0386541693600286019460018060a01b03865416906173d960038901549860048101546007600683015492019a6173fd60018d8a8d6173ed604051998a94602086019061991b565b91605f60f81b8352518093868401906188da565b010301601f198101865285618a85565b6040519561740a876189fb565b8787526020870195865260408701908152606087019182526080870192835260a0870193845260c0870194855260e0870195428752617447619989565b61010089019081526000998a52600560208190526040909a209851895590516001890180546001600160a01b03199081166001600160a01b0393841617909155925160028a018054909416911617909155905160038701559051600486015590519484019490945551805160068401916001600160401b038211610832576174d382610df98554618bb4565b602090601f83116001146176f65791806174fb92600897969594600092612cda575050619586565b90555b5160078201559151805191909201916001600160401b0382116108325761752982610df98554618bb4565b602090601f83116001146176575794610f2c948160008051602061a60d8339815191526175db610f349e6173d99e9d9b986175858960008051602061a48d8339815191529f9d9a60019a61762e9c60009261764c575050619586565b90555b8d878060a01b0390541660005260086020526175ab6040600020600f54906199b0565b868060a01b038b541660005260086020526175cd6040600020600f54906199b0565b6040519182913390836199d3565b0390a260405194859260008051602061a5ed833981519152600080a261761e600f549c8d9c868060a01b0390541699868060a01b039054169a602086019061991b565b010301601f198101835282618a85565b604051938493845260208401526060604084015260608301906188fd565b015190503880610e21565b90601f1983169184600052816000209260005b8181106176de57509660008051602061a60d8339815191526175db610f349e6173d99e9d9b9860018960008051602061a48d8339815191529f9d998799610f2c9e9961762e9d859d106176c5575b505050811b019055617588565b015160001960f88460031b161c191690553880806176b8565b9293602060018192878601518155019501930161766a565b90601f1983169184600052816000209260005b81811061774a57509160019391856008999897969410617731575b505050811b0190556174fe565b015160001960f88460031b161c191690558e8080617724565b92936020600181928786015181550195019301617709565b600161777361108c838b9a9b6196d4565b6020815191012061778261971d565b60208151910120146110c0576001019695966172a8565b60405162461bcd60e51b815260206004820152602c60248201527f43616e6e6f7420636f6d706c657465207061796d656e74206265666f7265207160448201526b75616c69747920636865636b60a01b6064820152608490fd5b600161780261108c838b6196d4565b602081519101206178116196f0565b602081519101201461782557600101617294565b505060018861729c565b60405162461bcd60e51b815260206004820152601f60248201527f4f6e6c792062757965722063616e20636f6d706c657465207061796d656e74006044820152606490fd5b3461031e57602036600319011261031e576004356000818152600360205260409020600201546001600160a01b0316330361795d578060005260036020526178c660ff60066040600020015416619667565b6000818152600360205260408120600601805460ff191690555b600654908181101561795657826178f682618ce4565b90549060031b1c1461790c5760019150016178e0565b600019820191821161038b576107d4612e7b61792793618ce4565b61792f6196a8565b7f5333791267c64429b07bc6933b19a87a45285fd89e3770ee3bbeb0bac0d8f5c5600080a2005b505061792f565b60405162461bcd60e51b81526020600482015260116024820152702737ba103634b9ba34b7339037bbb732b960791b6044820152606490fd5b3461031e57602036600319011261031e576004358060005260026020526179c760ff60086040600020015416618eaf565b80600052600260205260018060a01b036001604060002001541633148015617b14575b6179f390618ef9565b806000526002602052617a196103e76108c5600660406000200160405192838092618bee565b80600052600260205260076040600020018054617a37811515618fc0565b600019810190811161038b57617a4c91619012565b50600201546001600160a01b03163314617ab6578060005260026020526006604060002001617a7e610cc58254618bb4565b6010671858d8d95c1d195960c21b0190557f42aea235215a6eb33e63dbac8060efca06d7c4ecf0ae69e5e718bff4b58d432e600080a2005b60405162461bcd60e51b815260206004820152603060248201527f43616e6e6f7420616363657074207768656e20796f752061726520746865207260448201526f65717565737446726f6d20706172747960801b6064820152608490fd5b50600081815260026020819052604090912001546001600160a01b031633146179ea565b3461031e5760a036600319011261031e576004356001600160401b03811161031e57617b68903690600401618aa8565b6024356001600160401b03811161031e57617b87903690600401618aa8565b6044356001600160401b03811161031e57617ba6903690600401618aa8565b916064359160843590336000526000602052617bcf60ff60026040600020015460a01c16619407565b617bdb8351151561944c565b617be781511515619497565b617bf28415156194ef565b617bfd82151561953b565b600b54600081815260016020819052604090912091825584519101906001600160401b03811161083257617c3581610e528454618bb4565b6020601f8211600114617eac579080617c5592600091614ecf5750619586565b90555b600b54600052600160205260026040600020019080519060018060401b03821161083257617c8a82610df98554618bb4565b602090601f8311600114617e4557617cac929160009183615f9a575050619586565b90555b600b546000526001602052600360406000200184519460018060401b03861161083257617ce086610e528454618bb4565b602090601f8711600114617ddb579580617d0692613db298600092615f9a575050619586565b90555b600b8054600090815260016020819052604080832060070187905583548352808320600801949094558254825283822060090180546001600160a01b031916339081179091558354835284832042600a9190910155835483528483208401805460ff199081169093179055835483528483206005908101805490931690925592548252929020617d9992016195aa565b600b546000526001602052617db5336006604060002001619618565b60008051602061a52d833981519152600b54928392610f2c60405192839233908461963b565b90601f1987169183600052816000209260005b818110617e2d5750916001939189613db29a9410617e14575b505050811b019055617d09565b015160001960f88460031b161c19169055878080617e07565b92936020600181928786015181550195019301617dee565b90601f1983169184600052816000209260005b818110617e945750908460019594939210617e7b575b505050811b019055617caf565b015160001960f88460031b161c19169055878080617e6e565b92936020600181928786015181550195019301617e58565b601f1982169083600052806000209160005b818110617ef857509083600194939210617edf575b5050811b019055617c58565b87015160001960f88460031b161c191690558880617ed3565b9192602060018192868c015181550194019201617ebe565b3461031e57617f1e366189ca565b90806000526002602052617f3c60ff60086040600020015416618eaf565b604051602091617f4c8383618a85565b600082528060005260028352617f6c60ff60086040600020015416618eaf565b80600052600283526103e7617f8e600660406000200160405192838092618bee565b838151910120617f9c619d29565b848151910120036184dd5760008181526002808552604090912001546001600160a01b0316330361849a57617fd28415156194ef565b806000526002835260046040600020015442101580618480575b1561843857806000526002835260036040600020015460005260018352604060002060018060a01b03600982015416826000526002855260018060a01b0360016040600020015416036183f9578460076180499201541015619ccd565b6000526002825260406000209260078401805490600019820191821161038b5760019161807591619012565b500154918215612ede5761808f8360001904831115619c76565b6180998284619cba565b600e5493846000526004865284604060002055600287019460018060a01b03865416906000526004875260016040600020019060018060a01b031660018060a01b03198254161790556003600188019760018060a01b03895416600e546000526004895260026040600020019060018060a01b031660018060a01b03198254161790550154600e5460005260048752600360406000200155600e546000526004865283600460406000200155600e5460005260048652600560406000200155600e5460005260048552600660406000200155600e5460005260048452600760406000200161818a610cc58254618bb4565b60186b072656c6174696f6e736869760a41b019055600e546000526004845260086040600020016181be610cc58254618bb4565b600e6670656e64696e6760c81b019055600e5460005260048452426009604060002001556202a300420180421161038b57600e5460005260048552600a60406000200155600e54600052600484526000600b604082200155600e5460005260048452600c6040600020019080519060018060401b0382116108325761824782610df98554618bb4565b8590601f831160011461837c5792618280836158cd999460008051602061a44d833981519152979460c097600092613090575050619586565b90555b600e5460005260048652600e604060002001600160ff19825416179055600e5460005260048652600e60406000200161ff00198154169055600e54600052600486526000600f604082200155600e54600052600486526000601060408220015560018060a01b03855416600052600986526183056040600020600e54906199b0565b81546001600160a01b031660009081526009875260409020600e54618329916199b0565b600e5495869560018060a01b039054169260018060a01b0390541690604051938452830152604082015260806060820152600c60808201526b072656c6174696f6e736869760a41b60a0820152a26193f8565b90601f1983169184600052876000209260005b8181106183e257509360008051602061a44d833981519152969360c09693600193836158cd9d98106183c9575b505050811b019055618283565b015160001960f88460031b161c191690558a80806183bc565b92938960018192878601518155019501930161838f565b60405162461bcd60e51b81526004810185905260248082015260008051602061a58d833981519152604482015263191d58dd60e21b6064820152608490fd5b60405162461bcd60e51b815260048101849052602c602482015260008051602061a4ad83398151915260448201526b6520666f72206f726465727360a01b6064820152608490fd5b508060005260028352600560406000200154421115617fec565b60405162461bcd60e51b815260048101849052601b60248201527a4f6e6c792062757965722063616e20706c616365206f726465727360281b6044820152606490fd5b60405162461bcd60e51b815260048101849052601960248201527814995b185d1a5bdb9cda1a5c081b9bdd081858d8d95c1d1959603a1b6044820152606490fd5b3461031e57602036600319011261031e5761853761896a565b600b5490618544826193a5565b9160009160015b82811061859e5750505061855e816193a5565b9160005b82811061857f576040516020808252819061062690820187618996565b8061858c600192846193e4565b5161859782876193e4565b5201618562565b80600052600160205260ff600b604060002001541680618600575b806185e6575b6185cc575b60010161854b565b926185de81856105a2600194896193e4565b9390506185c4565b5080600052600160205260076040600020015415156185bf565b506000818152600160205260409020600901546001600160a01b038381169116146185b9565b3461031e57602036600319011261031e5760043580600052600460205261865760ff600e604060002001541661926b565b600052600460205261866f600d604060002001619307565b6040518091602082016020835281518091526040830190602060408260051b8601019301916000905b8282106186a757505050500390f35b919360019193955060206186c68192603f198a82030186528851618922565b9601920192018594939192618698565b3461031e57602036600319011261031e5761062661615f600435619178565b3461031e57602036600319011261031e5760043580600052600260205261872660ff60086040600020015416618eaf565b80600052600260205260018060a01b036001604060002001541633148015618873575b61875290618ef9565b8060005260026020526187786103e76108c5600660406000200160405192838092618bee565b80600052600260205260076040600020018054618796811515618fc0565b600019810190811161038b576187ab91619012565b50600201546001600160a01b031633146188155780600052600260205260066040600020016187dd610cc58254618bb4565b6010671c995a9958dd195960c21b0190557f1c032ca7c9258c119a8e5426c4fe45b5d5f475140c11627d904be2619683669c600080a2005b60405162461bcd60e51b815260206004820152603060248201527f43616e6e6f742072656a656374207768656e20796f752061726520746865207260448201526f65717565737446726f6d20706172747960801b6064820152608490fd5b50600081815260026020819052604090912001546001600160a01b03163314618749565b602060408183019282815284518094520192019060005b8181106188bb5750505090565b82516001600160a01b03168452602093840193909201916001016188ae565b60005b8381106188ed5750506000910152565b81810151838201526020016188dd565b90602091618916815180928185528580860191016188da565b601f01601f1916010190565b9081518152606061895761894560208501516080602086015260808501906188fd565b604085015184820360408601526188fd565b928101516001600160a01b031691015290565b600435906001600160a01b038216820361031e57565b602435906001600160a01b038216820361031e57565b906020808351928381520192019060005b8181106189b45750505090565b82518452602093840193909201916001016189a7565b604090600319011261031e576004359060243590565b608081019081106001600160401b0382111761083257604052565b61012081019081106001600160401b0382111761083257604052565b60a081019081106001600160401b0382111761083257604052565b60e081019081106001600160401b0382111761083257604052565b6101a081019081106001600160401b0382111761083257604052565b61024081019081106001600160401b0382111761083257604052565b601f909101601f19168101906001600160401b0382119082101761083257604052565b81601f8201121561031e578035906001600160401b0382116108325760405192618adc601f8401601f191660200185618a85565b8284526020838301011161031e57816000926020809301838601378301015290565b606060031982011261031e57600435916024356001600160401b03811161031e5782618b2c91600401618aa8565b91604435906001600160401b03821161031e57618b4b91600401618aa8565b90565b906020808351928381520192019060005b818110618b6c5750505090565b909192602060a0600192608087518051835284810151858401528580851b03604082015116604084015260608101516060840152015160808201520194019101919091618b5f565b90600182811c92168015618be4575b6020831014618bce57565b634e487b7160e01b600052602260045260246000fd5b91607f1691618bc3565b60009291815491618bfe83618bb4565b8083529260018116908115618c545750600114618c1a57505050565b60009081526020812093945091925b838310618c3a575060209250010190565b600181602092949394548385870101520191019190618c29565b915050602093945060ff929192191683830152151560051b010190565b3461031e57602036600319011261031e57618c8a61896a565b60009060018060a01b03168152600960205260408120604051918260208354918281520192825260208220915b818110618cce5761062685610b0181870382618a85565b8254845260209093019260019283019201618cb7565b600654811015618cff57600660005260206000200190600090565b634e487b7160e01b600052603260045260246000fd5b8054821015618cff5760005260206000200190600090565b606060031982011261031e576004359160243591604435906001600160401b03821161031e57618b4b91600401618aa8565b90815260208101919091526001600160a01b03909116604082015260600190565b604060031982011261031e57600435906001600160401b03821161031e57618daa91600401618aa8565b906024356001600160a01b038116810361031e5790565b6001600160401b0381116108325760051b60200190565b9080601f8301121561031e578135618def81618dc1565b92618dfd6040519485618a85565b81845260208085019260051b82010192831161031e57602001905b828210618e255750505090565b8135815260209182019101618e18565b906020808351928381520192019060005b818110618e535750505090565b825180518552602081810151818701526040808301516001600160a01b0316908701526060918201519186019190915260809094019390920191600101618e46565b606090600319011261031e57600435906024359060443590565b15618eb657565b60405162461bcd60e51b815260206004820152601b60248201527a14995b185d1a5bdb9cda1a5c08191bd95cc81b9bdd08195e1a5cdd602a1b6044820152606490fd5b15618f0057565b606460405162461bcd60e51b815260206004820152602060248201527f4e6f74206120706172747920746f20746869732072656c6174696f6e736869706044820152fd5b60405190618f53604083618a85565b600782526670656e64696e6760c81b6020830152565b15618f7057565b60405162461bcd60e51b815260206004820152602260248201527f52656c6174696f6e73686970206e6f7420696e2070656e64696e672073746174604482015261757360f01b6064820152608490fd5b15618fc757565b60405162461bcd60e51b81526020600482015260166024820152754e6f206e65676f74696174696f6e20686973746f727960501b6044820152606490fd5b9190820391821161038b57565b8054821015618cff576000526005602060002091020190600090565b818110619039575050565b6000815560010161902e565b90601f8111619052575050565b61906d91600052601f6020600020910160051c81019061902e565b565b90601f811161907c575050565b61906d916000526002601f6020600020920160051c8201910161902e565b9190601f81116190a957505050565b61906d926000526020600020906020601f840160051c830193106190d5575b601f0160051c019061902e565b90915081906190c8565b156190e657565b60405162461bcd60e51b8152602060048201526016602482015275141c9bd91d58dd08191bd95cc81b9bdd08195e1a5cdd60521b6044820152606490fd5b906040519182815491828252602082019060005260206000209260005b81811061915657505061906d92500383618a85565b84546001600160a01b0316835260019485019487945060209093019201619141565b80600052600160205261919560ff600b60406000200154166190df565b80600052600160205260ff60056040600020015416600014619253578060005260016020526191ce60ff600b60406000200154166190df565b60005260016020526191e66004604060002001619f74565b9081516191f281618dc1565b906192006040519283618a85565b80825261920f601f1991618dc1565b0136602083013760005b835181101561924e576001906001600160a01b03604061923983886193e4565b5101511661924782856193e4565b5201619219565b509150565b6000526001602052618b4b6006604060002001619124565b1561927257565b60405162461bcd60e51b815260206004820152601460248201527313dc99195c88191bd95cc81b9bdd08195e1a5cdd60621b6044820152606490fd5b906040516192bb816189e0565b60608193805483526040516192d7816103e78160018601618bee565b60208401526040516192f0816103e78160028601618bee565b6040840152600301546001600160a01b0316910152565b90815461931381618dc1565b926193216040519485618a85565b818452602084019060005260206000206000915b8383106193425750505050565b60046020600192619352856192ae565b815201920192019190619335565b604080519091906193718382618a85565b6001815291601f1901366020840137565b604051610ca091906193948382618a85565b6064815291601f1901366020840137565b906193af82618dc1565b6193bc6040519182618a85565b82815280926193cd601f1991618dc1565b0190602036910137565b805115618cff5760200190565b8051821015618cff5760209160051b010190565b600019811461038b5760010190565b1561940e57565b60405162461bcd60e51b815260206004820152601660248201527510dbdb5c185b9e481b9bdd081c9959da5cdd195c995960521b6044820152606490fd5b1561945357565b60405162461bcd60e51b815260206004820152601c60248201527b50726f64756374206e616d652063616e6e6f7420626520656d70747960201b6044820152606490fd5b1561949e57565b60405162461bcd60e51b815260206004820152602360248201527f50726f64756374206465736372697074696f6e2063616e6e6f7420626520656d60448201526270747960e81b6064820152608490fd5b156194f657565b60405162461bcd60e51b815260206004820152601f60248201527f5175616e74697479206d7573742062652067726561746572207468616e2030006044820152606490fd5b1561954257565b60405162461bcd60e51b815260206004820152601c60248201527b05072696365206d7573742062652067726561746572207468616e20360241b6044820152606490fd5b8160011b916000199060031b1c19161790565b9060ff801983541691151516179055565b8054610100600160a81b03191660089290921b610100600160a81b0316919091179055565b8054600160401b811015610832576195ec91600182018155618d15565b81546001600160a01b0360039290921b91821b191660008051602061a4ed83398151915290911b179055565b80549190600160401b831015610832578261302591600161906d95018155618d15565b619653604092959493956060835260608301906188fd565b6001600160a01b0390951660208201520152565b1561966e57565b60405162461bcd60e51b81526020600482015260126024820152714c697374696e67206e6f742061637469766560701b6044820152606490fd5b6006548015616d7e57600019016196c0816006618d15565b8154906000199060031b1b19169055600655565b8054821015618cff5760005260206000209060021b0190600090565b604051906196ff604083618a85565b600f82526e1c5d585b1a5d1e57d8da1958dad959608a1b6020830152565b6040519061972c604083618a85565b600c82526b1c185e5b595b9d17dcd95b9d60a21b6020830152565b8054600160401b81101561083257619764916001820181556196d4565b91909161990557805182556020810151805160018401916001600160401b0382116108325761979782610df98554618bb4565b602090601f831160011461989e576197b992916000918361764c575050619586565b90555b6040810151805160028401916001600160401b038211610832576197e482610df98554618bb4565b602090601f831160011461983457918061980b92600396959460009261764c575050619586565b90555b60600151910180546001600160a01b0319166001600160a01b0392909216919091179055565b90601f1983169184600052816000209260005b81811061988657509160019391856003989796941061986e575b505050811b01905561980e565b015160001983881b60f8161c19169055388080619861565b92936020600181928786015181550195019301619847565b90601f1983169184600052816000209260005b8181106198ed57509084600195949392106198d4575b505050811b0190556197bc565b015160001960f88460031b161c191690553880806198c7565b929360206001819287860151815501950193016198b1565b634e487b7160e01b600052600060045260246000fd5b6000929181549161992b83618bb4565b9260018116908115619976575060011461994457505050565b909192935060005260206000206000905b8382106199625750500190565b600181602092548486015201910190619955565b60ff191683525050811515909102019150565b60405190619998604083618a85565b600982526818dbdb5c1b195d195960ba1b6020830152565b80549190600160401b83101561083257826107d491600161906d95018155618d15565b90619a0e60409194939460608452600c60608501526b1c185e5b595b9d17dcd95b9d60a21b608085015260a0602085015260a08401906188fd565b6001600160a01b03909416910152565b60405190619a2d604083618a85565b6008825267185c1c1c9bdd995960c21b6020830152565b15619a4b57565b60405162461bcd60e51b81526020600482015260116024820152702737ba10383937b23ab1ba1037bbb732b960791b6044820152606490fd5b15619a8b57565b60405162461bcd60e51b81526020600482015260196024820152782737ba1030903830b93a3c903a37903a3434b99037b93232b960391b6044820152606490fd5b908154619ad881618dc1565b92619ae66040519485618a85565b818452602084019060005260206000206000915b838310619b075750505050565b60056020600192604051619b1a81618a17565b855481528486015483820152848060a01b0360028701541660408201526003860154606082015260048601546080820152815201920192019190619afa565b8054600160401b81101561083257619b7691600182018155619012565b91909161990557805182556020810151600183015560408101516002830180546001600160a01b0319166001600160a01b0392909216919091179055606081015160038301556080015160049190910155565b6001600160a01b03918216815291166020820152604081019190915260600190565b15619bf257565b60405162461bcd60e51b8152602060048201526015602482015274496e73756666696369656e74207175616e7469747960581b6044820152606490fd5b15619c3657565b60405162461bcd60e51b815260206004820152601860248201527721b0b73737ba10313abc90333937b6903cb7bab939b2b63360411b6044820152606490fd5b15619c7d57565b60405162461bcd60e51b81526020600482015260156024820152744f726465722076616c756520746f6f206c6172676560581b6044820152606490fd5b8181029291811591840414171561038b57565b15619cd457565b60405162461bcd60e51b815260206004820152602760248201527f496e73756666696369656e742070726f64756374207175616e7469747920617660448201526661696c61626c6560c81b6064820152608490fd5b60405190619d38604083618a85565b60088252671858d8d95c1d195960c21b6020830152565b15619d5657565b60405162461bcd60e51b81526020600482015260146024820152734e616d652063616e6e6f7420626520656d70747960601b6044820152606490fd5b15619d9957565b60405162461bcd60e51b815260206004820152600f60248201526e496e76616c6964206164647265737360881b6044820152606490fd5b60405190619ddf604083618a85565b60068252651c1858dad95960d21b6020830152565b60405190619e03604083618a85565b60078252661cda1a5c1c195960ca1b6020830152565b60405190619e28604083618a85565b600982526819195b1a5d995c995960ba1b6020830152565b919091828114619f0957619e548354618bb4565b6001600160401b03811161083257619e7081610e528454618bb4565b600093601f8211600114619ea357619e949293948291600092619e98575050619586565b9055565b015490503880610e21565b845260208085208386529085209094601f198316815b818110619ef157509583600195969710619ed8575b505050811b019055565b015460001960f88460031b161c19169055388080619ece565b9192600180602092868b015481550194019201619eb9565b509050565b8054600160401b81101561083257619f2b916001820181556196d4565b91909161990557805182556020810151600183015560408101516002830180546001600160a01b0319166001600160a01b03929092169190911790556060015160039190910155565b908154619f8081618dc1565b92619f8e6040519485618a85565b818452602084019060005260206000206000915b838310619faf5750505050565b60046020600192604051619fc2816189e0565b855481528486015483820152848060a01b03600287015416604082015260038601546060820152815201920192019190619fa2565b15619ffe57565b60405162461bcd60e51b8152602060048201526014602482015273125b9cdd59999a58da595b9d081c185e5b595b9d60621b6044820152606490fd5b61a06361a05e600b61a056846000526001602052604060002090565b015460ff1690565b6190df565b61a08361a07f600561a056846000526001602052604060002090565b1590565b61a15057600461a0a061a0a6926000526001602052604060002090565b01619f74565b9061a0af619382565b60009283915b815183101561a1125761a0d261a0cb84846193e4565b515161a03a565b936000955b855187101561a1035761a0fb60019161a0f089896193e4565b516105a282876193e4565b96019561a0d7565b9550935060019092019161a0b5565b9391505061a11f816193a5565b9060005b81811061a131575090925050565b8061a13e600192876193e4565b5161a14982866193e4565b520161a123565b61a158619360565b9061a162826193d7565b5290565b91939260018060a01b0382169485600052600060205260ff60026040600020015460a01c161561a40c5761a19b8115156194ef565b83600052600160205261a1b8816007604060002001541015619beb565b6000848152600160205260409020600901546001600160a01b039081169083160361a3d357836000526001602052604060002060078101805480841460001461a24757505083929161a23560008051602061a54d83398151915295600684899a9b600961a24197019060018060a01b031982541617905501619618565b60405193849384619bc9565b0390a290565b8361a259919998969497959399619005565b9055600b5494856000526001602052856040600020556001880186600052600160205261a28d816001604060002001619e40565b86600052600160205261a2aa60028a016002604060002001619e40565b86600052600160205261a2c760038a016003604060002001619e40565b600087815260016020819052604082206007810185905560088c810154908201556009810180546001600160a01b0319168c17905542600a820155600b01805460ff191690911790556006909901985b895481101561a34757600190886000528160205261a3418b6144d883600660406000200192618d15565b0161a317565b5060008051602061a54d8339815191529598509560008051602061a52d83398151915261a3a461a3bf94959698839a84600052600160205261a390896006604060002001619618565b604051928392606084526060840190618bee565b9060208301528560408301520390a260405193849384619bc9565b0390a261a3cd600b546193f8565b600b5590565b60405162461bcd60e51b81526020600482015260116024820152702737ba1031bab93932b73a1037bbb732b960791b6044820152606490fd5b60405162461bcd60e51b815260206004820152601860248201527713995dc81bdddb995c881b9bdd081c9959da5cdd195c995960421b6044820152606490fdfeb1147f852fc43e7f848e0139b512feb6ad9e1b0c47d4071cc28af776ebeac77dcbbd8f4ad20c91d5838164f748449bce8476c20c52238490777ed4849de7bb1dcd962c0667e8227b57544c49a3635b0610e73ee1a80b3f2d2a2981953385a4d852656c6174696f6e73686970206e6f742063757272656e746c792061637469764814ac4b507b4df7e154f88ad93b88de62d66a08c2cb948ab2260179579c62fa00000000000000000000000070997970c51812dc3a010c7d01b50e0d17dc79c875716f34647a7837716b716c6e70786d63706d6770326161716665000000000090934fc9dc1095f968f4207cb62e27da1da3e31653ff34cbf837b6c349ded760516c8b339c132041f2a10d0e873c5eaf4944299c02b458d7491b7f7ac1574d2ffee75731dd0f0c7597f1e678d53e565826519f6f5fa21034c8f8ed760b78a4c7537570706c696572206e6f206c6f6e676572206f776e7320746869732070726f000000000000000000000000f39fd6e51aad88f6f4ce6ab8827279cfffb92266b11b1034a3a46b9059bc31af66803491535cd290a06d8722e4bad4433b34e46e02a7d4d9472af7118644884b9a0ee443540c0027e938dd0aa35be8ecbe946c0a8823d408beafc186ccd333d2fbf069853d25c06f7205d4c208dd08360587b24e6261666b72656966766d747537786d6c6a6563367a6e687179357865346a3361a2646970667358221220239c0f48f655de653441cbc2494e8490d6a793e2aba210ae3693cd932f0ea81564736f6c634300081c0033",
  "linkReferences": {},
  "deployedLinkReferences": {}
}