{"contracts/TrustFlow.sol":{"TrustFlow":{"abi":[{"anonymous":false,"inputs":[{"indexed":true,"internalType":"address","name":"companyAddress","type":"address"},{"indexed":false,"internalType":"uint256","name":"companyId","type":"uint256"},{"indexed":false,"internalType":"string","name":"name","type":"string"}],"name":"CompanyRegistered","type":"event"},{"anonymous":false,"inputs":[{"indexed":true,"internalType":"address","name":"companyAddress","type":"address"},{"indexed":false,"internalType":"string","name":"newName","type":"string"},{"indexed":false,"internalType":"address","name":"newAddress","type":"address"}],"name":"CompanyUpdated","type":"event"},{"anonymous":false,"inputs":[{"indexed":true,"internalType":"uint256","name":"orderId","type":"uint256"},{"indexed":false,"internalType":"string","name":"status","type":"string"},{"indexed":false,"internalType":"string","name":"description","type":"string"},{"indexed":false,"internalType":"address","name":"updatedBy","type":"address"}],"name":"DeliveryEventAdded","type":"event"},{"anonymous":false,"inputs":[{"indexed":true,"internalType":"uint256","name":"productId","type":"uint256"},{"indexed":false,"internalType":"uint256","name":"quantityUsed","type":"uint256"},{"indexed":false,"internalType":"address","name":"consumer","type":"address"}],"name":"InventoryConsumed","type":"event"},{"anonymous":false,"inputs":[{"indexed":true,"internalType":"uint256","name":"productId","type":"uint256"},{"indexed":false,"internalType":"uint256","name":"ingredientCount","type":"uint256"}],"name":"ManufacturingRecipeCreated","type":"event"},{"anonymous":false,"inputs":[{"indexed":true,"internalType":"uint256","name":"orderId","type":"uint256"},{"indexed":false,"internalType":"address","name":"approver","type":"address"}],"name":"OrderApproved","type":"event"},{"anonymous":false,"inputs":[{"indexed":true,"internalType":"uint256","name":"orderId","type":"uint256"}],"name":"OrderCompleted","type":"event"},{"anonymous":false,"inputs":[{"indexed":true,"internalType":"uint256","name":"orderId","type":"uint256"},{"indexed":false,"internalType":"string","name":"reason","type":"string"}],"name":"OrderExpired","type":"event"},{"anonymous":false,"inputs":[{"indexed":true,"internalType":"uint256","name":"orderId","type":"uint256"},{"indexed":false,"internalType":"address","name":"buyer","type":"address"},{"indexed":false,"internalType":"uint256","name":"amount","type":"uint256"}],"name":"OrderPaid","type":"event"},{"anonymous":false,"inputs":[{"indexed":true,"internalType":"uint256","name":"orderId","type":"uint256"},{"indexed":false,"internalType":"address","name":"buyer","type":"address"},{"indexed":false,"internalType":"address","name":"seller","type":"address"},{"indexed":false,"internalType":"uint256","name":"quantity","type":"uint256"},{"indexed":false,"internalType":"string","name":"orderType","type":"string"}],"name":"OrderPlaced","type":"event"},{"anonymous":false,"inputs":[{"indexed":true,"internalType":"uint256","name":"orderId","type":"uint256"},{"indexed":false,"internalType":"address","name":"rejector","type":"address"},{"indexed":false,"internalType":"string","name":"reason","type":"string"}],"name":"OrderRejected","type":"event"},{"anonymous":false,"inputs":[{"indexed":true,"internalType":"uint256","name":"productId","type":"uint256"},{"indexed":false,"internalType":"string","name":"name","type":"string"},{"indexed":false,"internalType":"address","name":"owner","type":"address"},{"indexed":false,"internalType":"uint256","name":"quantity","type":"uint256"}],"name":"ProductCreated","type":"event"},{"anonymous":false,"inputs":[{"indexed":true,"internalType":"uint256","name":"newProductId","type":"uint256"},{"indexed":false,"internalType":"uint256[]","name":"ingredientIds","type":"uint256[]"},{"indexed":false,"internalType":"uint256[]","name":"quantities","type":"uint256[]"},{"indexed":false,"internalType":"address","name":"manufacturer","type":"address"}],"name":"ProductManufactured","type":"event"},{"anonymous":false,"inputs":[{"indexed":true,"internalType":"uint256","name":"productId","type":"uint256"},{"indexed":false,"internalType":"address","name":"from","type":"address"},{"indexed":false,"internalType":"address","name":"to","type":"address"},{"indexed":false,"internalType":"uint256","name":"quantity","type":"uint256"}],"name":"ProductTransferred","type":"event"},{"anonymous":false,"inputs":[{"indexed":true,"internalType":"uint256","name":"relationshipId","type":"uint256"}],"name":"RelationshipAccepted","type":"event"},{"anonymous":false,"inputs":[{"indexed":true,"internalType":"uint256","name":"relationshipId","type":"uint256"},{"indexed":false,"internalType":"uint256","name":"step","type":"uint256"},{"indexed":false,"internalType":"uint256","name":"pricePerUnit","type":"uint256"},{"indexed":false,"internalType":"address","name":"requestFrom","type":"address"}],"name":"RelationshipNegotiated","type":"event"},{"anonymous":false,"inputs":[{"indexed":true,"internalType":"uint256","name":"relationshipId","type":"uint256"},{"indexed":false,"internalType":"uint256","name":"quantity","type":"uint256"},{"indexed":false,"internalType":"uint256","name":"totalPrice","type":"uint256"}],"name":"RelationshipOrderPlaced","type":"event"},{"anonymous":false,"inputs":[{"indexed":true,"internalType":"uint256","name":"relationshipId","type":"uint256"}],"name":"RelationshipRejected","type":"event"},{"anonymous":false,"inputs":[{"indexed":true,"internalType":"uint256","name":"relationshipId","type":"uint256"},{"indexed":false,"internalType":"address","name":"supplier","type":"address"},{"indexed":false,"internalType":"address","name":"buyer","type":"address"},{"indexed":false,"internalType":"uint256","name":"productId","type":"uint256"}],"name":"RelationshipRequested","type":"event"},{"anonymous":false,"inputs":[{"indexed":true,"internalType":"uint256","name":"listingId","type":"uint256"},{"indexed":false,"internalType":"uint256","name":"productId","type":"uint256"},{"indexed":false,"internalType":"address","name":"seller","type":"address"},{"indexed":false,"internalType":"uint256","name":"quantity","type":"uint256"}],"name":"SpotListingCreated","type":"event"},{"anonymous":false,"inputs":[{"indexed":true,"internalType":"uint256","name":"listingId","type":"uint256"}],"name":"SpotListingRemoved","type":"event"},{"anonymous":false,"inputs":[{"indexed":true,"internalType":"uint256","name":"listingId","type":"uint256"},{"indexed":false,"internalType":"address","name":"buyer","type":"address"},{"indexed":false,"internalType":"uint256","name":"quantity","type":"uint256"},{"indexed":false,"internalType":"uint256","name":"totalPrice","type":"uint256"}],"name":"SpotPurchase","type":"event"},{"anonymous":false,"inputs":[{"indexed":true,"internalType":"uint256","name":"transactionId","type":"uint256"},{"indexed":false,"internalType":"address","name":"buyer","type":"address"},{"indexed":false,"internalType":"address","name":"seller","type":"address"},{"indexed":false,"internalType":"string","name":"transactionType","type":"string"}],"name":"TransactionCreated","type":"event"},{"inputs":[{"internalType":"uint256","name":"_relationshipId","type":"uint256"}],"name":"acceptRelationship","outputs":[],"stateMutability":"nonpayable","type":"function"},{"inputs":[{"internalType":"uint256","name":"","type":"uint256"}],"name":"activeSpotListings","outputs":[{"internalType":"uint256","name":"","type":"uint256"}],"stateMutability":"view","type":"function"},{"inputs":[{"internalType":"uint256","name":"_orderId","type":"uint256"},{"internalType":"string","name":"_status","type":"string"},{"internalType":"string","name":"_description","type":"string"}],"name":"addDeliveryEvent","outputs":[],"stateMutability":"nonpayable","type":"function"},{"inputs":[{"internalType":"uint256","name":"","type":"uint256"}],"name":"allCompanies","outputs":[{"internalType":"address","name":"","type":"address"}],"stateMutability":"view","type":"function"},{"inputs":[{"internalType":"uint256","name":"_listingId","type":"uint256"},{"internalType":"uint256","name":"_quantity","type":"uint256"}],"name":"buyFromSpotMarket","outputs":[],"stateMutability":"payable","type":"function"},{"inputs":[{"internalType":"uint256","name":"_orderId","type":"uint256"}],"name":"cancelExpiredOrder","outputs":[],"stateMutability":"nonpayable","type":"function"},{"inputs":[{"internalType":"address","name":"","type":"address"}],"name":"companies","outputs":[{"internalType":"uint256","name":"id","type":"uint256"},{"internalType":"string","name":"name","type":"string"},{"internalType":"address","name":"companyAddress","type":"address"},{"internalType":"bool","name":"exists","type":"bool"}],"stateMutability":"view","type":"function"},{"inputs":[{"internalType":"uint256","name":"_orderId","type":"uint256"},{"internalType":"string","name":"_paymentMethod","type":"string"},{"internalType":"string","name":"_paymentId","type":"string"}],"name":"completeOrderWithExternalPayment","outputs":[],"stateMutability":"nonpayable","type":"function"},{"inputs":[{"internalType":"uint256","name":"_listingId","type":"uint256"},{"internalType":"uint256","name":"_quantity","type":"uint256"},{"internalType":"string","name":"_notes","type":"string"}],"name":"createMarketplaceOrder","outputs":[],"stateMutability":"nonpayable","type":"function"},{"inputs":[{"internalType":"string","name":"_name","type":"string"},{"internalType":"string","name":"_description","type":"string"},{"internalType":"string","name":"_imageHash","type":"string"},{"internalType":"uint256","name":"_quantity","type":"uint256"},{"internalType":"uint256","name":"_pricePerUnit","type":"uint256"}],"name":"createProduct","outputs":[],"stateMutability":"nonpayable","type":"function"},{"inputs":[{"internalType":"address","name":"_userAddress","type":"address"}],"name":"getActiveRelationships","outputs":[{"internalType":"uint256[]","name":"","type":"uint256[]"}],"stateMutability":"view","type":"function"},{"inputs":[],"name":"getAllCompanies","outputs":[{"internalType":"address[]","name":"","type":"address[]"}],"stateMutability":"view","type":"function"},{"inputs":[{"internalType":"address","name":"_buyer","type":"address"}],"name":"getApprovedOrdersForBuyer","outputs":[{"internalType":"uint256[]","name":"","type":"uint256[]"}],"stateMutability":"view","type":"function"},{"inputs":[{"internalType":"address","name":"_seller","type":"address"}],"name":"getApprovedOrdersForSeller","outputs":[{"internalType":"uint256[]","name":"","type":"uint256[]"}],"stateMutability":"view","type":"function"},{"inputs":[{"internalType":"address","name":"_address","type":"address"}],"name":"getCompany","outputs":[{"components":[{"internalType":"uint256","name":"id","type":"uint256"},{"internalType":"string","name":"name","type":"string"},{"internalType":"address","name":"companyAddress","type":"address"},{"internalType":"bool","name":"exists","type":"bool"}],"internalType":"struct TrustFlow.Company","name":"","type":"tuple"}],"stateMutability":"view","type":"function"},{"inputs":[],"name":"getContractStats","outputs":[{"internalType":"uint256","name":"totalCompanies","type":"uint256"},{"internalType":"uint256","name":"totalProducts","type":"uint256"},{"internalType":"uint256","name":"totalRelationships","type":"uint256"},{"internalType":"uint256","name":"totalTransactions","type":"uint256"},{"internalType":"uint256","name":"activeListings","type":"uint256"}],"stateMutability":"view","type":"function"},{"inputs":[{"internalType":"uint256","name":"_relationshipId","type":"uint256"}],"name":"getCurrentNegotiationTerms","outputs":[{"internalType":"uint256","name":"pricePerUnit","type":"uint256"},{"internalType":"uint256","name":"endDate","type":"uint256"},{"internalType":"address","name":"requestFrom","type":"address"}],"stateMutability":"view","type":"function"},{"inputs":[{"internalType":"uint256","name":"_orderId","type":"uint256"}],"name":"getLatestDeliveryEvent","outputs":[{"components":[{"internalType":"uint256","name":"timestamp","type":"uint256"},{"internalType":"string","name":"status","type":"string"},{"internalType":"string","name":"description","type":"string"},{"internalType":"address","name":"updatedBy","type":"address"}],"internalType":"struct TrustFlow.DeliveryEvent","name":"","type":"tuple"}],"stateMutability":"view","type":"function"},{"inputs":[{"internalType":"uint256","name":"_relationshipId","type":"uint256"}],"name":"getNegotiationHistory","outputs":[{"components":[{"internalType":"uint256","name":"step","type":"uint256"},{"internalType":"uint256","name":"pricePerUnit","type":"uint256"},{"internalType":"address","name":"requestFrom","type":"address"},{"internalType":"uint256","name":"timestamp","type":"uint256"},{"internalType":"uint256","name":"endDate","type":"uint256"}],"internalType":"struct TrustFlow.NegotiationStep[]","name":"","type":"tuple[]"}],"stateMutability":"view","type":"function"},{"inputs":[{"internalType":"uint256","name":"_orderId","type":"uint256"}],"name":"getOrder","outputs":[{"components":[{"internalType":"uint256","name":"id","type":"uint256"},{"internalType":"address","name":"buyer","type":"address"},{"internalType":"address","name":"seller","type":"address"},{"internalType":"uint256","name":"productId","type":"uint256"},{"internalType":"uint256","name":"quantity","type":"uint256"},{"internalType":"uint256","name":"unitPrice","type":"uint256"},{"internalType":"uint256","name":"totalPrice","type":"uint256"},{"internalType":"string","name":"orderType","type":"string"},{"internalType":"string","name":"status","type":"string"},{"internalType":"uint256","name":"createdAt","type":"uint256"},{"internalType":"uint256","name":"approvalDeadline","type":"uint256"},{"internalType":"uint256","name":"paymentDeadline","type":"uint256"},{"internalType":"string","name":"notes","type":"string"},{"components":[{"internalType":"uint256","name":"timestamp","type":"uint256"},{"internalType":"string","name":"status","type":"string"},{"internalType":"string","name":"description","type":"string"},{"internalType":"address","name":"updatedBy","type":"address"}],"internalType":"struct TrustFlow.DeliveryEvent[]","name":"deliveryEvents","type":"tuple[]"},{"internalType":"bool","name":"exists","type":"bool"},{"internalType":"bool","name":"isPartialTransfer","type":"bool"},{"internalType":"uint256","name":"originalProductId","type":"uint256"},{"internalType":"uint256","name":"listingId","type":"uint256"}],"internalType":"struct TrustFlow.Order","name":"","type":"tuple"}],"stateMutability":"view","type":"function"},{"inputs":[{"internalType":"uint256","name":"_orderId","type":"uint256"}],"name":"getOrderDeliveryHistory","outputs":[{"components":[{"internalType":"uint256","name":"timestamp","type":"uint256"},{"internalType":"string","name":"status","type":"string"},{"internalType":"string","name":"description","type":"string"},{"internalType":"address","name":"updatedBy","type":"address"}],"internalType":"struct TrustFlow.DeliveryEvent[]","name":"","type":"tuple[]"}],"stateMutability":"view","type":"function"},{"inputs":[],"name":"getOrderStats","outputs":[{"internalType":"uint256","name":"totalOrders","type":"uint256"},{"internalType":"uint256","name":"pendingOrders","type":"uint256"},{"internalType":"uint256","name":"approvedOrders","type":"uint256"},{"internalType":"uint256","name":"completedOrders","type":"uint256"}],"stateMutability":"view","type":"function"},{"inputs":[{"internalType":"address","name":"_buyer","type":"address"}],"name":"getOrdersByBuyer","outputs":[{"internalType":"uint256[]","name":"","type":"uint256[]"}],"stateMutability":"view","type":"function"},{"inputs":[{"internalType":"address","name":"_seller","type":"address"}],"name":"getOrdersBySeller","outputs":[{"internalType":"uint256[]","name":"","type":"uint256[]"}],"stateMutability":"view","type":"function"},{"inputs":[{"internalType":"address","name":"_user","type":"address"},{"internalType":"string","name":"_status","type":"string"}],"name":"getOrdersByStatus","outputs":[{"internalType":"uint256[]","name":"","type":"uint256[]"}],"stateMutability":"view","type":"function"},{"inputs":[{"internalType":"address","name":"_seller","type":"address"}],"name":"getPendingOrdersForSeller","outputs":[{"internalType":"uint256[]","name":"","type":"uint256[]"}],"stateMutability":"view","type":"function"},{"inputs":[{"internalType":"address","name":"_userAddress","type":"address"}],"name":"getPendingRelationships","outputs":[{"internalType":"uint256[]","name":"","type":"uint256[]"}],"stateMutability":"view","type":"function"},{"inputs":[{"internalType":"uint256","name":"_productId","type":"uint256"}],"name":"getProduct","outputs":[{"components":[{"internalType":"uint256","name":"id","type":"uint256"},{"internalType":"string","name":"name","type":"string"},{"internalType":"string","name":"description","type":"string"},{"internalType":"string","name":"imageHash","type":"string"},{"components":[{"internalType":"uint256","name":"productId","type":"uint256"},{"internalType":"uint256","name":"quantityUsed","type":"uint256"},{"internalType":"address","name":"supplier","type":"address"},{"internalType":"uint256","name":"timestamp","type":"uint256"}],"internalType":"struct TrustFlow.ComponentSource[]","name":"components","type":"tuple[]"},{"internalType":"bool","name":"isManufactured","type":"bool"},{"internalType":"address","name":"originalCreator","type":"address"},{"internalType":"address[]","name":"ownershipHistory","type":"address[]"},{"internalType":"uint256","name":"quantity","type":"uint256"},{"internalType":"uint256","name":"pricePerUnit","type":"uint256"},{"internalType":"address","name":"currentOwner","type":"address"},{"internalType":"uint256","name":"createdTime","type":"uint256"},{"internalType":"bool","name":"exists","type":"bool"}],"internalType":"struct TrustFlow.Product","name":"","type":"tuple"}],"stateMutability":"view","type":"function"},{"inputs":[{"internalType":"uint256","name":"_productId","type":"uint256"}],"name":"getProductTraceability","outputs":[{"internalType":"address[]","name":"","type":"address[]"}],"stateMutability":"view","type":"function"},{"inputs":[{"internalType":"uint256","name":"_productId","type":"uint256"}],"name":"getProductTree","outputs":[{"components":[{"internalType":"uint256","name":"productId","type":"uint256"},{"internalType":"uint256","name":"quantityUsed","type":"uint256"},{"internalType":"address","name":"supplier","type":"address"},{"internalType":"uint256","name":"timestamp","type":"uint256"}],"internalType":"struct TrustFlow.ComponentSource[]","name":"","type":"tuple[]"}],"stateMutability":"view","type":"function"},{"inputs":[{"internalType":"address","name":"_owner","type":"address"}],"name":"getProductsByOwner","outputs":[{"internalType":"uint256[]","name":"","type":"uint256[]"}],"stateMutability":"view","type":"function"},{"inputs":[{"internalType":"uint256","name":"_productId","type":"uint256"}],"name":"getRawMaterialSources","outputs":[{"internalType":"uint256[]","name":"","type":"uint256[]"}],"stateMutability":"view","type":"function"},{"inputs":[{"internalType":"uint256","name":"_relationshipId","type":"uint256"}],"name":"getRelationship","outputs":[{"components":[{"internalType":"uint256","name":"id","type":"uint256"},{"internalType":"address","name":"supplier","type":"address"},{"internalType":"address","name":"buyer","type":"address"},{"internalType":"uint256","name":"productId","type":"uint256"},{"internalType":"uint256","name":"startDate","type":"uint256"},{"internalType":"uint256","name":"endDate","type":"uint256"},{"internalType":"string","name":"status","type":"string"},{"components":[{"internalType":"uint256","name":"step","type":"uint256"},{"internalType":"uint256","name":"pricePerUnit","type":"uint256"},{"internalType":"address","name":"requestFrom","type":"address"},{"internalType":"uint256","name":"timestamp","type":"uint256"},{"internalType":"uint256","name":"endDate","type":"uint256"}],"internalType":"struct TrustFlow.NegotiationStep[]","name":"negotiationHistory","type":"tuple[]"},{"internalType":"bool","name":"exists","type":"bool"}],"internalType":"struct TrustFlow.Relationship","name":"","type":"tuple"}],"stateMutability":"view","type":"function"},{"inputs":[{"internalType":"uint256","name":"_listingId","type":"uint256"}],"name":"getSpotListing","outputs":[{"components":[{"internalType":"uint256","name":"id","type":"uint256"},{"internalType":"uint256","name":"productId","type":"uint256"},{"internalType":"address","name":"seller","type":"address"},{"internalType":"uint256","name":"quantityAvailable","type":"uint256"},{"internalType":"uint256","name":"pricePerUnit","type":"uint256"},{"internalType":"uint256","name":"listedDate","type":"uint256"},{"internalType":"bool","name":"isActive","type":"bool"}],"internalType":"struct TrustFlow.SpotListing","name":"","type":"tuple"}],"stateMutability":"view","type":"function"},{"inputs":[{"internalType":"uint256","name":"_transactionId","type":"uint256"}],"name":"getTransaction","outputs":[{"components":[{"internalType":"uint256","name":"id","type":"uint256"},{"internalType":"address","name":"buyer","type":"address"},{"internalType":"address","name":"seller","type":"address"},{"internalType":"uint256","name":"productId","type":"uint256"},{"internalType":"uint256","name":"quantity","type":"uint256"},{"internalType":"uint256","name":"totalPrice","type":"uint256"},{"internalType":"string","name":"transactionType","type":"string"},{"internalType":"uint256","name":"timestamp","type":"uint256"},{"internalType":"string","name":"status","type":"string"}],"internalType":"struct TrustFlow.Transaction","name":"","type":"tuple"}],"stateMutability":"view","type":"function"},{"inputs":[{"internalType":"address","name":"_userAddress","type":"address"}],"name":"getTransactionHistory","outputs":[{"internalType":"uint256[]","name":"","type":"uint256[]"}],"stateMutability":"view","type":"function"},{"inputs":[{"internalType":"address","name":"_address","type":"address"}],"name":"isCompanyRegistered","outputs":[{"internalType":"bool","name":"","type":"bool"}],"stateMutability":"view","type":"function"},{"inputs":[{"internalType":"uint256","name":"_productId","type":"uint256"},{"internalType":"uint256","name":"_quantity","type":"uint256"},{"internalType":"uint256","name":"_pricePerUnit","type":"uint256"}],"name":"listProductForSale","outputs":[],"stateMutability":"nonpayable","type":"function"},{"inputs":[{"internalType":"string","name":"_name","type":"string"},{"internalType":"string","name":"_description","type":"string"},{"internalType":"string","name":"_imageHash","type":"string"},{"internalType":"uint256","name":"_quantityToProduce","type":"uint256"},{"internalType":"uint256[]","name":"_ingredientIds","type":"uint256[]"},{"internalType":"uint256[]","name":"_quantitiesNeeded","type":"uint256[]"},{"internalType":"uint256","name":"_pricePerUnit","type":"uint256"}],"name":"manufactureProduct","outputs":[],"stateMutability":"nonpayable","type":"function"},{"inputs":[{"internalType":"uint256","name":"_relationshipId","type":"uint256"},{"internalType":"uint256","name":"_newPricePerUnit","type":"uint256"},{"internalType":"uint256","name":"_newEndDate","type":"uint256"}],"name":"negotiateRelationship","outputs":[],"stateMutability":"nonpayable","type":"function"},{"inputs":[],"name":"nextCompanyId","outputs":[{"internalType":"uint256","name":"","type":"uint256"}],"stateMutability":"view","type":"function"},{"inputs":[],"name":"nextOrderId","outputs":[{"internalType":"uint256","name":"","type":"uint256"}],"stateMutability":"view","type":"function"},{"inputs":[],"name":"nextProductId","outputs":[{"internalType":"uint256","name":"","type":"uint256"}],"stateMutability":"view","type":"function"},{"inputs":[],"name":"nextRelationshipId","outputs":[{"internalType":"uint256","name":"","type":"uint256"}],"stateMutability":"view","type":"function"},{"inputs":[],"name":"nextSpotListingId","outputs":[{"internalType":"uint256","name":"","type":"uint256"}],"stateMutability":"view","type":"function"},{"inputs":[],"name":"nextTransactionId","outputs":[{"internalType":"uint256","name":"","type":"uint256"}],"stateMutability":"view","type":"function"},{"inputs":[{"internalType":"uint256","name":"","type":"uint256"}],"name":"orders","outputs":[{"internalType":"uint256","name":"id","type":"uint256"},{"internalType":"address","name":"buyer","type":"address"},{"internalType":"address","name":"seller","type":"address"},{"internalType":"uint256","name":"productId","type":"uint256"},{"internalType":"uint256","name":"quantity","type":"uint256"},{"internalType":"uint256","name":"unitPrice","type":"uint256"},{"internalType":"uint256","name":"totalPrice","type":"uint256"},{"internalType":"string","name":"orderType","type":"string"},{"internalType":"string","name":"status","type":"string"},{"internalType":"uint256","name":"createdAt","type":"uint256"},{"internalType":"uint256","name":"approvalDeadline","type":"uint256"},{"internalType":"uint256","name":"paymentDeadline","type":"uint256"},{"internalType":"string","name":"notes","type":"string"},{"internalType":"bool","name":"exists","type":"bool"},{"internalType":"bool","name":"isPartialTransfer","type":"bool"},{"internalType":"uint256","name":"originalProductId","type":"uint256"},{"internalType":"uint256","name":"listingId","type":"uint256"}],"stateMutability":"view","type":"function"},{"inputs":[{"internalType":"uint256","name":"_orderId","type":"uint256"}],"name":"payForOrder","outputs":[],"stateMutability":"payable","type":"function"},{"inputs":[{"internalType":"uint256","name":"_relationshipId","type":"uint256"},{"internalType":"uint256","name":"_quantity","type":"uint256"},{"internalType":"string","name":"_notes","type":"string"}],"name":"placeOrder","outputs":[],"stateMutability":"nonpayable","type":"function"},{"inputs":[{"internalType":"uint256","name":"_relationshipId","type":"uint256"},{"internalType":"uint256","name":"_quantity","type":"uint256"}],"name":"placeRelationshipOrder","outputs":[],"stateMutability":"nonpayable","type":"function"},{"inputs":[{"internalType":"uint256","name":"","type":"uint256"}],"name":"products","outputs":[{"internalType":"uint256","name":"id","type":"uint256"},{"internalType":"string","name":"name","type":"string"},{"internalType":"string","name":"description","type":"string"},{"internalType":"string","name":"imageHash","type":"string"},{"internalType":"bool","name":"isManufactured","type":"bool"},{"internalType":"address","name":"originalCreator","type":"address"},{"internalType":"uint256","name":"quantity","type":"uint256"},{"internalType":"uint256","name":"pricePerUnit","type":"uint256"},{"internalType":"address","name":"currentOwner","type":"address"},{"internalType":"uint256","name":"createdTime","type":"uint256"},{"internalType":"bool","name":"exists","type":"bool"}],"stateMutability":"view","type":"function"},{"inputs":[{"internalType":"string","name":"_name","type":"string"},{"internalType":"address","name":"_address","type":"address"}],"name":"registerCompany","outputs":[],"stateMutability":"nonpayable","type":"function"},{"inputs":[{"internalType":"uint256","name":"_orderId","type":"uint256"},{"internalType":"string","name":"_reason","type":"string"}],"name":"rejectOrder","outputs":[],"stateMutability":"nonpayable","type":"function"},{"inputs":[{"internalType":"uint256","name":"_relationshipId","type":"uint256"}],"name":"rejectRelationship","outputs":[],"stateMutability":"nonpayable","type":"function"},{"inputs":[{"internalType":"uint256","name":"","type":"uint256"}],"name":"relationships","outputs":[{"internalType":"uint256","name":"id","type":"uint256"},{"internalType":"address","name":"supplier","type":"address"},{"internalType":"address","name":"buyer","type":"address"},{"internalType":"uint256","name":"productId","type":"uint256"},{"internalType":"uint256","name":"startDate","type":"uint256"},{"internalType":"uint256","name":"endDate","type":"uint256"},{"internalType":"string","name":"status","type":"string"},{"internalType":"bool","name":"exists","type":"bool"}],"stateMutability":"view","type":"function"},{"inputs":[{"internalType":"uint256","name":"_listingId","type":"uint256"}],"name":"removeSpotListing","outputs":[],"stateMutability":"nonpayable","type":"function"},{"inputs":[{"internalType":"address","name":"_supplier","type":"address"},{"internalType":"address","name":"_buyer","type":"address"},{"internalType":"uint256","name":"_productId","type":"uint256"},{"internalType":"uint256","name":"_pricePerUnit","type":"uint256"},{"internalType":"uint256","name":"_startDate","type":"uint256"},{"internalType":"uint256","name":"_endDate","type":"uint256"}],"name":"requestRelationship","outputs":[],"stateMutability":"nonpayable","type":"function"},{"inputs":[],"name":"seedTestData","outputs":[],"stateMutability":"nonpayable","type":"function"},{"inputs":[{"internalType":"uint256","name":"","type":"uint256"}],"name":"spotListings","outputs":[{"internalType":"uint256","name":"id","type":"uint256"},{"internalType":"uint256","name":"productId","type":"uint256"},{"internalType":"address","name":"seller","type":"address"},{"internalType":"uint256","name":"quantityAvailable","type":"uint256"},{"internalType":"uint256","name":"pricePerUnit","type":"uint256"},{"internalType":"uint256","name":"listedDate","type":"uint256"},{"internalType":"bool","name":"isActive","type":"bool"}],"stateMutability":"view","type":"function"},{"inputs":[{"internalType":"uint256","name":"","type":"uint256"}],"name":"transactions","outputs":[{"internalType":"uint256","name":"id","type":"uint256"},{"internalType":"address","name":"buyer","type":"address"},{"internalType":"address","name":"seller","type":"address"},{"internalType":"uint256","name":"productId","type":"uint256"},{"internalType":"uint256","name":"quantity","type":"uint256"},{"internalType":"uint256","name":"totalPrice","type":"uint256"},{"internalType":"string","name":"transactionType","type":"string"},{"internalType":"uint256","name":"timestamp","type":"uint256"},{"internalType":"string","name":"status","type":"string"}],"stateMutability":"view","type":"function"},{"inputs":[{"internalType":"uint256","name":"_productId","type":"uint256"},{"internalType":"address","name":"_newOwner","type":"address"},{"internalType":"uint256","name":"_quantity","type":"uint256"}],"name":"transferProduct","outputs":[],"stateMutability":"nonpayable","type":"function"},{"inputs":[{"internalType":"string","name":"_newName","type":"string"},{"internalType":"address","name":"_newAddress","type":"address"}],"name":"updateCompanyDetails","outputs":[],"stateMutability":"nonpayable","type":"function"},{"inputs":[{"internalType":"address","name":"","type":"address"},{"internalType":"uint256","name":"","type":"uint256"}],"name":"userOrders","outputs":[{"internalType":"uint256","name":"","type":"uint256"}],"stateMutability":"view","type":"function"},{"inputs":[{"internalType":"address","name":"","type":"address"},{"internalType":"uint256","name":"","type":"uint256"}],"name":"userTransactions","outputs":[{"internalType":"uint256","name":"","type":"uint256"}],"stateMutability":"view","type":"function"},{"inputs":[],"name":"viewAllActiveListings","outputs":[{"internalType":"uint256[]","name":"","type":"uint256[]"}],"stateMutability":"view","type":"function"}],"evm":{"bytecode":{"linkReferences":{},"object":"608080604052346033576001600a556001600b556001600c556001600d556001600e556001600f5561a68290816100398239f35b600080fdfe60a0604052600436101561001257600080fd5b60003560e01c80621978b9146186f557806304f1c5fa146186d65780630946e5de146186265780630fecef481461851e57806310f3055314617f105780631a481ecf14617b385780631bbe77d6146179965780631cf93677146178745780631f061794146172345780631f2bf469146171ba57806324a37576146170155780632a58b33014616ff75780632c95f83c14616e7a578063313aa18e14616e0c5780633227851b14616a3c578063322e41b51461686457806333ea3dc8146166e4578063355e6ce81461665b57806337a6acde1461618a5780633a875a4314615160578063408bf4c31461611b57806342c53c761461609f57806343acd106146160815780634877d74414615bf05780634de91a6314615bd257806351f2ea9e14615a7557806355a5b04f146154db57806356cbee911461544c57806356ea04a31461540757806362bc56e6146152d2578063785c63c7146151655780637a202cc1146151605780637acc0b20146150485780637d16d1cc14614f52578063849d827f14614de7578063856652e914614d9d578063872a84ea14614c405780638eb933a114614bca57806394aa271814614b1b578063988ce1fe14613faa5780639ac5508b146137625780639ace38c21461368f578063a85c38ef146134ec578063b842ec44146134a2578063b9cd180514613442578063b9db15b414613148578063bb23a31a14612ef4578063bd70baa814612977578063c332b842146118bb578063c589ee1f1461185b578063c922121a1461177b578063d09ef2411461140c578063d1fa4be21461128f578063d20cf0e814611218578063d7ca38f3146111fa578063d8d3c829146111dc578063d9c2dcee14610b15578063dcd50ae614610ae2578063dfe6b5d614610a70578063e0a2019314610848578063e32eca8d14610662578063e810f824146104d0578063ec35356e14610341578063f7dc795c146103235763fcdaeb64146102e657600080fd5b3461031e57602036600319011261031e5760043560065481101561031e5761030f602091618ce4565b90549060031b1c604051908152f35b600080fd5b3461031e57600036600319011261031e576020600d54604051908152f35b3461031e57600036600319011261031e57600e54600090818060015b8381106103a15750600019830192831161038b57608093604051938452602084015260408301526060820152f35b634e487b7160e01b600052601160045260246000fd5b80600052600460205260ff600e60406000200154166103c3575b60010161035d565b938460005260046020526103e76103ee600860406000200160405192838092618bee565b0382618a85565b602081519101206103fd618f44565b6020815191012014600014610420576104176001916193f8565b945b90506103bb565b93908160005260046020526103e7610445600860406000200160405192838092618bee565b60208151910120610454619a1e565b60208151910120146000146104745761046e6001916193f8565b91610419565b908060005260046020526103e7610498600860406000200160405192838092618bee565b602081519101206104a7619989565b60208151910120146104bc575b600190610419565b916104c86001916193f8565b9290506104b4565b3461031e57602036600319011261031e576001600160a01b036104f161896a565b168060005260096020526040600020906040518083602082955493848152019060005260206000209260005b81811061064957505061053292500383618a85565b61053c82516193a5565b91600090815b81518110156105fa5761055581836193e4565b516000908152600460205260409020600101546001600160a01b03168414806105b0575b610586575b600101610542565b916105a860019161059785856193e4565b516105a282896193e4565b526193f8565b92905061057e565b506105bb81836193e4565b5160005260046020526103e76105de600860406000200160405192838092618bee565b602081519101206105ed619a1e565b6020815191012014610579565b8483610605816193a5565b9160005b82811061062a576040516020808252819061062690820187618996565b0390f35b80610637600192846193e4565b5161064282876193e4565b5201610609565b845483526001948501948794506020909301920161051d565b3461031e576107a861067336618e95565b92909233600052600060205261069660ff60026040600020015460a01c16619407565b8260005260016020526106b360ff600b60406000200154166190df565b6000838152600160205260409020600901546106d9906001600160a01b03163314619a44565b6106e48415156194ef565b6106ef81151561953b565b82600052600160205261070c846007604060002001541015619beb565b6006600d546040519261071e84618a32565b81845260208401908682526040850133815260608601908982526080870192835260a087019342855260c088019560018752600052600360205260406000209751885551600188015560018060a01b03905116600287019060018060a01b031660018060a01b03198254161790555160038601555160048501555160058401555115159101619599565b600d5491600654600160401b8110156108325761082d936107d48260016107ed94016006556006618d15565b90919082549060031b91821b91600019901b1916179055565b7fc5381a6c42951b57ed48d67edef856a28eff1a2de3ad867d5f4544b9078beb376060600d549384936040519182523360208301526040820152a26193f8565b600d55005b634e487b7160e01b600052604160045260246000fd5b3461031e5761085636618e95565b82600052600260205261087360ff60086040600020015416618eaf565b82600052600260205260018060a01b036001604060002001541633148015610a4c575b61089f90618ef9565b8260005260026020526108e16103e76108c5600660406000200160405192838092618bee565b602081519101206108d4618f44565b6020815191012014618f69565b6108ec82151561953b565b42811115610a07578260005260026020526040600020916007830191825492610916841515618fc0565b600019840184811161038b5761092c9082619012565b50600201546001600160a01b031633146109a6576001840180941161038b5760008051602061a5cd8339815191529461098e6005926040519061096e82618a17565b878252866020830152336040830152426060830152856080830152619b59565b01556109a1604051928392339184618d5f565b0390a2005b60405162461bcd60e51b815260206004820152603360248201527f43616e6e6f74206e65676f7469617465207768656e20796f752061726520746860448201527265207265717565737446726f6d20706172747960681b6064820152608490fd5b60405162461bcd60e51b815260206004820152601e60248201527f456e642064617465206d75737420626520696e207468652066757475726500006044820152606490fd5b50600083815260026020819052604090912001546001600160a01b03163314610896565b3461031e57600036600319011261031e57600a54600019810190811161038b57600b5460001981019190821161038b57600c5460001981019290831161038b57600f54600019810190811161038b5760a093600654926040519485526020850152604084015260608301526080820152f35b3461031e57602036600319011261031e57610626610b0160043561a03a565b604051918291602083526020830190618996565b602036600319011261031e57600435806000526004602052610b4160ff600e604060002001541661926b565b6000818152600460205260409020600101546001600160a01b0316330361119757806000526004602052604060002090600080600d8401908154925b83811061115b575b50156111015760005b82811061107d575050506006820191825491610bac83341015619ff7565b6000808080600286019660018060a01b03885416828215611074575bf11561105f57835480341161103a575b50807fa4678e82fe7b97eb2133ead828ed5d14ebb0c83961617dc347b698964d070b66604086548151903382526020820152a260409060008051602061a60d8339815191528251610c298482618a85565b601181527014185e5b595b9d0818dbdb5c1b195d1959607a1b602082015282600052600460205283600020610c956001820191600d60018060a01b0384541691885192610c75846189e0565b428452610c8061971d565b6020850152868a850152606084015201619747565b548451918291610cb1916001600160a01b0390911690836199d3565b0390a260088201610ccb610cc58254618bb4565b82619045565b60126818dbdb5c1b195d195960ba1b019055600f5460018301805485546003860154600487015498548651959994976007810196909590946001600160a01b03908116941692610d1a866189fb565b8b865260208601948552888601938452606086019081526080860191825260a08601928352885193610d5785610d50818c618bee565b0386618a85565b60c0870194855260e0870195428752610d6e619989565b610100890190815260009e8f52600560208190529e8c90209851895590516001890180546001600160a01b03199081166001600160a01b0393841617909155925160028a018054909416911617909155905160038701559051600486015590519984019990995551805160068401916001600160401b03821161083257610dff82610df98554618bb4565b8561909a565b602090601f8311600114610fce579180610e2892600897969594600092610fc3575b5050619586565b90555b51600782015501955195865160018060401b03811161083257610e5881610e528454618bb4565b8461909a565b6020601f8211600114610f445791610e938260008051602061a48d83398151915297969593610f2c95610f349c600092610f39575050619586565b90555b85546001600160a01b031660009081526008602052849020600f54610eba916199b0565b86546001600160a01b031660009081526008602052849020600f54610ede916199b0565b54916060845194859460008051602061a5ed833981519152600080a2600f54975498546001600160a01b03998a16865290981660208501529683019690965293948594906060830190618bee565b0390a26193f8565b600f55005b015190508c80610e21565b601f1982169883600052816000209960005b818110610fab575092610f349a610f2c95936001938360008051602061a48d8339815191529b9a999710610f92575b505050811b019055610e96565b015160001960f88460031b161c191690558b8080610f85565b838301518c556001909b019a60209384019301610f56565b015190508d80610e21565b90601f1983169184600052816000209260005b81811061102257509160019391856008999897969410611009575b505050811b019055610e2b565b015160001960f88460031b161c191690558c8080610ffc565b92936020600181928786015181550195019301610fe1565b60008080611049819434619005565b81811561106b575b3390f11561105f5784610bd8565b6040513d6000823e3d90fd5b506108fc611051565b506108fc610bc8565b600161109d61108c83856196d4565b506103e76040518094819301618bee565b602081519101206110ac61971d565b60208151910120146110c057600101610b8e565b60405162461bcd60e51b815260206004820152601960248201527814185e5b595b9d08185b1c9958591e4818dbdb5c1b195d1959603a1b6044820152606490fd5b60405162461bcd60e51b815260206004820152602c60248201527f43616e6e6f7420706179206265666f7265207175616c69747920636865636b2060448201526b1a5cc818dbdb5c1b195d195960a21b6064820152608490fd5b600161116a61108c83866196d4565b602081519101206111796196f0565b602081519101201461118d57600101610b7d565b5050600185610b85565b60405162461bcd60e51b815260206004820152601d60248201527f4f6e6c792062757965722063616e2070617920666f72206f72646572730000006044820152606490fd5b3461031e57600036600319011261031e576020600a54604051908152f35b3461031e57600036600319011261031e576020600f54604051908152f35b3461031e57602036600319011261031e576001600160a01b0361123961896a565b166000526008602052604060002060405190816020825491828152019160005260206000209060005b8181106112795761062685610b0181870382618a85565b8254845260209093019260019283019201611262565b3461031e57602036600319011261031e576001600160a01b036112b061896a565b168060005260096020526040600020906040518083602082955493848152019060005260206000209260005b8181106113f35750506112f192500383618a85565b6112fb82516193a5565b91600090815b81518110156113a85761131481836193e4565b516000908152600460205260409020600201546001600160a01b031684148061135e575b611345575b600101611301565b9161135660019161059785856193e4565b92905061133d565b5061136981836193e4565b5160005260046020526103e761138c600860406000200160405192838092618bee565b6020815191012061139b618f44565b6020815191012014611338565b84836113b3816193a5565b9160005b8281106113d4576040516020808252819061062690820187618996565b806113e1600192846193e4565b516113ec82876193e4565b52016113b7565b84548352600194850194879450602090930192016112dc565b3461031e57602036600319011261031e57600435600061022060405161143181618a69565b8281528260208201528260408201528260608201528260808201528260a08201528260c0820152606060e08201526060610100820152826101208201528261014082015282610160820152606061018082015260606101a0820152826101c0820152826101e082015282610200820152015280600052600460205260ff600e6040600020015416156117445760005260046020526040600020604051906114d782618a69565b8054825260018101546001600160a01b0390811660208401526002820154166040808401919091526003820154606084015260048201546080840152600582015460a0840152600682015460c084015251611539816103e78160078601618bee565b60e0830152604051611552816103e78160088601618bee565b6101008301526009810154610120830152600a810154610140830152600b81015461016083015260405161158d816103e781600c8601618bee565b61018083015260106115a1600d8301619307565b916101a0840192835260ff600e82015481811615156101c087015260081c1615156101e0850152600f810154610200850152015461022083015260405190602082528251602083015260018060a01b03602084015116604083015260018060a01b03604084015116606083015260608301516080830152608083015160a083015260a083015160c083015260c083015160e08301526116ac61167061165860e08601516102406101008701526102608601906188fd565b610100860151858203601f19016101208701526188fd565b610120850151610140850152610140850151610160850152610160850151610180850152610180850151601f19858303016101a08601526188fd565b905190601f19838203016101c0840152815180825260208201916020808360051b8301019401926000915b838310611717578680876102208b6101c081015115156101e08501526101e081015115156102008501526102008101518285015201516102408301520390f35b9091929394602080611735600193601f198682030187528951618922565b970193019301919392906116d7565b60405162461bcd60e51b815260206004820152600f60248201526e13dc99195c881b9bdd08199bdd5b99608a1b6044820152606490fd5b3461031e57602036600319011261031e576004356000606060405161179f816189e0565b82815281602082015281604082015201528060005260046020526117cd60ff600e604060002001541661926b565b6000526004602052600d6040600020018054801561181b57600019810190811161038b5761180161180791610626936196d4565b506192ae565b604051918291602083526020830190618922565b60405162461bcd60e51b8152602060048201526018602482015277139bc819195b1a5d995c9e48195d995b9d1cc8199bdd5b9960421b6044820152606490fd5b3461031e57602036600319011261031e5760043580600052600160205261188c60ff600b60406000200154166190df565b60005260016020526106266118a76004604060002001619f74565b604051918291602083526020830190618e35565b3461031e57600036600319011261031e576040516118d8816189e0565b6001815260409081516118eb8382618a85565b601381527254656368436f727020496e647573747269657360681b6020820152602082019081528282019160008051602061a5ad833981519152835260608101916001835260008051602061a5ad8339815191526000526000602052846000209151825560018201905180519060018060401b0382116108325761197382610df98554618bb4565b602090601f831160011461290c57918061199a926002969594600092612896575050619586565b90555b92519201805491516001600160a81b03199092166001600160a01b03939093169290921790151560a01b60ff60a01b1617905580516119db816189e0565b6002815281516119eb8382618a85565b601581527410dbdb5c1bdb995b9d14dd5c1c1b1a595c88131d19605a1b6020820152602082019081528282019160008051602061a4ed833981519152835260608101916001835260008051602061a4ed8339815191526000526000602052846000209151825560018201905180519060018060401b03821161083257611a7582610df98554618bb4565b602090601f83116001146128a1579180611a9c926002969594600092612896575050619586565b90555b92519201805491516001600160a81b03199092166001600160a01b03939093169290921790151560a01b60ff60a01b16179055600754600160401b81101561083257806001611af392016007556007618d15565b81546001600160a01b0360039290921b91821b191660008051602061a5ad83398151915290911b179055600754600160401b81101561083257806001611b3e92016007556007618d15565b81546001600160a01b03600392831b90811b1990911660008051602061a4ed83398151915290911b17909155600a55600160008181526020829052828120829055829020018054611b9290610cc590618bb4565b6022700496e74656c20693720435055204368697607c1b0190556001600052600160205260028160002001611bc78154618bb4565b601f8111612871575b506069815560005273736f72206368697020666f72206c6170746f707360601b600160206000207f486967682d706572666f726d616e636520496e74656c2069372070726f636573815501556001600052600160205260038160002001611c40611c3a8254618bb4565b8261906f565b60778155600090815260208082207f6261666b726569616e6f3333726c616137646c35616333727477746766787a6981557a7a73756473786c677369626e6b65666c64737378786b737972716160281b60019182015580835290819052828220606460079190910155828220670429d069189e00006008919091015582822060090180546001600160a01b03191660008051602061a4ed83398151915217905582822042600a9190910155828220600b01805460ff19908116909217905582822060059081018054909216909155828220018054610100600160a81b0319167470997970c51812dc3a010c7d01b50e0d17dc79c800179055819020611d47906006016195cf565b60026000526001602052600281600020556002600052600160205260018160002001611d738154618bb4565b601f811161284f575b5060247111d85b5a5b99c8135bdd1a195c989bd85c9960721b0190556002600052600160205260028160002001611db38154618bb4565b601f811161282a575b50606781556000527207570706f727420616e64205043496520352e3606c1b600160206000207f486967682d656e64206d6f74686572626f617264207769746820444452352073815501556002600052600160205260038160002001611e25611c3a8254618bb4565b607781556000908152602080822060008051602061a62d833981519152815560008051602061a50d83398151915260019182015560028352908190528282206050600791909101558282206702c68af0bb1400006008919091015582822060090180546001600160a01b03191660008051602061a4ed83398151915217905582822042600a9190910155828220600b01805460ff19908116909217905582822060059081018054909216909155828220018054610100600160a81b0319167470997970c51812dc3a010c7d01b50e0d17dc79c800179055819020611f0b906006016195cf565b60036000526001602052600381600020556003600052600160205260018160002001611f378154618bb4565b601f8111612808575b50602672135958da185b9a58d85b0812d95e589bd85c99606a1b0190556003600052600160205260028160002001611f788154618bb4565b601f81116127e3575b50605f81556000526e727279204d5820737769746368657360881b600160206000207f524742206d656368616e6963616c206b6579626f617264207769746820436865815501556003600052600160205260038160002001611fe6611c3a8254618bb4565b607781556000908152602080822060008051602061a62d833981519152815560008051602061a50d833981519152600191820155600383529081905282822060966007919091015582822066b1a2bc2ec500006008919091015582822060090180546001600160a01b03191660008051602061a4ed83398151915217905582822042600a9190910155828220600b01805460ff19908116909217905582822060059081018054909216909155828220018054610100600160a81b0319167470997970c51812dc3a010c7d01b50e0d17dc79c8001790558190206120cb906006016195cf565b600460005260016020526004816000205560046000526001602052600181600020016120fa610cc58254618bb4565b60227047616d696e67204c6170746f702050726f60781b019055600460005260016020526002816000200161212f8154618bb4565b601f81116127be575b5060718155600052772066726f6d207072656d69756d20636f6d706f6e656e747360401b600160206000207f486967682d656e642067616d696e67206c6170746f7020617373656d626c65648155015560046000526001602052600381600020016121a6611c3a8254618bb4565b607781556000908152602080822060008051602061a62d833981519152815560008051602061a50d8339815191526001918201556004835290819052828220600a6007919091018190558383206714d1120d7b1600006008919091015583832060090180546001600160a01b03191660008051602061a5ad83398151915217905583832042910155828220600b01805460ff199081168317909155838320600590810180549092169092179055828220018054610100600160a81b03191674f39fd6e51aad88f6f4ce6ab8827279cfffb92266001790558190206006018054600160401b811015610832576122a091600182018155618d15565b81546001600160a01b0360039290921b91821b191660008051602061a5ad83398151915290911b1790556004600081815260016020528290200142610e0f19810190811161038b576123246123b5928451906122fb826189e0565b600182526002602083015260008051602061a4ed83398151915286830152836060830152619f0e565b6004600052600160205260048360002001612370600091855190612347826189e0565b600282526001602083015260008051602061a4ed83398151915287830152846060830152619f0e565b600481526001602052600484822001905083519161238d836189e0565b600383526001602084015260008051602061a4ed833981519152858401526060830152619f0e565b6005600b556001600081815260026020819052838220839055838220830180546001600160a01b031990811660008051602061a4ed83398151915217909155848320909101805490911660008051602061a5ad833981519152179055828120600301919091558190204260049190910181905562ed4e0081019190821061038b576126f99060016000526002602052826005826000200155600160005260026020526006816000200161246b610cc58254618bb4565b6010671858d8d95c1d195960c21b019055600160008181526002602052828120600801805460ff1916909217909155818120825191946124e89291600701906124b383618a17565b600183526703e2c284391c0000602084015260008051602061a4ed833981519152858401524260608401526080830152619b59565b6002600c5561259d81516124fb81618a32565b600181526006602082016002815284830160008051602061a4ed83398151915281526060840160148152608085019067027f7d0bdb920000825260a086019242845260c08701946001865260018c526003602052898c209751885551600188015560018060a01b03905116600287019060018060a01b031660018060a01b03198254161790555160038601555160048501555160058401555115159101619599565b61264c81516125ab81618a32565b600281526006602082016003815284830160008051602061a4ed833981519152815260608401603281526080850190669fdf42f6e48000825260a086019242845260c08701946001865260028c526003602052898c209751885551600188015560018060a01b03905116600287019060018060a01b031660018060a01b03198254161790555160038601555160048501555160058401555115159101619599565b600681519161265a83618a32565b60038352602083016004815281840160008051602061a5ad83398151915281526060850160038152608086019167136dcc951d8c0000835260a087019342855260c08801956001875260038b5260036020528a209751885551600188015560018060a01b03905116600287019060018060a01b031660018060a01b03198254161790555160038601555160048501555160058401555115159101619599565b600654600160401b8110156127aa5780600161271a92016006556006618d15565b815460001960039290921b91821b1916600190911b179055600654600160401b8110156127aa5780600161275392016006556006618d15565b815460001960039290921b91821b1916600290911b179055600654600160401b8110156127aa5780600161278c92016006556006618d15565b81549060031b906003821b91600019901b19161790556004600d5580f35b634e487b7160e01b82526041600452602482fd5b6127dd90826000526002601f6020600020920160051c8201910161902e565b82612138565b61280290826000526002601f6020600020920160051c8201910161902e565b82611f81565b6128249082600052601f6020600020910160051c81019061902e565b82611f40565b61284990826000526002601f6020600020920160051c8201910161902e565b82611dbc565b61286b9082600052601f6020600020910160051c81019061902e565b82611d7c565b61289090826000526002601f6020600020920160051c8201910161902e565b82611bd0565b015190508980610e21565b90601f1983169184600052816000209260005b8181106128f45750916001939185600298979694106128db575b505050811b019055611a9f565b015160001960f88460031b161c191690558880806128ce565b929360206001819287860151815501950193016128b4565b90601f1983169184600052816000209260005b81811061295f575091600193918560029897969410612946575b505050811b01905561199d565b015160001960f88460031b161c19169055888080612939565b9293602060018192878601518155019501930161291f565b612980366189ca565b903360005260006020526129a160ff60026040600020015460a01c16619407565b8060005260036020526129be60ff60066040600020015416619667565b6129c98215156194ef565b8060005260036020526129e6826003604060002001541015619beb565b600081815260036020526040902060020154612a0d906001600160a01b0316331415619c2f565b80600052600360205260406000209060048201548015612ede5780600019048411612e9e5783612a3c91619cba565b90612a4982341015619ff7565b60038301612a58858254619005565b80915515612e20575b600283019260008080808660018060a01b03895416828215612e17575bf11561105f57823411612de4575b6001612aa79101548560018060a01b0386541691339061a166565b600f548454604051929492906001600160a01b0316612ac5826189fb565b828252602082019033825260408301908152606083019687526080830189815260a0840190868252604098895193612afd8b86618a85565b60048552631cdc1bdd60e21b602086015260c0870194855260e0870195428752612b25619989565b61010089019081526000998a5260056020819052998d90209851895590516001890180546001600160a01b03199081166001600160a01b0393841617909155925160028a018054909416911617909155905160038701559051600486015590519484019490945551805160068401916001600160401b03821161083257612bb082610df98554618bb4565b602090601f8311600114612d78579180612bd892600897969594600092610fc3575050619586565b90555b5160078201559151805191909201916001600160401b03821161083257612c0682610df98554618bb4565b602090601f8311600114612ce557610f349860a0956060999895612c558660008051602061a48d8339815191529a9760008051602061a4cd833981519152978e97600092612cda575050619586565b90555b336000526008602052612c7186600020600f54906199b0565b600180881b038954166000526008602052612c9286600020600f54906199b0565b855191338352602083015285820152a2600f54948594600180851b0390541691805192338452602084015282015260046060820152631cdc1bdd60e21b6080820152a26193f8565b015190508f80610e21565b90601f1983169184600052816000209260005b818110612d60575095606099989560018660008051602061a4cd833981519152968d96610f349f9660008051602061a48d8339815191529d9a60a09d10612d47575b505050811b019055612c58565b015160001960f88460031b161c191690558e8080612d3a565b92936020600181928786015181550195019301612cf8565b90601f1983169184600052816000209260005b818110612dcc57509160019391856008999897969410612db3575b505050811b019055612bdb565b015160001960f88460031b161c191690558c8080612da6565b92936020600181928786015181550195019301612d8b565b6000808080612df38734619005565b818115612e0e575b3390f1612a8c576040513d6000823e3d90fd5b506108fc612dfb565b506108fc612a7e565b60068301805460ff19169055919060005b60065480821015612e955784612e4683618ce4565b90549060031b1c14612e5b5750600101612e31565b9293919260001981019190821161038b576107d4612e7b612e8893618ce4565b90549060031b1c91618ce4565b612e906196a8565b612a61565b50509091612a61565b60405162461bcd60e51b815260206004820152601860248201527750757263686173652076616c756520746f6f206c6172676560401b6044820152606490fd5b634e487b7160e01b600052601260045260246000fd5b3461031e57612f0236618d80565b90612f0f81511515619d4f565b6001600160a01b038216612f24811515619d92565b80600052600060205260ff60026040600020015460a01c1661310657600a5460405190612f50826189e0565b815260208101838152604082019183835260608101916001835284600052600060205260406000209151825560018201905180519060018060401b03821161083257612fa082610df98554618bb4565b602090601f831160011461309b579180612fc7926002969594600092613090575050619586565b90555b92519201805491516001600160a81b03199092166001600160a01b03939093169290921790151560a01b60ff60a01b16179055600754600160401b8110156108325761308b9361302582600161304994016007556007618d15565b9080546001600160a01b0360039390931b83811b199091169290931690921b179055565b7f3f9267152d801902ccbd0de944e3020e6cfe19ec1c3f0060f45bea24716dc451610f2c600a54936040519182918683526040602084015260408301906188fd565b600a55005b015190508b80610e21565b90601f1983169184600052816000209260005b8181106130ee5750916001939185600298979694106130d5575b505050811b019055612fca565b015160001960f88460031b161c191690558a80806130c8565b929360206001819287860151815501950193016130ae565b60405162461bcd60e51b815260206004820152601a60248201527910dbdb5c185b9e48185b1c9958591e481c9959da5cdd195c995960321b6044820152606490fd5b3461031e57602036600319011261031e57600435600061018060405161316d81618a4d565b8281526060602082015260606040820152606080820152606060808201528260a08201528260c0820152606060e082015282610100820152826101208201528261014082015282610160820152015280600052600160205260ff600b60406000200154161561340957600052600160205260406000206040516131ef81618a4d565b81548152604051806132048160018601618bee565b0361320f9082618a85565b6020820190815260405190816132288160028701618bee565b036132339083618a85565b604083810192835251938461324b8160038401618bee565b036132569086618a85565b6060840194855261326960048201619f74565b926080850193845260058201549560a086019660ff81161515885260c0870190600160a01b600190039060081c168152600684016132a690619124565b9060e0880191825260078501549661010089019788526008860154936101208a01948552600160a01b60019003600988015416956101408b01968752600a880154976101608c01988952600b015460ff16986101808c019915158a526040519b60208d525160208d01525160408c016101a090526101c08c01613328916188fd565b90518b8203601f190160608d015261334091906188fd565b90518a8203601f190160808c015261335891906188fd565b9051898203601f190160a08b01526133709190618e35565b9851151560c0890152516001600160a01b031660e088015251868803601f190161010088015280518089526000986020908101979201905b808a106133e65750505161012087015251610140860152516001600160a01b0316610160850152516101808401525115156101a08301528190039150f35b81516001600160a01b0316885260019990990198602097880197909101906133a8565b60405162461bcd60e51b8152602060048201526011602482015270141c9bd91d58dd081b9bdd08199bdd5b99607a1b6044820152606490fd5b3461031e57602036600319011261031e5760043580600052600260205261347360ff60086040600020015416618eaf565b600052600260205261062661348e6007604060002001619acc565b604051918291602083526020830190618b4e565b3461031e57604036600319011261031e576134bb61896a565b6001600160a01b031660009081526008602052604090208054602435919082101561031e5760209161030f91618d15565b3461031e57602036600319011261031e57600435600052600460205260406000208054600160a01b600190036001830154169180600160a01b6001900360028201541660038201549060048301549160058401546006850154604051908180600789019061355991618bee565b036135649083618a85565b60405192836135768160088b01618bee565b036135819085618a85565b600988015496600a89015495600b8a01549760405180600c819d01906135a691618bee565b036135b1908c618a85565b600e8c01549d600f8d01549c601001549d604051608052608051526080516020015260805160400152608051606001526080516080015260805160a0015260805160c0015260805160e001610220905260805161022001613611916188fd565b60805181036080516101000152613627916188fd565b9260805161012001526080516101400152608051610160015260805181036080516101800152613656916188fd565b9260ff811615156080516101a0015260081c60ff1615156080516101c001526080516101e0015260805161020001526080519003608051f35b3461031e57602036600319011261031e5760043560005260056020526040600020805461062660018060a01b0360018401541692600861374e60018060a01b0360028401541660038401546004850154600586015491604051936136fa85610d508160068c01618bee565b61371a600789015498613713604051809a819301618bee565b0388618a85565b6040519a8b9a8b5260208b015260408a01526060890152608088015260a087015261012060c08701526101208601906188fd565b9160e08501528382036101008501526188fd565b3461031e5760e036600319011261031e576004356001600160401b03811161031e57613792903690600401618aa8565b6024356001600160401b03811161031e576137b1903690600401618aa8565b906044356001600160401b03811161031e576137d1903690600401618aa8565b91606435906084356001600160401b03811161031e576137f5903690600401618dd8565b9060a4356001600160401b03811161031e57613815903690600401618dd8565b9360c43533600052600060205261383960ff60026040600020015460a01c16619407565b6138458251151561944c565b61385183511515619497565b61385c8515156194ef565b61386781151561953b565b835115613f5b578351865103613f015760005b8451811015613a4e5761388d81866193e4565b51600052600160205260ff600b6040600020015416156139ff576138b181866193e4565b5160005260016020523360018060a01b0360096040600020015416036139ba576138db81866193e4565b516000526001602052600760406000200154613901876138fb848b6193e4565b51619cba565b116139765761391081886193e4565b511561391e5760010161387a565b60405162461bcd60e51b815260206004820152602a60248201527f496e6772656469656e74207175616e74697479206d75737420626520677265616044820152690746572207468616e20360b41b6064820152608490fd5b606460405162461bcd60e51b815260206004820152602060248201527f496e73756666696369656e7420696e6772656469656e74207175616e746974796044820152fd5b60405162461bcd60e51b815260206004820152601d60248201527f596f7520646f6e2774206f776e207468697320696e6772656469656e740000006044820152606490fd5b60405162461bcd60e51b815260206004820152602160248201527f496e6772656469656e742070726f6475637420646f6573206e6f7420657869736044820152601d60fa1b6064820152608490fd5b508694929460005b8551811015613ad85780613a70866138fb6001948c6193e4565b613a7a82896193e4565b51600052826020526007604060002001613a95828254619005565b90557f60dbca619ae4e83fcd69533b72e2502296c44b0d2190b6106048cbbe0fd5ee5f6040613ac4848b6193e4565b51928151908152336020820152a201613a56565b50600b5460008181526001602081905260409091209182558451949793949293929101906001600160401b03811161083257613b1881610e528454618bb4565b6020601f8211600114613e9b579080613b3992600091613e90575b50619586565b90555b600b54600052600160205260026040600020019080519060018060401b03821161083257613b6e82610df98554618bb4565b602090601f8311600114613e2957613b90929160009183613e1e575050619586565b90555b600b54600052600160205260036040600020019080519060018060401b03821161083257613bc582610df98554618bb4565b602090601f8311600114613db757613be7929160009183612896575050619586565b90555b600b8054600090815260016020819052604080832060070186905583548352808320600801949094558254825283822060090180546001600160a01b031916339081179091558354835284832042600a9190910155835483528483208401805460ff1990811684179091558454845285842060059081018054909216909317905592548252929020613c7c92016195aa565b600b546000526001602052613c98336006604060002001619618565b60005b8251811015613cfe57600190600b5460005281602052613cf86004604060002001613cc683876193e4565b5190613cd2848a6193e4565b5160405192613ce0846189e0565b83526020830152336040830152426060830152619f0e565b01613c9b565b507f1e58a7ce9ae3cc9a3a5306b5b0635a56337fafa4f2cb8d8779a1e6f8cbf37767602060008051602061a52d83398151915293613db2957f315ad08c7b8ebe955384c76ef6079ff89d54da1c53dc05a5a1a06cf9393abc76613d9c89600b54809981998296613d7560405192839233908461963b565b0390a260405191829160608352613d8f6060840188618996565b9083820389850152618996565b3360408301520390a251604051908152a26193f8565b600b55005b90601f1983169184600052816000209260005b818110613e065750908460019594939210613ded575b505050811b019055613bea565b015160001960f88460031b161c19169055888080613de0565b92936020600181928786015181550195019301613dca565b015190508a80610e21565b90601f1983169184600052816000209260005b818110613e785750908460019594939210613e5f575b505050811b019055613b93565b015160001960f88460031b161c19169055898080613e52565b92936020600181928786015181550195019301613e3c565b90508901518b613b33565b601f1982169083600052806000209160005b8b828210613ee95750509083600194939210613ed0575b5050811b019055613b3c565b8a015160001960f88460031b161c191690558a80613ec4565b60018495602093958493015181550194019201613ead565b60405162461bcd60e51b815260206004820152602c60248201527f496e6772656469656e747320616e64207175616e74697469657320617272617960448201526b0e640daeae6e840dac2e8c6d60a31b6064820152608490fd5b60405162461bcd60e51b815260206004820152602160248201527f4d7573742068617665206174206c65617374206f6e6520696e6772656469656e6044820152601d60fa1b6064820152608490fd5b3461031e57613fb836618afe565b826000526004602052613fd560ff600e604060002001541661926b565b82600052600460205260018060a01b036001604060002001541633148015614af8575b61400190619a84565b815115614aba57805115614a775782600052600460205260406000209060209160405161402e8482618a85565b60008152600d8201805480151590816149f0575b50865192868801938420614054619a1e565b80519089012003614770575061472c57604051614078816103e78160088801618bee565b858151910120614086618f44565b868151910120036146ef575b8551822061409e619a1e565b8681519101201480156146d6575b80156146bd575b614658575b855182206140c4619e19565b86815191012014801561463f575b6145e6575b855182206140e361971d565b8681519101201461457d57604051614117916140fe826189e0565b4282528787830152856040830152336060830152619747565b84519020614123619a1e565b84815191012014614174575b509161416961415c9260008051602061a60d833981519152946040519485946060865260608601906188fd565b91848303908501526188fd565b3360408301520390a2005b60088101614185610cc58254618bb4565b601067185c1c1c9bdd995960c21b01905562093a80420180421161038b57600b820155600381018054600052600184526040600020906007820191825492600485019384549081811061453857818103614379575050506001840180546009830180546001600160a01b0319166001600160a01b0392831617905590548995949392614218929190911690600601619618565b600e8301805461ff001916905554600f8301555b604051614240816103e78160078701618bee565b85815191012091604092600b8785516142598782618a85565b828152016a6d61726b6574706c61636560a81b815220146142b0575b50509260008051602061a60d83398151915294926141699260008051602061a56d8339815191528361415c9751338152a2929450925061412f565b60109192935001546000526003845281600020906003820190815490549081811061433557866141699561415c989560008051602061a60d8339815191529a989561430b8d9660008051602061a56d83398151915296619005565b80915515614324575b5094509650509281949650614275565b600601805460ff191690558b614314565b845162461bcd60e51b815260048101889052601d60248201527f496e73756666696369656e74206c697374696e67207175616e746974790000006044820152606490fd5b9061438c919a9795939a99969499619005565b9055600e820161010061ff00198254161790558654600f830155600b54806000526001875280604060002055600052600186526143d3600189016001604060002001619e40565b600b54600052600186526143f1600289016002604060002001619e40565b600b546000526001865261440f600389016003604060002001619e40565b8054600b54600052600187526007604060002001556005820154600b5460005260018752600860406000200155600182019660018060a01b03885416600b546000526001885260096040600020019060018060a01b031660018060a01b0319825416179055600b546000526001875242600a60406000200155600b5460005260018752600b604060002001600160ff19825416179055600660009901985b89548110156144f257600190600b546000528189526144ec8b6144d883600660406000200192618d15565b858060a01b0391549060031b1c1690619618565b016144ad565b50859850614525614530929394969598600b546000526001895260066040600020019060018060a01b0390541690619618565b600b548091556193f8565b600b5561422c565b60405162461bcd60e51b8152600481018a9052601d60248201527f496e73756666696369656e742070726f64756374207175616e746974790000006044820152606490fd5b60405162461bcd60e51b815260048101869052603b60248201527f7061796d656e745f73656e742063616e206f6e6c79206265206164646564207460448201527a343937bab3b4103830bca337b927b93232b910333ab731ba34b7b760291b6064820152608490fd5b60018301546001600160a01b031633146140d75760405162461bcd60e51b815260048101869052601f60248201527f4f6e6c792062757965722063616e20616464206275796572206576656e7473006044820152606490fd5b508551822061464c6196f0565b868151910120146140d2565b60028301546001600160a01b031633146140b85760405162461bcd60e51b815260048101869052602360248201527f4f6e6c792073656c6c65722063616e2061646420737570706c696572206576656044820152626e747360e81b6064820152608490fd5b50855182206146ca619df4565b868151910120146140b3565b50855182206146e3619dd0565b868151910120146140ac565b60405162461bcd60e51b81526004810186905260156024820152744f72646572206d7573742062652070656e64696e6760581b6044820152606490fd5b60405162461bcd60e51b815260048101869052601c60248201527b105c1c1c9bdd9959081b5d5cdd08189948199a5c9cdd08195d995b9d60221b6044820152606490fd5b90508651832061477e619dd0565b805190880120036147ed57858151910120614797619a1e565b868151910120036147a8575b614092565b60405162461bcd60e51b815260048101869052601f60248201527f4d75737420626520617070726f766564206265666f7265207061636b696e67006044820152606490fd5b865183206147f9619df4565b8051908801200361486257858151910120614812619dd0565b805190870120146140925760405162461bcd60e51b815260048101869052601e60248201527f4d757374206265207061636b6564206265666f7265207368697070696e6700006044820152606490fd5b8651832061486e619e19565b805190880120036148d757858151910120614887619df4565b805190870120146140925760405162461bcd60e51b815260048101869052601f60248201527f4d7573742062652073686970706564206265666f72652064656c6976657279006044820152606490fd5b865183206148e36196f0565b8051908801200361495b578581519101206148fc619e19565b868151910120146147a35760405162461bcd60e51b815260048101869052602660248201527f4d7573742062652064656c697665726564206265666f7265207175616c69747960448201526520636865636b60d01b6064820152608490fd5b8651832061496761971d565b87815191012014614979575b50614092565b8581519101206149876196f0565b868151910120036149985787614973565b60405162461bcd60e51b815260048101869052602a60248201527f4d75737420636f6d706c657465207175616c69747920636865636b206265666f6044820152691c99481c185e5b595b9d60b21b6064820152608490fd5b60001981019350831161038b57614a24614a0c600194846196d4565b50614a1d6040518096819301618bee565b0384618a85565b82518684012087518888012014614a3b5788614042565b60405162461bcd60e51b81526004810187905260146024820152734576656e7420616c72656164792065786973747360601b6044820152606490fd5b60405162461bcd60e51b815260206004820152601b60248201527a4465736372697074696f6e2063616e6e6f7420626520656d70747960281b6044820152606490fd5b60405162461bcd60e51b81526020600482015260166024820152755374617475732063616e6e6f7420626520656d70747960501b6044820152606490fd5b506000838152600460205260409020600201546001600160a01b03163314613ff8565b3461031e57602036600319011261031e5760043560005260026020526040600020805460018060a01b0360018301541691614bbe60018060a01b03600283015416916003810154600482015460058301549160ff600860405195614b86876137138160068501618bee565b015416956040519889988952602089015260408801526060870152608086015260a085015261010060c08501526101008401906188fd565b90151560e08301520390f35b3461031e57600036600319011261031e5760405160068054808352600091825260208301917ff652222313e28459528d920b65115c16c04f3efc82aaedc97be59f3f377c0d3f91905b818110614c2a5761062685610b0181870382618a85565b8254845260209093019260019283019201614c13565b3461031e57602036600319011261031e57614c5961896a565b600c5490614c66826193a5565b9160009160015b828110614cc057505050614c80816193a5565b9160005b828110614ca1576040516020808252819061062690820187618996565b80614cae600192846193e4565b51614cb982876193e4565b5201614c84565b80600052600260205260ff6008604060002001541680614d48575b80614d08575b614cee575b600101614c6d565b92614d0081856105a2600194896193e4565b939050614ce6565b508060005260026020526103e7614d2c600660406000200160405192838092618bee565b60208151910120614d3b619d29565b6020815191012014614ce1565b506000818152600260205260409020600101546001600160a01b0383811691168114908115614d78575b50614cdb565b600083815260026020819052604090912001546001600160a01b031614905086614d72565b3461031e57604036600319011261031e57614db661896a565b6001600160a01b031660009081526009602052604090208054602435919082101561031e5760209161030f91618d15565b3461031e57614df536618d80565b336000526000602052614e1560ff60026040600020015460a01c16619407565b614e2182511515619d4f565b6001600160a01b0316614e35811515619d92565b33600052600060205260406000209160018301815160018060401b03811161083257614e6581610e528454618bb4565b6020601f8211600114614eda5791614e998260008051602061a46d833981519152969793600295600091614ecf5750619586565b90555b0180546001600160a01b031916841790556040805181815291614ec1918301906188fd565b9260208201528033930390a2005b905086015189613b33565b601f1982169083600052806000209160005b818110614f3a575092600294926001928260008051602061a46d833981519152999a9610614f21575b5050811b019055614e9c565b87015160001960f88460031b161c191690558880614f15565b9192602060018192868a015181550194019201614eec565b3461031e57602036600319011261031e57600060c0604051614f7381618a32565b8281528260208201528260408201528260608201528260808201528260a08201520152600435600052600360205260e06040600020604051614fb481618a32565b81549182825260018101546020830190815260018060a01b0360028301541660408401908152600383015490606085019182526004840154926080860193845260c060ff600660058801549760a08a019889520154169601951515865260405196875251602087015260018060a01b0390511660408601525160608501525160808401525160a083015251151560c0820152f35b3461031e57602036600319011261031e57600435600052600160205260206040600020805490604051615082816103e78160018601618bee565b6040519161509783614a1d8160028501618bee565b604051926150b3846150ac8160038601618bee565b0385618a85565b600582015493600783015461511f60088501549261511160018060a01b036009880154169561510360ff600b600a8b01549a015416996101606040519e8f9e8f90815201526101608d01906188fd565b908b820360408d01526188fd565b9089820360608b01526188fd565b60ff87161515608089015260089690961c6001600160a01b031660a088015260c087015260e086015261010085015261012084015215156101408301520390f35b618c71565b3461031e57604036600319011261031e5761517e61896a565b6024356001600160401b03811161031e5761519d903690600401618aa8565b9060018060a01b031660005260096020526040600020906040518083602082955493848152019060005260206000209260005b8181106152b95750506151e592500383618a85565b6151ef82516193a5565b91600090819260208101935b825181101561526e5761520e81846193e4565b5160005260046020526103e7615231600860406000200160405192838092618bee565b60208151910120825186201461524a575b6001016151fb565b9261526660019161525b86866193e4565b516105a2828a6193e4565b939050615242565b8584615279816193a5565b9160005b82811061529a576040516020808252819061062690820187618996565b806152a7600192846193e4565b516152b282876193e4565b520161527d565b84548352600194850194879450602090930192016151d0565b3461031e57602036600319011261031e576152eb61896a565b600060606040516152fb816189e0565b828152816020820152826040820152015260018060a01b031680600052600060205260ff60026040600020015460a01c16156153ce576000526000602052604060002060405161534a816189e0565b81548152600260405192615365846150ac8160018501618bee565b602083019384520154604082019060018060a01b038116825260ff606084019160a01c16151581526153b260405194859460208652516020860152516080604086015260a08501906188fd565b91516001600160a01b0316606084015251151560808301520390f35b60405162461bcd60e51b815260206004820152601160248201527010dbdb5c185b9e481b9bdd08199bdd5b99607a1b6044820152606490fd5b3461031e57602036600319011261031e576001600160a01b0361542861896a565b166000526000602052602060ff60026040600020015460a01c166040519015158152f35b3461031e57602036600319011261031e5760043580600052600260205261547d60ff60086040600020015416618eaf565b60005260026020526007604060002001805461549a811515618fc0565b600019810190811161038b576154af91619012565b5060018101546004820154600290920154604051928392610626926001600160a01b0316919084618d5f565b3461031e576154e936618d2d565b9180600052600260205261550760ff60086040600020015416618eaf565b8060005260026020526103e761552a600660406000200160405192838092618bee565b60208151910120615539619d29565b6020815191012003615a3457600081815260026020819052604090912001546001600160a01b031633036159f1576155728215156194ef565b806000526002602052600460406000200154421015806159d6575b1561598e578060005260026020526003604060002001546000526001602052604060002060018060a01b0360098201541682600052600260205260018060a01b03600160406000200154160361594f578260076155ed9201541015619ccd565b600052600260205260406000209160078301805490600019820191821161038b5760019161561a91619012565b500154908115612ede576156348260001904841115619c76565b61563e8383619cba565b600e8054600081815260046020819052604080832093845560028a81018054600196870180546001600160a01b03199081166001600160a01b0393841617909155968d018054895488528588209094018054909816939091169290921790955560039a8b015486548552828520909b019a909a5584548352808320909101889055835482528082206005019690965582548152858120600601939093559054825292902060070180546156f490610cc590618bb4565b60186b072656c6174696f6e736869760a41b019055600e5460005260046020526008604060002001615729610cc58254618bb4565b600e6670656e64696e6760c81b019055600e546000526004602052426009604060002001556202a300420180421161038b57600e8054600090815260046020526040808220600a019390935581548152828120600b0181905590548152208151600c909101916001600160401b038211610832576157ab82610df98554618bb4565b602090601f83116001146158d257926157e48360c0946158cd999460008051602061a44d83398151915297600092613e1e575050619586565b90555b600e805460009081526004602090815260408083208401805460ff19166001179055835483528083208401805461ff001916905583548352808320600f018390558354835280832060100183905587546001600160a01b03168352600990915290209054615854916199b0565b80546001600160a01b03166000908152600960205260409020600e54615879916199b0565b600e5494859460018060a01b039054169160018060a01b039054166040519283526020830152604082015260806060820152600c60808201526b072656c6174696f6e736869760a41b60a0820152a26193f8565b600e55005b90601f1983169184600052816000209260005b8181106159375750936158cd989360008051602061a44d83398151915296936001938360c0981061591e575b505050811b0190556157e7565b015160001960f88460031b161c19169055898080615911565b929360206001819287860151815501950193016158e5565b60405162461bcd60e51b81526020600482015260248082015260008051602061a58d833981519152604482015263191d58dd60e21b6064820152608490fd5b60405162461bcd60e51b815260206004820152602c602482015260008051602061a4ad83398151915260448201526b6520666f72206f726465727360a01b6064820152608490fd5b5080600052600260205260056040600020015442111561558d565b60405162461bcd60e51b815260206004820152601b60248201527a4f6e6c792062757965722063616e20706c616365206f726465727360281b6044820152606490fd5b60405162461bcd60e51b815260206004820152601960248201527814995b185d1a5bdb9cda1a5c081b9bdd081858d8d95c1d1959603a1b6044820152606490fd5b3461031e57602036600319011261031e57615a8e61896a565b600c5490615a9b826193a5565b9160009160015b828110615af557505050615ab5816193a5565b9160005b828110615ad6576040516020808252819061062690820187618996565b80615ae3600192846193e4565b51615aee82876193e4565b5201615ab9565b80600052600260205260ff6008604060002001541680615b7d575b80615b3d575b615b23575b600101615aa2565b92615b3581856105a2600194896193e4565b939050615b1b565b508060005260026020526103e7615b61600660406000200160405192838092618bee565b60208151910120615b70618f44565b6020815191012014615b16565b506000818152600260205260409020600101546001600160a01b0383811691168114908115615bad575b50615b10565b600083815260026020819052604090912001546001600160a01b031614905086615ba7565b3461031e57600036600319011261031e576020600b54604051908152f35b3461031e57615bfe36618d2d565b91336000526000602052615c1f60ff60026040600020015460a01c16619407565b806000526003602052615c3c60ff60066040600020015416619667565b615c478215156194ef565b806000526003602052615c64826003604060002001541015619beb565b600081815260036020526040902060020154615c8b906001600160a01b0316331415619c2f565b80600052600360205260406000209060048201548015612ede57615cb58160001904851115619c76565b615cbf8482619cba565b90600184018054806000526001602052600260018060a01b036009604060002001541696019560018060a01b0387541603616031576000526001602052615d10866007604060002001541015619ccd565b600e80546000818152600460208190526040808320938455600190930180546001600160a01b0319908116331790915589548554845284842060020180549092166001600160a01b03919091161790559354835482528282206003015582548152818120909301889055815483528083206005019390935580548252828220600601939093559154825290206007018054615daa90618bb4565b601f811161600f575b5060166a6d61726b6574706c61636560a81b019055600e5460005260046020526008604060002001615de8610cc58254618bb4565b600e6670656e64696e6760c81b019055600e546000526004602052426009604060002001556202a300420180421161038b57600e546000526004602052600a60406000200155600e5460005260046020526000600b604082200155600e546000526004602052600c60406000200184519460018060401b03861161083257615e7486610e528454618bb4565b602090601f8711600114615fa5579580615e9a926158cd98600092615f9a575050619586565b90555b600e546000526004602052600e604060002001600160ff19825416179055600e546000526004602052600e60406000200161ff00198154169055600e5460005260046020526000600f604082200155600e546000526004602052601060406000200155336000526009602052615f1a6040600020600e54906199b0565b80546001600160a01b03166000908152600960205260409020600e54615f3f916199b0565b60008051602061a44d83398151915260c0600e5493849360018060a01b0390541690604051913383526020830152604082015260806060820152600b60808201526a6d61726b6574706c61636560a81b60a0820152a26193f8565b015190508880610e21565b90601f1987169183600052816000209260005b818110615ff757509160019391896158cd9a9410615fde575b505050811b019055615e9d565b015160001960f88460031b161c19169055878080615fd1565b92936020600181928786015181550195019301615fb8565b61602b9082600052601f6020600020910160051c81019061902e565b85615db3565b60405162461bcd60e51b815260206004820152602260248201527f53656c6c6572206e6f206c6f6e676572206f776e7320746869732070726f647560448201526118dd60f21b6064820152608490fd5b3461031e57600036600319011261031e576020600c54604051908152f35b3461031e57602036600319011261031e5760043560075481101561031e576000906007548110156161075760079091527fa66cc928b5edb82af9bd49922954155ab7b0942694bea4ce44661d9a8736c68801546040516001600160a01b039091168152602090f35b634e487b7160e01b82526032600452602482fd5b3461031e57600036600319011261031e576040516007548082526020820190600760005260206000209060005b81811061616b576106268561615f81870382618a85565b60405191829182618897565b82546001600160a01b0316845260209093019260019283019201616148565b3461031e5760c036600319011261031e576161a361896a565b6161ab618980565b90604435606435906084359160a435903360005260006020526161db60ff60026040600020015460a01c16619407565b60018060a01b0385169283600052600060205260ff60026040600020015460a01c1680616633575b156165ee5780600052600160205261622560ff600b60406000200154166190df565b33841494851586816165dc575b1561659a5786616529575b6001600160a01b038916968688146164d357906164ca575b156164795783811015616444576201517f19420142811161038b578111156163e4576163df976163af60008051602061a5cd833981519152966060967ff72a769a3b0806bed9141630b64fdca40f76ecb1d8f2727a60993091e20db7b8946163c39a6162c289151561953b565b604051936162cf85618a17565b600180865260208087018c905233604080890191909152428e89015260808801879052600c80546000818152600294859052838120918255940180546001600160a01b03199081169096179055805484528184209092018054909416909417909255815481528281206003018a9055815481528281206004019390935580548352818320600501939093559154815220600601805461637190610cc590618bb4565b600e6670656e64696e6760c81b019055600c8054600090815260026020526040808220600801805460ff191660011790559154815220600701619b59565b600c54978897889460405193849384619bc9565b0390a260405190600182526020820152336040820152a26193f8565b600c55005b60405162461bcd60e51b815260206004820152603260248201527f53746172742064617465206d757374206e6f74206265206d6f7265207468616e604482015271080c4819185e481a5b881d1a19481c185cdd60721b6064820152608490fd5b60405162461bcd60e51b815260206004820152600d60248201526c496e76616c696420646174657360981b6044820152606490fd5b60405162461bcd60e51b8152602060048201526024808201527f596f75206d7573742062652065697468657220737570706c696572206f7220626044820152633abcb2b960e11b6064820152608490fd5b50853314616255565b60405162461bcd60e51b815260206004820152602860248201527f43616e6e6f74206372656174652072656c6174696f6e736869702077697468206044820152673cb7bab939b2b63360c11b6064820152608490fd5b6000838152600160205260409020600901546001600160a01b0316861461623d5760405162461bcd60e51b815260206004820152602260248201527f537570706c69657220646f6573206e6f74206f776e20746869732070726f647560448201526118dd60f21b6064820152608490fd5b60405162461bcd60e51b815260206004820152601a6024820152794d757374206265206f6e65206f6620746865207061727469657360301b6044820152606490fd5b50336001600160a01b038a1614616232565b60405162461bcd60e51b815260206004820152601f60248201527f426f74682070617274696573206d7573742062652072656769737465726564006044820152606490fd5b506001600160a01b03871660009081526020819052604090206002015460a01c60ff16616203565b3461031e57602036600319011261031e576001600160a01b0361667c61896a565b166000526000602052604060002080546002604051926166a3846150ac8160018501618bee565b015460ff6166c360405194859485526080602086015260808501906188fd565b6001600160a01b038316604085015260a09290921c16151560608301520390f35b3461031e57602036600319011261031e576060610100604051616706816189fb565b60008152600060208201526000604082015260008382015260006080820152600060a08201528260c0820152600060e0820152015260043560005260056020526040600020604051616757816189fb565b8154815261062660018060a01b036001840154169260208301938452600861684960018060a01b036002840154166040860190815260038401546060870190815260048501546080880190815260058601549160a08901928352604051936167c685610d508160068c01618bee565b60c08a019485526167ed60078901549860e08c01998a52613713604051809a819301618bee565b6101008a019687526040519a8b9a60208c525160208c015260018060a01b0390511660408b015260018060a01b0390511660608a01525160808901525160a08801525160c08701525161012060e08701526101408601906188fd565b915161010085015251838203601f19016101208501526188fd565b3461031e57602036600319011261031e576004356000610100604051616889816189fb565b8281528260208201528260408201528260608201528260808201528260a0820152606060c0820152606060e0820152015280600052600260205260ff60086040600020015416156169fe57600052600260205260406000206040516168ed816189fb565b8154815260018060a01b0360018301541691602082019283526169f060018060a01b0360028301541691604084019283526169dc60038201546060860190815260048301546080870190815260058401549060a088019182526040519261695b846150ac8160068a01618bee565b60c0890193845260ff600861697260078901619acc565b9760e08c01988952015416976101008a0198151589526040519a8b9a60208c525160208c015260018060a01b0390511660408b015260018060a01b0390511660608a01525160808901525160a08801525160c08701525161012060e08701526101408601906188fd565b9051848203601f1901610100860152618b4e565b905115156101208301520390f35b60405162461bcd60e51b815260206004820152601660248201527514995b185d1a5bdb9cda1a5c081b9bdd08199bdd5b9960521b6044820152606490fd5b3461031e57602036600319011261031e57600435806000526004602052616a6d60ff600e604060002001541661926b565b80600052600460205260018060a01b036001604060002001541633148015616de9575b616a9990619a84565b8060005260046020526040600020906008820160405190616ac582616abe8184618bee565b0383618a85565b6000602094604051616ad78782618a85565b82815293805190878101918220616aec618f44565b8981519101201480616ddc575b15616bd857505050509050600190604051616b15604082618a85565b601a815279105c1c1c9bdd985b08191958591b1a5b9948195e18d95959195960321b85820152915b15616b97579283616b73610cc57f1084667f3bacb264cb7154ff48636e12255d167f23739b4724eb3af4f152b05a959654618bb4565b600e66195e1c1a5c995960ca1b0190556109a16040519282849384528301906188fd565b60405162461bcd60e51b815260048101859052601960248201527813dc99195c8818d85b9b9bdd0818994818d85b98d95b1b1959603a1b6044820152606490fd5b519020616be3619a1e565b878151910120149081616dce575b5015616b3d575090506001906040918251616c0c8482618a85565b601981527814185e5b595b9d08191958591b1a5b9948195e18d959591959603a1b86820152928460005260048652806000209060ff600e83015460081c16600014616cd557600382015460005282875280600020600b81019182549160ff83169081616cb7575b50616c82575b50505050616b3d565b60079260049260ff19169055600f8401546000528489526000209201549101805491820180921161038b575585808080616c79565b60090154858701546001600160a01b0390811691161490508a616c73565b6003820154600090815283885220600981018054848401805490949392916001600160a01b03918216911614616d0e5750505050616b3d565b60029092015482546001600160a01b0319166001600160a01b0391909116179091556006018054909181159081159081616d94575b50616d4f575b80616c79565b616d7e576000190190616d628282618d15565b81549060018060a01b039060031b1b1916905555858080616d49565b634e487b7160e01b600052603160045260246000fd5b9050600019830183811161038b57616dac9085618d15565b9054915460039190911b9190911c6001600160a01b0390811691161489616d43565b600b91500154421186616bf1565b50600a8301544211616af9565b506000818152600460205260409020600201546001600160a01b03163314616a90565b3461031e57606036600319011261031e57616e78600435616e2b618980565b90806000526001602052616e4960ff600b60406000200154166190df565b806000526001602052616e6d60018060a01b03600960406000200154163314619a44565b33916044359161a166565b005b3461031e57602036600319011261031e576001600160a01b03616e9b61896a565b168060005260096020526040600020906040518083602082955493848152019060005260206000209260005b818110616fde575050616edc92500383618a85565b616ee682516193a5565b91600090815b8151811015616f9357616eff81836193e4565b516000908152600460205260409020600201546001600160a01b0316841480616f49575b616f30575b600101616eec565b91616f4160019161059785856193e4565b929050616f28565b50616f5481836193e4565b5160005260046020526103e7616f77600860406000200160405192838092618bee565b60208151910120616f86619a1e565b6020815191012014616f23565b8483616f9e816193a5565b9160005b828110616fbf576040516020808252819061062690820187618996565b80616fcc600192846193e4565b51616fd782876193e4565b5201616fa2565b8454835260019485019487945060209093019201616ec7565b3461031e57600036600319011261031e576020600e54604051908152f35b3461031e57604036600319011261031e576004356024356001600160401b03811161031e57617048903690600401618aa8565b81600052600460205261706560ff600e604060002001541661926b565b6000828152600460205260409020600201546001600160a01b03163303617175578160005260046020526103e76170a9600860406000200160405192838092618bee565b602081519101206170b8618f44565b6020815191012003617132576109a17fb1544707a474e6118a9704a2715d102eb87f02b3b079f4bd32f085640173105e918360005260046020526008604060002001617107610cc58254618bb4565b6010671c995a9958dd195960c21b0190556040519182913383526040602084015260408301906188fd565b60405162461bcd60e51b815260206004820152601b60248201527a4f72646572206e6f7420696e2070656e64696e672073746174757360281b6044820152606490fd5b60405162461bcd60e51b815260206004820152601d60248201527f4f6e6c792073656c6c65722063616e2072656a656374206f72646572730000006044820152606490fd5b3461031e57602036600319011261031e57600435600052600360205260e0604060002080549060018101549060018060a01b03600282015416600382015460048301549160ff600660058601549501541694604051968752602087015260408601526060850152608084015260a0830152151560c0820152f35b3461031e5761724236618afe565b82600093929352600460205261726260ff600e604060002001541661926b565b816000526004602052604060002090600182019360018060a01b03855416330361782f576000936000600d8501958654915b8281106177f3575b50156177995760009695965b818110617762575050617364604051967502830bcb6b2b73a1031b7b6b83632ba32b2103b34b0960551b6020890152617336600160068a603688519960208a019a6172f7818d858701906188da565b8301650101424a21d160d51b8382015261731b825180936020603c850191016188da565b0101602960f81b838201520301601e1981018b520189618a85565b60405190617343826189e0565b42825261734e61971d565b6020830152886040830152336060830152619747565b60088401617375610cc58254618bb4565b60126818dbdb5c1b195d195960ba1b019055600f549260018060a01b0386541693600286019460018060a01b03865416906173d960038901549860048101546007600683015492019a6173fd60018d8a8d6173ed604051998a94602086019061991b565b91605f60f81b8352518093868401906188da565b010301601f198101865285618a85565b6040519561740a876189fb565b8787526020870195865260408701908152606087019182526080870192835260a0870193845260c0870194855260e0870195428752617447619989565b61010089019081526000998a52600560208190526040909a209851895590516001890180546001600160a01b03199081166001600160a01b0393841617909155925160028a018054909416911617909155905160038701559051600486015590519484019490945551805160068401916001600160401b038211610832576174d382610df98554618bb4565b602090601f83116001146176f65791806174fb92600897969594600092612cda575050619586565b90555b5160078201559151805191909201916001600160401b0382116108325761752982610df98554618bb4565b602090601f83116001146176575794610f2c948160008051602061a60d8339815191526175db610f349e6173d99e9d9b986175858960008051602061a48d8339815191529f9d9a60019a61762e9c60009261764c575050619586565b90555b8d878060a01b0390541660005260086020526175ab6040600020600f54906199b0565b868060a01b038b541660005260086020526175cd6040600020600f54906199b0565b6040519182913390836199d3565b0390a260405194859260008051602061a5ed833981519152600080a261761e600f549c8d9c868060a01b0390541699868060a01b039054169a602086019061991b565b010301601f198101835282618a85565b604051938493845260208401526060604084015260608301906188fd565b015190503880610e21565b90601f1983169184600052816000209260005b8181106176de57509660008051602061a60d8339815191526175db610f349e6173d99e9d9b9860018960008051602061a48d8339815191529f9d998799610f2c9e9961762e9d859d106176c5575b505050811b019055617588565b015160001960f88460031b161c191690553880806176b8565b9293602060018192878601518155019501930161766a565b90601f1983169184600052816000209260005b81811061774a57509160019391856008999897969410617731575b505050811b0190556174fe565b015160001960f88460031b161c191690558e8080617724565b92936020600181928786015181550195019301617709565b600161777361108c838b9a9b6196d4565b6020815191012061778261971d565b60208151910120146110c0576001019695966172a8565b60405162461bcd60e51b815260206004820152602c60248201527f43616e6e6f7420636f6d706c657465207061796d656e74206265666f7265207160448201526b75616c69747920636865636b60a01b6064820152608490fd5b600161780261108c838b6196d4565b602081519101206178116196f0565b602081519101201461782557600101617294565b505060018861729c565b60405162461bcd60e51b815260206004820152601f60248201527f4f6e6c792062757965722063616e20636f6d706c657465207061796d656e74006044820152606490fd5b3461031e57602036600319011261031e576004356000818152600360205260409020600201546001600160a01b0316330361795d578060005260036020526178c660ff60066040600020015416619667565b6000818152600360205260408120600601805460ff191690555b600654908181101561795657826178f682618ce4565b90549060031b1c1461790c5760019150016178e0565b600019820191821161038b576107d4612e7b61792793618ce4565b61792f6196a8565b7f5333791267c64429b07bc6933b19a87a45285fd89e3770ee3bbeb0bac0d8f5c5600080a2005b505061792f565b60405162461bcd60e51b81526020600482015260116024820152702737ba103634b9ba34b7339037bbb732b960791b6044820152606490fd5b3461031e57602036600319011261031e576004358060005260026020526179c760ff60086040600020015416618eaf565b80600052600260205260018060a01b036001604060002001541633148015617b14575b6179f390618ef9565b806000526002602052617a196103e76108c5600660406000200160405192838092618bee565b80600052600260205260076040600020018054617a37811515618fc0565b600019810190811161038b57617a4c91619012565b50600201546001600160a01b03163314617ab6578060005260026020526006604060002001617a7e610cc58254618bb4565b6010671858d8d95c1d195960c21b0190557f42aea235215a6eb33e63dbac8060efca06d7c4ecf0ae69e5e718bff4b58d432e600080a2005b60405162461bcd60e51b815260206004820152603060248201527f43616e6e6f7420616363657074207768656e20796f752061726520746865207260448201526f65717565737446726f6d20706172747960801b6064820152608490fd5b50600081815260026020819052604090912001546001600160a01b031633146179ea565b3461031e5760a036600319011261031e576004356001600160401b03811161031e57617b68903690600401618aa8565b6024356001600160401b03811161031e57617b87903690600401618aa8565b6044356001600160401b03811161031e57617ba6903690600401618aa8565b916064359160843590336000526000602052617bcf60ff60026040600020015460a01c16619407565b617bdb8351151561944c565b617be781511515619497565b617bf28415156194ef565b617bfd82151561953b565b600b54600081815260016020819052604090912091825584519101906001600160401b03811161083257617c3581610e528454618bb4565b6020601f8211600114617eac579080617c5592600091614ecf5750619586565b90555b600b54600052600160205260026040600020019080519060018060401b03821161083257617c8a82610df98554618bb4565b602090601f8311600114617e4557617cac929160009183615f9a575050619586565b90555b600b546000526001602052600360406000200184519460018060401b03861161083257617ce086610e528454618bb4565b602090601f8711600114617ddb579580617d0692613db298600092615f9a575050619586565b90555b600b8054600090815260016020819052604080832060070187905583548352808320600801949094558254825283822060090180546001600160a01b031916339081179091558354835284832042600a9190910155835483528483208401805460ff199081169093179055835483528483206005908101805490931690925592548252929020617d9992016195aa565b600b546000526001602052617db5336006604060002001619618565b60008051602061a52d833981519152600b54928392610f2c60405192839233908461963b565b90601f1987169183600052816000209260005b818110617e2d5750916001939189613db29a9410617e14575b505050811b019055617d09565b015160001960f88460031b161c19169055878080617e07565b92936020600181928786015181550195019301617dee565b90601f1983169184600052816000209260005b818110617e945750908460019594939210617e7b575b505050811b019055617caf565b015160001960f88460031b161c19169055878080617e6e565b92936020600181928786015181550195019301617e58565b601f1982169083600052806000209160005b818110617ef857509083600194939210617edf575b5050811b019055617c58565b87015160001960f88460031b161c191690558880617ed3565b9192602060018192868c015181550194019201617ebe565b3461031e57617f1e366189ca565b90806000526002602052617f3c60ff60086040600020015416618eaf565b604051602091617f4c8383618a85565b600082528060005260028352617f6c60ff60086040600020015416618eaf565b80600052600283526103e7617f8e600660406000200160405192838092618bee565b838151910120617f9c619d29565b848151910120036184dd5760008181526002808552604090912001546001600160a01b0316330361849a57617fd28415156194ef565b806000526002835260046040600020015442101580618480575b1561843857806000526002835260036040600020015460005260018352604060002060018060a01b03600982015416826000526002855260018060a01b0360016040600020015416036183f9578460076180499201541015619ccd565b6000526002825260406000209260078401805490600019820191821161038b5760019161807591619012565b500154918215612ede5761808f8360001904831115619c76565b6180998284619cba565b600e5493846000526004865284604060002055600287019460018060a01b03865416906000526004875260016040600020019060018060a01b031660018060a01b03198254161790556003600188019760018060a01b03895416600e546000526004895260026040600020019060018060a01b031660018060a01b03198254161790550154600e5460005260048752600360406000200155600e546000526004865283600460406000200155600e5460005260048652600560406000200155600e5460005260048552600660406000200155600e5460005260048452600760406000200161818a610cc58254618bb4565b60186b072656c6174696f6e736869760a41b019055600e546000526004845260086040600020016181be610cc58254618bb4565b600e6670656e64696e6760c81b019055600e5460005260048452426009604060002001556202a300420180421161038b57600e5460005260048552600a60406000200155600e54600052600484526000600b604082200155600e5460005260048452600c6040600020019080519060018060401b0382116108325761824782610df98554618bb4565b8590601f831160011461837c5792618280836158cd999460008051602061a44d833981519152979460c097600092613090575050619586565b90555b600e5460005260048652600e604060002001600160ff19825416179055600e5460005260048652600e60406000200161ff00198154169055600e54600052600486526000600f604082200155600e54600052600486526000601060408220015560018060a01b03855416600052600986526183056040600020600e54906199b0565b81546001600160a01b031660009081526009875260409020600e54618329916199b0565b600e5495869560018060a01b039054169260018060a01b0390541690604051938452830152604082015260806060820152600c60808201526b072656c6174696f6e736869760a41b60a0820152a26193f8565b90601f1983169184600052876000209260005b8181106183e257509360008051602061a44d833981519152969360c09693600193836158cd9d98106183c9575b505050811b019055618283565b015160001960f88460031b161c191690558a80806183bc565b92938960018192878601518155019501930161838f565b60405162461bcd60e51b81526004810185905260248082015260008051602061a58d833981519152604482015263191d58dd60e21b6064820152608490fd5b60405162461bcd60e51b815260048101849052602c602482015260008051602061a4ad83398151915260448201526b6520666f72206f726465727360a01b6064820152608490fd5b508060005260028352600560406000200154421115617fec565b60405162461bcd60e51b815260048101849052601b60248201527a4f6e6c792062757965722063616e20706c616365206f726465727360281b6044820152606490fd5b60405162461bcd60e51b815260048101849052601960248201527814995b185d1a5bdb9cda1a5c081b9bdd081858d8d95c1d1959603a1b6044820152606490fd5b3461031e57602036600319011261031e5761853761896a565b600b5490618544826193a5565b9160009160015b82811061859e5750505061855e816193a5565b9160005b82811061857f576040516020808252819061062690820187618996565b8061858c600192846193e4565b5161859782876193e4565b5201618562565b80600052600160205260ff600b604060002001541680618600575b806185e6575b6185cc575b60010161854b565b926185de81856105a2600194896193e4565b9390506185c4565b5080600052600160205260076040600020015415156185bf565b506000818152600160205260409020600901546001600160a01b038381169116146185b9565b3461031e57602036600319011261031e5760043580600052600460205261865760ff600e604060002001541661926b565b600052600460205261866f600d604060002001619307565b6040518091602082016020835281518091526040830190602060408260051b8601019301916000905b8282106186a757505050500390f35b919360019193955060206186c68192603f198a82030186528851618922565b9601920192018594939192618698565b3461031e57602036600319011261031e5761062661615f600435619178565b3461031e57602036600319011261031e5760043580600052600260205261872660ff60086040600020015416618eaf565b80600052600260205260018060a01b036001604060002001541633148015618873575b61875290618ef9565b8060005260026020526187786103e76108c5600660406000200160405192838092618bee565b80600052600260205260076040600020018054618796811515618fc0565b600019810190811161038b576187ab91619012565b50600201546001600160a01b031633146188155780600052600260205260066040600020016187dd610cc58254618bb4565b6010671c995a9958dd195960c21b0190557f1c032ca7c9258c119a8e5426c4fe45b5d5f475140c11627d904be2619683669c600080a2005b60405162461bcd60e51b815260206004820152603060248201527f43616e6e6f742072656a656374207768656e20796f752061726520746865207260448201526f65717565737446726f6d20706172747960801b6064820152608490fd5b50600081815260026020819052604090912001546001600160a01b03163314618749565b602060408183019282815284518094520192019060005b8181106188bb5750505090565b82516001600160a01b03168452602093840193909201916001016188ae565b60005b8381106188ed5750506000910152565b81810151838201526020016188dd565b90602091618916815180928185528580860191016188da565b601f01601f1916010190565b9081518152606061895761894560208501516080602086015260808501906188fd565b604085015184820360408601526188fd565b928101516001600160a01b031691015290565b600435906001600160a01b038216820361031e57565b602435906001600160a01b038216820361031e57565b906020808351928381520192019060005b8181106189b45750505090565b82518452602093840193909201916001016189a7565b604090600319011261031e576004359060243590565b608081019081106001600160401b0382111761083257604052565b61012081019081106001600160401b0382111761083257604052565b60a081019081106001600160401b0382111761083257604052565b60e081019081106001600160401b0382111761083257604052565b6101a081019081106001600160401b0382111761083257604052565b61024081019081106001600160401b0382111761083257604052565b601f909101601f19168101906001600160401b0382119082101761083257604052565b81601f8201121561031e578035906001600160401b0382116108325760405192618adc601f8401601f191660200185618a85565b8284526020838301011161031e57816000926020809301838601378301015290565b606060031982011261031e57600435916024356001600160401b03811161031e5782618b2c91600401618aa8565b91604435906001600160401b03821161031e57618b4b91600401618aa8565b90565b906020808351928381520192019060005b818110618b6c5750505090565b909192602060a0600192608087518051835284810151858401528580851b03604082015116604084015260608101516060840152015160808201520194019101919091618b5f565b90600182811c92168015618be4575b6020831014618bce57565b634e487b7160e01b600052602260045260246000fd5b91607f1691618bc3565b60009291815491618bfe83618bb4565b8083529260018116908115618c545750600114618c1a57505050565b60009081526020812093945091925b838310618c3a575060209250010190565b600181602092949394548385870101520191019190618c29565b915050602093945060ff929192191683830152151560051b010190565b3461031e57602036600319011261031e57618c8a61896a565b60009060018060a01b03168152600960205260408120604051918260208354918281520192825260208220915b818110618cce5761062685610b0181870382618a85565b8254845260209093019260019283019201618cb7565b600654811015618cff57600660005260206000200190600090565b634e487b7160e01b600052603260045260246000fd5b8054821015618cff5760005260206000200190600090565b606060031982011261031e576004359160243591604435906001600160401b03821161031e57618b4b91600401618aa8565b90815260208101919091526001600160a01b03909116604082015260600190565b604060031982011261031e57600435906001600160401b03821161031e57618daa91600401618aa8565b906024356001600160a01b038116810361031e5790565b6001600160401b0381116108325760051b60200190565b9080601f8301121561031e578135618def81618dc1565b92618dfd6040519485618a85565b81845260208085019260051b82010192831161031e57602001905b828210618e255750505090565b8135815260209182019101618e18565b906020808351928381520192019060005b818110618e535750505090565b825180518552602081810151818701526040808301516001600160a01b0316908701526060918201519186019190915260809094019390920191600101618e46565b606090600319011261031e57600435906024359060443590565b15618eb657565b60405162461bcd60e51b815260206004820152601b60248201527a14995b185d1a5bdb9cda1a5c08191bd95cc81b9bdd08195e1a5cdd602a1b6044820152606490fd5b15618f0057565b606460405162461bcd60e51b815260206004820152602060248201527f4e6f74206120706172747920746f20746869732072656c6174696f6e736869706044820152fd5b60405190618f53604083618a85565b600782526670656e64696e6760c81b6020830152565b15618f7057565b60405162461bcd60e51b815260206004820152602260248201527f52656c6174696f6e73686970206e6f7420696e2070656e64696e672073746174604482015261757360f01b6064820152608490fd5b15618fc757565b60405162461bcd60e51b81526020600482015260166024820152754e6f206e65676f74696174696f6e20686973746f727960501b6044820152606490fd5b9190820391821161038b57565b8054821015618cff576000526005602060002091020190600090565b818110619039575050565b6000815560010161902e565b90601f8111619052575050565b61906d91600052601f6020600020910160051c81019061902e565b565b90601f811161907c575050565b61906d916000526002601f6020600020920160051c8201910161902e565b9190601f81116190a957505050565b61906d926000526020600020906020601f840160051c830193106190d5575b601f0160051c019061902e565b90915081906190c8565b156190e657565b60405162461bcd60e51b8152602060048201526016602482015275141c9bd91d58dd08191bd95cc81b9bdd08195e1a5cdd60521b6044820152606490fd5b906040519182815491828252602082019060005260206000209260005b81811061915657505061906d92500383618a85565b84546001600160a01b0316835260019485019487945060209093019201619141565b80600052600160205261919560ff600b60406000200154166190df565b80600052600160205260ff60056040600020015416600014619253578060005260016020526191ce60ff600b60406000200154166190df565b60005260016020526191e66004604060002001619f74565b9081516191f281618dc1565b906192006040519283618a85565b80825261920f601f1991618dc1565b0136602083013760005b835181101561924e576001906001600160a01b03604061923983886193e4565b5101511661924782856193e4565b5201619219565b509150565b6000526001602052618b4b6006604060002001619124565b1561927257565b60405162461bcd60e51b815260206004820152601460248201527313dc99195c88191bd95cc81b9bdd08195e1a5cdd60621b6044820152606490fd5b906040516192bb816189e0565b60608193805483526040516192d7816103e78160018601618bee565b60208401526040516192f0816103e78160028601618bee565b6040840152600301546001600160a01b0316910152565b90815461931381618dc1565b926193216040519485618a85565b818452602084019060005260206000206000915b8383106193425750505050565b60046020600192619352856192ae565b815201920192019190619335565b604080519091906193718382618a85565b6001815291601f1901366020840137565b604051610ca091906193948382618a85565b6064815291601f1901366020840137565b906193af82618dc1565b6193bc6040519182618a85565b82815280926193cd601f1991618dc1565b0190602036910137565b805115618cff5760200190565b8051821015618cff5760209160051b010190565b600019811461038b5760010190565b1561940e57565b60405162461bcd60e51b815260206004820152601660248201527510dbdb5c185b9e481b9bdd081c9959da5cdd195c995960521b6044820152606490fd5b1561945357565b60405162461bcd60e51b815260206004820152601c60248201527b50726f64756374206e616d652063616e6e6f7420626520656d70747960201b6044820152606490fd5b1561949e57565b60405162461bcd60e51b815260206004820152602360248201527f50726f64756374206465736372697074696f6e2063616e6e6f7420626520656d60448201526270747960e81b6064820152608490fd5b156194f657565b60405162461bcd60e51b815260206004820152601f60248201527f5175616e74697479206d7573742062652067726561746572207468616e2030006044820152606490fd5b1561954257565b60405162461bcd60e51b815260206004820152601c60248201527b05072696365206d7573742062652067726561746572207468616e20360241b6044820152606490fd5b8160011b916000199060031b1c19161790565b9060ff801983541691151516179055565b8054610100600160a81b03191660089290921b610100600160a81b0316919091179055565b8054600160401b811015610832576195ec91600182018155618d15565b81546001600160a01b0360039290921b91821b191660008051602061a4ed83398151915290911b179055565b80549190600160401b831015610832578261302591600161906d95018155618d15565b619653604092959493956060835260608301906188fd565b6001600160a01b0390951660208201520152565b1561966e57565b60405162461bcd60e51b81526020600482015260126024820152714c697374696e67206e6f742061637469766560701b6044820152606490fd5b6006548015616d7e57600019016196c0816006618d15565b8154906000199060031b1b19169055600655565b8054821015618cff5760005260206000209060021b0190600090565b604051906196ff604083618a85565b600f82526e1c5d585b1a5d1e57d8da1958dad959608a1b6020830152565b6040519061972c604083618a85565b600c82526b1c185e5b595b9d17dcd95b9d60a21b6020830152565b8054600160401b81101561083257619764916001820181556196d4565b91909161990557805182556020810151805160018401916001600160401b0382116108325761979782610df98554618bb4565b602090601f831160011461989e576197b992916000918361764c575050619586565b90555b6040810151805160028401916001600160401b038211610832576197e482610df98554618bb4565b602090601f831160011461983457918061980b92600396959460009261764c575050619586565b90555b60600151910180546001600160a01b0319166001600160a01b0392909216919091179055565b90601f1983169184600052816000209260005b81811061988657509160019391856003989796941061986e575b505050811b01905561980e565b015160001983881b60f8161c19169055388080619861565b92936020600181928786015181550195019301619847565b90601f1983169184600052816000209260005b8181106198ed57509084600195949392106198d4575b505050811b0190556197bc565b015160001960f88460031b161c191690553880806198c7565b929360206001819287860151815501950193016198b1565b634e487b7160e01b600052600060045260246000fd5b6000929181549161992b83618bb4565b9260018116908115619976575060011461994457505050565b909192935060005260206000206000905b8382106199625750500190565b600181602092548486015201910190619955565b60ff191683525050811515909102019150565b60405190619998604083618a85565b600982526818dbdb5c1b195d195960ba1b6020830152565b80549190600160401b83101561083257826107d491600161906d95018155618d15565b90619a0e60409194939460608452600c60608501526b1c185e5b595b9d17dcd95b9d60a21b608085015260a0602085015260a08401906188fd565b6001600160a01b03909416910152565b60405190619a2d604083618a85565b6008825267185c1c1c9bdd995960c21b6020830152565b15619a4b57565b60405162461bcd60e51b81526020600482015260116024820152702737ba10383937b23ab1ba1037bbb732b960791b6044820152606490fd5b15619a8b57565b60405162461bcd60e51b81526020600482015260196024820152782737ba1030903830b93a3c903a37903a3434b99037b93232b960391b6044820152606490fd5b908154619ad881618dc1565b92619ae66040519485618a85565b818452602084019060005260206000206000915b838310619b075750505050565b60056020600192604051619b1a81618a17565b855481528486015483820152848060a01b0360028701541660408201526003860154606082015260048601546080820152815201920192019190619afa565b8054600160401b81101561083257619b7691600182018155619012565b91909161990557805182556020810151600183015560408101516002830180546001600160a01b0319166001600160a01b0392909216919091179055606081015160038301556080015160049190910155565b6001600160a01b03918216815291166020820152604081019190915260600190565b15619bf257565b60405162461bcd60e51b8152602060048201526015602482015274496e73756666696369656e74207175616e7469747960581b6044820152606490fd5b15619c3657565b60405162461bcd60e51b815260206004820152601860248201527721b0b73737ba10313abc90333937b6903cb7bab939b2b63360411b6044820152606490fd5b15619c7d57565b60405162461bcd60e51b81526020600482015260156024820152744f726465722076616c756520746f6f206c6172676560581b6044820152606490fd5b8181029291811591840414171561038b57565b15619cd457565b60405162461bcd60e51b815260206004820152602760248201527f496e73756666696369656e742070726f64756374207175616e7469747920617660448201526661696c61626c6560c81b6064820152608490fd5b60405190619d38604083618a85565b60088252671858d8d95c1d195960c21b6020830152565b15619d5657565b60405162461bcd60e51b81526020600482015260146024820152734e616d652063616e6e6f7420626520656d70747960601b6044820152606490fd5b15619d9957565b60405162461bcd60e51b815260206004820152600f60248201526e496e76616c6964206164647265737360881b6044820152606490fd5b60405190619ddf604083618a85565b60068252651c1858dad95960d21b6020830152565b60405190619e03604083618a85565b60078252661cda1a5c1c195960ca1b6020830152565b60405190619e28604083618a85565b600982526819195b1a5d995c995960ba1b6020830152565b919091828114619f0957619e548354618bb4565b6001600160401b03811161083257619e7081610e528454618bb4565b600093601f8211600114619ea357619e949293948291600092619e98575050619586565b9055565b015490503880610e21565b845260208085208386529085209094601f198316815b818110619ef157509583600195969710619ed8575b505050811b019055565b015460001960f88460031b161c19169055388080619ece565b9192600180602092868b015481550194019201619eb9565b509050565b8054600160401b81101561083257619f2b916001820181556196d4565b91909161990557805182556020810151600183015560408101516002830180546001600160a01b0319166001600160a01b03929092169190911790556060015160039190910155565b908154619f8081618dc1565b92619f8e6040519485618a85565b818452602084019060005260206000206000915b838310619faf5750505050565b60046020600192604051619fc2816189e0565b855481528486015483820152848060a01b03600287015416604082015260038601546060820152815201920192019190619fa2565b15619ffe57565b60405162461bcd60e51b8152602060048201526014602482015273125b9cdd59999a58da595b9d081c185e5b595b9d60621b6044820152606490fd5b61a06361a05e600b61a056846000526001602052604060002090565b015460ff1690565b6190df565b61a08361a07f600561a056846000526001602052604060002090565b1590565b61a15057600461a0a061a0a6926000526001602052604060002090565b01619f74565b9061a0af619382565b60009283915b815183101561a1125761a0d261a0cb84846193e4565b515161a03a565b936000955b855187101561a1035761a0fb60019161a0f089896193e4565b516105a282876193e4565b96019561a0d7565b9550935060019092019161a0b5565b9391505061a11f816193a5565b9060005b81811061a131575090925050565b8061a13e600192876193e4565b5161a14982866193e4565b520161a123565b61a158619360565b9061a162826193d7565b5290565b91939260018060a01b0382169485600052600060205260ff60026040600020015460a01c161561a40c5761a19b8115156194ef565b83600052600160205261a1b8816007604060002001541015619beb565b6000848152600160205260409020600901546001600160a01b039081169083160361a3d357836000526001602052604060002060078101805480841460001461a24757505083929161a23560008051602061a54d83398151915295600684899a9b600961a24197019060018060a01b031982541617905501619618565b60405193849384619bc9565b0390a290565b8361a259919998969497959399619005565b9055600b5494856000526001602052856040600020556001880186600052600160205261a28d816001604060002001619e40565b86600052600160205261a2aa60028a016002604060002001619e40565b86600052600160205261a2c760038a016003604060002001619e40565b600087815260016020819052604082206007810185905560088c810154908201556009810180546001600160a01b0319168c17905542600a820155600b01805460ff191690911790556006909901985b895481101561a34757600190886000528160205261a3418b6144d883600660406000200192618d15565b0161a317565b5060008051602061a54d8339815191529598509560008051602061a52d83398151915261a3a461a3bf94959698839a84600052600160205261a390896006604060002001619618565b604051928392606084526060840190618bee565b9060208301528560408301520390a260405193849384619bc9565b0390a261a3cd600b546193f8565b600b5590565b60405162461bcd60e51b81526020600482015260116024820152702737ba1031bab93932b73a1037bbb732b960791b6044820152606490fd5b60405162461bcd60e51b815260206004820152601860248201527713995dc81bdddb995c881b9bdd081c9959da5cdd195c995960421b6044820152606490fdfeb1147f852fc43e7f848e0139b512feb6ad9e1b0c47d4071cc28af776ebeac77dcbbd8f4ad20c91d5838164f748449bce8476c20c52238490777ed4849de7bb1dcd962c0667e8227b57544c49a3635b0610e73ee1a80b3f2d2a2981953385a4d852656c6174696f6e73686970206e6f742063757272656e746c792061637469764814ac4b507b4df7e154f88ad93b88de62d66a08c2cb948ab2260179579c62fa00000000000000000000000070997970c51812dc3a010c7d01b50e0d17dc79c875716f34647a7837716b716c6e70786d63706d6770326161716665000000000090934fc9dc1095f968f4207cb62e27da1da3e31653ff34cbf837b6c349ded760516c8b339c132041f2a10d0e873c5eaf4944299c02b458d7491b7f7ac1574d2ffee75731dd0f0c7597f1e678d53e565826519f6f5fa21034c8f8ed760b78a4c7537570706c696572206e6f206c6f6e676572206f776e7320746869732070726f000000000000000000000000f39fd6e51aad88f6f4ce6ab8827279cfffb92266b11b1034a3a46b9059bc31af66803491535cd290a06d8722e4bad4433b34e46e02a7d4d9472af7118644884b9a0ee443540c0027e938dd0aa35be8ecbe946c0a8823d408beafc186ccd333d2fbf069853d25c06f7205d4c208dd08360587b24e6261666b72656966766d747537786d6c6a6563367a6e687179357865346a3361a2646970667358221220239c0f48f655de653441cbc2494e8490d6a793e2aba210ae3693cd932f0ea81564736f6c634300081c0033","opcodes":"PUSH1 0x80 DUP1 PUSH1 0x40 MSTORE CALLVALUE PUSH1 0x33 JUMPI PUSH1 0x1 PUSH1 0xA SSTORE PUSH1 0x1 PUSH1 0xB SSTORE PUSH1 0x1 PUSH1 0xC SSTORE PUSH1 0x1 PUSH1 0xD SSTORE PUSH1 0x1 PUSH1 0xE SSTORE PUSH1 0x1 PUSH1 0xF SSTORE PUSH2 0xA682 SWAP1 DUP2 PUSH2 0x39 DUP3 CODECOPY RETURN JUMPDEST PUSH1 0x0 DUP1 REVERT INVALID PUSH1 0xA0 PUSH1 0x40 MSTORE PUSH1 0x4 CALLDATASIZE LT ISZERO PUSH2 0x12 JUMPI PUSH1 0x0 DUP1 REVERT JUMPDEST PUSH1 0x0 CALLDATALOAD PUSH1 0xE0 SHR DUP1 PUSH3 0x1978B9 EQ PUSH2 0x86F5 JUMPI DUP1 PUSH4 0x4F1C5FA EQ PUSH2 0x86D6 JUMPI DUP1 PUSH4 0x946E5DE EQ PUSH2 0x8626 JUMPI DUP1 PUSH4 0xFECEF48 EQ PUSH2 0x851E JUMPI DUP1 PUSH4 0x10F30553 EQ PUSH2 0x7F10 JUMPI DUP1 PUSH4 0x1A481ECF EQ PUSH2 0x7B38 JUMPI DUP1 PUSH4 0x1BBE77D6 EQ PUSH2 0x7996 JUMPI DUP1 PUSH4 0x1CF93677 EQ PUSH2 0x7874 JUMPI DUP1 PUSH4 0x1F061794 EQ PUSH2 0x7234 JUMPI DUP1 PUSH4 0x1F2BF469 EQ PUSH2 0x71BA JUMPI DUP1 PUSH4 0x24A37576 EQ PUSH2 0x7015 JUMPI DUP1 PUSH4 0x2A58B330 EQ PUSH2 0x6FF7 JUMPI DUP1 PUSH4 0x2C95F83C EQ PUSH2 0x6E7A JUMPI DUP1 PUSH4 0x313AA18E EQ PUSH2 0x6E0C JUMPI DUP1 PUSH4 0x3227851B EQ PUSH2 0x6A3C JUMPI DUP1 PUSH4 0x322E41B5 EQ PUSH2 0x6864 JUMPI DUP1 PUSH4 0x33EA3DC8 EQ PUSH2 0x66E4 JUMPI DUP1 PUSH4 0x355E6CE8 EQ PUSH2 0x665B JUMPI DUP1 PUSH4 0x37A6ACDE EQ PUSH2 0x618A JUMPI DUP1 PUSH4 0x3A875A43 EQ PUSH2 0x5160 JUMPI DUP1 PUSH4 0x408BF4C3 EQ PUSH2 0x611B JUMPI DUP1 PUSH4 0x42C53C76 EQ PUSH2 0x609F JUMPI DUP1 PUSH4 0x43ACD106 EQ PUSH2 0x6081 JUMPI DUP1 PUSH4 0x4877D744 EQ PUSH2 0x5BF0 JUMPI DUP1 PUSH4 0x4DE91A63 EQ PUSH2 0x5BD2 JUMPI DUP1 PUSH4 0x51F2EA9E EQ PUSH2 0x5A75 JUMPI DUP1 PUSH4 0x55A5B04F EQ PUSH2 0x54DB JUMPI DUP1 PUSH4 0x56CBEE91 EQ PUSH2 0x544C JUMPI DUP1 PUSH4 0x56EA04A3 EQ PUSH2 0x5407 JUMPI DUP1 PUSH4 0x62BC56E6 EQ PUSH2 0x52D2 JUMPI DUP1 PUSH4 0x785C63C7 EQ PUSH2 0x5165 JUMPI DUP1 PUSH4 0x7A202CC1 EQ PUSH2 0x5160 JUMPI DUP1 PUSH4 0x7ACC0B20 EQ PUSH2 0x5048 JUMPI DUP1 PUSH4 0x7D16D1CC EQ PUSH2 0x4F52 JUMPI DUP1 PUSH4 0x849D827F EQ PUSH2 0x4DE7 JUMPI DUP1 PUSH4 0x856652E9 EQ PUSH2 0x4D9D JUMPI DUP1 PUSH4 0x872A84EA EQ PUSH2 0x4C40 JUMPI DUP1 PUSH4 0x8EB933A1 EQ PUSH2 0x4BCA JUMPI DUP1 PUSH4 0x94AA2718 EQ PUSH2 0x4B1B JUMPI DUP1 PUSH4 0x988CE1FE EQ PUSH2 0x3FAA JUMPI DUP1 PUSH4 0x9AC5508B EQ PUSH2 0x3762 JUMPI DUP1 PUSH4 0x9ACE38C2 EQ PUSH2 0x368F JUMPI DUP1 PUSH4 0xA85C38EF EQ PUSH2 0x34EC JUMPI DUP1 PUSH4 0xB842EC44 EQ PUSH2 0x34A2 JUMPI DUP1 PUSH4 0xB9CD1805 EQ PUSH2 0x3442 JUMPI DUP1 PUSH4 0xB9DB15B4 EQ PUSH2 0x3148 JUMPI DUP1 PUSH4 0xBB23A31A EQ PUSH2 0x2EF4 JUMPI DUP1 PUSH4 0xBD70BAA8 EQ PUSH2 0x2977 JUMPI DUP1 PUSH4 0xC332B842 EQ PUSH2 0x18BB JUMPI DUP1 PUSH4 0xC589EE1F EQ PUSH2 0x185B JUMPI DUP1 PUSH4 0xC922121A EQ PUSH2 0x177B JUMPI DUP1 PUSH4 0xD09EF241 EQ PUSH2 0x140C JUMPI DUP1 PUSH4 0xD1FA4BE2 EQ PUSH2 0x128F JUMPI DUP1 PUSH4 0xD20CF0E8 EQ PUSH2 0x1218 JUMPI DUP1 PUSH4 0xD7CA38F3 EQ PUSH2 0x11FA JUMPI DUP1 PUSH4 0xD8D3C829 EQ PUSH2 0x11DC JUMPI DUP1 PUSH4 0xD9C2DCEE EQ PUSH2 0xB15 JUMPI DUP1 PUSH4 0xDCD50AE6 EQ PUSH2 0xAE2 JUMPI DUP1 PUSH4 0xDFE6B5D6 EQ PUSH2 0xA70 JUMPI DUP1 PUSH4 0xE0A20193 EQ PUSH2 0x848 JUMPI DUP1 PUSH4 0xE32ECA8D EQ PUSH2 0x662 JUMPI DUP1 PUSH4 0xE810F824 EQ PUSH2 0x4D0 JUMPI DUP1 PUSH4 0xEC35356E EQ PUSH2 0x341 JUMPI DUP1 PUSH4 0xF7DC795C EQ PUSH2 0x323 JUMPI PUSH4 0xFCDAEB64 EQ PUSH2 0x2E6 JUMPI PUSH1 0x0 DUP1 REVERT JUMPDEST CALLVALUE PUSH2 0x31E JUMPI PUSH1 0x20 CALLDATASIZE PUSH1 0x3 NOT ADD SLT PUSH2 0x31E JUMPI PUSH1 0x4 CALLDATALOAD PUSH1 0x6 SLOAD DUP2 LT ISZERO PUSH2 0x31E JUMPI PUSH2 0x30F PUSH1 0x20 SWAP2 PUSH2 0x8CE4 JUMP JUMPDEST SWAP1 SLOAD SWAP1 PUSH1 0x3 SHL SHR PUSH1 0x40 MLOAD SWAP1 DUP2 MSTORE RETURN JUMPDEST PUSH1 0x0 DUP1 REVERT JUMPDEST CALLVALUE PUSH2 0x31E JUMPI PUSH1 0x0 CALLDATASIZE PUSH1 0x3 NOT ADD SLT PUSH2 0x31E JUMPI PUSH1 0x20 PUSH1 0xD SLOAD PUSH1 0x40 MLOAD SWAP1 DUP2 MSTORE RETURN JUMPDEST CALLVALUE PUSH2 0x31E JUMPI PUSH1 0x0 CALLDATASIZE PUSH1 0x3 NOT ADD SLT PUSH2 0x31E JUMPI PUSH1 0xE SLOAD PUSH1 0x0 SWAP1 DUP2 DUP1 PUSH1 0x1 JUMPDEST DUP4 DUP2 LT PUSH2 0x3A1 JUMPI POP PUSH1 0x0 NOT DUP4 ADD SWAP3 DUP4 GT PUSH2 0x38B JUMPI PUSH1 0x80 SWAP4 PUSH1 0x40 MLOAD SWAP4 DUP5 MSTORE PUSH1 0x20 DUP5 ADD MSTORE PUSH1 0x40 DUP4 ADD MSTORE PUSH1 0x60 DUP3 ADD MSTORE RETURN JUMPDEST PUSH4 0x4E487B71 PUSH1 0xE0 SHL PUSH1 0x0 MSTORE PUSH1 0x11 PUSH1 0x4 MSTORE PUSH1 0x24 PUSH1 0x0 REVERT JUMPDEST DUP1 PUSH1 0x0 MSTORE PUSH1 0x4 PUSH1 0x20 MSTORE PUSH1 0xFF PUSH1 0xE PUSH1 0x40 PUSH1 0x0 KECCAK256 ADD SLOAD AND PUSH2 0x3C3 JUMPI JUMPDEST PUSH1 0x1 ADD PUSH2 0x35D JUMP JUMPDEST SWAP4 DUP5 PUSH1 0x0 MSTORE PUSH1 0x4 PUSH1 0x20 MSTORE PUSH2 0x3E7 PUSH2 0x3EE PUSH1 0x8 PUSH1 0x40 PUSH1 0x0 KECCAK256 ADD PUSH1 0x40 MLOAD SWAP3 DUP4 DUP1 SWAP3 PUSH2 0x8BEE JUMP JUMPDEST SUB DUP3 PUSH2 0x8A85 JUMP JUMPDEST PUSH1 0x20 DUP2 MLOAD SWAP2 ADD KECCAK256 PUSH2 0x3FD PUSH2 0x8F44 JUMP JUMPDEST PUSH1 0x20 DUP2 MLOAD SWAP2 ADD KECCAK256 EQ PUSH1 0x0 EQ PUSH2 0x420 JUMPI PUSH2 0x417 PUSH1 0x1 SWAP2 PUSH2 0x93F8 JUMP JUMPDEST SWAP5 JUMPDEST SWAP1 POP PUSH2 0x3BB JUMP JUMPDEST SWAP4 SWAP1 DUP2 PUSH1 0x0 MSTORE PUSH1 0x4 PUSH1 0x20 MSTORE PUSH2 0x3E7 PUSH2 0x445 PUSH1 0x8 PUSH1 0x40 PUSH1 0x0 KECCAK256 ADD PUSH1 0x40 MLOAD SWAP3 DUP4 DUP1 SWAP3 PUSH2 0x8BEE JUMP JUMPDEST PUSH1 0x20 DUP2 MLOAD SWAP2 ADD KECCAK256 PUSH2 0x454 PUSH2 0x9A1E JUMP JUMPDEST PUSH1 0x20 DUP2 MLOAD SWAP2 ADD KECCAK256 EQ PUSH1 0x0 EQ PUSH2 0x474 JUMPI PUSH2 0x46E PUSH1 0x1 SWAP2 PUSH2 0x93F8 JUMP JUMPDEST SWAP2 PUSH2 0x419 JUMP JUMPDEST SWAP1 DUP1 PUSH1 0x0 MSTORE PUSH1 0x4 PUSH1 0x20 MSTORE PUSH2 0x3E7 PUSH2 0x498 PUSH1 0x8 PUSH1 0x40 PUSH1 0x0 KECCAK256 ADD PUSH1 0x40 MLOAD SWAP3 DUP4 DUP1 SWAP3 PUSH2 0x8BEE JUMP JUMPDEST PUSH1 0x20 DUP2 MLOAD SWAP2 ADD KECCAK256 PUSH2 0x4A7 PUSH2 0x9989 JUMP JUMPDEST PUSH1 0x20 DUP2 MLOAD SWAP2 ADD KECCAK256 EQ PUSH2 0x4BC JUMPI JUMPDEST PUSH1 0x1 SWAP1 PUSH2 0x419 JUMP JUMPDEST SWAP2 PUSH2 0x4C8 PUSH1 0x1 SWAP2 PUSH2 0x93F8 JUMP JUMPDEST SWAP3 SWAP1 POP PUSH2 0x4B4 JUMP JUMPDEST CALLVALUE PUSH2 0x31E JUMPI PUSH1 0x20 CALLDATASIZE PUSH1 0x3 NOT ADD SLT PUSH2 0x31E JUMPI PUSH1 0x1 PUSH1 0x1 PUSH1 0xA0 SHL SUB PUSH2 0x4F1 PUSH2 0x896A JUMP JUMPDEST AND DUP1 PUSH1 0x0 MSTORE PUSH1 0x9 PUSH1 0x20 MSTORE PUSH1 0x40 PUSH1 0x0 KECCAK256 SWAP1 PUSH1 0x40 MLOAD DUP1 DUP4 PUSH1 0x20 DUP3 SWAP6 SLOAD SWAP4 DUP5 DUP2 MSTORE ADD SWAP1 PUSH1 0x0 MSTORE PUSH1 0x20 PUSH1 0x0 KECCAK256 SWAP3 PUSH1 0x0 JUMPDEST DUP2 DUP2 LT PUSH2 0x649 JUMPI POP POP PUSH2 0x532 SWAP3 POP SUB DUP4 PUSH2 0x8A85 JUMP JUMPDEST PUSH2 0x53C DUP3 MLOAD PUSH2 0x93A5 JUMP JUMPDEST SWAP2 PUSH1 0x0 SWAP1 DUP2 JUMPDEST DUP2 MLOAD DUP2 LT ISZERO PUSH2 0x5FA JUMPI PUSH2 0x555 DUP2 DUP4 PUSH2 0x93E4 JUMP JUMPDEST MLOAD PUSH1 0x0 SWAP1 DUP2 MSTORE PUSH1 0x4 PUSH1 0x20 MSTORE PUSH1 0x40 SWAP1 KECCAK256 PUSH1 0x1 ADD SLOAD PUSH1 0x1 PUSH1 0x1 PUSH1 0xA0 SHL SUB AND DUP5 EQ DUP1 PUSH2 0x5B0 JUMPI JUMPDEST PUSH2 0x586 JUMPI JUMPDEST PUSH1 0x1 ADD PUSH2 0x542 JUMP JUMPDEST SWAP2 PUSH2 0x5A8 PUSH1 0x1 SWAP2 PUSH2 0x597 DUP6 DUP6 PUSH2 0x93E4 JUMP JUMPDEST MLOAD PUSH2 0x5A2 DUP3 DUP10 PUSH2 0x93E4 JUMP JUMPDEST MSTORE PUSH2 0x93F8 JUMP JUMPDEST SWAP3 SWAP1 POP PUSH2 0x57E JUMP JUMPDEST POP PUSH2 0x5BB DUP2 DUP4 PUSH2 0x93E4 JUMP JUMPDEST MLOAD PUSH1 0x0 MSTORE PUSH1 0x4 PUSH1 0x20 MSTORE PUSH2 0x3E7 PUSH2 0x5DE PUSH1 0x8 PUSH1 0x40 PUSH1 0x0 KECCAK256 ADD PUSH1 0x40 MLOAD SWAP3 DUP4 DUP1 SWAP3 PUSH2 0x8BEE JUMP JUMPDEST PUSH1 0x20 DUP2 MLOAD SWAP2 ADD KECCAK256 PUSH2 0x5ED PUSH2 0x9A1E JUMP JUMPDEST PUSH1 0x20 DUP2 MLOAD SWAP2 ADD KECCAK256 EQ PUSH2 0x579 JUMP JUMPDEST DUP5 DUP4 PUSH2 0x605 DUP2 PUSH2 0x93A5 JUMP JUMPDEST SWAP2 PUSH1 0x0 JUMPDEST DUP3 DUP2 LT PUSH2 0x62A JUMPI PUSH1 0x40 MLOAD PUSH1 0x20 DUP1 DUP3 MSTORE DUP2 SWAP1 PUSH2 0x626 SWAP1 DUP3 ADD DUP8 PUSH2 0x8996 JUMP JUMPDEST SUB SWAP1 RETURN JUMPDEST DUP1 PUSH2 0x637 PUSH1 0x1 SWAP3 DUP5 PUSH2 0x93E4 JUMP JUMPDEST MLOAD PUSH2 0x642 DUP3 DUP8 PUSH2 0x93E4 JUMP JUMPDEST MSTORE ADD PUSH2 0x609 JUMP JUMPDEST DUP5 SLOAD DUP4 MSTORE PUSH1 0x1 SWAP5 DUP6 ADD SWAP5 DUP8 SWAP5 POP PUSH1 0x20 SWAP1 SWAP4 ADD SWAP3 ADD PUSH2 0x51D JUMP JUMPDEST CALLVALUE PUSH2 0x31E JUMPI PUSH2 0x7A8 PUSH2 0x673 CALLDATASIZE PUSH2 0x8E95 JUMP JUMPDEST SWAP3 SWAP1 SWAP3 CALLER PUSH1 0x0 MSTORE PUSH1 0x0 PUSH1 0x20 MSTORE PUSH2 0x696 PUSH1 0xFF PUSH1 0x2 PUSH1 0x40 PUSH1 0x0 KECCAK256 ADD SLOAD PUSH1 0xA0 SHR AND PUSH2 0x9407 JUMP JUMPDEST DUP3 PUSH1 0x0 MSTORE PUSH1 0x1 PUSH1 0x20 MSTORE PUSH2 0x6B3 PUSH1 0xFF PUSH1 0xB PUSH1 0x40 PUSH1 0x0 KECCAK256 ADD SLOAD AND PUSH2 0x90DF JUMP JUMPDEST PUSH1 0x0 DUP4 DUP2 MSTORE PUSH1 0x1 PUSH1 0x20 MSTORE PUSH1 0x40 SWAP1 KECCAK256 PUSH1 0x9 ADD SLOAD PUSH2 0x6D9 SWAP1 PUSH1 0x1 PUSH1 0x1 PUSH1 0xA0 SHL SUB AND CALLER EQ PUSH2 0x9A44 JUMP JUMPDEST PUSH2 0x6E4 DUP5 ISZERO ISZERO PUSH2 0x94EF JUMP JUMPDEST PUSH2 0x6EF DUP2 ISZERO ISZERO PUSH2 0x953B JUMP JUMPDEST DUP3 PUSH1 0x0 MSTORE PUSH1 0x1 PUSH1 0x20 MSTORE PUSH2 0x70C DUP5 PUSH1 0x7 PUSH1 0x40 PUSH1 0x0 KECCAK256 ADD SLOAD LT ISZERO PUSH2 0x9BEB JUMP JUMPDEST PUSH1 0x6 PUSH1 0xD SLOAD PUSH1 0x40 MLOAD SWAP3 PUSH2 0x71E DUP5 PUSH2 0x8A32 JUMP JUMPDEST DUP2 DUP5 MSTORE PUSH1 0x20 DUP5 ADD SWAP1 DUP7 DUP3 MSTORE PUSH1 0x40 DUP6 ADD CALLER DUP2 MSTORE PUSH1 0x60 DUP7 ADD SWAP1 DUP10 DUP3 MSTORE PUSH1 0x80 DUP8 ADD SWAP3 DUP4 MSTORE PUSH1 0xA0 DUP8 ADD SWAP4 TIMESTAMP DUP6 MSTORE PUSH1 0xC0 DUP9 ADD SWAP6 PUSH1 0x1 DUP8 MSTORE PUSH1 0x0 MSTORE PUSH1 0x3 PUSH1 0x20 MSTORE PUSH1 0x40 PUSH1 0x0 KECCAK256 SWAP8 MLOAD DUP9 SSTORE MLOAD PUSH1 0x1 DUP9 ADD SSTORE PUSH1 0x1 DUP1 PUSH1 0xA0 SHL SUB SWAP1 MLOAD AND PUSH1 0x2 DUP8 ADD SWAP1 PUSH1 0x1 DUP1 PUSH1 0xA0 SHL SUB AND PUSH1 0x1 DUP1 PUSH1 0xA0 SHL SUB NOT DUP3 SLOAD AND OR SWAP1 SSTORE MLOAD PUSH1 0x3 DUP7 ADD SSTORE MLOAD PUSH1 0x4 DUP6 ADD SSTORE MLOAD PUSH1 0x5 DUP5 ADD SSTORE MLOAD ISZERO ISZERO SWAP2 ADD PUSH2 0x9599 JUMP JUMPDEST PUSH1 0xD SLOAD SWAP2 PUSH1 0x6 SLOAD PUSH1 0x1 PUSH1 0x40 SHL DUP2 LT ISZERO PUSH2 0x832 JUMPI PUSH2 0x82D SWAP4 PUSH2 0x7D4 DUP3 PUSH1 0x1 PUSH2 0x7ED SWAP5 ADD PUSH1 0x6 SSTORE PUSH1 0x6 PUSH2 0x8D15 JUMP JUMPDEST SWAP1 SWAP2 SWAP1 DUP3 SLOAD SWAP1 PUSH1 0x3 SHL SWAP2 DUP3 SHL SWAP2 PUSH1 0x0 NOT SWAP1 SHL NOT AND OR SWAP1 SSTORE JUMP JUMPDEST PUSH32 0xC5381A6C42951B57ED48D67EDEF856A28EFF1A2DE3AD867D5F4544B9078BEB37 PUSH1 0x60 PUSH1 0xD SLOAD SWAP4 DUP5 SWAP4 PUSH1 0x40 MLOAD SWAP2 DUP3 MSTORE CALLER PUSH1 0x20 DUP4 ADD MSTORE PUSH1 0x40 DUP3 ADD MSTORE LOG2 PUSH2 0x93F8 JUMP JUMPDEST PUSH1 0xD SSTORE STOP JUMPDEST PUSH4 0x4E487B71 PUSH1 0xE0 SHL PUSH1 0x0 MSTORE PUSH1 0x41 PUSH1 0x4 MSTORE PUSH1 0x24 PUSH1 0x0 REVERT JUMPDEST CALLVALUE PUSH2 0x31E JUMPI PUSH2 0x856 CALLDATASIZE PUSH2 0x8E95 JUMP JUMPDEST DUP3 PUSH1 0x0 MSTORE PUSH1 0x2 PUSH1 0x20 MSTORE PUSH2 0x873 PUSH1 0xFF PUSH1 0x8 PUSH1 0x40 PUSH1 0x0 KECCAK256 ADD SLOAD AND PUSH2 0x8EAF JUMP JUMPDEST DUP3 PUSH1 0x0 MSTORE PUSH1 0x2 PUSH1 0x20 MSTORE PUSH1 0x1 DUP1 PUSH1 0xA0 SHL SUB PUSH1 0x1 PUSH1 0x40 PUSH1 0x0 KECCAK256 ADD SLOAD AND CALLER EQ DUP1 ISZERO PUSH2 0xA4C JUMPI JUMPDEST PUSH2 0x89F SWAP1 PUSH2 0x8EF9 JUMP JUMPDEST DUP3 PUSH1 0x0 MSTORE PUSH1 0x2 PUSH1 0x20 MSTORE PUSH2 0x8E1 PUSH2 0x3E7 PUSH2 0x8C5 PUSH1 0x6 PUSH1 0x40 PUSH1 0x0 KECCAK256 ADD PUSH1 0x40 MLOAD SWAP3 DUP4 DUP1 SWAP3 PUSH2 0x8BEE JUMP JUMPDEST PUSH1 0x20 DUP2 MLOAD SWAP2 ADD KECCAK256 PUSH2 0x8D4 PUSH2 0x8F44 JUMP JUMPDEST PUSH1 0x20 DUP2 MLOAD SWAP2 ADD KECCAK256 EQ PUSH2 0x8F69 JUMP JUMPDEST PUSH2 0x8EC DUP3 ISZERO ISZERO PUSH2 0x953B JUMP JUMPDEST TIMESTAMP DUP2 GT ISZERO PUSH2 0xA07 JUMPI DUP3 PUSH1 0x0 MSTORE PUSH1 0x2 PUSH1 0x20 MSTORE PUSH1 0x40 PUSH1 0x0 KECCAK256 SWAP2 PUSH1 0x7 DUP4 ADD SWAP2 DUP3 SLOAD SWAP3 PUSH2 0x916 DUP5 ISZERO ISZERO PUSH2 0x8FC0 JUMP JUMPDEST PUSH1 0x0 NOT DUP5 ADD DUP5 DUP2 GT PUSH2 0x38B JUMPI PUSH2 0x92C SWAP1 DUP3 PUSH2 0x9012 JUMP JUMPDEST POP PUSH1 0x2 ADD SLOAD PUSH1 0x1 PUSH1 0x1 PUSH1 0xA0 SHL SUB AND CALLER EQ PUSH2 0x9A6 JUMPI PUSH1 0x1 DUP5 ADD DUP1 SWAP5 GT PUSH2 0x38B JUMPI PUSH1 0x0 DUP1 MLOAD PUSH1 0x20 PUSH2 0xA5CD DUP4 CODECOPY DUP2 MLOAD SWAP2 MSTORE SWAP5 PUSH2 0x98E PUSH1 0x5 SWAP3 PUSH1 0x40 MLOAD SWAP1 PUSH2 0x96E DUP3 PUSH2 0x8A17 JUMP JUMPDEST DUP8 DUP3 MSTORE DUP7 PUSH1 0x20 DUP4 ADD MSTORE CALLER PUSH1 0x40 DUP4 ADD MSTORE TIMESTAMP PUSH1 0x60 DUP4 ADD MSTORE DUP6 PUSH1 0x80 DUP4 ADD MSTORE PUSH2 0x9B59 JUMP JUMPDEST ADD SSTORE PUSH2 0x9A1 PUSH1 0x40 MLOAD SWAP3 DUP4 SWAP3 CALLER SWAP2 DUP5 PUSH2 0x8D5F JUMP JUMPDEST SUB SWAP1 LOG2 STOP JUMPDEST PUSH1 0x40 MLOAD PUSH3 0x461BCD PUSH1 0xE5 SHL DUP2 MSTORE PUSH1 0x20 PUSH1 0x4 DUP3 ADD MSTORE PUSH1 0x33 PUSH1 0x24 DUP3 ADD MSTORE PUSH32 0x43616E6E6F74206E65676F7469617465207768656E20796F7520617265207468 PUSH1 0x44 DUP3 ADD MSTORE PUSH19 0x65207265717565737446726F6D207061727479 PUSH1 0x68 SHL PUSH1 0x64 DUP3 ADD MSTORE PUSH1 0x84 SWAP1 REVERT JUMPDEST PUSH1 0x40 MLOAD PUSH3 0x461BCD PUSH1 0xE5 SHL DUP2 MSTORE PUSH1 0x20 PUSH1 0x4 DUP3 ADD MSTORE PUSH1 0x1E PUSH1 0x24 DUP3 ADD MSTORE PUSH32 0x456E642064617465206D75737420626520696E20746865206675747572650000 PUSH1 0x44 DUP3 ADD MSTORE PUSH1 0x64 SWAP1 REVERT JUMPDEST POP PUSH1 0x0 DUP4 DUP2 MSTORE PUSH1 0x2 PUSH1 0x20 DUP2 SWAP1 MSTORE PUSH1 0x40 SWAP1 SWAP2 KECCAK256 ADD SLOAD PUSH1 0x1 PUSH1 0x1 PUSH1 0xA0 SHL SUB AND CALLER EQ PUSH2 0x896 JUMP JUMPDEST CALLVALUE PUSH2 0x31E JUMPI PUSH1 0x0 CALLDATASIZE PUSH1 0x3 NOT ADD SLT PUSH2 0x31E JUMPI PUSH1 0xA SLOAD PUSH1 0x0 NOT DUP2 ADD SWAP1 DUP2 GT PUSH2 0x38B JUMPI PUSH1 0xB SLOAD PUSH1 0x0 NOT DUP2 ADD SWAP2 SWAP1 DUP3 GT PUSH2 0x38B JUMPI PUSH1 0xC SLOAD PUSH1 0x0 NOT DUP2 ADD SWAP3 SWAP1 DUP4 GT PUSH2 0x38B JUMPI PUSH1 0xF SLOAD PUSH1 0x0 NOT DUP2 ADD SWAP1 DUP2 GT PUSH2 0x38B JUMPI PUSH1 0xA0 SWAP4 PUSH1 0x6 SLOAD SWAP3 PUSH1 0x40 MLOAD SWAP5 DUP6 MSTORE PUSH1 0x20 DUP6 ADD MSTORE PUSH1 0x40 DUP5 ADD MSTORE PUSH1 0x60 DUP4 ADD MSTORE PUSH1 0x80 DUP3 ADD MSTORE RETURN JUMPDEST CALLVALUE PUSH2 0x31E JUMPI PUSH1 0x20 CALLDATASIZE PUSH1 0x3 NOT ADD SLT PUSH2 0x31E JUMPI PUSH2 0x626 PUSH2 0xB01 PUSH1 0x4 CALLDATALOAD PUSH2 0xA03A JUMP JUMPDEST PUSH1 0x40 MLOAD SWAP2 DUP3 SWAP2 PUSH1 0x20 DUP4 MSTORE PUSH1 0x20 DUP4 ADD SWAP1 PUSH2 0x8996 JUMP JUMPDEST PUSH1 0x20 CALLDATASIZE PUSH1 0x3 NOT ADD SLT PUSH2 0x31E JUMPI PUSH1 0x4 CALLDATALOAD DUP1 PUSH1 0x0 MSTORE PUSH1 0x4 PUSH1 0x20 MSTORE PUSH2 0xB41 PUSH1 0xFF PUSH1 0xE PUSH1 0x40 PUSH1 0x0 KECCAK256 ADD SLOAD AND PUSH2 0x926B JUMP JUMPDEST PUSH1 0x0 DUP2 DUP2 MSTORE PUSH1 0x4 PUSH1 0x20 MSTORE PUSH1 0x40 SWAP1 KECCAK256 PUSH1 0x1 ADD SLOAD PUSH1 0x1 PUSH1 0x1 PUSH1 0xA0 SHL SUB AND CALLER SUB PUSH2 0x1197 JUMPI DUP1 PUSH1 0x0 MSTORE PUSH1 0x4 PUSH1 0x20 MSTORE PUSH1 0x40 PUSH1 0x0 KECCAK256 SWAP1 PUSH1 0x0 DUP1 PUSH1 0xD DUP5 ADD SWAP1 DUP2 SLOAD SWAP3 JUMPDEST DUP4 DUP2 LT PUSH2 0x115B JUMPI JUMPDEST POP ISZERO PUSH2 0x1101 JUMPI PUSH1 0x0 JUMPDEST DUP3 DUP2 LT PUSH2 0x107D JUMPI POP POP POP PUSH1 0x6 DUP3 ADD SWAP2 DUP3 SLOAD SWAP2 PUSH2 0xBAC DUP4 CALLVALUE LT ISZERO PUSH2 0x9FF7 JUMP JUMPDEST PUSH1 0x0 DUP1 DUP1 DUP1 PUSH1 0x2 DUP7 ADD SWAP7 PUSH1 0x1 DUP1 PUSH1 0xA0 SHL SUB DUP9 SLOAD AND DUP3 DUP3 ISZERO PUSH2 0x1074 JUMPI JUMPDEST CALL ISZERO PUSH2 0x105F JUMPI DUP4 SLOAD DUP1 CALLVALUE GT PUSH2 0x103A JUMPI JUMPDEST POP DUP1 PUSH32 0xA4678E82FE7B97EB2133EAD828ED5D14EBB0C83961617DC347B698964D070B66 PUSH1 0x40 DUP7 SLOAD DUP2 MLOAD SWAP1 CALLER DUP3 MSTORE PUSH1 0x20 DUP3 ADD MSTORE LOG2 PUSH1 0x40 SWAP1 PUSH1 0x0 DUP1 MLOAD PUSH1 0x20 PUSH2 0xA60D DUP4 CODECOPY DUP2 MLOAD SWAP2 MSTORE DUP3 MLOAD PUSH2 0xC29 DUP5 DUP3 PUSH2 0x8A85 JUMP JUMPDEST PUSH1 0x11 DUP2 MSTORE PUSH17 0x14185E5B595B9D0818DBDB5C1B195D1959 PUSH1 0x7A SHL PUSH1 0x20 DUP3 ADD MSTORE DUP3 PUSH1 0x0 MSTORE PUSH1 0x4 PUSH1 0x20 MSTORE DUP4 PUSH1 0x0 KECCAK256 PUSH2 0xC95 PUSH1 0x1 DUP3 ADD SWAP2 PUSH1 0xD PUSH1 0x1 DUP1 PUSH1 0xA0 SHL SUB DUP5 SLOAD AND SWAP2 DUP9 MLOAD SWAP3 PUSH2 0xC75 DUP5 PUSH2 0x89E0 JUMP JUMPDEST TIMESTAMP DUP5 MSTORE PUSH2 0xC80 PUSH2 0x971D JUMP JUMPDEST PUSH1 0x20 DUP6 ADD MSTORE DUP7 DUP11 DUP6 ADD MSTORE PUSH1 0x60 DUP5 ADD MSTORE ADD PUSH2 0x9747 JUMP JUMPDEST SLOAD DUP5 MLOAD SWAP2 DUP3 SWAP2 PUSH2 0xCB1 SWAP2 PUSH1 0x1 PUSH1 0x1 PUSH1 0xA0 SHL SUB SWAP1 SWAP2 AND SWAP1 DUP4 PUSH2 0x99D3 JUMP JUMPDEST SUB SWAP1 LOG2 PUSH1 0x8 DUP3 ADD PUSH2 0xCCB PUSH2 0xCC5 DUP3 SLOAD PUSH2 0x8BB4 JUMP JUMPDEST DUP3 PUSH2 0x9045 JUMP JUMPDEST PUSH1 0x12 PUSH9 0x18DBDB5C1B195D1959 PUSH1 0xBA SHL ADD SWAP1 SSTORE PUSH1 0xF SLOAD PUSH1 0x1 DUP4 ADD DUP1 SLOAD DUP6 SLOAD PUSH1 0x3 DUP7 ADD SLOAD PUSH1 0x4 DUP8 ADD SLOAD SWAP9 SLOAD DUP7 MLOAD SWAP6 SWAP10 SWAP5 SWAP8 PUSH1 0x7 DUP2 ADD SWAP7 SWAP1 SWAP6 SWAP1 SWAP5 PUSH1 0x1 PUSH1 0x1 PUSH1 0xA0 SHL SUB SWAP1 DUP2 AND SWAP5 AND SWAP3 PUSH2 0xD1A DUP7 PUSH2 0x89FB JUMP JUMPDEST DUP12 DUP7 MSTORE PUSH1 0x20 DUP7 ADD SWAP5 DUP6 MSTORE DUP9 DUP7 ADD SWAP4 DUP5 MSTORE PUSH1 0x60 DUP7 ADD SWAP1 DUP2 MSTORE PUSH1 0x80 DUP7 ADD SWAP2 DUP3 MSTORE PUSH1 0xA0 DUP7 ADD SWAP3 DUP4 MSTORE DUP9 MLOAD SWAP4 PUSH2 0xD57 DUP6 PUSH2 0xD50 DUP2 DUP13 PUSH2 0x8BEE JUMP JUMPDEST SUB DUP7 PUSH2 0x8A85 JUMP JUMPDEST PUSH1 0xC0 DUP8 ADD SWAP5 DUP6 MSTORE PUSH1 0xE0 DUP8 ADD SWAP6 TIMESTAMP DUP8 MSTORE PUSH2 0xD6E PUSH2 0x9989 JUMP JUMPDEST PUSH2 0x100 DUP10 ADD SWAP1 DUP2 MSTORE PUSH1 0x0 SWAP15 DUP16 MSTORE PUSH1 0x5 PUSH1 0x20 DUP2 SWAP1 MSTORE SWAP15 DUP13 SWAP1 KECCAK256 SWAP9 MLOAD DUP10 SSTORE SWAP1 MLOAD PUSH1 0x1 DUP10 ADD DUP1 SLOAD PUSH1 0x1 PUSH1 0x1 PUSH1 0xA0 SHL SUB NOT SWAP1 DUP2 AND PUSH1 0x1 PUSH1 0x1 PUSH1 0xA0 SHL SUB SWAP4 DUP5 AND OR SWAP1 SWAP2 SSTORE SWAP3 MLOAD PUSH1 0x2 DUP11 ADD DUP1 SLOAD SWAP1 SWAP5 AND SWAP2 AND OR SWAP1 SWAP2 SSTORE SWAP1 MLOAD PUSH1 0x3 DUP8 ADD SSTORE SWAP1 MLOAD PUSH1 0x4 DUP7 ADD SSTORE SWAP1 MLOAD SWAP10 DUP5 ADD SWAP10 SWAP1 SWAP10 SSTORE MLOAD DUP1 MLOAD PUSH1 0x6 DUP5 ADD SWAP2 PUSH1 0x1 PUSH1 0x1 PUSH1 0x40 SHL SUB DUP3 GT PUSH2 0x832 JUMPI PUSH2 0xDFF DUP3 PUSH2 0xDF9 DUP6 SLOAD PUSH2 0x8BB4 JUMP JUMPDEST DUP6 PUSH2 0x909A JUMP JUMPDEST PUSH1 0x20 SWAP1 PUSH1 0x1F DUP4 GT PUSH1 0x1 EQ PUSH2 0xFCE JUMPI SWAP2 DUP1 PUSH2 0xE28 SWAP3 PUSH1 0x8 SWAP8 SWAP7 SWAP6 SWAP5 PUSH1 0x0 SWAP3 PUSH2 0xFC3 JUMPI JUMPDEST POP POP PUSH2 0x9586 JUMP JUMPDEST SWAP1 SSTORE JUMPDEST MLOAD PUSH1 0x7 DUP3 ADD SSTORE ADD SWAP6 MLOAD SWAP6 DUP7 MLOAD PUSH1 0x1 DUP1 PUSH1 0x40 SHL SUB DUP2 GT PUSH2 0x832 JUMPI PUSH2 0xE58 DUP2 PUSH2 0xE52 DUP5 SLOAD PUSH2 0x8BB4 JUMP JUMPDEST DUP5 PUSH2 0x909A JUMP JUMPDEST PUSH1 0x20 PUSH1 0x1F DUP3 GT PUSH1 0x1 EQ PUSH2 0xF44 JUMPI SWAP2 PUSH2 0xE93 DUP3 PUSH1 0x0 DUP1 MLOAD PUSH1 0x20 PUSH2 0xA48D DUP4 CODECOPY DUP2 MLOAD SWAP2 MSTORE SWAP8 SWAP7 SWAP6 SWAP4 PUSH2 0xF2C SWAP6 PUSH2 0xF34 SWAP13 PUSH1 0x0 SWAP3 PUSH2 0xF39 JUMPI POP POP PUSH2 0x9586 JUMP JUMPDEST SWAP1 SSTORE JUMPDEST DUP6 SLOAD PUSH1 0x1 PUSH1 0x1 PUSH1 0xA0 SHL SUB AND PUSH1 0x0 SWAP1 DUP2 MSTORE PUSH1 0x8 PUSH1 0x20 MSTORE DUP5 SWAP1 KECCAK256 PUSH1 0xF SLOAD PUSH2 0xEBA SWAP2 PUSH2 0x99B0 JUMP JUMPDEST DUP7 SLOAD PUSH1 0x1 PUSH1 0x1 PUSH1 0xA0 SHL SUB AND PUSH1 0x0 SWAP1 DUP2 MSTORE PUSH1 0x8 PUSH1 0x20 MSTORE DUP5 SWAP1 KECCAK256 PUSH1 0xF SLOAD PUSH2 0xEDE SWAP2 PUSH2 0x99B0 JUMP JUMPDEST SLOAD SWAP2 PUSH1 0x60 DUP5 MLOAD SWAP5 DUP6 SWAP5 PUSH1 0x0 DUP1 MLOAD PUSH1 0x20 PUSH2 0xA5ED DUP4 CODECOPY DUP2 MLOAD SWAP2 MSTORE PUSH1 0x0 DUP1 LOG2 PUSH1 0xF SLOAD SWAP8 SLOAD SWAP9 SLOAD PUSH1 0x1 PUSH1 0x1 PUSH1 0xA0 SHL SUB SWAP10 DUP11 AND DUP7 MSTORE SWAP1 SWAP9 AND PUSH1 0x20 DUP6 ADD MSTORE SWAP7 DUP4 ADD SWAP7 SWAP1 SWAP7 MSTORE SWAP4 SWAP5 DUP6 SWAP5 SWAP1 PUSH1 0x60 DUP4 ADD SWAP1 PUSH2 0x8BEE JUMP JUMPDEST SUB SWAP1 LOG2 PUSH2 0x93F8 JUMP JUMPDEST PUSH1 0xF SSTORE STOP JUMPDEST ADD MLOAD SWAP1 POP DUP13 DUP1 PUSH2 0xE21 JUMP JUMPDEST PUSH1 0x1F NOT DUP3 AND SWAP9 DUP4 PUSH1 0x0 MSTORE DUP2 PUSH1 0x0 KECCAK256 SWAP10 PUSH1 0x0 JUMPDEST DUP2 DUP2 LT PUSH2 0xFAB JUMPI POP SWAP3 PUSH2 0xF34 SWAP11 PUSH2 0xF2C SWAP6 SWAP4 PUSH1 0x1 SWAP4 DUP4 PUSH1 0x0 DUP1 MLOAD PUSH1 0x20 PUSH2 0xA48D DUP4 CODECOPY DUP2 MLOAD SWAP2 MSTORE SWAP12 SWAP11 SWAP10 SWAP8 LT PUSH2 0xF92 JUMPI JUMPDEST POP POP POP DUP2 SHL ADD SWAP1 SSTORE PUSH2 0xE96 JUMP JUMPDEST ADD MLOAD PUSH1 0x0 NOT PUSH1 0xF8 DUP5 PUSH1 0x3 SHL AND SHR NOT AND SWAP1 SSTORE DUP12 DUP1 DUP1 PUSH2 0xF85 JUMP JUMPDEST DUP4 DUP4 ADD MLOAD DUP13 SSTORE PUSH1 0x1 SWAP1 SWAP12 ADD SWAP11 PUSH1 0x20 SWAP4 DUP5 ADD SWAP4 ADD PUSH2 0xF56 JUMP JUMPDEST ADD MLOAD SWAP1 POP DUP14 DUP1 PUSH2 0xE21 JUMP JUMPDEST SWAP1 PUSH1 0x1F NOT DUP4 AND SWAP2 DUP5 PUSH1 0x0 MSTORE DUP2 PUSH1 0x0 KECCAK256 SWAP3 PUSH1 0x0 JUMPDEST DUP2 DUP2 LT PUSH2 0x1022 JUMPI POP SWAP2 PUSH1 0x1 SWAP4 SWAP2 DUP6 PUSH1 0x8 SWAP10 SWAP9 SWAP8 SWAP7 SWAP5 LT PUSH2 0x1009 JUMPI JUMPDEST POP POP POP DUP2 SHL ADD SWAP1 SSTORE PUSH2 0xE2B JUMP JUMPDEST ADD MLOAD PUSH1 0x0 NOT PUSH1 0xF8 DUP5 PUSH1 0x3 SHL AND SHR NOT AND SWAP1 SSTORE DUP13 DUP1 DUP1 PUSH2 0xFFC JUMP JUMPDEST SWAP3 SWAP4 PUSH1 0x20 PUSH1 0x1 DUP2 SWAP3 DUP8 DUP7 ADD MLOAD DUP2 SSTORE ADD SWAP6 ADD SWAP4 ADD PUSH2 0xFE1 JUMP JUMPDEST PUSH1 0x0 DUP1 DUP1 PUSH2 0x1049 DUP2 SWAP5 CALLVALUE PUSH2 0x9005 JUMP JUMPDEST DUP2 DUP2 ISZERO PUSH2 0x106B JUMPI JUMPDEST CALLER SWAP1 CALL ISZERO PUSH2 0x105F JUMPI DUP5 PUSH2 0xBD8 JUMP JUMPDEST PUSH1 0x40 MLOAD RETURNDATASIZE PUSH1 0x0 DUP3 RETURNDATACOPY RETURNDATASIZE SWAP1 REVERT JUMPDEST POP PUSH2 0x8FC PUSH2 0x1051 JUMP JUMPDEST POP PUSH2 0x8FC PUSH2 0xBC8 JUMP JUMPDEST PUSH1 0x1 PUSH2 0x109D PUSH2 0x108C DUP4 DUP6 PUSH2 0x96D4 JUMP JUMPDEST POP PUSH2 0x3E7 PUSH1 0x40 MLOAD DUP1 SWAP5 DUP2 SWAP4 ADD PUSH2 0x8BEE JUMP JUMPDEST PUSH1 0x20 DUP2 MLOAD SWAP2 ADD KECCAK256 PUSH2 0x10AC PUSH2 0x971D JUMP JUMPDEST PUSH1 0x20 DUP2 MLOAD SWAP2 ADD KECCAK256 EQ PUSH2 0x10C0 JUMPI PUSH1 0x1 ADD PUSH2 0xB8E JUMP JUMPDEST PUSH1 0x40 MLOAD PUSH3 0x461BCD PUSH1 0xE5 SHL DUP2 MSTORE PUSH1 0x20 PUSH1 0x4 DUP3 ADD MSTORE PUSH1 0x19 PUSH1 0x24 DUP3 ADD MSTORE PUSH25 0x14185E5B595B9D08185B1C9958591E4818DBDB5C1B195D1959 PUSH1 0x3A SHL PUSH1 0x44 DUP3 ADD MSTORE PUSH1 0x64 SWAP1 REVERT JUMPDEST PUSH1 0x40 MLOAD PUSH3 0x461BCD PUSH1 0xE5 SHL DUP2 MSTORE PUSH1 0x20 PUSH1 0x4 DUP3 ADD MSTORE PUSH1 0x2C PUSH1 0x24 DUP3 ADD MSTORE PUSH32 0x43616E6E6F7420706179206265666F7265207175616C69747920636865636B20 PUSH1 0x44 DUP3 ADD MSTORE PUSH12 0x1A5CC818DBDB5C1B195D1959 PUSH1 0xA2 SHL PUSH1 0x64 DUP3 ADD MSTORE PUSH1 0x84 SWAP1 REVERT JUMPDEST PUSH1 0x1 PUSH2 0x116A PUSH2 0x108C DUP4 DUP7 PUSH2 0x96D4 JUMP JUMPDEST PUSH1 0x20 DUP2 MLOAD SWAP2 ADD KECCAK256 PUSH2 0x1179 PUSH2 0x96F0 JUMP JUMPDEST PUSH1 0x20 DUP2 MLOAD SWAP2 ADD KECCAK256 EQ PUSH2 0x118D JUMPI PUSH1 0x1 ADD PUSH2 0xB7D JUMP JUMPDEST POP POP PUSH1 0x1 DUP6 PUSH2 0xB85 JUMP JUMPDEST PUSH1 0x40 MLOAD PUSH3 0x461BCD PUSH1 0xE5 SHL DUP2 MSTORE PUSH1 0x20 PUSH1 0x4 DUP3 ADD MSTORE PUSH1 0x1D PUSH1 0x24 DUP3 ADD MSTORE PUSH32 0x4F6E6C792062757965722063616E2070617920666F72206F7264657273000000 PUSH1 0x44 DUP3 ADD MSTORE PUSH1 0x64 SWAP1 REVERT JUMPDEST CALLVALUE PUSH2 0x31E JUMPI PUSH1 0x0 CALLDATASIZE PUSH1 0x3 NOT ADD SLT PUSH2 0x31E JUMPI PUSH1 0x20 PUSH1 0xA SLOAD PUSH1 0x40 MLOAD SWAP1 DUP2 MSTORE RETURN JUMPDEST CALLVALUE PUSH2 0x31E JUMPI PUSH1 0x0 CALLDATASIZE PUSH1 0x3 NOT ADD SLT PUSH2 0x31E JUMPI PUSH1 0x20 PUSH1 0xF SLOAD PUSH1 0x40 MLOAD SWAP1 DUP2 MSTORE RETURN JUMPDEST CALLVALUE PUSH2 0x31E JUMPI PUSH1 0x20 CALLDATASIZE PUSH1 0x3 NOT ADD SLT PUSH2 0x31E JUMPI PUSH1 0x1 PUSH1 0x1 PUSH1 0xA0 SHL SUB PUSH2 0x1239 PUSH2 0x896A JUMP JUMPDEST AND PUSH1 0x0 MSTORE PUSH1 0x8 PUSH1 0x20 MSTORE PUSH1 0x40 PUSH1 0x0 KECCAK256 PUSH1 0x40 MLOAD SWAP1 DUP2 PUSH1 0x20 DUP3 SLOAD SWAP2 DUP3 DUP2 MSTORE ADD SWAP2 PUSH1 0x0 MSTORE PUSH1 0x20 PUSH1 0x0 KECCAK256 SWAP1 PUSH1 0x0 JUMPDEST DUP2 DUP2 LT PUSH2 0x1279 JUMPI PUSH2 0x626 DUP6 PUSH2 0xB01 DUP2 DUP8 SUB DUP3 PUSH2 0x8A85 JUMP JUMPDEST DUP3 SLOAD DUP5 MSTORE PUSH1 0x20 SWAP1 SWAP4 ADD SWAP3 PUSH1 0x1 SWAP3 DUP4 ADD SWAP3 ADD PUSH2 0x1262 JUMP JUMPDEST CALLVALUE PUSH2 0x31E JUMPI PUSH1 0x20 CALLDATASIZE PUSH1 0x3 NOT ADD SLT PUSH2 0x31E JUMPI PUSH1 0x1 PUSH1 0x1 PUSH1 0xA0 SHL SUB PUSH2 0x12B0 PUSH2 0x896A JUMP JUMPDEST AND DUP1 PUSH1 0x0 MSTORE PUSH1 0x9 PUSH1 0x20 MSTORE PUSH1 0x40 PUSH1 0x0 KECCAK256 SWAP1 PUSH1 0x40 MLOAD DUP1 DUP4 PUSH1 0x20 DUP3 SWAP6 SLOAD SWAP4 DUP5 DUP2 MSTORE ADD SWAP1 PUSH1 0x0 MSTORE PUSH1 0x20 PUSH1 0x0 KECCAK256 SWAP3 PUSH1 0x0 JUMPDEST DUP2 DUP2 LT PUSH2 0x13F3 JUMPI POP POP PUSH2 0x12F1 SWAP3 POP SUB DUP4 PUSH2 0x8A85 JUMP JUMPDEST PUSH2 0x12FB DUP3 MLOAD PUSH2 0x93A5 JUMP JUMPDEST SWAP2 PUSH1 0x0 SWAP1 DUP2 JUMPDEST DUP2 MLOAD DUP2 LT ISZERO PUSH2 0x13A8 JUMPI PUSH2 0x1314 DUP2 DUP4 PUSH2 0x93E4 JUMP JUMPDEST MLOAD PUSH1 0x0 SWAP1 DUP2 MSTORE PUSH1 0x4 PUSH1 0x20 MSTORE PUSH1 0x40 SWAP1 KECCAK256 PUSH1 0x2 ADD SLOAD PUSH1 0x1 PUSH1 0x1 PUSH1 0xA0 SHL SUB AND DUP5 EQ DUP1 PUSH2 0x135E JUMPI JUMPDEST PUSH2 0x1345 JUMPI JUMPDEST PUSH1 0x1 ADD PUSH2 0x1301 JUMP JUMPDEST SWAP2 PUSH2 0x1356 PUSH1 0x1 SWAP2 PUSH2 0x597 DUP6 DUP6 PUSH2 0x93E4 JUMP JUMPDEST SWAP3 SWAP1 POP PUSH2 0x133D JUMP JUMPDEST POP PUSH2 0x1369 DUP2 DUP4 PUSH2 0x93E4 JUMP JUMPDEST MLOAD PUSH1 0x0 MSTORE PUSH1 0x4 PUSH1 0x20 MSTORE PUSH2 0x3E7 PUSH2 0x138C PUSH1 0x8 PUSH1 0x40 PUSH1 0x0 KECCAK256 ADD PUSH1 0x40 MLOAD SWAP3 DUP4 DUP1 SWAP3 PUSH2 0x8BEE JUMP JUMPDEST PUSH1 0x20 DUP2 MLOAD SWAP2 ADD KECCAK256 PUSH2 0x139B PUSH2 0x8F44 JUMP JUMPDEST PUSH1 0x20 DUP2 MLOAD SWAP2 ADD KECCAK256 EQ PUSH2 0x1338 JUMP JUMPDEST DUP5 DUP4 PUSH2 0x13B3 DUP2 PUSH2 0x93A5 JUMP JUMPDEST SWAP2 PUSH1 0x0 JUMPDEST DUP3 DUP2 LT PUSH2 0x13D4 JUMPI PUSH1 0x40 MLOAD PUSH1 0x20 DUP1 DUP3 MSTORE DUP2 SWAP1 PUSH2 0x626 SWAP1 DUP3 ADD DUP8 PUSH2 0x8996 JUMP JUMPDEST DUP1 PUSH2 0x13E1 PUSH1 0x1 SWAP3 DUP5 PUSH2 0x93E4 JUMP JUMPDEST MLOAD PUSH2 0x13EC DUP3 DUP8 PUSH2 0x93E4 JUMP JUMPDEST MSTORE ADD PUSH2 0x13B7 JUMP JUMPDEST DUP5 SLOAD DUP4 MSTORE PUSH1 0x1 SWAP5 DUP6 ADD SWAP5 DUP8 SWAP5 POP PUSH1 0x20 SWAP1 SWAP4 ADD SWAP3 ADD PUSH2 0x12DC JUMP JUMPDEST CALLVALUE PUSH2 0x31E JUMPI PUSH1 0x20 CALLDATASIZE PUSH1 0x3 NOT ADD SLT PUSH2 0x31E JUMPI PUSH1 0x4 CALLDATALOAD PUSH1 0x0 PUSH2 0x220 PUSH1 0x40 MLOAD PUSH2 0x1431 DUP2 PUSH2 0x8A69 JUMP JUMPDEST DUP3 DUP2 MSTORE DUP3 PUSH1 0x20 DUP3 ADD MSTORE DUP3 PUSH1 0x40 DUP3 ADD MSTORE DUP3 PUSH1 0x60 DUP3 ADD MSTORE DUP3 PUSH1 0x80 DUP3 ADD MSTORE DUP3 PUSH1 0xA0 DUP3 ADD MSTORE DUP3 PUSH1 0xC0 DUP3 ADD MSTORE PUSH1 0x60 PUSH1 0xE0 DUP3 ADD MSTORE PUSH1 0x60 PUSH2 0x100 DUP3 ADD MSTORE DUP3 PUSH2 0x120 DUP3 ADD MSTORE DUP3 PUSH2 0x140 DUP3 ADD MSTORE DUP3 PUSH2 0x160 DUP3 ADD MSTORE PUSH1 0x60 PUSH2 0x180 DUP3 ADD MSTORE PUSH1 0x60 PUSH2 0x1A0 DUP3 ADD MSTORE DUP3 PUSH2 0x1C0 DUP3 ADD MSTORE DUP3 PUSH2 0x1E0 DUP3 ADD MSTORE DUP3 PUSH2 0x200 DUP3 ADD MSTORE ADD MSTORE DUP1 PUSH1 0x0 MSTORE PUSH1 0x4 PUSH1 0x20 MSTORE PUSH1 0xFF PUSH1 0xE PUSH1 0x40 PUSH1 0x0 KECCAK256 ADD SLOAD AND ISZERO PUSH2 0x1744 JUMPI PUSH1 0x0 MSTORE PUSH1 0x4 PUSH1 0x20 MSTORE PUSH1 0x40 PUSH1 0x0 KECCAK256 PUSH1 0x40 MLOAD SWAP1 PUSH2 0x14D7 DUP3 PUSH2 0x8A69 JUMP JUMPDEST DUP1 SLOAD DUP3 MSTORE PUSH1 0x1 DUP2 ADD SLOAD PUSH1 0x1 PUSH1 0x1 PUSH1 0xA0 SHL SUB SWAP1 DUP2 AND PUSH1 0x20 DUP5 ADD MSTORE PUSH1 0x2 DUP3 ADD SLOAD AND PUSH1 0x40 DUP1 DUP5 ADD SWAP2 SWAP1 SWAP2 MSTORE PUSH1 0x3 DUP3 ADD SLOAD PUSH1 0x60 DUP5 ADD MSTORE PUSH1 0x4 DUP3 ADD SLOAD PUSH1 0x80 DUP5 ADD MSTORE PUSH1 0x5 DUP3 ADD SLOAD PUSH1 0xA0 DUP5 ADD MSTORE PUSH1 0x6 DUP3 ADD SLOAD PUSH1 0xC0 DUP5 ADD MSTORE MLOAD PUSH2 0x1539 DUP2 PUSH2 0x3E7 DUP2 PUSH1 0x7 DUP7 ADD PUSH2 0x8BEE JUMP JUMPDEST PUSH1 0xE0 DUP4 ADD MSTORE PUSH1 0x40 MLOAD PUSH2 0x1552 DUP2 PUSH2 0x3E7 DUP2 PUSH1 0x8 DUP7 ADD PUSH2 0x8BEE JUMP JUMPDEST PUSH2 0x100 DUP4 ADD MSTORE PUSH1 0x9 DUP2 ADD SLOAD PUSH2 0x120 DUP4 ADD MSTORE PUSH1 0xA DUP2 ADD SLOAD PUSH2 0x140 DUP4 ADD MSTORE PUSH1 0xB DUP2 ADD SLOAD PUSH2 0x160 DUP4 ADD MSTORE PUSH1 0x40 MLOAD PUSH2 0x158D DUP2 PUSH2 0x3E7 DUP2 PUSH1 0xC DUP7 ADD PUSH2 0x8BEE JUMP JUMPDEST PUSH2 0x180 DUP4 ADD MSTORE PUSH1 0x10 PUSH2 0x15A1 PUSH1 0xD DUP4 ADD PUSH2 0x9307 JUMP JUMPDEST SWAP2 PUSH2 0x1A0 DUP5 ADD SWAP3 DUP4 MSTORE PUSH1 0xFF PUSH1 0xE DUP3 ADD SLOAD DUP2 DUP2 AND ISZERO ISZERO PUSH2 0x1C0 DUP8 ADD MSTORE PUSH1 0x8 SHR AND ISZERO ISZERO PUSH2 0x1E0 DUP6 ADD MSTORE PUSH1 0xF DUP2 ADD SLOAD PUSH2 0x200 DUP6 ADD MSTORE ADD SLOAD PUSH2 0x220 DUP4 ADD MSTORE PUSH1 0x40 MLOAD SWAP1 PUSH1 0x20 DUP3 MSTORE DUP3 MLOAD PUSH1 0x20 DUP4 ADD MSTORE PUSH1 0x1 DUP1 PUSH1 0xA0 SHL SUB PUSH1 0x20 DUP5 ADD MLOAD AND PUSH1 0x40 DUP4 ADD MSTORE PUSH1 0x1 DUP1 PUSH1 0xA0 SHL SUB PUSH1 0x40 DUP5 ADD MLOAD AND PUSH1 0x60 DUP4 ADD MSTORE PUSH1 0x60 DUP4 ADD MLOAD PUSH1 0x80 DUP4 ADD MSTORE PUSH1 0x80 DUP4 ADD MLOAD PUSH1 0xA0 DUP4 ADD MSTORE PUSH1 0xA0 DUP4 ADD MLOAD PUSH1 0xC0 DUP4 ADD MSTORE PUSH1 0xC0 DUP4 ADD MLOAD PUSH1 0xE0 DUP4 ADD MSTORE PUSH2 0x16AC PUSH2 0x1670 PUSH2 0x1658 PUSH1 0xE0 DUP7 ADD MLOAD PUSH2 0x240 PUSH2 0x100 DUP8 ADD MSTORE PUSH2 0x260 DUP7 ADD SWAP1 PUSH2 0x88FD JUMP JUMPDEST PUSH2 0x100 DUP7 ADD MLOAD DUP6 DUP3 SUB PUSH1 0x1F NOT ADD PUSH2 0x120 DUP8 ADD MSTORE PUSH2 0x88FD JUMP JUMPDEST PUSH2 0x120 DUP6 ADD MLOAD PUSH2 0x140 DUP6 ADD MSTORE PUSH2 0x140 DUP6 ADD MLOAD PUSH2 0x160 DUP6 ADD MSTORE PUSH2 0x160 DUP6 ADD MLOAD PUSH2 0x180 DUP6 ADD MSTORE PUSH2 0x180 DUP6 ADD MLOAD PUSH1 0x1F NOT DUP6 DUP4 SUB ADD PUSH2 0x1A0 DUP7 ADD MSTORE PUSH2 0x88FD JUMP JUMPDEST SWAP1 MLOAD SWAP1 PUSH1 0x1F NOT DUP4 DUP3 SUB ADD PUSH2 0x1C0 DUP5 ADD MSTORE DUP2 MLOAD DUP1 DUP3 MSTORE PUSH1 0x20 DUP3 ADD SWAP2 PUSH1 0x20 DUP1 DUP4 PUSH1 0x5 SHL DUP4 ADD ADD SWAP5 ADD SWAP3 PUSH1 0x0 SWAP2 JUMPDEST DUP4 DUP4 LT PUSH2 0x1717 JUMPI DUP7 DUP1 DUP8 PUSH2 0x220 DUP12 PUSH2 0x1C0 DUP2 ADD MLOAD ISZERO ISZERO PUSH2 0x1E0 DUP6 ADD MSTORE PUSH2 0x1E0 DUP2 ADD MLOAD ISZERO ISZERO PUSH2 0x200 DUP6 ADD MSTORE PUSH2 0x200 DUP2 ADD MLOAD DUP3 DUP6 ADD MSTORE ADD MLOAD PUSH2 0x240 DUP4 ADD MSTORE SUB SWAP1 RETURN JUMPDEST SWAP1 SWAP2 SWAP3 SWAP4 SWAP5 PUSH1 0x20 DUP1 PUSH2 0x1735 PUSH1 0x1 SWAP4 PUSH1 0x1F NOT DUP7 DUP3 SUB ADD DUP8 MSTORE DUP10 MLOAD PUSH2 0x8922 JUMP JUMPDEST SWAP8 ADD SWAP4 ADD SWAP4 ADD SWAP2 SWAP4 SWAP3 SWAP1 PUSH2 0x16D7 JUMP JUMPDEST PUSH1 0x40 MLOAD PUSH3 0x461BCD PUSH1 0xE5 SHL DUP2 MSTORE PUSH1 0x20 PUSH1 0x4 DUP3 ADD MSTORE PUSH1 0xF PUSH1 0x24 DUP3 ADD MSTORE PUSH15 0x13DC99195C881B9BDD08199BDD5B99 PUSH1 0x8A SHL PUSH1 0x44 DUP3 ADD MSTORE PUSH1 0x64 SWAP1 REVERT JUMPDEST CALLVALUE PUSH2 0x31E JUMPI PUSH1 0x20 CALLDATASIZE PUSH1 0x3 NOT ADD SLT PUSH2 0x31E JUMPI PUSH1 0x4 CALLDATALOAD PUSH1 0x0 PUSH1 0x60 PUSH1 0x40 MLOAD PUSH2 0x179F DUP2 PUSH2 0x89E0 JUMP JUMPDEST DUP3 DUP2 MSTORE DUP2 PUSH1 0x20 DUP3 ADD MSTORE DUP2 PUSH1 0x40 DUP3 ADD MSTORE ADD MSTORE DUP1 PUSH1 0x0 MSTORE PUSH1 0x4 PUSH1 0x20 MSTORE PUSH2 0x17CD PUSH1 0xFF PUSH1 0xE PUSH1 0x40 PUSH1 0x0 KECCAK256 ADD SLOAD AND PUSH2 0x926B JUMP JUMPDEST PUSH1 0x0 MSTORE PUSH1 0x4 PUSH1 0x20 MSTORE PUSH1 0xD PUSH1 0x40 PUSH1 0x0 KECCAK256 ADD DUP1 SLOAD DUP1 ISZERO PUSH2 0x181B JUMPI PUSH1 0x0 NOT DUP2 ADD SWAP1 DUP2 GT PUSH2 0x38B JUMPI PUSH2 0x1801 PUSH2 0x1807 SWAP2 PUSH2 0x626 SWAP4 PUSH2 0x96D4 JUMP JUMPDEST POP PUSH2 0x92AE JUMP JUMPDEST PUSH1 0x40 MLOAD SWAP2 DUP3 SWAP2 PUSH1 0x20 DUP4 MSTORE PUSH1 0x20 DUP4 ADD SWAP1 PUSH2 0x8922 JUMP JUMPDEST PUSH1 0x40 MLOAD PUSH3 0x461BCD PUSH1 0xE5 SHL DUP2 MSTORE PUSH1 0x20 PUSH1 0x4 DUP3 ADD MSTORE PUSH1 0x18 PUSH1 0x24 DUP3 ADD MSTORE PUSH24 0x139BC819195B1A5D995C9E48195D995B9D1CC8199BDD5B99 PUSH1 0x42 SHL PUSH1 0x44 DUP3 ADD MSTORE PUSH1 0x64 SWAP1 REVERT JUMPDEST CALLVALUE PUSH2 0x31E JUMPI PUSH1 0x20 CALLDATASIZE PUSH1 0x3 NOT ADD SLT PUSH2 0x31E JUMPI PUSH1 0x4 CALLDATALOAD DUP1 PUSH1 0x0 MSTORE PUSH1 0x1 PUSH1 0x20 MSTORE PUSH2 0x188C PUSH1 0xFF PUSH1 0xB PUSH1 0x40 PUSH1 0x0 KECCAK256 ADD SLOAD AND PUSH2 0x90DF JUMP JUMPDEST PUSH1 0x0 MSTORE PUSH1 0x1 PUSH1 0x20 MSTORE PUSH2 0x626 PUSH2 0x18A7 PUSH1 0x4 PUSH1 0x40 PUSH1 0x0 KECCAK256 ADD PUSH2 0x9F74 JUMP JUMPDEST PUSH1 0x40 MLOAD SWAP2 DUP3 SWAP2 PUSH1 0x20 DUP4 MSTORE PUSH1 0x20 DUP4 ADD SWAP1 PUSH2 0x8E35 JUMP JUMPDEST CALLVALUE PUSH2 0x31E JUMPI PUSH1 0x0 CALLDATASIZE PUSH1 0x3 NOT ADD SLT PUSH2 0x31E JUMPI PUSH1 0x40 MLOAD PUSH2 0x18D8 DUP2 PUSH2 0x89E0 JUMP JUMPDEST PUSH1 0x1 DUP2 MSTORE PUSH1 0x40 SWAP1 DUP2 MLOAD PUSH2 0x18EB DUP4 DUP3 PUSH2 0x8A85 JUMP JUMPDEST PUSH1 0x13 DUP2 MSTORE PUSH19 0x54656368436F727020496E6475737472696573 PUSH1 0x68 SHL PUSH1 0x20 DUP3 ADD MSTORE PUSH1 0x20 DUP3 ADD SWAP1 DUP2 MSTORE DUP3 DUP3 ADD SWAP2 PUSH1 0x0 DUP1 MLOAD PUSH1 0x20 PUSH2 0xA5AD DUP4 CODECOPY DUP2 MLOAD SWAP2 MSTORE DUP4 MSTORE PUSH1 0x60 DUP2 ADD SWAP2 PUSH1 0x1 DUP4 MSTORE PUSH1 0x0 DUP1 MLOAD PUSH1 0x20 PUSH2 0xA5AD DUP4 CODECOPY DUP2 MLOAD SWAP2 MSTORE PUSH1 0x0 MSTORE PUSH1 0x0 PUSH1 0x20 MSTORE DUP5 PUSH1 0x0 KECCAK256 SWAP2 MLOAD DUP3 SSTORE PUSH1 0x1 DUP3 ADD SWAP1 MLOAD DUP1 MLOAD SWAP1 PUSH1 0x1 DUP1 PUSH1 0x40 SHL SUB DUP3 GT PUSH2 0x832 JUMPI PUSH2 0x1973 DUP3 PUSH2 0xDF9 DUP6 SLOAD PUSH2 0x8BB4 JUMP JUMPDEST PUSH1 0x20 SWAP1 PUSH1 0x1F DUP4 GT PUSH1 0x1 EQ PUSH2 0x290C JUMPI SWAP2 DUP1 PUSH2 0x199A SWAP3 PUSH1 0x2 SWAP7 SWAP6 SWAP5 PUSH1 0x0 SWAP3 PUSH2 0x2896 JUMPI POP POP PUSH2 0x9586 JUMP JUMPDEST SWAP1 SSTORE JUMPDEST SWAP3 MLOAD SWAP3 ADD DUP1 SLOAD SWAP2 MLOAD PUSH1 0x1 PUSH1 0x1 PUSH1 0xA8 SHL SUB NOT SWAP1 SWAP3 AND PUSH1 0x1 PUSH1 0x1 PUSH1 0xA0 SHL SUB SWAP4 SWAP1 SWAP4 AND SWAP3 SWAP1 SWAP3 OR SWAP1 ISZERO ISZERO PUSH1 0xA0 SHL PUSH1 0xFF PUSH1 0xA0 SHL AND OR SWAP1 SSTORE DUP1 MLOAD PUSH2 0x19DB DUP2 PUSH2 0x89E0 JUMP JUMPDEST PUSH1 0x2 DUP2 MSTORE DUP2 MLOAD PUSH2 0x19EB DUP4 DUP3 PUSH2 0x8A85 JUMP JUMPDEST PUSH1 0x15 DUP2 MSTORE PUSH21 0x10DBDB5C1BDB995B9D14DD5C1C1B1A595C88131D19 PUSH1 0x5A SHL PUSH1 0x20 DUP3 ADD MSTORE PUSH1 0x20 DUP3 ADD SWAP1 DUP2 MSTORE DUP3 DUP3 ADD SWAP2 PUSH1 0x0 DUP1 MLOAD PUSH1 0x20 PUSH2 0xA4ED DUP4 CODECOPY DUP2 MLOAD SWAP2 MSTORE DUP4 MSTORE PUSH1 0x60 DUP2 ADD SWAP2 PUSH1 0x1 DUP4 MSTORE PUSH1 0x0 DUP1 MLOAD PUSH1 0x20 PUSH2 0xA4ED DUP4 CODECOPY DUP2 MLOAD SWAP2 MSTORE PUSH1 0x0 MSTORE PUSH1 0x0 PUSH1 0x20 MSTORE DUP5 PUSH1 0x0 KECCAK256 SWAP2 MLOAD DUP3 SSTORE PUSH1 0x1 DUP3 ADD SWAP1 MLOAD DUP1 MLOAD SWAP1 PUSH1 0x1 DUP1 PUSH1 0x40 SHL SUB DUP3 GT PUSH2 0x832 JUMPI PUSH2 0x1A75 DUP3 PUSH2 0xDF9 DUP6 SLOAD PUSH2 0x8BB4 JUMP JUMPDEST PUSH1 0x20 SWAP1 PUSH1 0x1F DUP4 GT PUSH1 0x1 EQ PUSH2 0x28A1 JUMPI SWAP2 DUP1 PUSH2 0x1A9C SWAP3 PUSH1 0x2 SWAP7 SWAP6 SWAP5 PUSH1 0x0 SWAP3 PUSH2 0x2896 JUMPI POP POP PUSH2 0x9586 JUMP JUMPDEST SWAP1 SSTORE JUMPDEST SWAP3 MLOAD SWAP3 ADD DUP1 SLOAD SWAP2 MLOAD PUSH1 0x1 PUSH1 0x1 PUSH1 0xA8 SHL SUB NOT SWAP1 SWAP3 AND PUSH1 0x1 PUSH1 0x1 PUSH1 0xA0 SHL SUB SWAP4 SWAP1 SWAP4 AND SWAP3 SWAP1 SWAP3 OR SWAP1 ISZERO ISZERO PUSH1 0xA0 SHL PUSH1 0xFF PUSH1 0xA0 SHL AND OR SWAP1 SSTORE PUSH1 0x7 SLOAD PUSH1 0x1 PUSH1 0x40 SHL DUP2 LT ISZERO PUSH2 0x832 JUMPI DUP1 PUSH1 0x1 PUSH2 0x1AF3 SWAP3 ADD PUSH1 0x7 SSTORE PUSH1 0x7 PUSH2 0x8D15 JUMP JUMPDEST DUP2 SLOAD PUSH1 0x1 PUSH1 0x1 PUSH1 0xA0 SHL SUB PUSH1 0x3 SWAP3 SWAP1 SWAP3 SHL SWAP2 DUP3 SHL NOT AND PUSH1 0x0 DUP1 MLOAD PUSH1 0x20 PUSH2 0xA5AD DUP4 CODECOPY DUP2 MLOAD SWAP2 MSTORE SWAP1 SWAP2 SHL OR SWAP1 SSTORE PUSH1 0x7 SLOAD PUSH1 0x1 PUSH1 0x40 SHL DUP2 LT ISZERO PUSH2 0x832 JUMPI DUP1 PUSH1 0x1 PUSH2 0x1B3E SWAP3 ADD PUSH1 0x7 SSTORE PUSH1 0x7 PUSH2 0x8D15 JUMP JUMPDEST DUP2 SLOAD PUSH1 0x1 PUSH1 0x1 PUSH1 0xA0 SHL SUB PUSH1 0x3 SWAP3 DUP4 SHL SWAP1 DUP2 SHL NOT SWAP1 SWAP2 AND PUSH1 0x0 DUP1 MLOAD PUSH1 0x20 PUSH2 0xA4ED DUP4 CODECOPY DUP2 MLOAD SWAP2 MSTORE SWAP1 SWAP2 SHL OR SWAP1 SWAP2 SSTORE PUSH1 0xA SSTORE PUSH1 0x1 PUSH1 0x0 DUP2 DUP2 MSTORE PUSH1 0x20 DUP3 SWAP1 MSTORE DUP3 DUP2 KECCAK256 DUP3 SWAP1 SSTORE DUP3 SWAP1 KECCAK256 ADD DUP1 SLOAD PUSH2 0x1B92 SWAP1 PUSH2 0xCC5 SWAP1 PUSH2 0x8BB4 JUMP JUMPDEST PUSH1 0x22 PUSH17 0x496E74656C20693720435055204368697 PUSH1 0x7C SHL ADD SWAP1 SSTORE PUSH1 0x1 PUSH1 0x0 MSTORE PUSH1 0x1 PUSH1 0x20 MSTORE PUSH1 0x2 DUP2 PUSH1 0x0 KECCAK256 ADD PUSH2 0x1BC7 DUP2 SLOAD PUSH2 0x8BB4 JUMP JUMPDEST PUSH1 0x1F DUP2 GT PUSH2 0x2871 JUMPI JUMPDEST POP PUSH1 0x69 DUP2 SSTORE PUSH1 0x0 MSTORE PUSH20 0x736F72206368697020666F72206C6170746F7073 PUSH1 0x60 SHL PUSH1 0x1 PUSH1 0x20 PUSH1 0x0 KECCAK256 PUSH32 0x486967682D706572666F726D616E636520496E74656C2069372070726F636573 DUP2 SSTORE ADD SSTORE PUSH1 0x1 PUSH1 0x0 MSTORE PUSH1 0x1 PUSH1 0x20 MSTORE PUSH1 0x3 DUP2 PUSH1 0x0 KECCAK256 ADD PUSH2 0x1C40 PUSH2 0x1C3A DUP3 SLOAD PUSH2 0x8BB4 JUMP JUMPDEST DUP3 PUSH2 0x906F JUMP JUMPDEST PUSH1 0x77 DUP2 SSTORE PUSH1 0x0 SWAP1 DUP2 MSTORE PUSH1 0x20 DUP1 DUP3 KECCAK256 PUSH32 0x6261666B726569616E6F3333726C616137646C35616333727477746766787A69 DUP2 SSTORE PUSH27 0x7A73756473786C677369626E6B65666C64737378786B7379727161 PUSH1 0x28 SHL PUSH1 0x1 SWAP2 DUP3 ADD SSTORE DUP1 DUP4 MSTORE SWAP1 DUP2 SWAP1 MSTORE DUP3 DUP3 KECCAK256 PUSH1 0x64 PUSH1 0x7 SWAP2 SWAP1 SWAP2 ADD SSTORE DUP3 DUP3 KECCAK256 PUSH8 0x429D069189E0000 PUSH1 0x8 SWAP2 SWAP1 SWAP2 ADD SSTORE DUP3 DUP3 KECCAK256 PUSH1 0x9 ADD DUP1 SLOAD PUSH1 0x1 PUSH1 0x1 PUSH1 0xA0 SHL SUB NOT AND PUSH1 0x0 DUP1 MLOAD PUSH1 0x20 PUSH2 0xA4ED DUP4 CODECOPY DUP2 MLOAD SWAP2 MSTORE OR SWAP1 SSTORE DUP3 DUP3 KECCAK256 TIMESTAMP PUSH1 0xA SWAP2 SWAP1 SWAP2 ADD SSTORE DUP3 DUP3 KECCAK256 PUSH1 0xB ADD DUP1 SLOAD PUSH1 0xFF NOT SWAP1 DUP2 AND SWAP1 SWAP3 OR SWAP1 SSTORE DUP3 DUP3 KECCAK256 PUSH1 0x5 SWAP1 DUP2 ADD DUP1 SLOAD SWAP1 SWAP3 AND SWAP1 SWAP2 SSTORE DUP3 DUP3 KECCAK256 ADD DUP1 SLOAD PUSH2 0x100 PUSH1 0x1 PUSH1 0xA8 SHL SUB NOT AND PUSH21 0x70997970C51812DC3A010C7D01B50E0D17DC79C800 OR SWAP1 SSTORE DUP2 SWAP1 KECCAK256 PUSH2 0x1D47 SWAP1 PUSH1 0x6 ADD PUSH2 0x95CF JUMP JUMPDEST PUSH1 0x2 PUSH1 0x0 MSTORE PUSH1 0x1 PUSH1 0x20 MSTORE PUSH1 0x2 DUP2 PUSH1 0x0 KECCAK256 SSTORE PUSH1 0x2 PUSH1 0x0 MSTORE PUSH1 0x1 PUSH1 0x20 MSTORE PUSH1 0x1 DUP2 PUSH1 0x0 KECCAK256 ADD PUSH2 0x1D73 DUP2 SLOAD PUSH2 0x8BB4 JUMP JUMPDEST PUSH1 0x1F DUP2 GT PUSH2 0x284F JUMPI JUMPDEST POP PUSH1 0x24 PUSH18 0x11D85B5A5B99C8135BDD1A195C989BD85C99 PUSH1 0x72 SHL ADD SWAP1 SSTORE PUSH1 0x2 PUSH1 0x0 MSTORE PUSH1 0x1 PUSH1 0x20 MSTORE PUSH1 0x2 DUP2 PUSH1 0x0 KECCAK256 ADD PUSH2 0x1DB3 DUP2 SLOAD PUSH2 0x8BB4 JUMP JUMPDEST PUSH1 0x1F DUP2 GT PUSH2 0x282A JUMPI JUMPDEST POP PUSH1 0x67 DUP2 SSTORE PUSH1 0x0 MSTORE PUSH19 0x7570706F727420616E64205043496520352E3 PUSH1 0x6C SHL PUSH1 0x1 PUSH1 0x20 PUSH1 0x0 KECCAK256 PUSH32 0x486967682D656E64206D6F74686572626F617264207769746820444452352073 DUP2 SSTORE ADD SSTORE PUSH1 0x2 PUSH1 0x0 MSTORE PUSH1 0x1 PUSH1 0x20 MSTORE PUSH1 0x3 DUP2 PUSH1 0x0 KECCAK256 ADD PUSH2 0x1E25 PUSH2 0x1C3A DUP3 SLOAD PUSH2 0x8BB4 JUMP JUMPDEST PUSH1 0x77 DUP2 SSTORE PUSH1 0x0 SWAP1 DUP2 MSTORE PUSH1 0x20 DUP1 DUP3 KECCAK256 PUSH1 0x0 DUP1 MLOAD PUSH1 0x20 PUSH2 0xA62D DUP4 CODECOPY DUP2 MLOAD SWAP2 MSTORE DUP2 SSTORE PUSH1 0x0 DUP1 MLOAD PUSH1 0x20 PUSH2 0xA50D DUP4 CODECOPY DUP2 MLOAD SWAP2 MSTORE PUSH1 0x1 SWAP2 DUP3 ADD SSTORE PUSH1 0x2 DUP4 MSTORE SWAP1 DUP2 SWAP1 MSTORE DUP3 DUP3 KECCAK256 PUSH1 0x50 PUSH1 0x7 SWAP2 SWAP1 SWAP2 ADD SSTORE DUP3 DUP3 KECCAK256 PUSH8 0x2C68AF0BB140000 PUSH1 0x8 SWAP2 SWAP1 SWAP2 ADD SSTORE DUP3 DUP3 KECCAK256 PUSH1 0x9 ADD DUP1 SLOAD PUSH1 0x1 PUSH1 0x1 PUSH1 0xA0 SHL SUB NOT AND PUSH1 0x0 DUP1 MLOAD PUSH1 0x20 PUSH2 0xA4ED DUP4 CODECOPY DUP2 MLOAD SWAP2 MSTORE OR SWAP1 SSTORE DUP3 DUP3 KECCAK256 TIMESTAMP PUSH1 0xA SWAP2 SWAP1 SWAP2 ADD SSTORE DUP3 DUP3 KECCAK256 PUSH1 0xB ADD DUP1 SLOAD PUSH1 0xFF NOT SWAP1 DUP2 AND SWAP1 SWAP3 OR SWAP1 SSTORE DUP3 DUP3 KECCAK256 PUSH1 0x5 SWAP1 DUP2 ADD DUP1 SLOAD SWAP1 SWAP3 AND SWAP1 SWAP2 SSTORE DUP3 DUP3 KECCAK256 ADD DUP1 SLOAD PUSH2 0x100 PUSH1 0x1 PUSH1 0xA8 SHL SUB NOT AND PUSH21 0x70997970C51812DC3A010C7D01B50E0D17DC79C800 OR SWAP1 SSTORE DUP2 SWAP1 KECCAK256 PUSH2 0x1F0B SWAP1 PUSH1 0x6 ADD PUSH2 0x95CF JUMP JUMPDEST PUSH1 0x3 PUSH1 0x0 MSTORE PUSH1 0x1 PUSH1 0x20 MSTORE PUSH1 0x3 DUP2 PUSH1 0x0 KECCAK256 SSTORE PUSH1 0x3 PUSH1 0x0 MSTORE PUSH1 0x1 PUSH1 0x20 MSTORE PUSH1 0x1 DUP2 PUSH1 0x0 KECCAK256 ADD PUSH2 0x1F37 DUP2 SLOAD PUSH2 0x8BB4 JUMP JUMPDEST PUSH1 0x1F DUP2 GT PUSH2 0x2808 JUMPI JUMPDEST POP PUSH1 0x26 PUSH19 0x135958DA185B9A58D85B0812D95E589BD85C99 PUSH1 0x6A SHL ADD SWAP1 SSTORE PUSH1 0x3 PUSH1 0x0 MSTORE PUSH1 0x1 PUSH1 0x20 MSTORE PUSH1 0x2 DUP2 PUSH1 0x0 KECCAK256 ADD PUSH2 0x1F78 DUP2 SLOAD PUSH2 0x8BB4 JUMP JUMPDEST PUSH1 0x1F DUP2 GT PUSH2 0x27E3 JUMPI JUMPDEST POP PUSH1 0x5F DUP2 SSTORE PUSH1 0x0 MSTORE PUSH15 0x727279204D58207377697463686573 PUSH1 0x88 SHL PUSH1 0x1 PUSH1 0x20 PUSH1 0x0 KECCAK256 PUSH32 0x524742206D656368616E6963616C206B6579626F617264207769746820436865 DUP2 SSTORE ADD SSTORE PUSH1 0x3 PUSH1 0x0 MSTORE PUSH1 0x1 PUSH1 0x20 MSTORE PUSH1 0x3 DUP2 PUSH1 0x0 KECCAK256 ADD PUSH2 0x1FE6 PUSH2 0x1C3A DUP3 SLOAD PUSH2 0x8BB4 JUMP JUMPDEST PUSH1 0x77 DUP2 SSTORE PUSH1 0x0 SWAP1 DUP2 MSTORE PUSH1 0x20 DUP1 DUP3 KECCAK256 PUSH1 0x0 DUP1 MLOAD PUSH1 0x20 PUSH2 0xA62D DUP4 CODECOPY DUP2 MLOAD SWAP2 MSTORE DUP2 SSTORE PUSH1 0x0 DUP1 MLOAD PUSH1 0x20 PUSH2 0xA50D DUP4 CODECOPY DUP2 MLOAD SWAP2 MSTORE PUSH1 0x1 SWAP2 DUP3 ADD SSTORE PUSH1 0x3 DUP4 MSTORE SWAP1 DUP2 SWAP1 MSTORE DUP3 DUP3 KECCAK256 PUSH1 0x96 PUSH1 0x7 SWAP2 SWAP1 SWAP2 ADD SSTORE DUP3 DUP3 KECCAK256 PUSH7 0xB1A2BC2EC50000 PUSH1 0x8 SWAP2 SWAP1 SWAP2 ADD SSTORE DUP3 DUP3 KECCAK256 PUSH1 0x9 ADD DUP1 SLOAD PUSH1 0x1 PUSH1 0x1 PUSH1 0xA0 SHL SUB NOT AND PUSH1 0x0 DUP1 MLOAD PUSH1 0x20 PUSH2 0xA4ED DUP4 CODECOPY DUP2 MLOAD SWAP2 MSTORE OR SWAP1 SSTORE DUP3 DUP3 KECCAK256 TIMESTAMP PUSH1 0xA SWAP2 SWAP1 SWAP2 ADD SSTORE DUP3 DUP3 KECCAK256 PUSH1 0xB ADD DUP1 SLOAD PUSH1 0xFF NOT SWAP1 DUP2 AND SWAP1 SWAP3 OR SWAP1 SSTORE DUP3 DUP3 KECCAK256 PUSH1 0x5 SWAP1 DUP2 ADD DUP1 SLOAD SWAP1 SWAP3 AND SWAP1 SWAP2 SSTORE DUP3 DUP3 KECCAK256 ADD DUP1 SLOAD PUSH2 0x100 PUSH1 0x1 PUSH1 0xA8 SHL SUB NOT AND PUSH21 0x70997970C51812DC3A010C7D01B50E0D17DC79C800 OR SWAP1 SSTORE DUP2 SWAP1 KECCAK256 PUSH2 0x20CB SWAP1 PUSH1 0x6 ADD PUSH2 0x95CF JUMP JUMPDEST PUSH1 0x4 PUSH1 0x0 MSTORE PUSH1 0x1 PUSH1 0x20 MSTORE PUSH1 0x4 DUP2 PUSH1 0x0 KECCAK256 SSTORE PUSH1 0x4 PUSH1 0x0 MSTORE PUSH1 0x1 PUSH1 0x20 MSTORE PUSH1 0x1 DUP2 PUSH1 0x0 KECCAK256 ADD PUSH2 0x20FA PUSH2 0xCC5 DUP3 SLOAD PUSH2 0x8BB4 JUMP JUMPDEST PUSH1 0x22 PUSH17 0x47616D696E67204C6170746F702050726F PUSH1 0x78 SHL ADD SWAP1 SSTORE PUSH1 0x4 PUSH1 0x0 MSTORE PUSH1 0x1 PUSH1 0x20 MSTORE PUSH1 0x2 DUP2 PUSH1 0x0 KECCAK256 ADD PUSH2 0x212F DUP2 SLOAD PUSH2 0x8BB4 JUMP JUMPDEST PUSH1 0x1F DUP2 GT PUSH2 0x27BE JUMPI JUMPDEST POP PUSH1 0x71 DUP2 SSTORE PUSH1 0x0 MSTORE PUSH24 0x2066726F6D207072656D69756D20636F6D706F6E656E7473 PUSH1 0x40 SHL PUSH1 0x1 PUSH1 0x20 PUSH1 0x0 KECCAK256 PUSH32 0x486967682D656E642067616D696E67206C6170746F7020617373656D626C6564 DUP2 SSTORE ADD SSTORE PUSH1 0x4 PUSH1 0x0 MSTORE PUSH1 0x1 PUSH1 0x20 MSTORE PUSH1 0x3 DUP2 PUSH1 0x0 KECCAK256 ADD PUSH2 0x21A6 PUSH2 0x1C3A DUP3 SLOAD PUSH2 0x8BB4 JUMP JUMPDEST PUSH1 0x77 DUP2 SSTORE PUSH1 0x0 SWAP1 DUP2 MSTORE PUSH1 0x20 DUP1 DUP3 KECCAK256 PUSH1 0x0 DUP1 MLOAD PUSH1 0x20 PUSH2 0xA62D DUP4 CODECOPY DUP2 MLOAD SWAP2 MSTORE DUP2 SSTORE PUSH1 0x0 DUP1 MLOAD PUSH1 0x20 PUSH2 0xA50D DUP4 CODECOPY DUP2 MLOAD SWAP2 MSTORE PUSH1 0x1 SWAP2 DUP3 ADD SSTORE PUSH1 0x4 DUP4 MSTORE SWAP1 DUP2 SWAP1 MSTORE DUP3 DUP3 KECCAK256 PUSH1 0xA PUSH1 0x7 SWAP2 SWAP1 SWAP2 ADD DUP2 SWAP1 SSTORE DUP4 DUP4 KECCAK256 PUSH8 0x14D1120D7B160000 PUSH1 0x8 SWAP2 SWAP1 SWAP2 ADD SSTORE DUP4 DUP4 KECCAK256 PUSH1 0x9 ADD DUP1 SLOAD PUSH1 0x1 PUSH1 0x1 PUSH1 0xA0 SHL SUB NOT AND PUSH1 0x0 DUP1 MLOAD PUSH1 0x20 PUSH2 0xA5AD DUP4 CODECOPY DUP2 MLOAD SWAP2 MSTORE OR SWAP1 SSTORE DUP4 DUP4 KECCAK256 TIMESTAMP SWAP2 ADD SSTORE DUP3 DUP3 KECCAK256 PUSH1 0xB ADD DUP1 SLOAD PUSH1 0xFF NOT SWAP1 DUP2 AND DUP4 OR SWAP1 SWAP2 SSTORE DUP4 DUP4 KECCAK256 PUSH1 0x5 SWAP1 DUP2 ADD DUP1 SLOAD SWAP1 SWAP3 AND SWAP1 SWAP3 OR SWAP1 SSTORE DUP3 DUP3 KECCAK256 ADD DUP1 SLOAD PUSH2 0x100 PUSH1 0x1 PUSH1 0xA8 SHL SUB NOT AND PUSH21 0xF39FD6E51AAD88F6F4CE6AB8827279CFFFB9226600 OR SWAP1 SSTORE DUP2 SWAP1 KECCAK256 PUSH1 0x6 ADD DUP1 SLOAD PUSH1 0x1 PUSH1 0x40 SHL DUP2 LT ISZERO PUSH2 0x832 JUMPI PUSH2 0x22A0 SWAP2 PUSH1 0x1 DUP3 ADD DUP2 SSTORE PUSH2 0x8D15 JUMP JUMPDEST DUP2 SLOAD PUSH1 0x1 PUSH1 0x1 PUSH1 0xA0 SHL SUB PUSH1 0x3 SWAP3 SWAP1 SWAP3 SHL SWAP2 DUP3 SHL NOT AND PUSH1 0x0 DUP1 MLOAD PUSH1 0x20 PUSH2 0xA5AD DUP4 CODECOPY DUP2 MLOAD SWAP2 MSTORE SWAP1 SWAP2 SHL OR SWAP1 SSTORE PUSH1 0x4 PUSH1 0x0 DUP2 DUP2 MSTORE PUSH1 0x1 PUSH1 0x20 MSTORE DUP3 SWAP1 KECCAK256 ADD TIMESTAMP PUSH2 0xE0F NOT DUP2 ADD SWAP1 DUP2 GT PUSH2 0x38B JUMPI PUSH2 0x2324 PUSH2 0x23B5 SWAP3 DUP5 MLOAD SWAP1 PUSH2 0x22FB DUP3 PUSH2 0x89E0 JUMP JUMPDEST PUSH1 0x1 DUP3 MSTORE PUSH1 0x2 PUSH1 0x20 DUP4 ADD MSTORE PUSH1 0x0 DUP1 MLOAD PUSH1 0x20 PUSH2 0xA4ED DUP4 CODECOPY DUP2 MLOAD SWAP2 MSTORE DUP7 DUP4 ADD MSTORE DUP4 PUSH1 0x60 DUP4 ADD MSTORE PUSH2 0x9F0E JUMP JUMPDEST PUSH1 0x4 PUSH1 0x0 MSTORE PUSH1 0x1 PUSH1 0x20 MSTORE PUSH1 0x4 DUP4 PUSH1 0x0 KECCAK256 ADD PUSH2 0x2370 PUSH1 0x0 SWAP2 DUP6 MLOAD SWAP1 PUSH2 0x2347 DUP3 PUSH2 0x89E0 JUMP JUMPDEST PUSH1 0x2 DUP3 MSTORE PUSH1 0x1 PUSH1 0x20 DUP4 ADD MSTORE PUSH1 0x0 DUP1 MLOAD PUSH1 0x20 PUSH2 0xA4ED DUP4 CODECOPY DUP2 MLOAD SWAP2 MSTORE DUP8 DUP4 ADD MSTORE DUP5 PUSH1 0x60 DUP4 ADD MSTORE PUSH2 0x9F0E JUMP JUMPDEST PUSH1 0x4 DUP2 MSTORE PUSH1 0x1 PUSH1 0x20 MSTORE PUSH1 0x4 DUP5 DUP3 KECCAK256 ADD SWAP1 POP DUP4 MLOAD SWAP2 PUSH2 0x238D DUP4 PUSH2 0x89E0 JUMP JUMPDEST PUSH1 0x3 DUP4 MSTORE PUSH1 0x1 PUSH1 0x20 DUP5 ADD MSTORE PUSH1 0x0 DUP1 MLOAD PUSH1 0x20 PUSH2 0xA4ED DUP4 CODECOPY DUP2 MLOAD SWAP2 MSTORE DUP6 DUP5 ADD MSTORE PUSH1 0x60 DUP4 ADD MSTORE PUSH2 0x9F0E JUMP JUMPDEST PUSH1 0x5 PUSH1 0xB SSTORE PUSH1 0x1 PUSH1 0x0 DUP2 DUP2 MSTORE PUSH1 0x2 PUSH1 0x20 DUP2 SWAP1 MSTORE DUP4 DUP3 KECCAK256 DUP4 SWAP1 SSTORE DUP4 DUP3 KECCAK256 DUP4 ADD DUP1 SLOAD PUSH1 0x1 PUSH1 0x1 PUSH1 0xA0 SHL SUB NOT SWAP1 DUP2 AND PUSH1 0x0 DUP1 MLOAD PUSH1 0x20 PUSH2 0xA4ED DUP4 CODECOPY DUP2 MLOAD SWAP2 MSTORE OR SWAP1 SWAP2 SSTORE DUP5 DUP4 KECCAK256 SWAP1 SWAP2 ADD DUP1 SLOAD SWAP1 SWAP2 AND PUSH1 0x0 DUP1 MLOAD PUSH1 0x20 PUSH2 0xA5AD DUP4 CODECOPY DUP2 MLOAD SWAP2 MSTORE OR SWAP1 SSTORE DUP3 DUP2 KECCAK256 PUSH1 0x3 ADD SWAP2 SWAP1 SWAP2 SSTORE DUP2 SWAP1 KECCAK256 TIMESTAMP PUSH1 0x4 SWAP2 SWAP1 SWAP2 ADD DUP2 SWAP1 SSTORE PUSH3 0xED4E00 DUP2 ADD SWAP2 SWAP1 DUP3 LT PUSH2 0x38B JUMPI PUSH2 0x26F9 SWAP1 PUSH1 0x1 PUSH1 0x0 MSTORE PUSH1 0x2 PUSH1 0x20 MSTORE DUP3 PUSH1 0x5 DUP3 PUSH1 0x0 KECCAK256 ADD SSTORE PUSH1 0x1 PUSH1 0x0 MSTORE PUSH1 0x2 PUSH1 0x20 MSTORE PUSH1 0x6 DUP2 PUSH1 0x0 KECCAK256 ADD PUSH2 0x246B PUSH2 0xCC5 DUP3 SLOAD PUSH2 0x8BB4 JUMP JUMPDEST PUSH1 0x10 PUSH8 0x1858D8D95C1D1959 PUSH1 0xC2 SHL ADD SWAP1 SSTORE PUSH1 0x1 PUSH1 0x0 DUP2 DUP2 MSTORE PUSH1 0x2 PUSH1 0x20 MSTORE DUP3 DUP2 KECCAK256 PUSH1 0x8 ADD DUP1 SLOAD PUSH1 0xFF NOT AND SWAP1 SWAP3 OR SWAP1 SWAP2 SSTORE DUP2 DUP2 KECCAK256 DUP3 MLOAD SWAP2 SWAP5 PUSH2 0x24E8 SWAP3 SWAP2 PUSH1 0x7 ADD SWAP1 PUSH2 0x24B3 DUP4 PUSH2 0x8A17 JUMP JUMPDEST PUSH1 0x1 DUP4 MSTORE PUSH8 0x3E2C284391C0000 PUSH1 0x20 DUP5 ADD MSTORE PUSH1 0x0 DUP1 MLOAD PUSH1 0x20 PUSH2 0xA4ED DUP4 CODECOPY DUP2 MLOAD SWAP2 MSTORE DUP6 DUP5 ADD MSTORE TIMESTAMP PUSH1 0x60 DUP5 ADD MSTORE PUSH1 0x80 DUP4 ADD MSTORE PUSH2 0x9B59 JUMP JUMPDEST PUSH1 0x2 PUSH1 0xC SSTORE PUSH2 0x259D DUP2 MLOAD PUSH2 0x24FB DUP2 PUSH2 0x8A32 JUMP JUMPDEST PUSH1 0x1 DUP2 MSTORE PUSH1 0x6 PUSH1 0x20 DUP3 ADD PUSH1 0x2 DUP2 MSTORE DUP5 DUP4 ADD PUSH1 0x0 DUP1 MLOAD PUSH1 0x20 PUSH2 0xA4ED DUP4 CODECOPY DUP2 MLOAD SWAP2 MSTORE DUP2 MSTORE PUSH1 0x60 DUP5 ADD PUSH1 0x14 DUP2 MSTORE PUSH1 0x80 DUP6 ADD SWAP1 PUSH8 0x27F7D0BDB920000 DUP3 MSTORE PUSH1 0xA0 DUP7 ADD SWAP3 TIMESTAMP DUP5 MSTORE PUSH1 0xC0 DUP8 ADD SWAP5 PUSH1 0x1 DUP7 MSTORE PUSH1 0x1 DUP13 MSTORE PUSH1 0x3 PUSH1 0x20 MSTORE DUP10 DUP13 KECCAK256 SWAP8 MLOAD DUP9 SSTORE MLOAD PUSH1 0x1 DUP9 ADD SSTORE PUSH1 0x1 DUP1 PUSH1 0xA0 SHL SUB SWAP1 MLOAD AND PUSH1 0x2 DUP8 ADD SWAP1 PUSH1 0x1 DUP1 PUSH1 0xA0 SHL SUB AND PUSH1 0x1 DUP1 PUSH1 0xA0 SHL SUB NOT DUP3 SLOAD AND OR SWAP1 SSTORE MLOAD PUSH1 0x3 DUP7 ADD SSTORE MLOAD PUSH1 0x4 DUP6 ADD SSTORE MLOAD PUSH1 0x5 DUP5 ADD SSTORE MLOAD ISZERO ISZERO SWAP2 ADD PUSH2 0x9599 JUMP JUMPDEST PUSH2 0x264C DUP2 MLOAD PUSH2 0x25AB DUP2 PUSH2 0x8A32 JUMP JUMPDEST PUSH1 0x2 DUP2 MSTORE PUSH1 0x6 PUSH1 0x20 DUP3 ADD PUSH1 0x3 DUP2 MSTORE DUP5 DUP4 ADD PUSH1 0x0 DUP1 MLOAD PUSH1 0x20 PUSH2 0xA4ED DUP4 CODECOPY DUP2 MLOAD SWAP2 MSTORE DUP2 MSTORE PUSH1 0x60 DUP5 ADD PUSH1 0x32 DUP2 MSTORE PUSH1 0x80 DUP6 ADD SWAP1 PUSH7 0x9FDF42F6E48000 DUP3 MSTORE PUSH1 0xA0 DUP7 ADD SWAP3 TIMESTAMP DUP5 MSTORE PUSH1 0xC0 DUP8 ADD SWAP5 PUSH1 0x1 DUP7 MSTORE PUSH1 0x2 DUP13 MSTORE PUSH1 0x3 PUSH1 0x20 MSTORE DUP10 DUP13 KECCAK256 SWAP8 MLOAD DUP9 SSTORE MLOAD PUSH1 0x1 DUP9 ADD SSTORE PUSH1 0x1 DUP1 PUSH1 0xA0 SHL SUB SWAP1 MLOAD AND PUSH1 0x2 DUP8 ADD SWAP1 PUSH1 0x1 DUP1 PUSH1 0xA0 SHL SUB AND PUSH1 0x1 DUP1 PUSH1 0xA0 SHL SUB NOT DUP3 SLOAD AND OR SWAP1 SSTORE MLOAD PUSH1 0x3 DUP7 ADD SSTORE MLOAD PUSH1 0x4 DUP6 ADD SSTORE MLOAD PUSH1 0x5 DUP5 ADD SSTORE MLOAD ISZERO ISZERO SWAP2 ADD PUSH2 0x9599 JUMP JUMPDEST PUSH1 0x6 DUP2 MLOAD SWAP2 PUSH2 0x265A DUP4 PUSH2 0x8A32 JUMP JUMPDEST PUSH1 0x3 DUP4 MSTORE PUSH1 0x20 DUP4 ADD PUSH1 0x4 DUP2 MSTORE DUP2 DUP5 ADD PUSH1 0x0 DUP1 MLOAD PUSH1 0x20 PUSH2 0xA5AD DUP4 CODECOPY DUP2 MLOAD SWAP2 MSTORE DUP2 MSTORE PUSH1 0x60 DUP6 ADD PUSH1 0x3 DUP2 MSTORE PUSH1 0x80 DUP7 ADD SWAP2 PUSH8 0x136DCC951D8C0000 DUP4 MSTORE PUSH1 0xA0 DUP8 ADD SWAP4 TIMESTAMP DUP6 MSTORE PUSH1 0xC0 DUP9 ADD SWAP6 PUSH1 0x1 DUP8 MSTORE PUSH1 0x3 DUP12 MSTORE PUSH1 0x3 PUSH1 0x20 MSTORE DUP11 KECCAK256 SWAP8 MLOAD DUP9 SSTORE MLOAD PUSH1 0x1 DUP9 ADD SSTORE PUSH1 0x1 DUP1 PUSH1 0xA0 SHL SUB SWAP1 MLOAD AND PUSH1 0x2 DUP8 ADD SWAP1 PUSH1 0x1 DUP1 PUSH1 0xA0 SHL SUB AND PUSH1 0x1 DUP1 PUSH1 0xA0 SHL SUB NOT DUP3 SLOAD AND OR SWAP1 SSTORE MLOAD PUSH1 0x3 DUP7 ADD SSTORE MLOAD PUSH1 0x4 DUP6 ADD SSTORE MLOAD PUSH1 0x5 DUP5 ADD SSTORE MLOAD ISZERO ISZERO SWAP2 ADD PUSH2 0x9599 JUMP JUMPDEST PUSH1 0x6 SLOAD PUSH1 0x1 PUSH1 0x40 SHL DUP2 LT ISZERO PUSH2 0x27AA JUMPI DUP1 PUSH1 0x1 PUSH2 0x271A SWAP3 ADD PUSH1 0x6 SSTORE PUSH1 0x6 PUSH2 0x8D15 JUMP JUMPDEST DUP2 SLOAD PUSH1 0x0 NOT PUSH1 0x3 SWAP3 SWAP1 SWAP3 SHL SWAP2 DUP3 SHL NOT AND PUSH1 0x1 SWAP1 SWAP2 SHL OR SWAP1 SSTORE PUSH1 0x6 SLOAD PUSH1 0x1 PUSH1 0x40 SHL DUP2 LT ISZERO PUSH2 0x27AA JUMPI DUP1 PUSH1 0x1 PUSH2 0x2753 SWAP3 ADD PUSH1 0x6 SSTORE PUSH1 0x6 PUSH2 0x8D15 JUMP JUMPDEST DUP2 SLOAD PUSH1 0x0 NOT PUSH1 0x3 SWAP3 SWAP1 SWAP3 SHL SWAP2 DUP3 SHL NOT AND PUSH1 0x2 SWAP1 SWAP2 SHL OR SWAP1 SSTORE PUSH1 0x6 SLOAD PUSH1 0x1 PUSH1 0x40 SHL DUP2 LT ISZERO PUSH2 0x27AA JUMPI DUP1 PUSH1 0x1 PUSH2 0x278C SWAP3 ADD PUSH1 0x6 SSTORE PUSH1 0x6 PUSH2 0x8D15 JUMP JUMPDEST DUP2 SLOAD SWAP1 PUSH1 0x3 SHL SWAP1 PUSH1 0x3 DUP3 SHL SWAP2 PUSH1 0x0 NOT SWAP1 SHL NOT AND OR SWAP1 SSTORE PUSH1 0x4 PUSH1 0xD SSTORE DUP1 RETURN JUMPDEST PUSH4 0x4E487B71 PUSH1 0xE0 SHL DUP3 MSTORE PUSH1 0x41 PUSH1 0x4 MSTORE PUSH1 0x24 DUP3 REVERT JUMPDEST PUSH2 0x27DD SWAP1 DUP3 PUSH1 0x0 MSTORE PUSH1 0x2 PUSH1 0x1F PUSH1 0x20 PUSH1 0x0 KECCAK256 SWAP3 ADD PUSH1 0x5 SHR DUP3 ADD SWAP2 ADD PUSH2 0x902E JUMP JUMPDEST DUP3 PUSH2 0x2138 JUMP JUMPDEST PUSH2 0x2802 SWAP1 DUP3 PUSH1 0x0 MSTORE PUSH1 0x2 PUSH1 0x1F PUSH1 0x20 PUSH1 0x0 KECCAK256 SWAP3 ADD PUSH1 0x5 SHR DUP3 ADD SWAP2 ADD PUSH2 0x902E JUMP JUMPDEST DUP3 PUSH2 0x1F81 JUMP JUMPDEST PUSH2 0x2824 SWAP1 DUP3 PUSH1 0x0 MSTORE PUSH1 0x1F PUSH1 0x20 PUSH1 0x0 KECCAK256 SWAP2 ADD PUSH1 0x5 SHR DUP2 ADD SWAP1 PUSH2 0x902E JUMP JUMPDEST DUP3 PUSH2 0x1F40 JUMP JUMPDEST PUSH2 0x2849 SWAP1 DUP3 PUSH1 0x0 MSTORE PUSH1 0x2 PUSH1 0x1F PUSH1 0x20 PUSH1 0x0 KECCAK256 SWAP3 ADD PUSH1 0x5 SHR DUP3 ADD SWAP2 ADD PUSH2 0x902E JUMP JUMPDEST DUP3 PUSH2 0x1DBC JUMP JUMPDEST PUSH2 0x286B SWAP1 DUP3 PUSH1 0x0 MSTORE PUSH1 0x1F PUSH1 0x20 PUSH1 0x0 KECCAK256 SWAP2 ADD PUSH1 0x5 SHR DUP2 ADD SWAP1 PUSH2 0x902E JUMP JUMPDEST DUP3 PUSH2 0x1D7C JUMP JUMPDEST PUSH2 0x2890 SWAP1 DUP3 PUSH1 0x0 MSTORE PUSH1 0x2 PUSH1 0x1F PUSH1 0x20 PUSH1 0x0 KECCAK256 SWAP3 ADD PUSH1 0x5 SHR DUP3 ADD SWAP2 ADD PUSH2 0x902E JUMP JUMPDEST DUP3 PUSH2 0x1BD0 JUMP JUMPDEST ADD MLOAD SWAP1 POP DUP10 DUP1 PUSH2 0xE21 JUMP JUMPDEST SWAP1 PUSH1 0x1F NOT DUP4 AND SWAP2 DUP5 PUSH1 0x0 MSTORE DUP2 PUSH1 0x0 KECCAK256 SWAP3 PUSH1 0x0 JUMPDEST DUP2 DUP2 LT PUSH2 0x28F4 JUMPI POP SWAP2 PUSH1 0x1 SWAP4 SWAP2 DUP6 PUSH1 0x2 SWAP9 SWAP8 SWAP7 SWAP5 LT PUSH2 0x28DB JUMPI JUMPDEST POP POP POP DUP2 SHL ADD SWAP1 SSTORE PUSH2 0x1A9F JUMP JUMPDEST ADD MLOAD PUSH1 0x0 NOT PUSH1 0xF8 DUP5 PUSH1 0x3 SHL AND SHR NOT AND SWAP1 SSTORE DUP9 DUP1 DUP1 PUSH2 0x28CE JUMP JUMPDEST SWAP3 SWAP4 PUSH1 0x20 PUSH1 0x1 DUP2 SWAP3 DUP8 DUP7 ADD MLOAD DUP2 SSTORE ADD SWAP6 ADD SWAP4 ADD PUSH2 0x28B4 JUMP JUMPDEST SWAP1 PUSH1 0x1F NOT DUP4 AND SWAP2 DUP5 PUSH1 0x0 MSTORE DUP2 PUSH1 0x0 KECCAK256 SWAP3 PUSH1 0x0 JUMPDEST DUP2 DUP2 LT PUSH2 0x295F JUMPI POP SWAP2 PUSH1 0x1 SWAP4 SWAP2 DUP6 PUSH1 0x2 SWAP9 SWAP8 SWAP7 SWAP5 LT PUSH2 0x2946 JUMPI JUMPDEST POP POP POP DUP2 SHL ADD SWAP1 SSTORE PUSH2 0x199D JUMP JUMPDEST ADD MLOAD PUSH1 0x0 NOT PUSH1 0xF8 DUP5 PUSH1 0x3 SHL AND SHR NOT AND SWAP1 SSTORE DUP9 DUP1 DUP1 PUSH2 0x2939 JUMP JUMPDEST SWAP3 SWAP4 PUSH1 0x20 PUSH1 0x1 DUP2 SWAP3 DUP8 DUP7 ADD MLOAD DUP2 SSTORE ADD SWAP6 ADD SWAP4 ADD PUSH2 0x291F JUMP JUMPDEST PUSH2 0x2980 CALLDATASIZE PUSH2 0x89CA JUMP JUMPDEST SWAP1 CALLER PUSH1 0x0 MSTORE PUSH1 0x0 PUSH1 0x20 MSTORE PUSH2 0x29A1 PUSH1 0xFF PUSH1 0x2 PUSH1 0x40 PUSH1 0x0 KECCAK256 ADD SLOAD PUSH1 0xA0 SHR AND PUSH2 0x9407 JUMP JUMPDEST DUP1 PUSH1 0x0 MSTORE PUSH1 0x3 PUSH1 0x20 MSTORE PUSH2 0x29BE PUSH1 0xFF PUSH1 0x6 PUSH1 0x40 PUSH1 0x0 KECCAK256 ADD SLOAD AND PUSH2 0x9667 JUMP JUMPDEST PUSH2 0x29C9 DUP3 ISZERO ISZERO PUSH2 0x94EF JUMP JUMPDEST DUP1 PUSH1 0x0 MSTORE PUSH1 0x3 PUSH1 0x20 MSTORE PUSH2 0x29E6 DUP3 PUSH1 0x3 PUSH1 0x40 PUSH1 0x0 KECCAK256 ADD SLOAD LT ISZERO PUSH2 0x9BEB JUMP JUMPDEST PUSH1 0x0 DUP2 DUP2 MSTORE PUSH1 0x3 PUSH1 0x20 MSTORE PUSH1 0x40 SWAP1 KECCAK256 PUSH1 0x2 ADD SLOAD PUSH2 0x2A0D SWAP1 PUSH1 0x1 PUSH1 0x1 PUSH1 0xA0 SHL SUB AND CALLER EQ ISZERO PUSH2 0x9C2F JUMP JUMPDEST DUP1 PUSH1 0x0 MSTORE PUSH1 0x3 PUSH1 0x20 MSTORE PUSH1 0x40 PUSH1 0x0 KECCAK256 SWAP1 PUSH1 0x4 DUP3 ADD SLOAD DUP1 ISZERO PUSH2 0x2EDE JUMPI DUP1 PUSH1 0x0 NOT DIV DUP5 GT PUSH2 0x2E9E JUMPI DUP4 PUSH2 0x2A3C SWAP2 PUSH2 0x9CBA JUMP JUMPDEST SWAP1 PUSH2 0x2A49 DUP3 CALLVALUE LT ISZERO PUSH2 0x9FF7 JUMP JUMPDEST PUSH1 0x3 DUP4 ADD PUSH2 0x2A58 DUP6 DUP3 SLOAD PUSH2 0x9005 JUMP JUMPDEST DUP1 SWAP2 SSTORE ISZERO PUSH2 0x2E20 JUMPI JUMPDEST PUSH1 0x2 DUP4 ADD SWAP3 PUSH1 0x0 DUP1 DUP1 DUP1 DUP7 PUSH1 0x1 DUP1 PUSH1 0xA0 SHL SUB DUP10 SLOAD AND DUP3 DUP3 ISZERO PUSH2 0x2E17 JUMPI JUMPDEST CALL ISZERO PUSH2 0x105F JUMPI DUP3 CALLVALUE GT PUSH2 0x2DE4 JUMPI JUMPDEST PUSH1 0x1 PUSH2 0x2AA7 SWAP2 ADD SLOAD DUP6 PUSH1 0x1 DUP1 PUSH1 0xA0 SHL SUB DUP7 SLOAD AND SWAP2 CALLER SWAP1 PUSH2 0xA166 JUMP JUMPDEST PUSH1 0xF SLOAD DUP5 SLOAD PUSH1 0x40 MLOAD SWAP3 SWAP5 SWAP3 SWAP1 PUSH1 0x1 PUSH1 0x1 PUSH1 0xA0 SHL SUB AND PUSH2 0x2AC5 DUP3 PUSH2 0x89FB JUMP JUMPDEST DUP3 DUP3 MSTORE PUSH1 0x20 DUP3 ADD SWAP1 CALLER DUP3 MSTORE PUSH1 0x40 DUP4 ADD SWAP1 DUP2 MSTORE PUSH1 0x60 DUP4 ADD SWAP7 DUP8 MSTORE PUSH1 0x80 DUP4 ADD DUP10 DUP2 MSTORE PUSH1 0xA0 DUP5 ADD SWAP1 DUP7 DUP3 MSTORE PUSH1 0x40 SWAP9 DUP10 MLOAD SWAP4 PUSH2 0x2AFD DUP12 DUP7 PUSH2 0x8A85 JUMP JUMPDEST PUSH1 0x4 DUP6 MSTORE PUSH4 0x1CDC1BDD PUSH1 0xE2 SHL PUSH1 0x20 DUP7 ADD MSTORE PUSH1 0xC0 DUP8 ADD SWAP5 DUP6 MSTORE PUSH1 0xE0 DUP8 ADD SWAP6 TIMESTAMP DUP8 MSTORE PUSH2 0x2B25 PUSH2 0x9989 JUMP JUMPDEST PUSH2 0x100 DUP10 ADD SWAP1 DUP2 MSTORE PUSH1 0x0 SWAP10 DUP11 MSTORE PUSH1 0x5 PUSH1 0x20 DUP2 SWAP1 MSTORE SWAP10 DUP14 SWAP1 KECCAK256 SWAP9 MLOAD DUP10 SSTORE SWAP1 MLOAD PUSH1 0x1 DUP10 ADD DUP1 SLOAD PUSH1 0x1 PUSH1 0x1 PUSH1 0xA0 SHL SUB NOT SWAP1 DUP2 AND PUSH1 0x1 PUSH1 0x1 PUSH1 0xA0 SHL SUB SWAP4 DUP5 AND OR SWAP1 SWAP2 SSTORE SWAP3 MLOAD PUSH1 0x2 DUP11 ADD DUP1 SLOAD SWAP1 SWAP5 AND SWAP2 AND OR SWAP1 SWAP2 SSTORE SWAP1 MLOAD PUSH1 0x3 DUP8 ADD SSTORE SWAP1 MLOAD PUSH1 0x4 DUP7 ADD SSTORE SWAP1 MLOAD SWAP5 DUP5 ADD SWAP5 SWAP1 SWAP5 SSTORE MLOAD DUP1 MLOAD PUSH1 0x6 DUP5 ADD SWAP2 PUSH1 0x1 PUSH1 0x1 PUSH1 0x40 SHL SUB DUP3 GT PUSH2 0x832 JUMPI PUSH2 0x2BB0 DUP3 PUSH2 0xDF9 DUP6 SLOAD PUSH2 0x8BB4 JUMP JUMPDEST PUSH1 0x20 SWAP1 PUSH1 0x1F DUP4 GT PUSH1 0x1 EQ PUSH2 0x2D78 JUMPI SWAP2 DUP1 PUSH2 0x2BD8 SWAP3 PUSH1 0x8 SWAP8 SWAP7 SWAP6 SWAP5 PUSH1 0x0 SWAP3 PUSH2 0xFC3 JUMPI POP POP PUSH2 0x9586 JUMP JUMPDEST SWAP1 SSTORE JUMPDEST MLOAD PUSH1 0x7 DUP3 ADD SSTORE SWAP2 MLOAD DUP1 MLOAD SWAP2 SWAP1 SWAP3 ADD SWAP2 PUSH1 0x1 PUSH1 0x1 PUSH1 0x40 SHL SUB DUP3 GT PUSH2 0x832 JUMPI PUSH2 0x2C06 DUP3 PUSH2 0xDF9 DUP6 SLOAD PUSH2 0x8BB4 JUMP JUMPDEST PUSH1 0x20 SWAP1 PUSH1 0x1F DUP4 GT PUSH1 0x1 EQ PUSH2 0x2CE5 JUMPI PUSH2 0xF34 SWAP9 PUSH1 0xA0 SWAP6 PUSH1 0x60 SWAP10 SWAP9 SWAP6 PUSH2 0x2C55 DUP7 PUSH1 0x0 DUP1 MLOAD PUSH1 0x20 PUSH2 0xA48D DUP4 CODECOPY DUP2 MLOAD SWAP2 MSTORE SWAP11 SWAP8 PUSH1 0x0 DUP1 MLOAD PUSH1 0x20 PUSH2 0xA4CD DUP4 CODECOPY DUP2 MLOAD SWAP2 MSTORE SWAP8 DUP15 SWAP8 PUSH1 0x0 SWAP3 PUSH2 0x2CDA JUMPI POP POP PUSH2 0x9586 JUMP JUMPDEST SWAP1 SSTORE JUMPDEST CALLER PUSH1 0x0 MSTORE PUSH1 0x8 PUSH1 0x20 MSTORE PUSH2 0x2C71 DUP7 PUSH1 0x0 KECCAK256 PUSH1 0xF SLOAD SWAP1 PUSH2 0x99B0 JUMP JUMPDEST PUSH1 0x1 DUP1 DUP9 SHL SUB DUP10 SLOAD AND PUSH1 0x0 MSTORE PUSH1 0x8 PUSH1 0x20 MSTORE PUSH2 0x2C92 DUP7 PUSH1 0x0 KECCAK256 PUSH1 0xF SLOAD SWAP1 PUSH2 0x99B0 JUMP JUMPDEST DUP6 MLOAD SWAP2 CALLER DUP4 MSTORE PUSH1 0x20 DUP4 ADD MSTORE DUP6 DUP3 ADD MSTORE LOG2 PUSH1 0xF SLOAD SWAP5 DUP6 SWAP5 PUSH1 0x1 DUP1 DUP6 SHL SUB SWAP1 SLOAD AND SWAP2 DUP1 MLOAD SWAP3 CALLER DUP5 MSTORE PUSH1 0x20 DUP5 ADD MSTORE DUP3 ADD MSTORE PUSH1 0x4 PUSH1 0x60 DUP3 ADD MSTORE PUSH4 0x1CDC1BDD PUSH1 0xE2 SHL PUSH1 0x80 DUP3 ADD MSTORE LOG2 PUSH2 0x93F8 JUMP JUMPDEST ADD MLOAD SWAP1 POP DUP16 DUP1 PUSH2 0xE21 JUMP JUMPDEST SWAP1 PUSH1 0x1F NOT DUP4 AND SWAP2 DUP5 PUSH1 0x0 MSTORE DUP2 PUSH1 0x0 KECCAK256 SWAP3 PUSH1 0x0 JUMPDEST DUP2 DUP2 LT PUSH2 0x2D60 JUMPI POP SWAP6 PUSH1 0x60 SWAP10 SWAP9 SWAP6 PUSH1 0x1 DUP7 PUSH1 0x0 DUP1 MLOAD PUSH1 0x20 PUSH2 0xA4CD DUP4 CODECOPY DUP2 MLOAD SWAP2 MSTORE SWAP7 DUP14 SWAP7 PUSH2 0xF34 SWAP16 SWAP7 PUSH1 0x0 DUP1 MLOAD PUSH1 0x20 PUSH2 0xA48D DUP4 CODECOPY DUP2 MLOAD SWAP2 MSTORE SWAP14 SWAP11 PUSH1 0xA0 SWAP14 LT PUSH2 0x2D47 JUMPI JUMPDEST POP POP POP DUP2 SHL ADD SWAP1 SSTORE PUSH2 0x2C58 JUMP JUMPDEST ADD MLOAD PUSH1 0x0 NOT PUSH1 0xF8 DUP5 PUSH1 0x3 SHL AND SHR NOT AND SWAP1 SSTORE DUP15 DUP1 DUP1 PUSH2 0x2D3A JUMP JUMPDEST SWAP3 SWAP4 PUSH1 0x20 PUSH1 0x1 DUP2 SWAP3 DUP8 DUP7 ADD MLOAD DUP2 SSTORE ADD SWAP6 ADD SWAP4 ADD PUSH2 0x2CF8 JUMP JUMPDEST SWAP1 PUSH1 0x1F NOT DUP4 AND SWAP2 DUP5 PUSH1 0x0 MSTORE DUP2 PUSH1 0x0 KECCAK256 SWAP3 PUSH1 0x0 JUMPDEST DUP2 DUP2 LT PUSH2 0x2DCC JUMPI POP SWAP2 PUSH1 0x1 SWAP4 SWAP2 DUP6 PUSH1 0x8 SWAP10 SWAP9 SWAP8 SWAP7 SWAP5 LT PUSH2 0x2DB3 JUMPI JUMPDEST POP POP POP DUP2 SHL ADD SWAP1 SSTORE PUSH2 0x2BDB JUMP JUMPDEST ADD MLOAD PUSH1 0x0 NOT PUSH1 0xF8 DUP5 PUSH1 0x3 SHL AND SHR NOT AND SWAP1 SSTORE DUP13 DUP1 DUP1 PUSH2 0x2DA6 JUMP JUMPDEST SWAP3 SWAP4 PUSH1 0x20 PUSH1 0x1 DUP2 SWAP3 DUP8 DUP7 ADD MLOAD DUP2 SSTORE ADD SWAP6 ADD SWAP4 ADD PUSH2 0x2D8B JUMP JUMPDEST PUSH1 0x0 DUP1 DUP1 DUP1 PUSH2 0x2DF3 DUP8 CALLVALUE PUSH2 0x9005 JUMP JUMPDEST DUP2 DUP2 ISZERO PUSH2 0x2E0E JUMPI JUMPDEST CALLER SWAP1 CALL PUSH2 0x2A8C JUMPI PUSH1 0x40 MLOAD RETURNDATASIZE PUSH1 0x0 DUP3 RETURNDATACOPY RETURNDATASIZE SWAP1 REVERT JUMPDEST POP PUSH2 0x8FC PUSH2 0x2DFB JUMP JUMPDEST POP PUSH2 0x8FC PUSH2 0x2A7E JUMP JUMPDEST PUSH1 0x6 DUP4 ADD DUP1 SLOAD PUSH1 0xFF NOT AND SWAP1 SSTORE SWAP2 SWAP1 PUSH1 0x0 JUMPDEST PUSH1 0x6 SLOAD DUP1 DUP3 LT ISZERO PUSH2 0x2E95 JUMPI DUP5 PUSH2 0x2E46 DUP4 PUSH2 0x8CE4 JUMP JUMPDEST SWAP1 SLOAD SWAP1 PUSH1 0x3 SHL SHR EQ PUSH2 0x2E5B JUMPI POP PUSH1 0x1 ADD PUSH2 0x2E31 JUMP JUMPDEST SWAP3 SWAP4 SWAP2 SWAP3 PUSH1 0x0 NOT DUP2 ADD SWAP2 SWAP1 DUP3 GT PUSH2 0x38B JUMPI PUSH2 0x7D4 PUSH2 0x2E7B PUSH2 0x2E88 SWAP4 PUSH2 0x8CE4 JUMP JUMPDEST SWAP1 SLOAD SWAP1 PUSH1 0x3 SHL SHR SWAP2 PUSH2 0x8CE4 JUMP JUMPDEST PUSH2 0x2E90 PUSH2 0x96A8 JUMP JUMPDEST PUSH2 0x2A61 JUMP JUMPDEST POP POP SWAP1 SWAP2 PUSH2 0x2A61 JUMP JUMPDEST PUSH1 0x40 MLOAD PUSH3 0x461BCD PUSH1 0xE5 SHL DUP2 MSTORE PUSH1 0x20 PUSH1 0x4 DUP3 ADD MSTORE PUSH1 0x18 PUSH1 0x24 DUP3 ADD MSTORE PUSH24 0x50757263686173652076616C756520746F6F206C61726765 PUSH1 0x40 SHL PUSH1 0x44 DUP3 ADD MSTORE PUSH1 0x64 SWAP1 REVERT JUMPDEST PUSH4 0x4E487B71 PUSH1 0xE0 SHL PUSH1 0x0 MSTORE PUSH1 0x12 PUSH1 0x4 MSTORE PUSH1 0x24 PUSH1 0x0 REVERT JUMPDEST CALLVALUE PUSH2 0x31E JUMPI PUSH2 0x2F02 CALLDATASIZE PUSH2 0x8D80 JUMP JUMPDEST SWAP1 PUSH2 0x2F0F DUP2 MLOAD ISZERO ISZERO PUSH2 0x9D4F JUMP JUMPDEST PUSH1 0x1 PUSH1 0x1 PUSH1 0xA0 SHL SUB DUP3 AND PUSH2 0x2F24 DUP2 ISZERO ISZERO PUSH2 0x9D92 JUMP JUMPDEST DUP1 PUSH1 0x0 MSTORE PUSH1 0x0 PUSH1 0x20 MSTORE PUSH1 0xFF PUSH1 0x2 PUSH1 0x40 PUSH1 0x0 KECCAK256 ADD SLOAD PUSH1 0xA0 SHR AND PUSH2 0x3106 JUMPI PUSH1 0xA SLOAD PUSH1 0x40 MLOAD SWAP1 PUSH2 0x2F50 DUP3 PUSH2 0x89E0 JUMP JUMPDEST DUP2 MSTORE PUSH1 0x20 DUP2 ADD DUP4 DUP2 MSTORE PUSH1 0x40 DUP3 ADD SWAP2 DUP4 DUP4 MSTORE PUSH1 0x60 DUP2 ADD SWAP2 PUSH1 0x1 DUP4 MSTORE DUP5 PUSH1 0x0 MSTORE PUSH1 0x0 PUSH1 0x20 MSTORE PUSH1 0x40 PUSH1 0x0 KECCAK256 SWAP2 MLOAD DUP3 SSTORE PUSH1 0x1 DUP3 ADD SWAP1 MLOAD DUP1 MLOAD SWAP1 PUSH1 0x1 DUP1 PUSH1 0x40 SHL SUB DUP3 GT PUSH2 0x832 JUMPI PUSH2 0x2FA0 DUP3 PUSH2 0xDF9 DUP6 SLOAD PUSH2 0x8BB4 JUMP JUMPDEST PUSH1 0x20 SWAP1 PUSH1 0x1F DUP4 GT PUSH1 0x1 EQ PUSH2 0x309B JUMPI SWAP2 DUP1 PUSH2 0x2FC7 SWAP3 PUSH1 0x2 SWAP7 SWAP6 SWAP5 PUSH1 0x0 SWAP3 PUSH2 0x3090 JUMPI POP POP PUSH2 0x9586 JUMP JUMPDEST SWAP1 SSTORE JUMPDEST SWAP3 MLOAD SWAP3 ADD DUP1 SLOAD SWAP2 MLOAD PUSH1 0x1 PUSH1 0x1 PUSH1 0xA8 SHL SUB NOT SWAP1 SWAP3 AND PUSH1 0x1 PUSH1 0x1 PUSH1 0xA0 SHL SUB SWAP4 SWAP1 SWAP4 AND SWAP3 SWAP1 SWAP3 OR SWAP1 ISZERO ISZERO PUSH1 0xA0 SHL PUSH1 0xFF PUSH1 0xA0 SHL AND OR SWAP1 SSTORE PUSH1 0x7 SLOAD PUSH1 0x1 PUSH1 0x40 SHL DUP2 LT ISZERO PUSH2 0x832 JUMPI PUSH2 0x308B SWAP4 PUSH2 0x3025 DUP3 PUSH1 0x1 PUSH2 0x3049 SWAP5 ADD PUSH1 0x7 SSTORE PUSH1 0x7 PUSH2 0x8D15 JUMP JUMPDEST SWAP1 DUP1 SLOAD PUSH1 0x1 PUSH1 0x1 PUSH1 0xA0 SHL SUB PUSH1 0x3 SWAP4 SWAP1 SWAP4 SHL DUP4 DUP2 SHL NOT SWAP1 SWAP2 AND SWAP3 SWAP1 SWAP4 AND SWAP1 SWAP3 SHL OR SWAP1 SSTORE JUMP JUMPDEST PUSH32 0x3F9267152D801902CCBD0DE944E3020E6CFE19EC1C3F0060F45BEA24716DC451 PUSH2 0xF2C PUSH1 0xA SLOAD SWAP4 PUSH1 0x40 MLOAD SWAP2 DUP3 SWAP2 DUP7 DUP4 MSTORE PUSH1 0x40 PUSH1 0x20 DUP5 ADD MSTORE PUSH1 0x40 DUP4 ADD SWAP1 PUSH2 0x88FD JUMP JUMPDEST PUSH1 0xA SSTORE STOP JUMPDEST ADD MLOAD SWAP1 POP DUP12 DUP1 PUSH2 0xE21 JUMP JUMPDEST SWAP1 PUSH1 0x1F NOT DUP4 AND SWAP2 DUP5 PUSH1 0x0 MSTORE DUP2 PUSH1 0x0 KECCAK256 SWAP3 PUSH1 0x0 JUMPDEST DUP2 DUP2 LT PUSH2 0x30EE JUMPI POP SWAP2 PUSH1 0x1 SWAP4 SWAP2 DUP6 PUSH1 0x2 SWAP9 SWAP8 SWAP7 SWAP5 LT PUSH2 0x30D5 JUMPI JUMPDEST POP POP POP DUP2 SHL ADD SWAP1 SSTORE PUSH2 0x2FCA JUMP JUMPDEST ADD MLOAD PUSH1 0x0 NOT PUSH1 0xF8 DUP5 PUSH1 0x3 SHL AND SHR NOT AND SWAP1 SSTORE DUP11 DUP1 DUP1 PUSH2 0x30C8 JUMP JUMPDEST SWAP3 SWAP4 PUSH1 0x20 PUSH1 0x1 DUP2 SWAP3 DUP8 DUP7 ADD MLOAD DUP2 SSTORE ADD SWAP6 ADD SWAP4 ADD PUSH2 0x30AE JUMP JUMPDEST PUSH1 0x40 MLOAD PUSH3 0x461BCD PUSH1 0xE5 SHL DUP2 MSTORE PUSH1 0x20 PUSH1 0x4 DUP3 ADD MSTORE PUSH1 0x1A PUSH1 0x24 DUP3 ADD MSTORE PUSH26 0x10DBDB5C185B9E48185B1C9958591E481C9959DA5CDD195C9959 PUSH1 0x32 SHL PUSH1 0x44 DUP3 ADD MSTORE PUSH1 0x64 SWAP1 REVERT JUMPDEST CALLVALUE PUSH2 0x31E JUMPI PUSH1 0x20 CALLDATASIZE PUSH1 0x3 NOT ADD SLT PUSH2 0x31E JUMPI PUSH1 0x4 CALLDATALOAD PUSH1 0x0 PUSH2 0x180 PUSH1 0x40 MLOAD PUSH2 0x316D DUP2 PUSH2 0x8A4D JUMP JUMPDEST DUP3 DUP2 MSTORE PUSH1 0x60 PUSH1 0x20 DUP3 ADD MSTORE PUSH1 0x60 PUSH1 0x40 DUP3 ADD MSTORE PUSH1 0x60 DUP1 DUP3 ADD MSTORE PUSH1 0x60 PUSH1 0x80 DUP3 ADD MSTORE DUP3 PUSH1 0xA0 DUP3 ADD MSTORE DUP3 PUSH1 0xC0 DUP3 ADD MSTORE PUSH1 0x60 PUSH1 0xE0 DUP3 ADD MSTORE DUP3 PUSH2 0x100 DUP3 ADD MSTORE DUP3 PUSH2 0x120 DUP3 ADD MSTORE DUP3 PUSH2 0x140 DUP3 ADD MSTORE DUP3 PUSH2 0x160 DUP3 ADD MSTORE ADD MSTORE DUP1 PUSH1 0x0 MSTORE PUSH1 0x1 PUSH1 0x20 MSTORE PUSH1 0xFF PUSH1 0xB PUSH1 0x40 PUSH1 0x0 KECCAK256 ADD SLOAD AND ISZERO PUSH2 0x3409 JUMPI PUSH1 0x0 MSTORE PUSH1 0x1 PUSH1 0x20 MSTORE PUSH1 0x40 PUSH1 0x0 KECCAK256 PUSH1 0x40 MLOAD PUSH2 0x31EF DUP2 PUSH2 0x8A4D JUMP JUMPDEST DUP2 SLOAD DUP2 MSTORE PUSH1 0x40 MLOAD DUP1 PUSH2 0x3204 DUP2 PUSH1 0x1 DUP7 ADD PUSH2 0x8BEE JUMP JUMPDEST SUB PUSH2 0x320F SWAP1 DUP3 PUSH2 0x8A85 JUMP JUMPDEST PUSH1 0x20 DUP3 ADD SWAP1 DUP2 MSTORE PUSH1 0x40 MLOAD SWAP1 DUP2 PUSH2 0x3228 DUP2 PUSH1 0x2 DUP8 ADD PUSH2 0x8BEE JUMP JUMPDEST SUB PUSH2 0x3233 SWAP1 DUP4 PUSH2 0x8A85 JUMP JUMPDEST PUSH1 0x40 DUP4 DUP2 ADD SWAP3 DUP4 MSTORE MLOAD SWAP4 DUP5 PUSH2 0x324B DUP2 PUSH1 0x3 DUP5 ADD PUSH2 0x8BEE JUMP JUMPDEST SUB PUSH2 0x3256 SWAP1 DUP7 PUSH2 0x8A85 JUMP JUMPDEST PUSH1 0x60 DUP5 ADD SWAP5 DUP6 MSTORE PUSH2 0x3269 PUSH1 0x4 DUP3 ADD PUSH2 0x9F74 JUMP JUMPDEST SWAP3 PUSH1 0x80 DUP6 ADD SWAP4 DUP5 MSTORE PUSH1 0x5 DUP3 ADD SLOAD SWAP6 PUSH1 0xA0 DUP7 ADD SWAP7 PUSH1 0xFF DUP2 AND ISZERO ISZERO DUP9 MSTORE PUSH1 0xC0 DUP8 ADD SWAP1 PUSH1 0x1 PUSH1 0xA0 SHL PUSH1 0x1 SWAP1 SUB SWAP1 PUSH1 0x8 SHR AND DUP2 MSTORE PUSH1 0x6 DUP5 ADD PUSH2 0x32A6 SWAP1 PUSH2 0x9124 JUMP JUMPDEST SWAP1 PUSH1 0xE0 DUP9 ADD SWAP2 DUP3 MSTORE PUSH1 0x7 DUP6 ADD SLOAD SWAP7 PUSH2 0x100 DUP10 ADD SWAP8 DUP9 MSTORE PUSH1 0x8 DUP7 ADD SLOAD SWAP4 PUSH2 0x120 DUP11 ADD SWAP5 DUP6 MSTORE PUSH1 0x1 PUSH1 0xA0 SHL PUSH1 0x1 SWAP1 SUB PUSH1 0x9 DUP9 ADD SLOAD AND SWAP6 PUSH2 0x140 DUP12 ADD SWAP7 DUP8 MSTORE PUSH1 0xA DUP9 ADD SLOAD SWAP8 PUSH2 0x160 DUP13 ADD SWAP9 DUP10 MSTORE PUSH1 0xB ADD SLOAD PUSH1 0xFF AND SWAP9 PUSH2 0x180 DUP13 ADD SWAP10 ISZERO ISZERO DUP11 MSTORE PUSH1 0x40 MLOAD SWAP12 PUSH1 0x20 DUP14 MSTORE MLOAD PUSH1 0x20 DUP14 ADD MSTORE MLOAD PUSH1 0x40 DUP13 ADD PUSH2 0x1A0 SWAP1 MSTORE PUSH2 0x1C0 DUP13 ADD PUSH2 0x3328 SWAP2 PUSH2 0x88FD JUMP JUMPDEST SWAP1 MLOAD DUP12 DUP3 SUB PUSH1 0x1F NOT ADD PUSH1 0x60 DUP14 ADD MSTORE PUSH2 0x3340 SWAP2 SWAP1 PUSH2 0x88FD JUMP JUMPDEST SWAP1 MLOAD DUP11 DUP3 SUB PUSH1 0x1F NOT ADD PUSH1 0x80 DUP13 ADD MSTORE PUSH2 0x3358 SWAP2 SWAP1 PUSH2 0x88FD JUMP JUMPDEST SWAP1 MLOAD DUP10 DUP3 SUB PUSH1 0x1F NOT ADD PUSH1 0xA0 DUP12 ADD MSTORE PUSH2 0x3370 SWAP2 SWAP1 PUSH2 0x8E35 JUMP JUMPDEST SWAP9 MLOAD ISZERO ISZERO PUSH1 0xC0 DUP10 ADD MSTORE MLOAD PUSH1 0x1 PUSH1 0x1 PUSH1 0xA0 SHL SUB AND PUSH1 0xE0 DUP9 ADD MSTORE MLOAD DUP7 DUP9 SUB PUSH1 0x1F NOT ADD PUSH2 0x100 DUP9 ADD MSTORE DUP1 MLOAD DUP1 DUP10 MSTORE PUSH1 0x0 SWAP9 PUSH1 0x20 SWAP1 DUP2 ADD SWAP8 SWAP3 ADD SWAP1 JUMPDEST DUP1 DUP11 LT PUSH2 0x33E6 JUMPI POP POP MLOAD PUSH2 0x120 DUP8 ADD MSTORE MLOAD PUSH2 0x140 DUP7 ADD MSTORE MLOAD PUSH1 0x1 PUSH1 0x1 PUSH1 0xA0 SHL SUB AND PUSH2 0x160 DUP6 ADD MSTORE MLOAD PUSH2 0x180 DUP5 ADD MSTORE MLOAD ISZERO ISZERO PUSH2 0x1A0 DUP4 ADD MSTORE DUP2 SWAP1 SUB SWAP2 POP RETURN JUMPDEST DUP2 MLOAD PUSH1 0x1 PUSH1 0x1 PUSH1 0xA0 SHL SUB AND DUP9 MSTORE PUSH1 0x1 SWAP10 SWAP1 SWAP10 ADD SWAP9 PUSH1 0x20 SWAP8 DUP9 ADD SWAP8 SWAP1 SWAP2 ADD SWAP1 PUSH2 0x33A8 JUMP JUMPDEST PUSH1 0x40 MLOAD PUSH3 0x461BCD PUSH1 0xE5 SHL DUP2 MSTORE PUSH1 0x20 PUSH1 0x4 DUP3 ADD MSTORE PUSH1 0x11 PUSH1 0x24 DUP3 ADD MSTORE PUSH17 0x141C9BD91D58DD081B9BDD08199BDD5B99 PUSH1 0x7A SHL PUSH1 0x44 DUP3 ADD MSTORE PUSH1 0x64 SWAP1 REVERT JUMPDEST CALLVALUE PUSH2 0x31E JUMPI PUSH1 0x20 CALLDATASIZE PUSH1 0x3 NOT ADD SLT PUSH2 0x31E JUMPI PUSH1 0x4 CALLDATALOAD DUP1 PUSH1 0x0 MSTORE PUSH1 0x2 PUSH1 0x20 MSTORE PUSH2 0x3473 PUSH1 0xFF PUSH1 0x8 PUSH1 0x40 PUSH1 0x0 KECCAK256 ADD SLOAD AND PUSH2 0x8EAF JUMP JUMPDEST PUSH1 0x0 MSTORE PUSH1 0x2 PUSH1 0x20 MSTORE PUSH2 0x626 PUSH2 0x348E PUSH1 0x7 PUSH1 0x40 PUSH1 0x0 KECCAK256 ADD PUSH2 0x9ACC JUMP JUMPDEST PUSH1 0x40 MLOAD SWAP2 DUP3 SWAP2 PUSH1 0x20 DUP4 MSTORE PUSH1 0x20 DUP4 ADD SWAP1 PUSH2 0x8B4E JUMP JUMPDEST CALLVALUE PUSH2 0x31E JUMPI PUSH1 0x40 CALLDATASIZE PUSH1 0x3 NOT ADD SLT PUSH2 0x31E JUMPI PUSH2 0x34BB PUSH2 0x896A JUMP JUMPDEST PUSH1 0x1 PUSH1 0x1 PUSH1 0xA0 SHL SUB AND PUSH1 0x0 SWAP1 DUP2 MSTORE PUSH1 0x8 PUSH1 0x20 MSTORE PUSH1 0x40 SWAP1 KECCAK256 DUP1 SLOAD PUSH1 0x24 CALLDATALOAD SWAP2 SWAP1 DUP3 LT ISZERO PUSH2 0x31E JUMPI PUSH1 0x20 SWAP2 PUSH2 0x30F SWAP2 PUSH2 0x8D15 JUMP JUMPDEST CALLVALUE PUSH2 0x31E JUMPI PUSH1 0x20 CALLDATASIZE PUSH1 0x3 NOT ADD SLT PUSH2 0x31E JUMPI PUSH1 0x4 CALLDATALOAD PUSH1 0x0 MSTORE PUSH1 0x4 PUSH1 0x20 MSTORE PUSH1 0x40 PUSH1 0x0 KECCAK256 DUP1 SLOAD PUSH1 0x1 PUSH1 0xA0 SHL PUSH1 0x1 SWAP1 SUB PUSH1 0x1 DUP4 ADD SLOAD AND SWAP2 DUP1 PUSH1 0x1 PUSH1 0xA0 SHL PUSH1 0x1 SWAP1 SUB PUSH1 0x2 DUP3 ADD SLOAD AND PUSH1 0x3 DUP3 ADD SLOAD SWAP1 PUSH1 0x4 DUP4 ADD SLOAD SWAP2 PUSH1 0x5 DUP5 ADD SLOAD PUSH1 0x6 DUP6 ADD SLOAD PUSH1 0x40 MLOAD SWAP1 DUP2 DUP1 PUSH1 0x7 DUP10 ADD SWAP1 PUSH2 0x3559 SWAP2 PUSH2 0x8BEE JUMP JUMPDEST SUB PUSH2 0x3564 SWAP1 DUP4 PUSH2 0x8A85 JUMP JUMPDEST PUSH1 0x40 MLOAD SWAP3 DUP4 PUSH2 0x3576 DUP2 PUSH1 0x8 DUP12 ADD PUSH2 0x8BEE JUMP JUMPDEST SUB PUSH2 0x3581 SWAP1 DUP6 PUSH2 0x8A85 JUMP JUMPDEST PUSH1 0x9 DUP9 ADD SLOAD SWAP7 PUSH1 0xA DUP10 ADD SLOAD SWAP6 PUSH1 0xB DUP11 ADD SLOAD SWAP8 PUSH1 0x40 MLOAD DUP1 PUSH1 0xC DUP2 SWAP14 ADD SWAP1 PUSH2 0x35A6 SWAP2 PUSH2 0x8BEE JUMP JUMPDEST SUB PUSH2 0x35B1 SWAP1 DUP13 PUSH2 0x8A85 JUMP JUMPDEST PUSH1 0xE DUP13 ADD SLOAD SWAP14 PUSH1 0xF DUP14 ADD SLOAD SWAP13 PUSH1 0x10 ADD SLOAD SWAP14 PUSH1 0x40 MLOAD PUSH1 0x80 MSTORE PUSH1 0x80 MLOAD MSTORE PUSH1 0x80 MLOAD PUSH1 0x20 ADD MSTORE PUSH1 0x80 MLOAD PUSH1 0x40 ADD MSTORE PUSH1 0x80 MLOAD PUSH1 0x60 ADD MSTORE PUSH1 0x80 MLOAD PUSH1 0x80 ADD MSTORE PUSH1 0x80 MLOAD PUSH1 0xA0 ADD MSTORE PUSH1 0x80 MLOAD PUSH1 0xC0 ADD MSTORE PUSH1 0x80 MLOAD PUSH1 0xE0 ADD PUSH2 0x220 SWAP1 MSTORE PUSH1 0x80 MLOAD PUSH2 0x220 ADD PUSH2 0x3611 SWAP2 PUSH2 0x88FD JUMP JUMPDEST PUSH1 0x80 MLOAD DUP2 SUB PUSH1 0x80 MLOAD PUSH2 0x100 ADD MSTORE PUSH2 0x3627 SWAP2 PUSH2 0x88FD JUMP JUMPDEST SWAP3 PUSH1 0x80 MLOAD PUSH2 0x120 ADD MSTORE PUSH1 0x80 MLOAD PUSH2 0x140 ADD MSTORE PUSH1 0x80 MLOAD PUSH2 0x160 ADD MSTORE PUSH1 0x80 MLOAD DUP2 SUB PUSH1 0x80 MLOAD PUSH2 0x180 ADD MSTORE PUSH2 0x3656 SWAP2 PUSH2 0x88FD JUMP JUMPDEST SWAP3 PUSH1 0xFF DUP2 AND ISZERO ISZERO PUSH1 0x80 MLOAD PUSH2 0x1A0 ADD MSTORE PUSH1 0x8 SHR PUSH1 0xFF AND ISZERO ISZERO PUSH1 0x80 MLOAD PUSH2 0x1C0 ADD MSTORE PUSH1 0x80 MLOAD PUSH2 0x1E0 ADD MSTORE PUSH1 0x80 MLOAD PUSH2 0x200 ADD MSTORE PUSH1 0x80 MLOAD SWAP1 SUB PUSH1 0x80 MLOAD RETURN JUMPDEST CALLVALUE PUSH2 0x31E JUMPI PUSH1 0x20 CALLDATASIZE PUSH1 0x3 NOT ADD SLT PUSH2 0x31E JUMPI PUSH1 0x4 CALLDATALOAD PUSH1 0x0 MSTORE PUSH1 0x5 PUSH1 0x20 MSTORE PUSH1 0x40 PUSH1 0x0 KECCAK256 DUP1 SLOAD PUSH2 0x626 PUSH1 0x1 DUP1 PUSH1 0xA0 SHL SUB PUSH1 0x1 DUP5 ADD SLOAD AND SWAP3 PUSH1 0x8 PUSH2 0x374E PUSH1 0x1 DUP1 PUSH1 0xA0 SHL SUB PUSH1 0x2 DUP5 ADD SLOAD AND PUSH1 0x3 DUP5 ADD SLOAD PUSH1 0x4 DUP6 ADD SLOAD PUSH1 0x5 DUP7 ADD SLOAD SWAP2 PUSH1 0x40 MLOAD SWAP4 PUSH2 0x36FA DUP6 PUSH2 0xD50 DUP2 PUSH1 0x6 DUP13 ADD PUSH2 0x8BEE JUMP JUMPDEST PUSH2 0x371A PUSH1 0x7 DUP10 ADD SLOAD SWAP9 PUSH2 0x3713 PUSH1 0x40 MLOAD DUP1 SWAP11 DUP2 SWAP4 ADD PUSH2 0x8BEE JUMP JUMPDEST SUB DUP9 PUSH2 0x8A85 JUMP JUMPDEST PUSH1 0x40 MLOAD SWAP11 DUP12 SWAP11 DUP12 MSTORE PUSH1 0x20 DUP12 ADD MSTORE PUSH1 0x40 DUP11 ADD MSTORE PUSH1 0x60 DUP10 ADD MSTORE PUSH1 0x80 DUP9 ADD MSTORE PUSH1 0xA0 DUP8 ADD MSTORE PUSH2 0x120 PUSH1 0xC0 DUP8 ADD MSTORE PUSH2 0x120 DUP7 ADD SWAP1 PUSH2 0x88FD JUMP JUMPDEST SWAP2 PUSH1 0xE0 DUP6 ADD MSTORE DUP4 DUP3 SUB PUSH2 0x100 DUP6 ADD MSTORE PUSH2 0x88FD JUMP JUMPDEST CALLVALUE PUSH2 0x31E JUMPI PUSH1 0xE0 CALLDATASIZE PUSH1 0x3 NOT ADD SLT PUSH2 0x31E JUMPI PUSH1 0x4 CALLDATALOAD PUSH1 0x1 PUSH1 0x1 PUSH1 0x40 SHL SUB DUP2 GT PUSH2 0x31E JUMPI PUSH2 0x3792 SWAP1 CALLDATASIZE SWAP1 PUSH1 0x4 ADD PUSH2 0x8AA8 JUMP JUMPDEST PUSH1 0x24 CALLDATALOAD PUSH1 0x1 PUSH1 0x1 PUSH1 0x40 SHL SUB DUP2 GT PUSH2 0x31E JUMPI PUSH2 0x37B1 SWAP1 CALLDATASIZE SWAP1 PUSH1 0x4 ADD PUSH2 0x8AA8 JUMP JUMPDEST SWAP1 PUSH1 0x44 CALLDATALOAD PUSH1 0x1 PUSH1 0x1 PUSH1 0x40 SHL SUB DUP2 GT PUSH2 0x31E JUMPI PUSH2 0x37D1 SWAP1 CALLDATASIZE SWAP1 PUSH1 0x4 ADD PUSH2 0x8AA8 JUMP JUMPDEST SWAP2 PUSH1 0x64 CALLDATALOAD SWAP1 PUSH1 0x84 CALLDATALOAD PUSH1 0x1 PUSH1 0x1 PUSH1 0x40 SHL SUB DUP2 GT PUSH2 0x31E JUMPI PUSH2 0x37F5 SWAP1 CALLDATASIZE SWAP1 PUSH1 0x4 ADD PUSH2 0x8DD8 JUMP JUMPDEST SWAP1 PUSH1 0xA4 CALLDATALOAD PUSH1 0x1 PUSH1 0x1 PUSH1 0x40 SHL SUB DUP2 GT PUSH2 0x31E JUMPI PUSH2 0x3815 SWAP1 CALLDATASIZE SWAP1 PUSH1 0x4 ADD PUSH2 0x8DD8 JUMP JUMPDEST SWAP4 PUSH1 0xC4 CALLDATALOAD CALLER PUSH1 0x0 MSTORE PUSH1 0x0 PUSH1 0x20 MSTORE PUSH2 0x3839 PUSH1 0xFF PUSH1 0x2 PUSH1 0x40 PUSH1 0x0 KECCAK256 ADD SLOAD PUSH1 0xA0 SHR AND PUSH2 0x9407 JUMP JUMPDEST PUSH2 0x3845 DUP3 MLOAD ISZERO ISZERO PUSH2 0x944C JUMP JUMPDEST PUSH2 0x3851 DUP4 MLOAD ISZERO ISZERO PUSH2 0x9497 JUMP JUMPDEST PUSH2 0x385C DUP6 ISZERO ISZERO PUSH2 0x94EF JUMP JUMPDEST PUSH2 0x3867 DUP2 ISZERO ISZERO PUSH2 0x953B JUMP JUMPDEST DUP4 MLOAD ISZERO PUSH2 0x3F5B JUMPI DUP4 MLOAD DUP7 MLOAD SUB PUSH2 0x3F01 JUMPI PUSH1 0x0 JUMPDEST DUP5 MLOAD DUP2 LT ISZERO PUSH2 0x3A4E JUMPI PUSH2 0x388D DUP2 DUP7 PUSH2 0x93E4 JUMP JUMPDEST MLOAD PUSH1 0x0 MSTORE PUSH1 0x1 PUSH1 0x20 MSTORE PUSH1 0xFF PUSH1 0xB PUSH1 0x40 PUSH1 0x0 KECCAK256 ADD SLOAD AND ISZERO PUSH2 0x39FF JUMPI PUSH2 0x38B1 DUP2 DUP7 PUSH2 0x93E4 JUMP JUMPDEST MLOAD PUSH1 0x0 MSTORE PUSH1 0x1 PUSH1 0x20 MSTORE CALLER PUSH1 0x1 DUP1 PUSH1 0xA0 SHL SUB PUSH1 0x9 PUSH1 0x40 PUSH1 0x0 KECCAK256 ADD SLOAD AND SUB PUSH2 0x39BA JUMPI PUSH2 0x38DB DUP2 DUP7 PUSH2 0x93E4 JUMP JUMPDEST MLOAD PUSH1 0x0 MSTORE PUSH1 0x1 PUSH1 0x20 MSTORE PUSH1 0x7 PUSH1 0x40 PUSH1 0x0 KECCAK256 ADD SLOAD PUSH2 0x3901 DUP8 PUSH2 0x38FB DUP5 DUP12 PUSH2 0x93E4 JUMP JUMPDEST MLOAD PUSH2 0x9CBA JUMP JUMPDEST GT PUSH2 0x3976 JUMPI PUSH2 0x3910 DUP2 DUP9 PUSH2 0x93E4 JUMP JUMPDEST MLOAD ISZERO PUSH2 0x391E JUMPI PUSH1 0x1 ADD PUSH2 0x387A JUMP JUMPDEST PUSH1 0x40 MLOAD PUSH3 0x461BCD PUSH1 0xE5 SHL DUP2 MSTORE PUSH1 0x20 PUSH1 0x4 DUP3 ADD MSTORE PUSH1 0x2A PUSH1 0x24 DUP3 ADD MSTORE PUSH32 0x496E6772656469656E74207175616E74697479206D7573742062652067726561 PUSH1 0x44 DUP3 ADD MSTORE PUSH10 0x746572207468616E203 PUSH1 0xB4 SHL PUSH1 0x64 DUP3 ADD MSTORE PUSH1 0x84 SWAP1 REVERT JUMPDEST PUSH1 0x64 PUSH1 0x40 MLOAD PUSH3 0x461BCD PUSH1 0xE5 SHL DUP2 MSTORE PUSH1 0x20 PUSH1 0x4 DUP3 ADD MSTORE PUSH1 0x20 PUSH1 0x24 DUP3 ADD MSTORE PUSH32 0x496E73756666696369656E7420696E6772656469656E74207175616E74697479 PUSH1 0x44 DUP3 ADD MSTORE REVERT JUMPDEST PUSH1 0x40 MLOAD PUSH3 0x461BCD PUSH1 0xE5 SHL DUP2 MSTORE PUSH1 0x20 PUSH1 0x4 DUP3 ADD MSTORE PUSH1 0x1D PUSH1 0x24 DUP3 ADD MSTORE PUSH32 0x596F7520646F6E2774206F776E207468697320696E6772656469656E74000000 PUSH1 0x44 DUP3 ADD MSTORE PUSH1 0x64 SWAP1 REVERT JUMPDEST PUSH1 0x40 MLOAD PUSH3 0x461BCD PUSH1 0xE5 SHL DUP2 MSTORE PUSH1 0x20 PUSH1 0x4 DUP3 ADD MSTORE PUSH1 0x21 PUSH1 0x24 DUP3 ADD MSTORE PUSH32 0x496E6772656469656E742070726F6475637420646F6573206E6F742065786973 PUSH1 0x44 DUP3 ADD MSTORE PUSH1 0x1D PUSH1 0xFA SHL PUSH1 0x64 DUP3 ADD MSTORE PUSH1 0x84 SWAP1 REVERT JUMPDEST POP DUP7 SWAP5 SWAP3 SWAP5 PUSH1 0x0 JUMPDEST DUP6 MLOAD DUP2 LT ISZERO PUSH2 0x3AD8 JUMPI DUP1 PUSH2 0x3A70 DUP7 PUSH2 0x38FB PUSH1 0x1 SWAP5 DUP13 PUSH2 0x93E4 JUMP JUMPDEST PUSH2 0x3A7A DUP3 DUP10 PUSH2 0x93E4 JUMP JUMPDEST MLOAD PUSH1 0x0 MSTORE DUP3 PUSH1 0x20 MSTORE PUSH1 0x7 PUSH1 0x40 PUSH1 0x0 KECCAK256 ADD PUSH2 0x3A95 DUP3 DUP3 SLOAD PUSH2 0x9005 JUMP JUMPDEST SWAP1 SSTORE PUSH32 0x60DBCA619AE4E83FCD69533B72E2502296C44B0D2190B6106048CBBE0FD5EE5F PUSH1 0x40 PUSH2 0x3AC4 DUP5 DUP12 PUSH2 0x93E4 JUMP JUMPDEST MLOAD SWAP3 DUP2 MLOAD SWAP1 DUP2 MSTORE CALLER PUSH1 0x20 DUP3 ADD MSTORE LOG2 ADD PUSH2 0x3A56 JUMP JUMPDEST POP PUSH1 0xB SLOAD PUSH1 0x0 DUP2 DUP2 MSTORE PUSH1 0x1 PUSH1 0x20 DUP2 SWAP1 MSTORE PUSH1 0x40 SWAP1 SWAP2 KECCAK256 SWAP2 DUP3 SSTORE DUP5 MLOAD SWAP5 SWAP8 SWAP4 SWAP5 SWAP3 SWAP4 SWAP3 SWAP2 ADD SWAP1 PUSH1 0x1 PUSH1 0x1 PUSH1 0x40 SHL SUB DUP2 GT PUSH2 0x832 JUMPI PUSH2 0x3B18 DUP2 PUSH2 0xE52 DUP5 SLOAD PUSH2 0x8BB4 JUMP JUMPDEST PUSH1 0x20 PUSH1 0x1F DUP3 GT PUSH1 0x1 EQ PUSH2 0x3E9B JUMPI SWAP1 DUP1 PUSH2 0x3B39 SWAP3 PUSH1 0x0 SWAP2 PUSH2 0x3E90 JUMPI JUMPDEST POP PUSH2 0x9586 JUMP JUMPDEST SWAP1 SSTORE JUMPDEST PUSH1 0xB SLOAD PUSH1 0x0 MSTORE PUSH1 0x1 PUSH1 0x20 MSTORE PUSH1 0x2 PUSH1 0x40 PUSH1 0x0 KECCAK256 ADD SWAP1 DUP1 MLOAD SWAP1 PUSH1 0x1 DUP1 PUSH1 0x40 SHL SUB DUP3 GT PUSH2 0x832 JUMPI PUSH2 0x3B6E DUP3 PUSH2 0xDF9 DUP6 SLOAD PUSH2 0x8BB4 JUMP JUMPDEST PUSH1 0x20 SWAP1 PUSH1 0x1F DUP4 GT PUSH1 0x1 EQ PUSH2 0x3E29 JUMPI PUSH2 0x3B90 SWAP3 SWAP2 PUSH1 0x0 SWAP2 DUP4 PUSH2 0x3E1E JUMPI POP POP PUSH2 0x9586 JUMP JUMPDEST SWAP1 SSTORE JUMPDEST PUSH1 0xB SLOAD PUSH1 0x0 MSTORE PUSH1 0x1 PUSH1 0x20 MSTORE PUSH1 0x3 PUSH1 0x40 PUSH1 0x0 KECCAK256 ADD SWAP1 DUP1 MLOAD SWAP1 PUSH1 0x1 DUP1 PUSH1 0x40 SHL SUB DUP3 GT PUSH2 0x832 JUMPI PUSH2 0x3BC5 DUP3 PUSH2 0xDF9 DUP6 SLOAD PUSH2 0x8BB4 JUMP JUMPDEST PUSH1 0x20 SWAP1 PUSH1 0x1F DUP4 GT PUSH1 0x1 EQ PUSH2 0x3DB7 JUMPI PUSH2 0x3BE7 SWAP3 SWAP2 PUSH1 0x0 SWAP2 DUP4 PUSH2 0x2896 JUMPI POP POP PUSH2 0x9586 JUMP JUMPDEST SWAP1 SSTORE JUMPDEST PUSH1 0xB DUP1 SLOAD PUSH1 0x0 SWAP1 DUP2 MSTORE PUSH1 0x1 PUSH1 0x20 DUP2 SWAP1 MSTORE PUSH1 0x40 DUP1 DUP4 KECCAK256 PUSH1 0x7 ADD DUP7 SWAP1 SSTORE DUP4 SLOAD DUP4 MSTORE DUP1 DUP4 KECCAK256 PUSH1 0x8 ADD SWAP5 SWAP1 SWAP5 SSTORE DUP3 SLOAD DUP3 MSTORE DUP4 DUP3 KECCAK256 PUSH1 0x9 ADD DUP1 SLOAD PUSH1 0x1 PUSH1 0x1 PUSH1 0xA0 SHL SUB NOT AND CALLER SWAP1 DUP2 OR SWAP1 SWAP2 SSTORE DUP4 SLOAD DUP4 MSTORE DUP5 DUP4 KECCAK256 TIMESTAMP PUSH1 0xA SWAP2 SWAP1 SWAP2 ADD SSTORE DUP4 SLOAD DUP4 MSTORE DUP5 DUP4 KECCAK256 DUP5 ADD DUP1 SLOAD PUSH1 0xFF NOT SWAP1 DUP2 AND DUP5 OR SWAP1 SWAP2 SSTORE DUP5 SLOAD DUP5 MSTORE DUP6 DUP5 KECCAK256 PUSH1 0x5 SWAP1 DUP2 ADD DUP1 SLOAD SWAP1 SWAP3 AND SWAP1 SWAP4 OR SWAP1 SSTORE SWAP3 SLOAD DUP3 MSTORE SWAP3 SWAP1 KECCAK256 PUSH2 0x3C7C SWAP3 ADD PUSH2 0x95AA JUMP JUMPDEST PUSH1 0xB SLOAD PUSH1 0x0 MSTORE PUSH1 0x1 PUSH1 0x20 MSTORE PUSH2 0x3C98 CALLER PUSH1 0x6 PUSH1 0x40 PUSH1 0x0 KECCAK256 ADD PUSH2 0x9618 JUMP JUMPDEST PUSH1 0x0 JUMPDEST DUP3 MLOAD DUP2 LT ISZERO PUSH2 0x3CFE JUMPI PUSH1 0x1 SWAP1 PUSH1 0xB SLOAD PUSH1 0x0 MSTORE DUP2 PUSH1 0x20 MSTORE PUSH2 0x3CF8 PUSH1 0x4 PUSH1 0x40 PUSH1 0x0 KECCAK256 ADD PUSH2 0x3CC6 DUP4 DUP8 PUSH2 0x93E4 JUMP JUMPDEST MLOAD SWAP1 PUSH2 0x3CD2 DUP5 DUP11 PUSH2 0x93E4 JUMP JUMPDEST MLOAD PUSH1 0x40 MLOAD SWAP3 PUSH2 0x3CE0 DUP5 PUSH2 0x89E0 JUMP JUMPDEST DUP4 MSTORE PUSH1 0x20 DUP4 ADD MSTORE CALLER PUSH1 0x40 DUP4 ADD MSTORE TIMESTAMP PUSH1 0x60 DUP4 ADD MSTORE PUSH2 0x9F0E JUMP JUMPDEST ADD PUSH2 0x3C9B JUMP JUMPDEST POP PUSH32 0x1E58A7CE9AE3CC9A3A5306B5B0635A56337FAFA4F2CB8D8779A1E6F8CBF37767 PUSH1 0x20 PUSH1 0x0 DUP1 MLOAD PUSH1 0x20 PUSH2 0xA52D DUP4 CODECOPY DUP2 MLOAD SWAP2 MSTORE SWAP4 PUSH2 0x3DB2 SWAP6 PUSH32 0x315AD08C7B8EBE955384C76EF6079FF89D54DA1C53DC05A5A1A06CF9393ABC76 PUSH2 0x3D9C DUP10 PUSH1 0xB SLOAD DUP1 SWAP10 DUP2 SWAP10 DUP3 SWAP7 PUSH2 0x3D75 PUSH1 0x40 MLOAD SWAP3 DUP4 SWAP3 CALLER SWAP1 DUP5 PUSH2 0x963B JUMP JUMPDEST SUB SWAP1 LOG2 PUSH1 0x40 MLOAD SWAP2 DUP3 SWAP2 PUSH1 0x60 DUP4 MSTORE PUSH2 0x3D8F PUSH1 0x60 DUP5 ADD DUP9 PUSH2 0x8996 JUMP JUMPDEST SWAP1 DUP4 DUP3 SUB DUP10 DUP6 ADD MSTORE PUSH2 0x8996 JUMP JUMPDEST CALLER PUSH1 0x40 DUP4 ADD MSTORE SUB SWAP1 LOG2 MLOAD PUSH1 0x40 MLOAD SWAP1 DUP2 MSTORE LOG2 PUSH2 0x93F8 JUMP JUMPDEST PUSH1 0xB SSTORE STOP JUMPDEST SWAP1 PUSH1 0x1F NOT DUP4 AND SWAP2 DUP5 PUSH1 0x0 MSTORE DUP2 PUSH1 0x0 KECCAK256 SWAP3 PUSH1 0x0 JUMPDEST DUP2 DUP2 LT PUSH2 0x3E06 JUMPI POP SWAP1 DUP5 PUSH1 0x1 SWAP6 SWAP5 SWAP4 SWAP3 LT PUSH2 0x3DED JUMPI JUMPDEST POP POP POP DUP2 SHL ADD SWAP1 SSTORE PUSH2 0x3BEA JUMP JUMPDEST ADD MLOAD PUSH1 0x0 NOT PUSH1 0xF8 DUP5 PUSH1 0x3 SHL AND SHR NOT AND SWAP1 SSTORE DUP9 DUP1 DUP1 PUSH2 0x3DE0 JUMP JUMPDEST SWAP3 SWAP4 PUSH1 0x20 PUSH1 0x1 DUP2 SWAP3 DUP8 DUP7 ADD MLOAD DUP2 SSTORE ADD SWAP6 ADD SWAP4 ADD PUSH2 0x3DCA JUMP JUMPDEST ADD MLOAD SWAP1 POP DUP11 DUP1 PUSH2 0xE21 JUMP JUMPDEST SWAP1 PUSH1 0x1F NOT DUP4 AND SWAP2 DUP5 PUSH1 0x0 MSTORE DUP2 PUSH1 0x0 KECCAK256 SWAP3 PUSH1 0x0 JUMPDEST DUP2 DUP2 LT PUSH2 0x3E78 JUMPI POP SWAP1 DUP5 PUSH1 0x1 SWAP6 SWAP5 SWAP4 SWAP3 LT PUSH2 0x3E5F JUMPI JUMPDEST POP POP POP DUP2 SHL ADD SWAP1 SSTORE PUSH2 0x3B93 JUMP JUMPDEST ADD MLOAD PUSH1 0x0 NOT PUSH1 0xF8 DUP5 PUSH1 0x3 SHL AND SHR NOT AND SWAP1 SSTORE DUP10 DUP1 DUP1 PUSH2 0x3E52 JUMP JUMPDEST SWAP3 SWAP4 PUSH1 0x20 PUSH1 0x1 DUP2 SWAP3 DUP8 DUP7 ADD MLOAD DUP2 SSTORE ADD SWAP6 ADD SWAP4 ADD PUSH2 0x3E3C JUMP JUMPDEST SWAP1 POP DUP10 ADD MLOAD DUP12 PUSH2 0x3B33 JUMP JUMPDEST PUSH1 0x1F NOT DUP3 AND SWAP1 DUP4 PUSH1 0x0 MSTORE DUP1 PUSH1 0x0 KECCAK256 SWAP2 PUSH1 0x0 JUMPDEST DUP12 DUP3 DUP3 LT PUSH2 0x3EE9 JUMPI POP POP SWAP1 DUP4 PUSH1 0x1 SWAP5 SWAP4 SWAP3 LT PUSH2 0x3ED0 JUMPI JUMPDEST POP POP DUP2 SHL ADD SWAP1 SSTORE PUSH2 0x3B3C JUMP JUMPDEST DUP11 ADD MLOAD PUSH1 0x0 NOT PUSH1 0xF8 DUP5 PUSH1 0x3 SHL AND SHR NOT AND SWAP1 SSTORE DUP11 DUP1 PUSH2 0x3EC4 JUMP JUMPDEST PUSH1 0x1 DUP5 SWAP6 PUSH1 0x20 SWAP4 SWAP6 DUP5 SWAP4 ADD MLOAD DUP2 SSTORE ADD SWAP5 ADD SWAP3 ADD PUSH2 0x3EAD JUMP JUMPDEST PUSH1 0x40 MLOAD PUSH3 0x461BCD PUSH1 0xE5 SHL DUP2 MSTORE PUSH1 0x20 PUSH1 0x4 DUP3 ADD MSTORE PUSH1 0x2C PUSH1 0x24 DUP3 ADD MSTORE PUSH32 0x496E6772656469656E747320616E64207175616E746974696573206172726179 PUSH1 0x44 DUP3 ADD MSTORE PUSH12 0xE640DAEAE6E840DAC2E8C6D PUSH1 0xA3 SHL PUSH1 0x64 DUP3 ADD MSTORE PUSH1 0x84 SWAP1 REVERT JUMPDEST PUSH1 0x40 MLOAD PUSH3 0x461BCD PUSH1 0xE5 SHL DUP2 MSTORE PUSH1 0x20 PUSH1 0x4 DUP3 ADD MSTORE PUSH1 0x21 PUSH1 0x24 DUP3 ADD MSTORE PUSH32 0x4D7573742068617665206174206C65617374206F6E6520696E6772656469656E PUSH1 0x44 DUP3 ADD MSTORE PUSH1 0x1D PUSH1 0xFA SHL PUSH1 0x64 DUP3 ADD MSTORE PUSH1 0x84 SWAP1 REVERT JUMPDEST CALLVALUE PUSH2 0x31E JUMPI PUSH2 0x3FB8 CALLDATASIZE PUSH2 0x8AFE JUMP JUMPDEST DUP3 PUSH1 0x0 MSTORE PUSH1 0x4 PUSH1 0x20 MSTORE PUSH2 0x3FD5 PUSH1 0xFF PUSH1 0xE PUSH1 0x40 PUSH1 0x0 KECCAK256 ADD SLOAD AND PUSH2 0x926B JUMP JUMPDEST DUP3 PUSH1 0x0 MSTORE PUSH1 0x4 PUSH1 0x20 MSTORE PUSH1 0x1 DUP1 PUSH1 0xA0 SHL SUB PUSH1 0x1 PUSH1 0x40 PUSH1 0x0 KECCAK256 ADD SLOAD AND CALLER EQ DUP1 ISZERO PUSH2 0x4AF8 JUMPI JUMPDEST PUSH2 0x4001 SWAP1 PUSH2 0x9A84 JUMP JUMPDEST DUP2 MLOAD ISZERO PUSH2 0x4ABA JUMPI DUP1 MLOAD ISZERO PUSH2 0x4A77 JUMPI DUP3 PUSH1 0x0 MSTORE PUSH1 0x4 PUSH1 0x20 MSTORE PUSH1 0x40 PUSH1 0x0 KECCAK256 SWAP1 PUSH1 0x20 SWAP2 PUSH1 0x40 MLOAD PUSH2 0x402E DUP5 DUP3 PUSH2 0x8A85 JUMP JUMPDEST PUSH1 0x0 DUP2 MSTORE PUSH1 0xD DUP3 ADD DUP1 SLOAD DUP1 ISZERO ISZERO SWAP1 DUP2 PUSH2 0x49F0 JUMPI JUMPDEST POP DUP7 MLOAD SWAP3 DUP7 DUP9 ADD SWAP4 DUP5 KECCAK256 PUSH2 0x4054 PUSH2 0x9A1E JUMP JUMPDEST DUP1 MLOAD SWAP1 DUP10 ADD KECCAK256 SUB PUSH2 0x4770 JUMPI POP PUSH2 0x472C JUMPI PUSH1 0x40 MLOAD PUSH2 0x4078 DUP2 PUSH2 0x3E7 DUP2 PUSH1 0x8 DUP9 ADD PUSH2 0x8BEE JUMP JUMPDEST DUP6 DUP2 MLOAD SWAP2 ADD KECCAK256 PUSH2 0x4086 PUSH2 0x8F44 JUMP JUMPDEST DUP7 DUP2 MLOAD SWAP2 ADD KECCAK256 SUB PUSH2 0x46EF JUMPI JUMPDEST DUP6 MLOAD DUP3 KECCAK256 PUSH2 0x409E PUSH2 0x9A1E JUMP JUMPDEST DUP7 DUP2 MLOAD SWAP2 ADD KECCAK256 EQ DUP1 ISZERO PUSH2 0x46D6 JUMPI JUMPDEST DUP1 ISZERO PUSH2 0x46BD JUMPI JUMPDEST PUSH2 0x4658 JUMPI JUMPDEST DUP6 MLOAD DUP3 KECCAK256 PUSH2 0x40C4 PUSH2 0x9E19 JUMP JUMPDEST DUP7 DUP2 MLOAD SWAP2 ADD KECCAK256 EQ DUP1 ISZERO PUSH2 0x463F JUMPI JUMPDEST PUSH2 0x45E6 JUMPI JUMPDEST DUP6 MLOAD DUP3 KECCAK256 PUSH2 0x40E3 PUSH2 0x971D JUMP JUMPDEST DUP7 DUP2 MLOAD SWAP2 ADD KECCAK256 EQ PUSH2 0x457D JUMPI PUSH1 0x40 MLOAD PUSH2 0x4117 SWAP2 PUSH2 0x40FE DUP3 PUSH2 0x89E0 JUMP JUMPDEST TIMESTAMP DUP3 MSTORE DUP8 DUP8 DUP4 ADD MSTORE DUP6 PUSH1 0x40 DUP4 ADD MSTORE CALLER PUSH1 0x60 DUP4 ADD MSTORE PUSH2 0x9747 JUMP JUMPDEST DUP5 MLOAD SWAP1 KECCAK256 PUSH2 0x4123 PUSH2 0x9A1E JUMP JUMPDEST DUP5 DUP2 MLOAD SWAP2 ADD KECCAK256 EQ PUSH2 0x4174 JUMPI JUMPDEST POP SWAP2 PUSH2 0x4169 PUSH2 0x415C SWAP3 PUSH1 0x0 DUP1 MLOAD PUSH1 0x20 PUSH2 0xA60D DUP4 CODECOPY DUP2 MLOAD SWAP2 MSTORE SWAP5 PUSH1 0x40 MLOAD SWAP5 DUP6 SWAP5 PUSH1 0x60 DUP7 MSTORE PUSH1 0x60 DUP7 ADD SWAP1 PUSH2 0x88FD JUMP JUMPDEST SWAP2 DUP5 DUP4 SUB SWAP1 DUP6 ADD MSTORE PUSH2 0x88FD JUMP JUMPDEST CALLER PUSH1 0x40 DUP4 ADD MSTORE SUB SWAP1 LOG2 STOP JUMPDEST PUSH1 0x8 DUP2 ADD PUSH2 0x4185 PUSH2 0xCC5 DUP3 SLOAD PUSH2 0x8BB4 JUMP JUMPDEST PUSH1 0x10 PUSH8 0x185C1C1C9BDD9959 PUSH1 0xC2 SHL ADD SWAP1 SSTORE PUSH3 0x93A80 TIMESTAMP ADD DUP1 TIMESTAMP GT PUSH2 0x38B JUMPI PUSH1 0xB DUP3 ADD SSTORE PUSH1 0x3 DUP2 ADD DUP1 SLOAD PUSH1 0x0 MSTORE PUSH1 0x1 DUP5 MSTORE PUSH1 0x40 PUSH1 0x0 KECCAK256 SWAP1 PUSH1 0x7 DUP3 ADD SWAP2 DUP3 SLOAD SWAP3 PUSH1 0x4 DUP6 ADD SWAP4 DUP5 SLOAD SWAP1 DUP2 DUP2 LT PUSH2 0x4538 JUMPI DUP2 DUP2 SUB PUSH2 0x4379 JUMPI POP POP POP PUSH1 0x1 DUP5 ADD DUP1 SLOAD PUSH1 0x9 DUP4 ADD DUP1 SLOAD PUSH1 0x1 PUSH1 0x1 PUSH1 0xA0 SHL SUB NOT AND PUSH1 0x1 PUSH1 0x1 PUSH1 0xA0 SHL SUB SWAP3 DUP4 AND OR SWAP1 SSTORE SWAP1 SLOAD DUP10 SWAP6 SWAP5 SWAP4 SWAP3 PUSH2 0x4218 SWAP3 SWAP2 SWAP1 SWAP2 AND SWAP1 PUSH1 0x6 ADD PUSH2 0x9618 JUMP JUMPDEST PUSH1 0xE DUP4 ADD DUP1 SLOAD PUSH2 0xFF00 NOT AND SWAP1 SSTORE SLOAD PUSH1 0xF DUP4 ADD SSTORE JUMPDEST PUSH1 0x40 MLOAD PUSH2 0x4240 DUP2 PUSH2 0x3E7 DUP2 PUSH1 0x7 DUP8 ADD PUSH2 0x8BEE JUMP JUMPDEST DUP6 DUP2 MLOAD SWAP2 ADD KECCAK256 SWAP2 PUSH1 0x40 SWAP3 PUSH1 0xB DUP8 DUP6 MLOAD PUSH2 0x4259 DUP8 DUP3 PUSH2 0x8A85 JUMP JUMPDEST DUP3 DUP2 MSTORE ADD PUSH11 0x6D61726B6574706C616365 PUSH1 0xA8 SHL DUP2 MSTORE KECCAK256 EQ PUSH2 0x42B0 JUMPI JUMPDEST POP POP SWAP3 PUSH1 0x0 DUP1 MLOAD PUSH1 0x20 PUSH2 0xA60D DUP4 CODECOPY DUP2 MLOAD SWAP2 MSTORE SWAP5 SWAP3 PUSH2 0x4169 SWAP3 PUSH1 0x0 DUP1 MLOAD PUSH1 0x20 PUSH2 0xA56D DUP4 CODECOPY DUP2 MLOAD SWAP2 MSTORE DUP4 PUSH2 0x415C SWAP8 MLOAD CALLER DUP2 MSTORE LOG2 SWAP3 SWAP5 POP SWAP3 POP PUSH2 0x412F JUMP JUMPDEST PUSH1 0x10 SWAP2 SWAP3 SWAP4 POP ADD SLOAD PUSH1 0x0 MSTORE PUSH1 0x3 DUP5 MSTORE DUP2 PUSH1 0x0 KECCAK256 SWAP1 PUSH1 0x3 DUP3 ADD SWAP1 DUP2 SLOAD SWAP1 SLOAD SWAP1 DUP2 DUP2 LT PUSH2 0x4335 JUMPI DUP7 PUSH2 0x4169 SWAP6 PUSH2 0x415C SWAP9 SWAP6 PUSH1 0x0 DUP1 MLOAD PUSH1 0x20 PUSH2 0xA60D DUP4 CODECOPY DUP2 MLOAD SWAP2 MSTORE SWAP11 SWAP9 SWAP6 PUSH2 0x430B DUP14 SWAP7 PUSH1 0x0 DUP1 MLOAD PUSH1 0x20 PUSH2 0xA56D DUP4 CODECOPY DUP2 MLOAD SWAP2 MSTORE SWAP7 PUSH2 0x9005 JUMP JUMPDEST DUP1 SWAP2 SSTORE ISZERO PUSH2 0x4324 JUMPI JUMPDEST POP SWAP5 POP SWAP7 POP POP SWAP3 DUP2 SWAP5 SWAP7 POP PUSH2 0x4275 JUMP JUMPDEST PUSH1 0x6 ADD DUP1 SLOAD PUSH1 0xFF NOT AND SWAP1 SSTORE DUP12 PUSH2 0x4314 JUMP JUMPDEST DUP5 MLOAD PUSH3 0x461BCD PUSH1 0xE5 SHL DUP2 MSTORE PUSH1 0x4 DUP2 ADD DUP9 SWAP1 MSTORE PUSH1 0x1D PUSH1 0x24 DUP3 ADD MSTORE PUSH32 0x496E73756666696369656E74206C697374696E67207175616E74697479000000 PUSH1 0x44 DUP3 ADD MSTORE PUSH1 0x64 SWAP1 REVERT JUMPDEST SWAP1 PUSH2 0x438C SWAP2 SWAP11 SWAP8 SWAP6 SWAP4 SWAP11 SWAP10 SWAP7 SWAP5 SWAP10 PUSH2 0x9005 JUMP JUMPDEST SWAP1 SSTORE PUSH1 0xE DUP3 ADD PUSH2 0x100 PUSH2 0xFF00 NOT DUP3 SLOAD AND OR SWAP1 SSTORE DUP7 SLOAD PUSH1 0xF DUP4 ADD SSTORE PUSH1 0xB SLOAD DUP1 PUSH1 0x0 MSTORE PUSH1 0x1 DUP8 MSTORE DUP1 PUSH1 0x40 PUSH1 0x0 KECCAK256 SSTORE PUSH1 0x0 MSTORE PUSH1 0x1 DUP7 MSTORE PUSH2 0x43D3 PUSH1 0x1 DUP10 ADD PUSH1 0x1 PUSH1 0x40 PUSH1 0x0 KECCAK256 ADD PUSH2 0x9E40 JUMP JUMPDEST PUSH1 0xB SLOAD PUSH1 0x0 MSTORE PUSH1 0x1 DUP7 MSTORE PUSH2 0x43F1 PUSH1 0x2 DUP10 ADD PUSH1 0x2 PUSH1 0x40 PUSH1 0x0 KECCAK256 ADD PUSH2 0x9E40 JUMP JUMPDEST PUSH1 0xB SLOAD PUSH1 0x0 MSTORE PUSH1 0x1 DUP7 MSTORE PUSH2 0x440F PUSH1 0x3 DUP10 ADD PUSH1 0x3 PUSH1 0x40 PUSH1 0x0 KECCAK256 ADD PUSH2 0x9E40 JUMP JUMPDEST DUP1 SLOAD PUSH1 0xB SLOAD PUSH1 0x0 MSTORE PUSH1 0x1 DUP8 MSTORE PUSH1 0x7 PUSH1 0x40 PUSH1 0x0 KECCAK256 ADD SSTORE PUSH1 0x5 DUP3 ADD SLOAD PUSH1 0xB SLOAD PUSH1 0x0 MSTORE PUSH1 0x1 DUP8 MSTORE PUSH1 0x8 PUSH1 0x40 PUSH1 0x0 KECCAK256 ADD SSTORE PUSH1 0x1 DUP3 ADD SWAP7 PUSH1 0x1 DUP1 PUSH1 0xA0 SHL SUB DUP9 SLOAD AND PUSH1 0xB SLOAD PUSH1 0x0 MSTORE PUSH1 0x1 DUP9 MSTORE PUSH1 0x9 PUSH1 0x40 PUSH1 0x0 KECCAK256 ADD SWAP1 PUSH1 0x1 DUP1 PUSH1 0xA0 SHL SUB AND PUSH1 0x1 DUP1 PUSH1 0xA0 SHL SUB NOT DUP3 SLOAD AND OR SWAP1 SSTORE PUSH1 0xB SLOAD PUSH1 0x0 MSTORE PUSH1 0x1 DUP8 MSTORE TIMESTAMP PUSH1 0xA PUSH1 0x40 PUSH1 0x0 KECCAK256 ADD SSTORE PUSH1 0xB SLOAD PUSH1 0x0 MSTORE PUSH1 0x1 DUP8 MSTORE PUSH1 0xB PUSH1 0x40 PUSH1 0x0 KECCAK256 ADD PUSH1 0x1 PUSH1 0xFF NOT DUP3 SLOAD AND OR SWAP1 SSTORE PUSH1 0x6 PUSH1 0x0 SWAP10 ADD SWAP9 JUMPDEST DUP10 SLOAD DUP2 LT ISZERO PUSH2 0x44F2 JUMPI PUSH1 0x1 SWAP1 PUSH1 0xB SLOAD PUSH1 0x0 MSTORE DUP2 DUP10 MSTORE PUSH2 0x44EC DUP12 PUSH2 0x44D8 DUP4 PUSH1 0x6 PUSH1 0x40 PUSH1 0x0 KECCAK256 ADD SWAP3 PUSH2 0x8D15 JUMP JUMPDEST DUP6 DUP1 PUSH1 0xA0 SHL SUB SWAP2 SLOAD SWAP1 PUSH1 0x3 SHL SHR AND SWAP1 PUSH2 0x9618 JUMP JUMPDEST ADD PUSH2 0x44AD JUMP JUMPDEST POP DUP6 SWAP9 POP PUSH2 0x4525 PUSH2 0x4530 SWAP3 SWAP4 SWAP5 SWAP7 SWAP6 SWAP9 PUSH1 0xB SLOAD PUSH1 0x0 MSTORE PUSH1 0x1 DUP10 MSTORE PUSH1 0x6 PUSH1 0x40 PUSH1 0x0 KECCAK256 ADD SWAP1 PUSH1 0x1 DUP1 PUSH1 0xA0 SHL SUB SWAP1 SLOAD AND SWAP1 PUSH2 0x9618 JUMP JUMPDEST PUSH1 0xB SLOAD DUP1 SWAP2 SSTORE PUSH2 0x93F8 JUMP JUMPDEST PUSH1 0xB SSTORE PUSH2 0x422C JUMP JUMPDEST PUSH1 0x40 MLOAD PUSH3 0x461BCD PUSH1 0xE5 SHL DUP2 MSTORE PUSH1 0x4 DUP2 ADD DUP11 SWAP1 MSTORE PUSH1 0x1D PUSH1 0x24 DUP3 ADD MSTORE PUSH32 0x496E73756666696369656E742070726F64756374207175616E74697479000000 PUSH1 0x44 DUP3 ADD MSTORE PUSH1 0x64 SWAP1 REVERT JUMPDEST PUSH1 0x40 MLOAD PUSH3 0x461BCD PUSH1 0xE5 SHL DUP2 MSTORE PUSH1 0x4 DUP2 ADD DUP7 SWAP1 MSTORE PUSH1 0x3B PUSH1 0x24 DUP3 ADD MSTORE PUSH32 0x7061796D656E745F73656E742063616E206F6E6C792062652061646465642074 PUSH1 0x44 DUP3 ADD MSTORE PUSH27 0x343937BAB3B4103830BCA337B927B93232B910333AB731BA34B7B7 PUSH1 0x29 SHL PUSH1 0x64 DUP3 ADD MSTORE PUSH1 0x84 SWAP1 REVERT JUMPDEST PUSH1 0x1 DUP4 ADD SLOAD PUSH1 0x1 PUSH1 0x1 PUSH1 0xA0 SHL SUB AND CALLER EQ PUSH2 0x40D7 JUMPI PUSH1 0x40 MLOAD PUSH3 0x461BCD PUSH1 0xE5 SHL DUP2 MSTORE PUSH1 0x4 DUP2 ADD DUP7 SWAP1 MSTORE PUSH1 0x1F PUSH1 0x24 DUP3 ADD MSTORE PUSH32 0x4F6E6C792062757965722063616E20616464206275796572206576656E747300 PUSH1 0x44 DUP3 ADD MSTORE PUSH1 0x64 SWAP1 REVERT JUMPDEST POP DUP6 MLOAD DUP3 KECCAK256 PUSH2 0x464C PUSH2 0x96F0 JUMP JUMPDEST DUP7 DUP2 MLOAD SWAP2 ADD KECCAK256 EQ PUSH2 0x40D2 JUMP JUMPDEST PUSH1 0x2 DUP4 ADD SLOAD PUSH1 0x1 PUSH1 0x1 PUSH1 0xA0 SHL SUB AND CALLER EQ PUSH2 0x40B8 JUMPI PUSH1 0x40 MLOAD PUSH3 0x461BCD PUSH1 0xE5 SHL DUP2 MSTORE PUSH1 0x4 DUP2 ADD DUP7 SWAP1 MSTORE PUSH1 0x23 PUSH1 0x24 DUP3 ADD MSTORE PUSH32 0x4F6E6C792073656C6C65722063616E2061646420737570706C69657220657665 PUSH1 0x44 DUP3 ADD MSTORE PUSH3 0x6E7473 PUSH1 0xE8 SHL PUSH1 0x64 DUP3 ADD MSTORE PUSH1 0x84 SWAP1 REVERT JUMPDEST POP DUP6 MLOAD DUP3 KECCAK256 PUSH2 0x46CA PUSH2 0x9DF4 JUMP JUMPDEST DUP7 DUP2 MLOAD SWAP2 ADD KECCAK256 EQ PUSH2 0x40B3 JUMP JUMPDEST POP DUP6 MLOAD DUP3 KECCAK256 PUSH2 0x46E3 PUSH2 0x9DD0 JUMP JUMPDEST DUP7 DUP2 MLOAD SWAP2 ADD KECCAK256 EQ PUSH2 0x40AC JUMP JUMPDEST PUSH1 0x40 MLOAD PUSH3 0x461BCD PUSH1 0xE5 SHL DUP2 MSTORE PUSH1 0x4 DUP2 ADD DUP7 SWAP1 MSTORE PUSH1 0x15 PUSH1 0x24 DUP3 ADD MSTORE PUSH21 0x4F72646572206D7573742062652070656E64696E67 PUSH1 0x58 SHL PUSH1 0x44 DUP3 ADD MSTORE PUSH1 0x64 SWAP1 REVERT JUMPDEST PUSH1 0x40 MLOAD PUSH3 0x461BCD PUSH1 0xE5 SHL DUP2 MSTORE PUSH1 0x4 DUP2 ADD DUP7 SWAP1 MSTORE PUSH1 0x1C PUSH1 0x24 DUP3 ADD MSTORE PUSH28 0x105C1C1C9BDD9959081B5D5CDD08189948199A5C9CDD08195D995B9D PUSH1 0x22 SHL PUSH1 0x44 DUP3 ADD MSTORE PUSH1 0x64 SWAP1 REVERT JUMPDEST SWAP1 POP DUP7 MLOAD DUP4 KECCAK256 PUSH2 0x477E PUSH2 0x9DD0 JUMP JUMPDEST DUP1 MLOAD SWAP1 DUP9 ADD KECCAK256 SUB PUSH2 0x47ED JUMPI DUP6 DUP2 MLOAD SWAP2 ADD KECCAK256 PUSH2 0x4797 PUSH2 0x9A1E JUMP JUMPDEST DUP7 DUP2 MLOAD SWAP2 ADD KECCAK256 SUB PUSH2 0x47A8 JUMPI JUMPDEST PUSH2 0x4092 JUMP JUMPDEST PUSH1 0x40 MLOAD PUSH3 0x461BCD PUSH1 0xE5 SHL DUP2 MSTORE PUSH1 0x4 DUP2 ADD DUP7 SWAP1 MSTORE PUSH1 0x1F PUSH1 0x24 DUP3 ADD MSTORE PUSH32 0x4D75737420626520617070726F766564206265666F7265207061636B696E6700 PUSH1 0x44 DUP3 ADD MSTORE PUSH1 0x64 SWAP1 REVERT JUMPDEST DUP7 MLOAD DUP4 KECCAK256 PUSH2 0x47F9 PUSH2 0x9DF4 JUMP JUMPDEST DUP1 MLOAD SWAP1 DUP9 ADD KECCAK256 SUB PUSH2 0x4862 JUMPI DUP6 DUP2 MLOAD SWAP2 ADD KECCAK256 PUSH2 0x4812 PUSH2 0x9DD0 JUMP JUMPDEST DUP1 MLOAD SWAP1 DUP8 ADD KECCAK256 EQ PUSH2 0x4092 JUMPI PUSH1 0x40 MLOAD PUSH3 0x461BCD PUSH1 0xE5 SHL DUP2 MSTORE PUSH1 0x4 DUP2 ADD DUP7 SWAP1 MSTORE PUSH1 0x1E PUSH1 0x24 DUP3 ADD MSTORE PUSH32 0x4D757374206265207061636B6564206265666F7265207368697070696E670000 PUSH1 0x44 DUP3 ADD MSTORE PUSH1 0x64 SWAP1 REVERT JUMPDEST DUP7 MLOAD DUP4 KECCAK256 PUSH2 0x486E PUSH2 0x9E19 JUMP JUMPDEST DUP1 MLOAD SWAP1 DUP9 ADD KECCAK256 SUB PUSH2 0x48D7 JUMPI DUP6 DUP2 MLOAD SWAP2 ADD KECCAK256 PUSH2 0x4887 PUSH2 0x9DF4 JUMP JUMPDEST DUP1 MLOAD SWAP1 DUP8 ADD KECCAK256 EQ PUSH2 0x4092 JUMPI PUSH1 0x40 MLOAD PUSH3 0x461BCD PUSH1 0xE5 SHL DUP2 MSTORE PUSH1 0x4 DUP2 ADD DUP7 SWAP1 MSTORE PUSH1 0x1F PUSH1 0x24 DUP3 ADD MSTORE PUSH32 0x4D7573742062652073686970706564206265666F72652064656C697665727900 PUSH1 0x44 DUP3 ADD MSTORE PUSH1 0x64 SWAP1 REVERT JUMPDEST DUP7 MLOAD DUP4 KECCAK256 PUSH2 0x48E3 PUSH2 0x96F0 JUMP JUMPDEST DUP1 MLOAD SWAP1 DUP9 ADD KECCAK256 SUB PUSH2 0x495B JUMPI DUP6 DUP2 MLOAD SWAP2 ADD KECCAK256 PUSH2 0x48FC PUSH2 0x9E19 JUMP JUMPDEST DUP7 DUP2 MLOAD SWAP2 ADD KECCAK256 EQ PUSH2 0x47A3 JUMPI PUSH1 0x40 MLOAD PUSH3 0x461BCD PUSH1 0xE5 SHL DUP2 MSTORE PUSH1 0x4 DUP2 ADD DUP7 SWAP1 MSTORE PUSH1 0x26 PUSH1 0x24 DUP3 ADD MSTORE PUSH32 0x4D7573742062652064656C697665726564206265666F7265207175616C697479 PUSH1 0x44 DUP3 ADD MSTORE PUSH6 0x20636865636B PUSH1 0xD0 SHL PUSH1 0x64 DUP3 ADD MSTORE PUSH1 0x84 SWAP1 REVERT JUMPDEST DUP7 MLOAD DUP4 KECCAK256 PUSH2 0x4967 PUSH2 0x971D JUMP JUMPDEST DUP8 DUP2 MLOAD SWAP2 ADD KECCAK256 EQ PUSH2 0x4979 JUMPI JUMPDEST POP PUSH2 0x4092 JUMP JUMPDEST DUP6 DUP2 MLOAD SWAP2 ADD KECCAK256 PUSH2 0x4987 PUSH2 0x96F0 JUMP JUMPDEST DUP7 DUP2 MLOAD SWAP2 ADD KECCAK256 SUB PUSH2 0x4998 JUMPI DUP8 PUSH2 0x4973 JUMP JUMPDEST PUSH1 0x40 MLOAD PUSH3 0x461BCD PUSH1 0xE5 SHL DUP2 MSTORE PUSH1 0x4 DUP2 ADD DUP7 SWAP1 MSTORE PUSH1 0x2A PUSH1 0x24 DUP3 ADD MSTORE PUSH32 0x4D75737420636F6D706C657465207175616C69747920636865636B206265666F PUSH1 0x44 DUP3 ADD MSTORE PUSH10 0x1C99481C185E5B595B9D PUSH1 0xB2 SHL PUSH1 0x64 DUP3 ADD MSTORE PUSH1 0x84 SWAP1 REVERT JUMPDEST PUSH1 0x0 NOT DUP2 ADD SWAP4 POP DUP4 GT PUSH2 0x38B JUMPI PUSH2 0x4A24 PUSH2 0x4A0C PUSH1 0x1 SWAP5 DUP5 PUSH2 0x96D4 JUMP JUMPDEST POP PUSH2 0x4A1D PUSH1 0x40 MLOAD DUP1 SWAP7 DUP2 SWAP4 ADD PUSH2 0x8BEE JUMP JUMPDEST SUB DUP5 PUSH2 0x8A85 JUMP JUMPDEST DUP3 MLOAD DUP7 DUP5 ADD KECCAK256 DUP8 MLOAD DUP9 DUP9 ADD KECCAK256 EQ PUSH2 0x4A3B JUMPI DUP9 PUSH2 0x4042 JUMP JUMPDEST PUSH1 0x40 MLOAD PUSH3 0x461BCD PUSH1 0xE5 SHL DUP2 MSTORE PUSH1 0x4 DUP2 ADD DUP8 SWAP1 MSTORE PUSH1 0x14 PUSH1 0x24 DUP3 ADD MSTORE PUSH20 0x4576656E7420616C726561647920657869737473 PUSH1 0x60 SHL PUSH1 0x44 DUP3 ADD MSTORE PUSH1 0x64 SWAP1 REVERT JUMPDEST PUSH1 0x40 MLOAD PUSH3 0x461BCD PUSH1 0xE5 SHL DUP2 MSTORE PUSH1 0x20 PUSH1 0x4 DUP3 ADD MSTORE PUSH1 0x1B PUSH1 0x24 DUP3 ADD MSTORE PUSH27 0x4465736372697074696F6E2063616E6E6F7420626520656D707479 PUSH1 0x28 SHL PUSH1 0x44 DUP3 ADD MSTORE PUSH1 0x64 SWAP1 REVERT JUMPDEST PUSH1 0x40 MLOAD PUSH3 0x461BCD PUSH1 0xE5 SHL DUP2 MSTORE PUSH1 0x20 PUSH1 0x4 DUP3 ADD MSTORE PUSH1 0x16 PUSH1 0x24 DUP3 ADD MSTORE PUSH22 0x5374617475732063616E6E6F7420626520656D707479 PUSH1 0x50 SHL PUSH1 0x44 DUP3 ADD MSTORE PUSH1 0x64 SWAP1 REVERT JUMPDEST POP PUSH1 0x0 DUP4 DUP2 MSTORE PUSH1 0x4 PUSH1 0x20 MSTORE PUSH1 0x40 SWAP1 KECCAK256 PUSH1 0x2 ADD SLOAD PUSH1 0x1 PUSH1 0x1 PUSH1 0xA0 SHL SUB AND CALLER EQ PUSH2 0x3FF8 JUMP JUMPDEST CALLVALUE PUSH2 0x31E JUMPI PUSH1 0x20 CALLDATASIZE PUSH1 0x3 NOT ADD SLT PUSH2 0x31E JUMPI PUSH1 0x4 CALLDATALOAD PUSH1 0x0 MSTORE PUSH1 0x2 PUSH1 0x20 MSTORE PUSH1 0x40 PUSH1 0x0 KECCAK256 DUP1 SLOAD PUSH1 0x1 DUP1 PUSH1 0xA0 SHL SUB PUSH1 0x1 DUP4 ADD SLOAD AND SWAP2 PUSH2 0x4BBE PUSH1 0x1 DUP1 PUSH1 0xA0 SHL SUB PUSH1 0x2 DUP4 ADD SLOAD AND SWAP2 PUSH1 0x3 DUP2 ADD SLOAD PUSH1 0x4 DUP3 ADD SLOAD PUSH1 0x5 DUP4 ADD SLOAD SWAP2 PUSH1 0xFF PUSH1 0x8 PUSH1 0x40 MLOAD SWAP6 PUSH2 0x4B86 DUP8 PUSH2 0x3713 DUP2 PUSH1 0x6 DUP6 ADD PUSH2 0x8BEE JUMP JUMPDEST ADD SLOAD AND SWAP6 PUSH1 0x40 MLOAD SWAP9 DUP10 SWAP9 DUP10 MSTORE PUSH1 0x20 DUP10 ADD MSTORE PUSH1 0x40 DUP9 ADD MSTORE PUSH1 0x60 DUP8 ADD MSTORE PUSH1 0x80 DUP7 ADD MSTORE PUSH1 0xA0 DUP6 ADD MSTORE PUSH2 0x100 PUSH1 0xC0 DUP6 ADD MSTORE PUSH2 0x100 DUP5 ADD SWAP1 PUSH2 0x88FD JUMP JUMPDEST SWAP1 ISZERO ISZERO PUSH1 0xE0 DUP4 ADD MSTORE SUB SWAP1 RETURN JUMPDEST CALLVALUE PUSH2 0x31E JUMPI PUSH1 0x0 CALLDATASIZE PUSH1 0x3 NOT ADD SLT PUSH2 0x31E JUMPI PUSH1 0x40 MLOAD PUSH1 0x6 DUP1 SLOAD DUP1 DUP4 MSTORE PUSH1 0x0 SWAP2 DUP3 MSTORE PUSH1 0x20 DUP4 ADD SWAP2 PUSH32 0xF652222313E28459528D920B65115C16C04F3EFC82AAEDC97BE59F3F377C0D3F SWAP2 SWAP1 JUMPDEST DUP2 DUP2 LT PUSH2 0x4C2A JUMPI PUSH2 0x626 DUP6 PUSH2 0xB01 DUP2 DUP8 SUB DUP3 PUSH2 0x8A85 JUMP JUMPDEST DUP3 SLOAD DUP5 MSTORE PUSH1 0x20 SWAP1 SWAP4 ADD SWAP3 PUSH1 0x1 SWAP3 DUP4 ADD SWAP3 ADD PUSH2 0x4C13 JUMP JUMPDEST CALLVALUE PUSH2 0x31E JUMPI PUSH1 0x20 CALLDATASIZE PUSH1 0x3 NOT ADD SLT PUSH2 0x31E JUMPI PUSH2 0x4C59 PUSH2 0x896A JUMP JUMPDEST PUSH1 0xC SLOAD SWAP1 PUSH2 0x4C66 DUP3 PUSH2 0x93A5 JUMP JUMPDEST SWAP2 PUSH1 0x0 SWAP2 PUSH1 0x1 JUMPDEST DUP3 DUP2 LT PUSH2 0x4CC0 JUMPI POP POP POP PUSH2 0x4C80 DUP2 PUSH2 0x93A5 JUMP JUMPDEST SWAP2 PUSH1 0x0 JUMPDEST DUP3 DUP2 LT PUSH2 0x4CA1 JUMPI PUSH1 0x40 MLOAD PUSH1 0x20 DUP1 DUP3 MSTORE DUP2 SWAP1 PUSH2 0x626 SWAP1 DUP3 ADD DUP8 PUSH2 0x8996 JUMP JUMPDEST DUP1 PUSH2 0x4CAE PUSH1 0x1 SWAP3 DUP5 PUSH2 0x93E4 JUMP JUMPDEST MLOAD PUSH2 0x4CB9 DUP3 DUP8 PUSH2 0x93E4 JUMP JUMPDEST MSTORE ADD PUSH2 0x4C84 JUMP JUMPDEST DUP1 PUSH1 0x0 MSTORE PUSH1 0x2 PUSH1 0x20 MSTORE PUSH1 0xFF PUSH1 0x8 PUSH1 0x40 PUSH1 0x0 KECCAK256 ADD SLOAD AND DUP1 PUSH2 0x4D48 JUMPI JUMPDEST DUP1 PUSH2 0x4D08 JUMPI JUMPDEST PUSH2 0x4CEE JUMPI JUMPDEST PUSH1 0x1 ADD PUSH2 0x4C6D JUMP JUMPDEST SWAP3 PUSH2 0x4D00 DUP2 DUP6 PUSH2 0x5A2 PUSH1 0x1 SWAP5 DUP10 PUSH2 0x93E4 JUMP JUMPDEST SWAP4 SWAP1 POP PUSH2 0x4CE6 JUMP JUMPDEST POP DUP1 PUSH1 0x0 MSTORE PUSH1 0x2 PUSH1 0x20 MSTORE PUSH2 0x3E7 PUSH2 0x4D2C PUSH1 0x6 PUSH1 0x40 PUSH1 0x0 KECCAK256 ADD PUSH1 0x40 MLOAD SWAP3 DUP4 DUP1 SWAP3 PUSH2 0x8BEE JUMP JUMPDEST PUSH1 0x20 DUP2 MLOAD SWAP2 ADD KECCAK256 PUSH2 0x4D3B PUSH2 0x9D29 JUMP JUMPDEST PUSH1 0x20 DUP2 MLOAD SWAP2 ADD KECCAK256 EQ PUSH2 0x4CE1 JUMP JUMPDEST POP PUSH1 0x0 DUP2 DUP2 MSTORE PUSH1 0x2 PUSH1 0x20 MSTORE PUSH1 0x40 SWAP1 KECCAK256 PUSH1 0x1 ADD SLOAD PUSH1 0x1 PUSH1 0x1 PUSH1 0xA0 SHL SUB DUP4 DUP2 AND SWAP2 AND DUP2 EQ SWAP1 DUP2 ISZERO PUSH2 0x4D78 JUMPI JUMPDEST POP PUSH2 0x4CDB JUMP JUMPDEST PUSH1 0x0 DUP4 DUP2 MSTORE PUSH1 0x2 PUSH1 0x20 DUP2 SWAP1 MSTORE PUSH1 0x40 SWAP1 SWAP2 KECCAK256 ADD SLOAD PUSH1 0x1 PUSH1 0x1 PUSH1 0xA0 SHL SUB AND EQ SWAP1 POP DUP7 PUSH2 0x4D72 JUMP JUMPDEST CALLVALUE PUSH2 0x31E JUMPI PUSH1 0x40 CALLDATASIZE PUSH1 0x3 NOT ADD SLT PUSH2 0x31E JUMPI PUSH2 0x4DB6 PUSH2 0x896A JUMP JUMPDEST PUSH1 0x1 PUSH1 0x1 PUSH1 0xA0 SHL SUB AND PUSH1 0x0 SWAP1 DUP2 MSTORE PUSH1 0x9 PUSH1 0x20 MSTORE PUSH1 0x40 SWAP1 KECCAK256 DUP1 SLOAD PUSH1 0x24 CALLDATALOAD SWAP2 SWAP1 DUP3 LT ISZERO PUSH2 0x31E JUMPI PUSH1 0x20 SWAP2 PUSH2 0x30F SWAP2 PUSH2 0x8D15 JUMP JUMPDEST CALLVALUE PUSH2 0x31E JUMPI PUSH2 0x4DF5 CALLDATASIZE PUSH2 0x8D80 JUMP JUMPDEST CALLER PUSH1 0x0 MSTORE PUSH1 0x0 PUSH1 0x20 MSTORE PUSH2 0x4E15 PUSH1 0xFF PUSH1 0x2 PUSH1 0x40 PUSH1 0x0 KECCAK256 ADD SLOAD PUSH1 0xA0 SHR AND PUSH2 0x9407 JUMP JUMPDEST PUSH2 0x4E21 DUP3 MLOAD ISZERO ISZERO PUSH2 0x9D4F JUMP JUMPDEST PUSH1 0x1 PUSH1 0x1 PUSH1 0xA0 SHL SUB AND PUSH2 0x4E35 DUP2 ISZERO ISZERO PUSH2 0x9D92 JUMP JUMPDEST CALLER PUSH1 0x0 MSTORE PUSH1 0x0 PUSH1 0x20 MSTORE PUSH1 0x40 PUSH1 0x0 KECCAK256 SWAP2 PUSH1 0x1 DUP4 ADD DUP2 MLOAD PUSH1 0x1 DUP1 PUSH1 0x40 SHL SUB DUP2 GT PUSH2 0x832 JUMPI PUSH2 0x4E65 DUP2 PUSH2 0xE52 DUP5 SLOAD PUSH2 0x8BB4 JUMP JUMPDEST PUSH1 0x20 PUSH1 0x1F DUP3 GT PUSH1 0x1 EQ PUSH2 0x4EDA JUMPI SWAP2 PUSH2 0x4E99 DUP3 PUSH1 0x0 DUP1 MLOAD PUSH1 0x20 PUSH2 0xA46D DUP4 CODECOPY DUP2 MLOAD SWAP2 MSTORE SWAP7 SWAP8 SWAP4 PUSH1 0x2 SWAP6 PUSH1 0x0 SWAP2 PUSH2 0x4ECF JUMPI POP PUSH2 0x9586 JUMP JUMPDEST SWAP1 SSTORE JUMPDEST ADD DUP1 SLOAD PUSH1 0x1 PUSH1 0x1 PUSH1 0xA0 SHL SUB NOT AND DUP5 OR SWAP1 SSTORE PUSH1 0x40 DUP1 MLOAD DUP2 DUP2 MSTORE SWAP2 PUSH2 0x4EC1 SWAP2 DUP4 ADD SWAP1 PUSH2 0x88FD JUMP JUMPDEST SWAP3 PUSH1 0x20 DUP3 ADD MSTORE DUP1 CALLER SWAP4 SUB SWAP1 LOG2 STOP JUMPDEST SWAP1 POP DUP7 ADD MLOAD DUP10 PUSH2 0x3B33 JUMP JUMPDEST PUSH1 0x1F NOT DUP3 AND SWAP1 DUP4 PUSH1 0x0 MSTORE DUP1 PUSH1 0x0 KECCAK256 SWAP2 PUSH1 0x0 JUMPDEST DUP2 DUP2 LT PUSH2 0x4F3A JUMPI POP SWAP3 PUSH1 0x2 SWAP5 SWAP3 PUSH1 0x1 SWAP3 DUP3 PUSH1 0x0 DUP1 MLOAD PUSH1 0x20 PUSH2 0xA46D DUP4 CODECOPY DUP2 MLOAD SWAP2 MSTORE SWAP10 SWAP11 SWAP7 LT PUSH2 0x4F21 JUMPI JUMPDEST POP POP DUP2 SHL ADD SWAP1 SSTORE PUSH2 0x4E9C JUMP JUMPDEST DUP8 ADD MLOAD PUSH1 0x0 NOT PUSH1 0xF8 DUP5 PUSH1 0x3 SHL AND SHR NOT AND SWAP1 SSTORE DUP9 DUP1 PUSH2 0x4F15 JUMP JUMPDEST SWAP2 SWAP3 PUSH1 0x20 PUSH1 0x1 DUP2 SWAP3 DUP7 DUP11 ADD MLOAD DUP2 SSTORE ADD SWAP5 ADD SWAP3 ADD PUSH2 0x4EEC JUMP JUMPDEST CALLVALUE PUSH2 0x31E JUMPI PUSH1 0x20 CALLDATASIZE PUSH1 0x3 NOT ADD SLT PUSH2 0x31E JUMPI PUSH1 0x0 PUSH1 0xC0 PUSH1 0x40 MLOAD PUSH2 0x4F73 DUP2 PUSH2 0x8A32 JUMP JUMPDEST DUP3 DUP2 MSTORE DUP3 PUSH1 0x20 DUP3 ADD MSTORE DUP3 PUSH1 0x40 DUP3 ADD MSTORE DUP3 PUSH1 0x60 DUP3 ADD MSTORE DUP3 PUSH1 0x80 DUP3 ADD MSTORE DUP3 PUSH1 0xA0 DUP3 ADD MSTORE ADD MSTORE PUSH1 0x4 CALLDATALOAD PUSH1 0x0 MSTORE PUSH1 0x3 PUSH1 0x20 MSTORE PUSH1 0xE0 PUSH1 0x40 PUSH1 0x0 KECCAK256 PUSH1 0x40 MLOAD PUSH2 0x4FB4 DUP2 PUSH2 0x8A32 JUMP JUMPDEST DUP2 SLOAD SWAP2 DUP3 DUP3 MSTORE PUSH1 0x1 DUP2 ADD SLOAD PUSH1 0x20 DUP4 ADD SWAP1 DUP2 MSTORE PUSH1 0x1 DUP1 PUSH1 0xA0 SHL SUB PUSH1 0x2 DUP4 ADD SLOAD AND PUSH1 0x40 DUP5 ADD SWAP1 DUP2 MSTORE PUSH1 0x3 DUP4 ADD SLOAD SWAP1 PUSH1 0x60 DUP6 ADD SWAP2 DUP3 MSTORE PUSH1 0x4 DUP5 ADD SLOAD SWAP3 PUSH1 0x80 DUP7 ADD SWAP4 DUP5 MSTORE PUSH1 0xC0 PUSH1 0xFF PUSH1 0x6 PUSH1 0x5 DUP9 ADD SLOAD SWAP8 PUSH1 0xA0 DUP11 ADD SWAP9 DUP10 MSTORE ADD SLOAD AND SWAP7 ADD SWAP6 ISZERO ISZERO DUP7 MSTORE PUSH1 0x40 MLOAD SWAP7 DUP8 MSTORE MLOAD PUSH1 0x20 DUP8 ADD MSTORE PUSH1 0x1 DUP1 PUSH1 0xA0 SHL SUB SWAP1 MLOAD AND PUSH1 0x40 DUP7 ADD MSTORE MLOAD PUSH1 0x60 DUP6 ADD MSTORE MLOAD PUSH1 0x80 DUP5 ADD MSTORE MLOAD PUSH1 0xA0 DUP4 ADD MSTORE MLOAD ISZERO ISZERO PUSH1 0xC0 DUP3 ADD MSTORE RETURN JUMPDEST CALLVALUE PUSH2 0x31E JUMPI PUSH1 0x20 CALLDATASIZE PUSH1 0x3 NOT ADD SLT PUSH2 0x31E JUMPI PUSH1 0x4 CALLDATALOAD PUSH1 0x0 MSTORE PUSH1 0x1 PUSH1 0x20 MSTORE PUSH1 0x20 PUSH1 0x40 PUSH1 0x0 KECCAK256 DUP1 SLOAD SWAP1 PUSH1 0x40 MLOAD PUSH2 0x5082 DUP2 PUSH2 0x3E7 DUP2 PUSH1 0x1 DUP7 ADD PUSH2 0x8BEE JUMP JUMPDEST PUSH1 0x40 MLOAD SWAP2 PUSH2 0x5097 DUP4 PUSH2 0x4A1D DUP2 PUSH1 0x2 DUP6 ADD PUSH2 0x8BEE JUMP JUMPDEST PUSH1 0x40 MLOAD SWAP3 PUSH2 0x50B3 DUP5 PUSH2 0x50AC DUP2 PUSH1 0x3 DUP7 ADD PUSH2 0x8BEE JUMP JUMPDEST SUB DUP6 PUSH2 0x8A85 JUMP JUMPDEST PUSH1 0x5 DUP3 ADD SLOAD SWAP4 PUSH1 0x7 DUP4 ADD SLOAD PUSH2 0x511F PUSH1 0x8 DUP6 ADD SLOAD SWAP3 PUSH2 0x5111 PUSH1 0x1 DUP1 PUSH1 0xA0 SHL SUB PUSH1 0x9 DUP9 ADD SLOAD AND SWAP6 PUSH2 0x5103 PUSH1 0xFF PUSH1 0xB PUSH1 0xA DUP12 ADD SLOAD SWAP11 ADD SLOAD AND SWAP10 PUSH2 0x160 PUSH1 0x40 MLOAD SWAP15 DUP16 SWAP15 DUP16 SWAP1 DUP2 MSTORE ADD MSTORE PUSH2 0x160 DUP14 ADD SWAP1 PUSH2 0x88FD JUMP JUMPDEST SWAP1 DUP12 DUP3 SUB PUSH1 0x40 DUP14 ADD MSTORE PUSH2 0x88FD JUMP JUMPDEST SWAP1 DUP10 DUP3 SUB PUSH1 0x60 DUP12 ADD MSTORE PUSH2 0x88FD JUMP JUMPDEST PUSH1 0xFF DUP8 AND ISZERO ISZERO PUSH1 0x80 DUP10 ADD MSTORE PUSH1 0x8 SWAP7 SWAP1 SWAP7 SHR PUSH1 0x1 PUSH1 0x1 PUSH1 0xA0 SHL SUB AND PUSH1 0xA0 DUP9 ADD MSTORE PUSH1 0xC0 DUP8 ADD MSTORE PUSH1 0xE0 DUP7 ADD MSTORE PUSH2 0x100 DUP6 ADD MSTORE PUSH2 0x120 DUP5 ADD MSTORE ISZERO ISZERO PUSH2 0x140 DUP4 ADD MSTORE SUB SWAP1 RETURN JUMPDEST PUSH2 0x8C71 JUMP JUMPDEST CALLVALUE PUSH2 0x31E JUMPI PUSH1 0x40 CALLDATASIZE PUSH1 0x3 NOT ADD SLT PUSH2 0x31E JUMPI PUSH2 0x517E PUSH2 0x896A JUMP JUMPDEST PUSH1 0x24 CALLDATALOAD PUSH1 0x1 PUSH1 0x1 PUSH1 0x40 SHL SUB DUP2 GT PUSH2 0x31E JUMPI PUSH2 0x519D SWAP1 CALLDATASIZE SWAP1 PUSH1 0x4 ADD PUSH2 0x8AA8 JUMP JUMPDEST SWAP1 PUSH1 0x1 DUP1 PUSH1 0xA0 SHL SUB AND PUSH1 0x0 MSTORE PUSH1 0x9 PUSH1 0x20 MSTORE PUSH1 0x40 PUSH1 0x0 KECCAK256 SWAP1 PUSH1 0x40 MLOAD DUP1 DUP4 PUSH1 0x20 DUP3 SWAP6 SLOAD SWAP4 DUP5 DUP2 MSTORE ADD SWAP1 PUSH1 0x0 MSTORE PUSH1 0x20 PUSH1 0x0 KECCAK256 SWAP3 PUSH1 0x0 JUMPDEST DUP2 DUP2 LT PUSH2 0x52B9 JUMPI POP POP PUSH2 0x51E5 SWAP3 POP SUB DUP4 PUSH2 0x8A85 JUMP JUMPDEST PUSH2 0x51EF DUP3 MLOAD PUSH2 0x93A5 JUMP JUMPDEST SWAP2 PUSH1 0x0 SWAP1 DUP2 SWAP3 PUSH1 0x20 DUP2 ADD SWAP4 JUMPDEST DUP3 MLOAD DUP2 LT ISZERO PUSH2 0x526E JUMPI PUSH2 0x520E DUP2 DUP5 PUSH2 0x93E4 JUMP JUMPDEST MLOAD PUSH1 0x0 MSTORE PUSH1 0x4 PUSH1 0x20 MSTORE PUSH2 0x3E7 PUSH2 0x5231 PUSH1 0x8 PUSH1 0x40 PUSH1 0x0 KECCAK256 ADD PUSH1 0x40 MLOAD SWAP3 DUP4 DUP1 SWAP3 PUSH2 0x8BEE JUMP JUMPDEST PUSH1 0x20 DUP2 MLOAD SWAP2 ADD KECCAK256 DUP3 MLOAD DUP7 KECCAK256 EQ PUSH2 0x524A JUMPI JUMPDEST PUSH1 0x1 ADD PUSH2 0x51FB JUMP JUMPDEST SWAP3 PUSH2 0x5266 PUSH1 0x1 SWAP2 PUSH2 0x525B DUP7 DUP7 PUSH2 0x93E4 JUMP JUMPDEST MLOAD PUSH2 0x5A2 DUP3 DUP11 PUSH2 0x93E4 JUMP JUMPDEST SWAP4 SWAP1 POP PUSH2 0x5242 JUMP JUMPDEST DUP6 DUP5 PUSH2 0x5279 DUP2 PUSH2 0x93A5 JUMP JUMPDEST SWAP2 PUSH1 0x0 JUMPDEST DUP3 DUP2 LT PUSH2 0x529A JUMPI PUSH1 0x40 MLOAD PUSH1 0x20 DUP1 DUP3 MSTORE DUP2 SWAP1 PUSH2 0x626 SWAP1 DUP3 ADD DUP8 PUSH2 0x8996 JUMP JUMPDEST DUP1 PUSH2 0x52A7 PUSH1 0x1 SWAP3 DUP5 PUSH2 0x93E4 JUMP JUMPDEST MLOAD PUSH2 0x52B2 DUP3 DUP8 PUSH2 0x93E4 JUMP JUMPDEST MSTORE ADD PUSH2 0x527D JUMP JUMPDEST DUP5 SLOAD DUP4 MSTORE PUSH1 0x1 SWAP5 DUP6 ADD SWAP5 DUP8 SWAP5 POP PUSH1 0x20 SWAP1 SWAP4 ADD SWAP3 ADD PUSH2 0x51D0 JUMP JUMPDEST CALLVALUE PUSH2 0x31E JUMPI PUSH1 0x20 CALLDATASIZE PUSH1 0x3 NOT ADD SLT PUSH2 0x31E JUMPI PUSH2 0x52EB PUSH2 0x896A JUMP JUMPDEST PUSH1 0x0 PUSH1 0x60 PUSH1 0x40 MLOAD PUSH2 0x52FB DUP2 PUSH2 0x89E0 JUMP JUMPDEST DUP3 DUP2 MSTORE DUP2 PUSH1 0x20 DUP3 ADD MSTORE DUP3 PUSH1 0x40 DUP3 ADD MSTORE ADD MSTORE PUSH1 0x1 DUP1 PUSH1 0xA0 SHL SUB AND DUP1 PUSH1 0x0 MSTORE PUSH1 0x0 PUSH1 0x20 MSTORE PUSH1 0xFF PUSH1 0x2 PUSH1 0x40 PUSH1 0x0 KECCAK256 ADD SLOAD PUSH1 0xA0 SHR AND ISZERO PUSH2 0x53CE JUMPI PUSH1 0x0 MSTORE PUSH1 0x0 PUSH1 0x20 MSTORE PUSH1 0x40 PUSH1 0x0 KECCAK256 PUSH1 0x40 MLOAD PUSH2 0x534A DUP2 PUSH2 0x89E0 JUMP JUMPDEST DUP2 SLOAD DUP2 MSTORE PUSH1 0x2 PUSH1 0x40 MLOAD SWAP3 PUSH2 0x5365 DUP5 PUSH2 0x50AC DUP2 PUSH1 0x1 DUP6 ADD PUSH2 0x8BEE JUMP JUMPDEST PUSH1 0x20 DUP4 ADD SWAP4 DUP5 MSTORE ADD SLOAD PUSH1 0x40 DUP3 ADD SWAP1 PUSH1 0x1 DUP1 PUSH1 0xA0 SHL SUB DUP2 AND DUP3 MSTORE PUSH1 0xFF PUSH1 0x60 DUP5 ADD SWAP2 PUSH1 0xA0 SHR AND ISZERO ISZERO DUP2 MSTORE PUSH2 0x53B2 PUSH1 0x40 MLOAD SWAP5 DUP6 SWAP5 PUSH1 0x20 DUP7 MSTORE MLOAD PUSH1 0x20 DUP7 ADD MSTORE MLOAD PUSH1 0x80 PUSH1 0x40 DUP7 ADD MSTORE PUSH1 0xA0 DUP6 ADD SWAP1 PUSH2 0x88FD JUMP JUMPDEST SWAP2 MLOAD PUSH1 0x1 PUSH1 0x1 PUSH1 0xA0 SHL SUB AND PUSH1 0x60 DUP5 ADD MSTORE MLOAD ISZERO ISZERO PUSH1 0x80 DUP4 ADD MSTORE SUB SWAP1 RETURN JUMPDEST PUSH1 0x40 MLOAD PUSH3 0x461BCD PUSH1 0xE5 SHL DUP2 MSTORE PUSH1 0x20 PUSH1 0x4 DUP3 ADD MSTORE PUSH1 0x11 PUSH1 0x24 DUP3 ADD MSTORE PUSH17 0x10DBDB5C185B9E481B9BDD08199BDD5B99 PUSH1 0x7A SHL PUSH1 0x44 DUP3 ADD MSTORE PUSH1 0x64 SWAP1 REVERT JUMPDEST CALLVALUE PUSH2 0x31E JUMPI PUSH1 0x20 CALLDATASIZE PUSH1 0x3 NOT ADD SLT PUSH2 0x31E JUMPI PUSH1 0x1 PUSH1 0x1 PUSH1 0xA0 SHL SUB PUSH2 0x5428 PUSH2 0x896A JUMP JUMPDEST AND PUSH1 0x0 MSTORE PUSH1 0x0 PUSH1 0x20 MSTORE PUSH1 0x20 PUSH1 0xFF PUSH1 0x2 PUSH1 0x40 PUSH1 0x0 KECCAK256 ADD SLOAD PUSH1 0xA0 SHR AND PUSH1 0x40 MLOAD SWAP1 ISZERO ISZERO DUP2 MSTORE RETURN JUMPDEST CALLVALUE PUSH2 0x31E JUMPI PUSH1 0x20 CALLDATASIZE PUSH1 0x3 NOT ADD SLT PUSH2 0x31E JUMPI PUSH1 0x4 CALLDATALOAD DUP1 PUSH1 0x0 MSTORE PUSH1 0x2 PUSH1 0x20 MSTORE PUSH2 0x547D PUSH1 0xFF PUSH1 0x8 PUSH1 0x40 PUSH1 0x0 KECCAK256 ADD SLOAD AND PUSH2 0x8EAF JUMP JUMPDEST PUSH1 0x0 MSTORE PUSH1 0x2 PUSH1 0x20 MSTORE PUSH1 0x7 PUSH1 0x40 PUSH1 0x0 KECCAK256 ADD DUP1 SLOAD PUSH2 0x549A DUP2 ISZERO ISZERO PUSH2 0x8FC0 JUMP JUMPDEST PUSH1 0x0 NOT DUP2 ADD SWAP1 DUP2 GT PUSH2 0x38B JUMPI PUSH2 0x54AF SWAP2 PUSH2 0x9012 JUMP JUMPDEST POP PUSH1 0x1 DUP2 ADD SLOAD PUSH1 0x4 DUP3 ADD SLOAD PUSH1 0x2 SWAP1 SWAP3 ADD SLOAD PUSH1 0x40 MLOAD SWAP3 DUP4 SWAP3 PUSH2 0x626 SWAP3 PUSH1 0x1 PUSH1 0x1 PUSH1 0xA0 SHL SUB AND SWAP2 SWAP1 DUP5 PUSH2 0x8D5F JUMP JUMPDEST CALLVALUE PUSH2 0x31E JUMPI PUSH2 0x54E9 CALLDATASIZE PUSH2 0x8D2D JUMP JUMPDEST SWAP2 DUP1 PUSH1 0x0 MSTORE PUSH1 0x2 PUSH1 0x20 MSTORE PUSH2 0x5507 PUSH1 0xFF PUSH1 0x8 PUSH1 0x40 PUSH1 0x0 KECCAK256 ADD SLOAD AND PUSH2 0x8EAF JUMP JUMPDEST DUP1 PUSH1 0x0 MSTORE PUSH1 0x2 PUSH1 0x20 MSTORE PUSH2 0x3E7 PUSH2 0x552A PUSH1 0x6 PUSH1 0x40 PUSH1 0x0 KECCAK256 ADD PUSH1 0x40 MLOAD SWAP3 DUP4 DUP1 SWAP3 PUSH2 0x8BEE JUMP JUMPDEST PUSH1 0x20 DUP2 MLOAD SWAP2 ADD KECCAK256 PUSH2 0x5539 PUSH2 0x9D29 JUMP JUMPDEST PUSH1 0x20 DUP2 MLOAD SWAP2 ADD KECCAK256 SUB PUSH2 0x5A34 JUMPI PUSH1 0x0 DUP2 DUP2 MSTORE PUSH1 0x2 PUSH1 0x20 DUP2 SWAP1 MSTORE PUSH1 0x40 SWAP1 SWAP2 KECCAK256 ADD SLOAD PUSH1 0x1 PUSH1 0x1 PUSH1 0xA0 SHL SUB AND CALLER SUB PUSH2 0x59F1 JUMPI PUSH2 0x5572 DUP3 ISZERO ISZERO PUSH2 0x94EF JUMP JUMPDEST DUP1 PUSH1 0x0 MSTORE PUSH1 0x2 PUSH1 0x20 MSTORE PUSH1 0x4 PUSH1 0x40 PUSH1 0x0 KECCAK256 ADD SLOAD TIMESTAMP LT ISZERO DUP1 PUSH2 0x59D6 JUMPI JUMPDEST ISZERO PUSH2 0x598E JUMPI DUP1 PUSH1 0x0 MSTORE PUSH1 0x2 PUSH1 0x20 MSTORE PUSH1 0x3 PUSH1 0x40 PUSH1 0x0 KECCAK256 ADD SLOAD PUSH1 0x0 MSTORE PUSH1 0x1 PUSH1 0x20 MSTORE PUSH1 0x40 PUSH1 0x0 KECCAK256 PUSH1 0x1 DUP1 PUSH1 0xA0 SHL SUB PUSH1 0x9 DUP3 ADD SLOAD AND DUP3 PUSH1 0x0 MSTORE PUSH1 0x2 PUSH1 0x20 MSTORE PUSH1 0x1 DUP1 PUSH1 0xA0 SHL SUB PUSH1 0x1 PUSH1 0x40 PUSH1 0x0 KECCAK256 ADD SLOAD AND SUB PUSH2 0x594F JUMPI DUP3 PUSH1 0x7 PUSH2 0x55ED SWAP3 ADD SLOAD LT ISZERO PUSH2 0x9CCD JUMP JUMPDEST PUSH1 0x0 MSTORE PUSH1 0x2 PUSH1 0x20 MSTORE PUSH1 0x40 PUSH1 0x0 KECCAK256 SWAP2 PUSH1 0x7 DUP4 ADD DUP1 SLOAD SWAP1 PUSH1 0x0 NOT DUP3 ADD SWAP2 DUP3 GT PUSH2 0x38B JUMPI PUSH1 0x1 SWAP2 PUSH2 0x561A SWAP2 PUSH2 0x9012 JUMP JUMPDEST POP ADD SLOAD SWAP1 DUP2 ISZERO PUSH2 0x2EDE JUMPI PUSH2 0x5634 DUP3 PUSH1 0x0 NOT DIV DUP5 GT ISZERO PUSH2 0x9C76 JUMP JUMPDEST PUSH2 0x563E DUP4 DUP4 PUSH2 0x9CBA JUMP JUMPDEST PUSH1 0xE DUP1 SLOAD PUSH1 0x0 DUP2 DUP2 MSTORE PUSH1 0x4 PUSH1 0x20 DUP2 SWAP1 MSTORE PUSH1 0x40 DUP1 DUP4 KECCAK256 SWAP4 DUP5 SSTORE PUSH1 0x2 DUP11 DUP2 ADD DUP1 SLOAD PUSH1 0x1 SWAP7 DUP8 ADD DUP1 SLOAD PUSH1 0x1 PUSH1 0x1 PUSH1 0xA0 SHL SUB NOT SWAP1 DUP2 AND PUSH1 0x1 PUSH1 0x1 PUSH1 0xA0 SHL SUB SWAP4 DUP5 AND OR SWAP1 SWAP2 SSTORE SWAP7 DUP14 ADD DUP1 SLOAD DUP10 SLOAD DUP9 MSTORE DUP6 DUP9 KECCAK256 SWAP1 SWAP5 ADD DUP1 SLOAD SWAP1 SWAP9 AND SWAP4 SWAP1 SWAP2 AND SWAP3 SWAP1 SWAP3 OR SWAP1 SWAP6 SSTORE PUSH1 0x3 SWAP11 DUP12 ADD SLOAD DUP7 SLOAD DUP6 MSTORE DUP3 DUP6 KECCAK256 SWAP1 SWAP12 ADD SWAP11 SWAP1 SWAP11 SSTORE DUP5 SLOAD DUP4 MSTORE DUP1 DUP4 KECCAK256 SWAP1 SWAP2 ADD DUP9 SWAP1 SSTORE DUP4 SLOAD DUP3 MSTORE DUP1 DUP3 KECCAK256 PUSH1 0x5 ADD SWAP7 SWAP1 SWAP7 SSTORE DUP3 SLOAD DUP2 MSTORE DUP6 DUP2 KECCAK256 PUSH1 0x6 ADD SWAP4 SWAP1 SWAP4 SSTORE SWAP1 SLOAD DUP3 MSTORE SWAP3 SWAP1 KECCAK256 PUSH1 0x7 ADD DUP1 SLOAD PUSH2 0x56F4 SWAP1 PUSH2 0xCC5 SWAP1 PUSH2 0x8BB4 JUMP JUMPDEST PUSH1 0x18 PUSH12 0x72656C6174696F6E7368697 PUSH1 0xA4 SHL ADD SWAP1 SSTORE PUSH1 0xE SLOAD PUSH1 0x0 MSTORE PUSH1 0x4 PUSH1 0x20 MSTORE PUSH1 0x8 PUSH1 0x40 PUSH1 0x0 KECCAK256 ADD PUSH2 0x5729 PUSH2 0xCC5 DUP3 SLOAD PUSH2 0x8BB4 JUMP JUMPDEST PUSH1 0xE PUSH7 0x70656E64696E67 PUSH1 0xC8 SHL ADD SWAP1 SSTORE PUSH1 0xE SLOAD PUSH1 0x0 MSTORE PUSH1 0x4 PUSH1 0x20 MSTORE TIMESTAMP PUSH1 0x9 PUSH1 0x40 PUSH1 0x0 KECCAK256 ADD SSTORE PUSH3 0x2A300 TIMESTAMP ADD DUP1 TIMESTAMP GT PUSH2 0x38B JUMPI PUSH1 0xE DUP1 SLOAD PUSH1 0x0 SWAP1 DUP2 MSTORE PUSH1 0x4 PUSH1 0x20 MSTORE PUSH1 0x40 DUP1 DUP3 KECCAK256 PUSH1 0xA ADD SWAP4 SWAP1 SWAP4 SSTORE DUP2 SLOAD DUP2 MSTORE DUP3 DUP2 KECCAK256 PUSH1 0xB ADD DUP2 SWAP1 SSTORE SWAP1 SLOAD DUP2 MSTORE KECCAK256 DUP2 MLOAD PUSH1 0xC SWAP1 SWAP2 ADD SWAP2 PUSH1 0x1 PUSH1 0x1 PUSH1 0x40 SHL SUB DUP3 GT PUSH2 0x832 JUMPI PUSH2 0x57AB DUP3 PUSH2 0xDF9 DUP6 SLOAD PUSH2 0x8BB4 JUMP JUMPDEST PUSH1 0x20 SWAP1 PUSH1 0x1F DUP4 GT PUSH1 0x1 EQ PUSH2 0x58D2 JUMPI SWAP3 PUSH2 0x57E4 DUP4 PUSH1 0xC0 SWAP5 PUSH2 0x58CD SWAP10 SWAP5 PUSH1 0x0 DUP1 MLOAD PUSH1 0x20 PUSH2 0xA44D DUP4 CODECOPY DUP2 MLOAD SWAP2 MSTORE SWAP8 PUSH1 0x0 SWAP3 PUSH2 0x3E1E JUMPI POP POP PUSH2 0x9586 JUMP JUMPDEST SWAP1 SSTORE JUMPDEST PUSH1 0xE DUP1 SLOAD PUSH1 0x0 SWAP1 DUP2 MSTORE PUSH1 0x4 PUSH1 0x20 SWAP1 DUP2 MSTORE PUSH1 0x40 DUP1 DUP4 KECCAK256 DUP5 ADD DUP1 SLOAD PUSH1 0xFF NOT AND PUSH1 0x1 OR SWAP1 SSTORE DUP4 SLOAD DUP4 MSTORE DUP1 DUP4 KECCAK256 DUP5 ADD DUP1 SLOAD PUSH2 0xFF00 NOT AND SWAP1 SSTORE DUP4 SLOAD DUP4 MSTORE DUP1 DUP4 KECCAK256 PUSH1 0xF ADD DUP4 SWAP1 SSTORE DUP4 SLOAD DUP4 MSTORE DUP1 DUP4 KECCAK256 PUSH1 0x10 ADD DUP4 SWAP1 SSTORE DUP8 SLOAD PUSH1 0x1 PUSH1 0x1 PUSH1 0xA0 SHL SUB AND DUP4 MSTORE PUSH1 0x9 SWAP1 SWAP2 MSTORE SWAP1 KECCAK256 SWAP1 SLOAD PUSH2 0x5854 SWAP2 PUSH2 0x99B0 JUMP JUMPDEST DUP1 SLOAD PUSH1 0x1 PUSH1 0x1 PUSH1 0xA0 SHL SUB AND PUSH1 0x0 SWAP1 DUP2 MSTORE PUSH1 0x9 PUSH1 0x20 MSTORE PUSH1 0x40 SWAP1 KECCAK256 PUSH1 0xE SLOAD PUSH2 0x5879 SWAP2 PUSH2 0x99B0 JUMP JUMPDEST PUSH1 0xE SLOAD SWAP5 DUP6 SWAP5 PUSH1 0x1 DUP1 PUSH1 0xA0 SHL SUB SWAP1 SLOAD AND SWAP2 PUSH1 0x1 DUP1 PUSH1 0xA0 SHL SUB SWAP1 SLOAD AND PUSH1 0x40 MLOAD SWAP3 DUP4 MSTORE PUSH1 0x20 DUP4 ADD MSTORE PUSH1 0x40 DUP3 ADD MSTORE PUSH1 0x80 PUSH1 0x60 DUP3 ADD MSTORE PUSH1 0xC PUSH1 0x80 DUP3 ADD MSTORE PUSH12 0x72656C6174696F6E7368697 PUSH1 0xA4 SHL PUSH1 0xA0 DUP3 ADD MSTORE LOG2 PUSH2 0x93F8 JUMP JUMPDEST PUSH1 0xE SSTORE STOP JUMPDEST SWAP1 PUSH1 0x1F NOT DUP4 AND SWAP2 DUP5 PUSH1 0x0 MSTORE DUP2 PUSH1 0x0 KECCAK256 SWAP3 PUSH1 0x0 JUMPDEST DUP2 DUP2 LT PUSH2 0x5937 JUMPI POP SWAP4 PUSH2 0x58CD SWAP9 SWAP4 PUSH1 0x0 DUP1 MLOAD PUSH1 0x20 PUSH2 0xA44D DUP4 CODECOPY DUP2 MLOAD SWAP2 MSTORE SWAP7 SWAP4 PUSH1 0x1 SWAP4 DUP4 PUSH1 0xC0 SWAP9 LT PUSH2 0x591E JUMPI JUMPDEST POP POP POP DUP2 SHL ADD SWAP1 SSTORE PUSH2 0x57E7 JUMP JUMPDEST ADD MLOAD PUSH1 0x0 NOT PUSH1 0xF8 DUP5 PUSH1 0x3 SHL AND SHR NOT AND SWAP1 SSTORE DUP10 DUP1 DUP1 PUSH2 0x5911 JUMP JUMPDEST SWAP3 SWAP4 PUSH1 0x20 PUSH1 0x1 DUP2 SWAP3 DUP8 DUP7 ADD MLOAD DUP2 SSTORE ADD SWAP6 ADD SWAP4 ADD PUSH2 0x58E5 JUMP JUMPDEST PUSH1 0x40 MLOAD PUSH3 0x461BCD PUSH1 0xE5 SHL DUP2 MSTORE PUSH1 0x20 PUSH1 0x4 DUP3 ADD MSTORE PUSH1 0x24 DUP1 DUP3 ADD MSTORE PUSH1 0x0 DUP1 MLOAD PUSH1 0x20 PUSH2 0xA58D DUP4 CODECOPY DUP2 MLOAD SWAP2 MSTORE PUSH1 0x44 DUP3 ADD MSTORE PUSH4 0x191D58DD PUSH1 0xE2 SHL PUSH1 0x64 DUP3 ADD MSTORE PUSH1 0x84 SWAP1 REVERT JUMPDEST PUSH1 0x40 MLOAD PUSH3 0x461BCD PUSH1 0xE5 SHL DUP2 MSTORE PUSH1 0x20 PUSH1 0x4 DUP3 ADD MSTORE PUSH1 0x2C PUSH1 0x24 DUP3 ADD MSTORE PUSH1 0x0 DUP1 MLOAD PUSH1 0x20 PUSH2 0xA4AD DUP4 CODECOPY DUP2 MLOAD SWAP2 MSTORE PUSH1 0x44 DUP3 ADD MSTORE PUSH12 0x6520666F72206F7264657273 PUSH1 0xA0 SHL PUSH1 0x64 DUP3 ADD MSTORE PUSH1 0x84 SWAP1 REVERT JUMPDEST POP DUP1 PUSH1 0x0 MSTORE PUSH1 0x2 PUSH1 0x20 MSTORE PUSH1 0x5 PUSH1 0x40 PUSH1 0x0 KECCAK256 ADD SLOAD TIMESTAMP GT ISZERO PUSH2 0x558D JUMP JUMPDEST PUSH1 0x40 MLOAD PUSH3 0x461BCD PUSH1 0xE5 SHL DUP2 MSTORE PUSH1 0x20 PUSH1 0x4 DUP3 ADD MSTORE PUSH1 0x1B PUSH1 0x24 DUP3 ADD MSTORE PUSH27 0x4F6E6C792062757965722063616E20706C616365206F7264657273 PUSH1 0x28 SHL PUSH1 0x44 DUP3 ADD MSTORE PUSH1 0x64 SWAP1 REVERT JUMPDEST PUSH1 0x40 MLOAD PUSH3 0x461BCD PUSH1 0xE5 SHL DUP2 MSTORE PUSH1 0x20 PUSH1 0x4 DUP3 ADD MSTORE PUSH1 0x19 PUSH1 0x24 DUP3 ADD MSTORE PUSH25 0x14995B185D1A5BDB9CDA1A5C081B9BDD081858D8D95C1D1959 PUSH1 0x3A SHL PUSH1 0x44 DUP3 ADD MSTORE PUSH1 0x64 SWAP1 REVERT JUMPDEST CALLVALUE PUSH2 0x31E JUMPI PUSH1 0x20 CALLDATASIZE PUSH1 0x3 NOT ADD SLT PUSH2 0x31E JUMPI PUSH2 0x5A8E PUSH2 0x896A JUMP JUMPDEST PUSH1 0xC SLOAD SWAP1 PUSH2 0x5A9B DUP3 PUSH2 0x93A5 JUMP JUMPDEST SWAP2 PUSH1 0x0 SWAP2 PUSH1 0x1 JUMPDEST DUP3 DUP2 LT PUSH2 0x5AF5 JUMPI POP POP POP PUSH2 0x5AB5 DUP2 PUSH2 0x93A5 JUMP JUMPDEST SWAP2 PUSH1 0x0 JUMPDEST DUP3 DUP2 LT PUSH2 0x5AD6 JUMPI PUSH1 0x40 MLOAD PUSH1 0x20 DUP1 DUP3 MSTORE DUP2 SWAP1 PUSH2 0x626 SWAP1 DUP3 ADD DUP8 PUSH2 0x8996 JUMP JUMPDEST DUP1 PUSH2 0x5AE3 PUSH1 0x1 SWAP3 DUP5 PUSH2 0x93E4 JUMP JUMPDEST MLOAD PUSH2 0x5AEE DUP3 DUP8 PUSH2 0x93E4 JUMP JUMPDEST MSTORE ADD PUSH2 0x5AB9 JUMP JUMPDEST DUP1 PUSH1 0x0 MSTORE PUSH1 0x2 PUSH1 0x20 MSTORE PUSH1 0xFF PUSH1 0x8 PUSH1 0x40 PUSH1 0x0 KECCAK256 ADD SLOAD AND DUP1 PUSH2 0x5B7D JUMPI JUMPDEST DUP1 PUSH2 0x5B3D JUMPI JUMPDEST PUSH2 0x5B23 JUMPI JUMPDEST PUSH1 0x1 ADD PUSH2 0x5AA2 JUMP JUMPDEST SWAP3 PUSH2 0x5B35 DUP2 DUP6 PUSH2 0x5A2 PUSH1 0x1 SWAP5 DUP10 PUSH2 0x93E4 JUMP JUMPDEST SWAP4 SWAP1 POP PUSH2 0x5B1B JUMP JUMPDEST POP DUP1 PUSH1 0x0 MSTORE PUSH1 0x2 PUSH1 0x20 MSTORE PUSH2 0x3E7 PUSH2 0x5B61 PUSH1 0x6 PUSH1 0x40 PUSH1 0x0 KECCAK256 ADD PUSH1 0x40 MLOAD SWAP3 DUP4 DUP1 SWAP3 PUSH2 0x8BEE JUMP JUMPDEST PUSH1 0x20 DUP2 MLOAD SWAP2 ADD KECCAK256 PUSH2 0x5B70 PUSH2 0x8F44 JUMP JUMPDEST PUSH1 0x20 DUP2 MLOAD SWAP2 ADD KECCAK256 EQ PUSH2 0x5B16 JUMP JUMPDEST POP PUSH1 0x0 DUP2 DUP2 MSTORE PUSH1 0x2 PUSH1 0x20 MSTORE PUSH1 0x40 SWAP1 KECCAK256 PUSH1 0x1 ADD SLOAD PUSH1 0x1 PUSH1 0x1 PUSH1 0xA0 SHL SUB DUP4 DUP2 AND SWAP2 AND DUP2 EQ SWAP1 DUP2 ISZERO PUSH2 0x5BAD JUMPI JUMPDEST POP PUSH2 0x5B10 JUMP JUMPDEST PUSH1 0x0 DUP4 DUP2 MSTORE PUSH1 0x2 PUSH1 0x20 DUP2 SWAP1 MSTORE PUSH1 0x40 SWAP1 SWAP2 KECCAK256 ADD SLOAD PUSH1 0x1 PUSH1 0x1 PUSH1 0xA0 SHL SUB AND EQ SWAP1 POP DUP7 PUSH2 0x5BA7 JUMP JUMPDEST CALLVALUE PUSH2 0x31E JUMPI PUSH1 0x0 CALLDATASIZE PUSH1 0x3 NOT ADD SLT PUSH2 0x31E JUMPI PUSH1 0x20 PUSH1 0xB SLOAD PUSH1 0x40 MLOAD SWAP1 DUP2 MSTORE RETURN JUMPDEST CALLVALUE PUSH2 0x31E JUMPI PUSH2 0x5BFE CALLDATASIZE PUSH2 0x8D2D JUMP JUMPDEST SWAP2 CALLER PUSH1 0x0 MSTORE PUSH1 0x0 PUSH1 0x20 MSTORE PUSH2 0x5C1F PUSH1 0xFF PUSH1 0x2 PUSH1 0x40 PUSH1 0x0 KECCAK256 ADD SLOAD PUSH1 0xA0 SHR AND PUSH2 0x9407 JUMP JUMPDEST DUP1 PUSH1 0x0 MSTORE PUSH1 0x3 PUSH1 0x20 MSTORE PUSH2 0x5C3C PUSH1 0xFF PUSH1 0x6 PUSH1 0x40 PUSH1 0x0 KECCAK256 ADD SLOAD AND PUSH2 0x9667 JUMP JUMPDEST PUSH2 0x5C47 DUP3 ISZERO ISZERO PUSH2 0x94EF JUMP JUMPDEST DUP1 PUSH1 0x0 MSTORE PUSH1 0x3 PUSH1 0x20 MSTORE PUSH2 0x5C64 DUP3 PUSH1 0x3 PUSH1 0x40 PUSH1 0x0 KECCAK256 ADD SLOAD LT ISZERO PUSH2 0x9BEB JUMP JUMPDEST PUSH1 0x0 DUP2 DUP2 MSTORE PUSH1 0x3 PUSH1 0x20 MSTORE PUSH1 0x40 SWAP1 KECCAK256 PUSH1 0x2 ADD SLOAD PUSH2 0x5C8B SWAP1 PUSH1 0x1 PUSH1 0x1 PUSH1 0xA0 SHL SUB AND CALLER EQ ISZERO PUSH2 0x9C2F JUMP JUMPDEST DUP1 PUSH1 0x0 MSTORE PUSH1 0x3 PUSH1 0x20 MSTORE PUSH1 0x40 PUSH1 0x0 KECCAK256 SWAP1 PUSH1 0x4 DUP3 ADD SLOAD DUP1 ISZERO PUSH2 0x2EDE JUMPI PUSH2 0x5CB5 DUP2 PUSH1 0x0 NOT DIV DUP6 GT ISZERO PUSH2 0x9C76 JUMP JUMPDEST PUSH2 0x5CBF DUP5 DUP3 PUSH2 0x9CBA JUMP JUMPDEST SWAP1 PUSH1 0x1 DUP5 ADD DUP1 SLOAD DUP1 PUSH1 0x0 MSTORE PUSH1 0x1 PUSH1 0x20 MSTORE PUSH1 0x2 PUSH1 0x1 DUP1 PUSH1 0xA0 SHL SUB PUSH1 0x9 PUSH1 0x40 PUSH1 0x0 KECCAK256 ADD SLOAD AND SWAP7 ADD SWAP6 PUSH1 0x1 DUP1 PUSH1 0xA0 SHL SUB DUP8 SLOAD AND SUB PUSH2 0x6031 JUMPI PUSH1 0x0 MSTORE PUSH1 0x1 PUSH1 0x20 MSTORE PUSH2 0x5D10 DUP7 PUSH1 0x7 PUSH1 0x40 PUSH1 0x0 KECCAK256 ADD SLOAD LT ISZERO PUSH2 0x9CCD JUMP JUMPDEST PUSH1 0xE DUP1 SLOAD PUSH1 0x0 DUP2 DUP2 MSTORE PUSH1 0x4 PUSH1 0x20 DUP2 SWAP1 MSTORE PUSH1 0x40 DUP1 DUP4 KECCAK256 SWAP4 DUP5 SSTORE PUSH1 0x1 SWAP1 SWAP4 ADD DUP1 SLOAD PUSH1 0x1 PUSH1 0x1 PUSH1 0xA0 SHL SUB NOT SWAP1 DUP2 AND CALLER OR SWAP1 SWAP2 SSTORE DUP10 SLOAD DUP6 SLOAD DUP5 MSTORE DUP5 DUP5 KECCAK256 PUSH1 0x2 ADD DUP1 SLOAD SWAP1 SWAP3 AND PUSH1 0x1 PUSH1 0x1 PUSH1 0xA0 SHL SUB SWAP2 SWAP1 SWAP2 AND OR SWAP1 SSTORE SWAP4 SLOAD DUP4 SLOAD DUP3 MSTORE DUP3 DUP3 KECCAK256 PUSH1 0x3 ADD SSTORE DUP3 SLOAD DUP2 MSTORE DUP2 DUP2 KECCAK256 SWAP1 SWAP4 ADD DUP9 SWAP1 SSTORE DUP2 SLOAD DUP4 MSTORE DUP1 DUP4 KECCAK256 PUSH1 0x5 ADD SWAP4 SWAP1 SWAP4 SSTORE DUP1 SLOAD DUP3 MSTORE DUP3 DUP3 KECCAK256 PUSH1 0x6 ADD SWAP4 SWAP1 SWAP4 SSTORE SWAP2 SLOAD DUP3 MSTORE SWAP1 KECCAK256 PUSH1 0x7 ADD DUP1 SLOAD PUSH2 0x5DAA SWAP1 PUSH2 0x8BB4 JUMP JUMPDEST PUSH1 0x1F DUP2 GT PUSH2 0x600F JUMPI JUMPDEST POP PUSH1 0x16 PUSH11 0x6D61726B6574706C616365 PUSH1 0xA8 SHL ADD SWAP1 SSTORE PUSH1 0xE SLOAD PUSH1 0x0 MSTORE PUSH1 0x4 PUSH1 0x20 MSTORE PUSH1 0x8 PUSH1 0x40 PUSH1 0x0 KECCAK256 ADD PUSH2 0x5DE8 PUSH2 0xCC5 DUP3 SLOAD PUSH2 0x8BB4 JUMP JUMPDEST PUSH1 0xE PUSH7 0x70656E64696E67 PUSH1 0xC8 SHL ADD SWAP1 SSTORE PUSH1 0xE SLOAD PUSH1 0x0 MSTORE PUSH1 0x4 PUSH1 0x20 MSTORE TIMESTAMP PUSH1 0x9 PUSH1 0x40 PUSH1 0x0 KECCAK256 ADD SSTORE PUSH3 0x2A300 TIMESTAMP ADD DUP1 TIMESTAMP GT PUSH2 0x38B JUMPI PUSH1 0xE SLOAD PUSH1 0x0 MSTORE PUSH1 0x4 PUSH1 0x20 MSTORE PUSH1 0xA PUSH1 0x40 PUSH1 0x0 KECCAK256 ADD SSTORE PUSH1 0xE SLOAD PUSH1 0x0 MSTORE PUSH1 0x4 PUSH1 0x20 MSTORE PUSH1 0x0 PUSH1 0xB PUSH1 0x40 DUP3 KECCAK256 ADD SSTORE PUSH1 0xE SLOAD PUSH1 0x0 MSTORE PUSH1 0x4 PUSH1 0x20 MSTORE PUSH1 0xC PUSH1 0x40 PUSH1 0x0 KECCAK256 ADD DUP5 MLOAD SWAP5 PUSH1 0x1 DUP1 PUSH1 0x40 SHL SUB DUP7 GT PUSH2 0x832 JUMPI PUSH2 0x5E74 DUP7 PUSH2 0xE52 DUP5 SLOAD PUSH2 0x8BB4 JUMP JUMPDEST PUSH1 0x20 SWAP1 PUSH1 0x1F DUP8 GT PUSH1 0x1 EQ PUSH2 0x5FA5 JUMPI SWAP6 DUP1 PUSH2 0x5E9A SWAP3 PUSH2 0x58CD SWAP9 PUSH1 0x0 SWAP3 PUSH2 0x5F9A JUMPI POP POP PUSH2 0x9586 JUMP JUMPDEST SWAP1 SSTORE JUMPDEST PUSH1 0xE SLOAD PUSH1 0x0 MSTORE PUSH1 0x4 PUSH1 0x20 MSTORE PUSH1 0xE PUSH1 0x40 PUSH1 0x0 KECCAK256 ADD PUSH1 0x1 PUSH1 0xFF NOT DUP3 SLOAD AND OR SWAP1 SSTORE PUSH1 0xE SLOAD PUSH1 0x0 MSTORE PUSH1 0x4 PUSH1 0x20 MSTORE PUSH1 0xE PUSH1 0x40 PUSH1 0x0 KECCAK256 ADD PUSH2 0xFF00 NOT DUP2 SLOAD AND SWAP1 SSTORE PUSH1 0xE SLOAD PUSH1 0x0 MSTORE PUSH1 0x4 PUSH1 0x20 MSTORE PUSH1 0x0 PUSH1 0xF PUSH1 0x40 DUP3 KECCAK256 ADD SSTORE PUSH1 0xE SLOAD PUSH1 0x0 MSTORE PUSH1 0x4 PUSH1 0x20 MSTORE PUSH1 0x10 PUSH1 0x40 PUSH1 0x0 KECCAK256 ADD SSTORE CALLER PUSH1 0x0 MSTORE PUSH1 0x9 PUSH1 0x20 MSTORE PUSH2 0x5F1A PUSH1 0x40 PUSH1 0x0 KECCAK256 PUSH1 0xE SLOAD SWAP1 PUSH2 0x99B0 JUMP JUMPDEST DUP1 SLOAD PUSH1 0x1 PUSH1 0x1 PUSH1 0xA0 SHL SUB AND PUSH1 0x0 SWAP1 DUP2 MSTORE PUSH1 0x9 PUSH1 0x20 MSTORE PUSH1 0x40 SWAP1 KECCAK256 PUSH1 0xE SLOAD PUSH2 0x5F3F SWAP2 PUSH2 0x99B0 JUMP JUMPDEST PUSH1 0x0 DUP1 MLOAD PUSH1 0x20 PUSH2 0xA44D DUP4 CODECOPY DUP2 MLOAD SWAP2 MSTORE PUSH1 0xC0 PUSH1 0xE SLOAD SWAP4 DUP5 SWAP4 PUSH1 0x1 DUP1 PUSH1 0xA0 SHL SUB SWAP1 SLOAD AND SWAP1 PUSH1 0x40 MLOAD SWAP2 CALLER DUP4 MSTORE PUSH1 0x20 DUP4 ADD MSTORE PUSH1 0x40 DUP3 ADD MSTORE PUSH1 0x80 PUSH1 0x60 DUP3 ADD MSTORE PUSH1 0xB PUSH1 0x80 DUP3 ADD MSTORE PUSH11 0x6D61726B6574706C616365 PUSH1 0xA8 SHL PUSH1 0xA0 DUP3 ADD MSTORE LOG2 PUSH2 0x93F8 JUMP JUMPDEST ADD MLOAD SWAP1 POP DUP9 DUP1 PUSH2 0xE21 JUMP JUMPDEST SWAP1 PUSH1 0x1F NOT DUP8 AND SWAP2 DUP4 PUSH1 0x0 MSTORE DUP2 PUSH1 0x0 KECCAK256 SWAP3 PUSH1 0x0 JUMPDEST DUP2 DUP2 LT PUSH2 0x5FF7 JUMPI POP SWAP2 PUSH1 0x1 SWAP4 SWAP2 DUP10 PUSH2 0x58CD SWAP11 SWAP5 LT PUSH2 0x5FDE JUMPI JUMPDEST POP POP POP DUP2 SHL ADD SWAP1 SSTORE PUSH2 0x5E9D JUMP JUMPDEST ADD MLOAD PUSH1 0x0 NOT PUSH1 0xF8 DUP5 PUSH1 0x3 SHL AND SHR NOT AND SWAP1 SSTORE DUP8 DUP1 DUP1 PUSH2 0x5FD1 JUMP JUMPDEST SWAP3 SWAP4 PUSH1 0x20 PUSH1 0x1 DUP2 SWAP3 DUP8 DUP7 ADD MLOAD DUP2 SSTORE ADD SWAP6 ADD SWAP4 ADD PUSH2 0x5FB8 JUMP JUMPDEST PUSH2 0x602B SWAP1 DUP3 PUSH1 0x0 MSTORE PUSH1 0x1F PUSH1 0x20 PUSH1 0x0 KECCAK256 SWAP2 ADD PUSH1 0x5 SHR DUP2 ADD SWAP1 PUSH2 0x902E JUMP JUMPDEST DUP6 PUSH2 0x5DB3 JUMP JUMPDEST PUSH1 0x40 MLOAD PUSH3 0x461BCD PUSH1 0xE5 SHL DUP2 MSTORE PUSH1 0x20 PUSH1 0x4 DUP3 ADD MSTORE PUSH1 0x22 PUSH1 0x24 DUP3 ADD MSTORE PUSH32 0x53656C6C6572206E6F206C6F6E676572206F776E7320746869732070726F6475 PUSH1 0x44 DUP3 ADD MSTORE PUSH2 0x18DD PUSH1 0xF2 SHL PUSH1 0x64 DUP3 ADD MSTORE PUSH1 0x84 SWAP1 REVERT JUMPDEST CALLVALUE PUSH2 0x31E JUMPI PUSH1 0x0 CALLDATASIZE PUSH1 0x3 NOT ADD SLT PUSH2 0x31E JUMPI PUSH1 0x20 PUSH1 0xC SLOAD PUSH1 0x40 MLOAD SWAP1 DUP2 MSTORE RETURN JUMPDEST CALLVALUE PUSH2 0x31E JUMPI PUSH1 0x20 CALLDATASIZE PUSH1 0x3 NOT ADD SLT PUSH2 0x31E JUMPI PUSH1 0x4 CALLDATALOAD PUSH1 0x7 SLOAD DUP2 LT ISZERO PUSH2 0x31E JUMPI PUSH1 0x0 SWAP1 PUSH1 0x7 SLOAD DUP2 LT ISZERO PUSH2 0x6107 JUMPI PUSH1 0x7 SWAP1 SWAP2 MSTORE PUSH32 0xA66CC928B5EDB82AF9BD49922954155AB7B0942694BEA4CE44661D9A8736C688 ADD SLOAD PUSH1 0x40 MLOAD PUSH1 0x1 PUSH1 0x1 PUSH1 0xA0 SHL SUB SWAP1 SWAP2 AND DUP2 MSTORE PUSH1 0x20 SWAP1 RETURN JUMPDEST PUSH4 0x4E487B71 PUSH1 0xE0 SHL DUP3 MSTORE PUSH1 0x32 PUSH1 0x4 MSTORE PUSH1 0x24 DUP3 REVERT JUMPDEST CALLVALUE PUSH2 0x31E JUMPI PUSH1 0x0 CALLDATASIZE PUSH1 0x3 NOT ADD SLT PUSH2 0x31E JUMPI PUSH1 0x40 MLOAD PUSH1 0x7 SLOAD DUP1 DUP3 MSTORE PUSH1 0x20 DUP3 ADD SWAP1 PUSH1 0x7 PUSH1 0x0 MSTORE PUSH1 0x20 PUSH1 0x0 KECCAK256 SWAP1 PUSH1 0x0 JUMPDEST DUP2 DUP2 LT PUSH2 0x616B JUMPI PUSH2 0x626 DUP6 PUSH2 0x615F DUP2 DUP8 SUB DUP3 PUSH2 0x8A85 JUMP JUMPDEST PUSH1 0x40 MLOAD SWAP2 DUP3 SWAP2 DUP3 PUSH2 0x8897 JUMP JUMPDEST DUP3 SLOAD PUSH1 0x1 PUSH1 0x1 PUSH1 0xA0 SHL SUB AND DUP5 MSTORE PUSH1 0x20 SWAP1 SWAP4 ADD SWAP3 PUSH1 0x1 SWAP3 DUP4 ADD SWAP3 ADD PUSH2 0x6148 JUMP JUMPDEST CALLVALUE PUSH2 0x31E JUMPI PUSH1 0xC0 CALLDATASIZE PUSH1 0x3 NOT ADD SLT PUSH2 0x31E JUMPI PUSH2 0x61A3 PUSH2 0x896A JUMP JUMPDEST PUSH2 0x61AB PUSH2 0x8980 JUMP JUMPDEST SWAP1 PUSH1 0x44 CALLDATALOAD PUSH1 0x64 CALLDATALOAD SWAP1 PUSH1 0x84 CALLDATALOAD SWAP2 PUSH1 0xA4 CALLDATALOAD SWAP1 CALLER PUSH1 0x0 MSTORE PUSH1 0x0 PUSH1 0x20 MSTORE PUSH2 0x61DB PUSH1 0xFF PUSH1 0x2 PUSH1 0x40 PUSH1 0x0 KECCAK256 ADD SLOAD PUSH1 0xA0 SHR AND PUSH2 0x9407 JUMP JUMPDEST PUSH1 0x1 DUP1 PUSH1 0xA0 SHL SUB DUP6 AND SWAP3 DUP4 PUSH1 0x0 MSTORE PUSH1 0x0 PUSH1 0x20 MSTORE PUSH1 0xFF PUSH1 0x2 PUSH1 0x40 PUSH1 0x0 KECCAK256 ADD SLOAD PUSH1 0xA0 SHR AND DUP1 PUSH2 0x6633 JUMPI JUMPDEST ISZERO PUSH2 0x65EE JUMPI DUP1 PUSH1 0x0 MSTORE PUSH1 0x1 PUSH1 0x20 MSTORE PUSH2 0x6225 PUSH1 0xFF PUSH1 0xB PUSH1 0x40 PUSH1 0x0 KECCAK256 ADD SLOAD AND PUSH2 0x90DF JUMP JUMPDEST CALLER DUP5 EQ SWAP5 DUP6 ISZERO DUP7 DUP2 PUSH2 0x65DC JUMPI JUMPDEST ISZERO PUSH2 0x659A JUMPI DUP7 PUSH2 0x6529 JUMPI JUMPDEST PUSH1 0x1 PUSH1 0x1 PUSH1 0xA0 SHL SUB DUP10 AND SWAP7 DUP7 DUP9 EQ PUSH2 0x64D3 JUMPI SWAP1 PUSH2 0x64CA JUMPI JUMPDEST ISZERO PUSH2 0x6479 JUMPI DUP4 DUP2 LT ISZERO PUSH2 0x6444 JUMPI PUSH3 0x1517F NOT TIMESTAMP ADD TIMESTAMP DUP2 GT PUSH2 0x38B JUMPI DUP2 GT ISZERO PUSH2 0x63E4 JUMPI PUSH2 0x63DF SWAP8 PUSH2 0x63AF PUSH1 0x0 DUP1 MLOAD PUSH1 0x20 PUSH2 0xA5CD DUP4 CODECOPY DUP2 MLOAD SWAP2 MSTORE SWAP7 PUSH1 0x60 SWAP7 PUSH32 0xF72A769A3B0806BED9141630B64FDCA40F76ECB1D8F2727A60993091E20DB7B8 SWAP5 PUSH2 0x63C3 SWAP11 PUSH2 0x62C2 DUP10 ISZERO ISZERO PUSH2 0x953B JUMP JUMPDEST PUSH1 0x40 MLOAD SWAP4 PUSH2 0x62CF DUP6 PUSH2 0x8A17 JUMP JUMPDEST PUSH1 0x1 DUP1 DUP7 MSTORE PUSH1 0x20 DUP1 DUP8 ADD DUP13 SWAP1 MSTORE CALLER PUSH1 0x40 DUP1 DUP10 ADD SWAP2 SWAP1 SWAP2 MSTORE TIMESTAMP DUP15 DUP10 ADD MSTORE PUSH1 0x80 DUP9 ADD DUP8 SWAP1 MSTORE PUSH1 0xC DUP1 SLOAD PUSH1 0x0 DUP2 DUP2 MSTORE PUSH1 0x2 SWAP5 DUP6 SWAP1 MSTORE DUP4 DUP2 KECCAK256 SWAP2 DUP3 SSTORE SWAP5 ADD DUP1 SLOAD PUSH1 0x1 PUSH1 0x1 PUSH1 0xA0 SHL SUB NOT SWAP1 DUP2 AND SWAP1 SWAP7 OR SWAP1 SSTORE DUP1 SLOAD DUP5 MSTORE DUP2 DUP5 KECCAK256 SWAP1 SWAP3 ADD DUP1 SLOAD SWAP1 SWAP5 AND SWAP1 SWAP5 OR SWAP1 SWAP3 SSTORE DUP2 SLOAD DUP2 MSTORE DUP3 DUP2 KECCAK256 PUSH1 0x3 ADD DUP11 SWAP1 SSTORE DUP2 SLOAD DUP2 MSTORE DUP3 DUP2 KECCAK256 PUSH1 0x4 ADD SWAP4 SWAP1 SWAP4 SSTORE DUP1 SLOAD DUP4 MSTORE DUP2 DUP4 KECCAK256 PUSH1 0x5 ADD SWAP4 SWAP1 SWAP4 SSTORE SWAP2 SLOAD DUP2 MSTORE KECCAK256 PUSH1 0x6 ADD DUP1 SLOAD PUSH2 0x6371 SWAP1 PUSH2 0xCC5 SWAP1 PUSH2 0x8BB4 JUMP JUMPDEST PUSH1 0xE PUSH7 0x70656E64696E67 PUSH1 0xC8 SHL ADD SWAP1 SSTORE PUSH1 0xC DUP1 SLOAD PUSH1 0x0 SWAP1 DUP2 MSTORE PUSH1 0x2 PUSH1 0x20 MSTORE PUSH1 0x40 DUP1 DUP3 KECCAK256 PUSH1 0x8 ADD DUP1 SLOAD PUSH1 0xFF NOT AND PUSH1 0x1 OR SWAP1 SSTORE SWAP2 SLOAD DUP2 MSTORE KECCAK256 PUSH1 0x7 ADD PUSH2 0x9B59 JUMP JUMPDEST PUSH1 0xC SLOAD SWAP8 DUP9 SWAP8 DUP9 SWAP5 PUSH1 0x40 MLOAD SWAP4 DUP5 SWAP4 DUP5 PUSH2 0x9BC9 JUMP JUMPDEST SUB SWAP1 LOG2 PUSH1 0x40 MLOAD SWAP1 PUSH1 0x1 DUP3 MSTORE PUSH1 0x20 DUP3 ADD MSTORE CALLER PUSH1 0x40 DUP3 ADD MSTORE LOG2 PUSH2 0x93F8 JUMP JUMPDEST PUSH1 0xC SSTORE STOP JUMPDEST PUSH1 0x40 MLOAD PUSH3 0x461BCD PUSH1 0xE5 SHL DUP2 MSTORE PUSH1 0x20 PUSH1 0x4 DUP3 ADD MSTORE PUSH1 0x32 PUSH1 0x24 DUP3 ADD MSTORE PUSH32 0x53746172742064617465206D757374206E6F74206265206D6F7265207468616E PUSH1 0x44 DUP3 ADD MSTORE PUSH18 0x80C4819185E481A5B881D1A19481C185CDD PUSH1 0x72 SHL PUSH1 0x64 DUP3 ADD MSTORE PUSH1 0x84 SWAP1 REVERT JUMPDEST PUSH1 0x40 MLOAD PUSH3 0x461BCD PUSH1 0xE5 SHL DUP2 MSTORE PUSH1 0x20 PUSH1 0x4 DUP3 ADD MSTORE PUSH1 0xD PUSH1 0x24 DUP3 ADD MSTORE PUSH13 0x496E76616C6964206461746573 PUSH1 0x98 SHL PUSH1 0x44 DUP3 ADD MSTORE PUSH1 0x64 SWAP1 REVERT JUMPDEST PUSH1 0x40 MLOAD PUSH3 0x461BCD PUSH1 0xE5 SHL DUP2 MSTORE PUSH1 0x20 PUSH1 0x4 DUP3 ADD MSTORE PUSH1 0x24 DUP1 DUP3 ADD MSTORE PUSH32 0x596F75206D7573742062652065697468657220737570706C696572206F722062 PUSH1 0x44 DUP3 ADD MSTORE PUSH4 0x3ABCB2B9 PUSH1 0xE1 SHL PUSH1 0x64 DUP3 ADD MSTORE PUSH1 0x84 SWAP1 REVERT JUMPDEST POP DUP6 CALLER EQ PUSH2 0x6255 JUMP JUMPDEST PUSH1 0x40 MLOAD PUSH3 0x461BCD PUSH1 0xE5 SHL DUP2 MSTORE PUSH1 0x20 PUSH1 0x4 DUP3 ADD MSTORE PUSH1 0x28 PUSH1 0x24 DUP3 ADD MSTORE PUSH32 0x43616E6E6F74206372656174652072656C6174696F6E73686970207769746820 PUSH1 0x44 DUP3 ADD MSTORE PUSH8 0x3CB7BAB939B2B633 PUSH1 0xC1 SHL PUSH1 0x64 DUP3 ADD MSTORE PUSH1 0x84 SWAP1 REVERT JUMPDEST PUSH1 0x0 DUP4 DUP2 MSTORE PUSH1 0x1 PUSH1 0x20 MSTORE PUSH1 0x40 SWAP1 KECCAK256 PUSH1 0x9 ADD SLOAD PUSH1 0x1 PUSH1 0x1 PUSH1 0xA0 SHL SUB AND DUP7 EQ PUSH2 0x623D JUMPI PUSH1 0x40 MLOAD PUSH3 0x461BCD PUSH1 0xE5 SHL DUP2 MSTORE PUSH1 0x20 PUSH1 0x4 DUP3 ADD MSTORE PUSH1 0x22 PUSH1 0x24 DUP3 ADD MSTORE PUSH32 0x537570706C69657220646F6573206E6F74206F776E20746869732070726F6475 PUSH1 0x44 DUP3 ADD MSTORE PUSH2 0x18DD PUSH1 0xF2 SHL PUSH1 0x64 DUP3 ADD MSTORE PUSH1 0x84 SWAP1 REVERT JUMPDEST PUSH1 0x40 MLOAD PUSH3 0x461BCD PUSH1 0xE5 SHL DUP2 MSTORE PUSH1 0x20 PUSH1 0x4 DUP3 ADD MSTORE PUSH1 0x1A PUSH1 0x24 DUP3 ADD MSTORE PUSH26 0x4D757374206265206F6E65206F66207468652070617274696573 PUSH1 0x30 SHL PUSH1 0x44 DUP3 ADD MSTORE PUSH1 0x64 SWAP1 REVERT JUMPDEST POP CALLER PUSH1 0x1 PUSH1 0x1 PUSH1 0xA0 SHL SUB DUP11 AND EQ PUSH2 0x6232 JUMP JUMPDEST PUSH1 0x40 MLOAD PUSH3 0x461BCD PUSH1 0xE5 SHL DUP2 MSTORE PUSH1 0x20 PUSH1 0x4 DUP3 ADD MSTORE PUSH1 0x1F PUSH1 0x24 DUP3 ADD MSTORE PUSH32 0x426F74682070617274696573206D757374206265207265676973746572656400 PUSH1 0x44 DUP3 ADD MSTORE PUSH1 0x64 SWAP1 REVERT JUMPDEST POP PUSH1 0x1 PUSH1 0x1 PUSH1 0xA0 SHL SUB DUP8 AND PUSH1 0x0 SWAP1 DUP2 MSTORE PUSH1 0x20 DUP2 SWAP1 MSTORE PUSH1 0x40 SWAP1 KECCAK256 PUSH1 0x2 ADD SLOAD PUSH1 0xA0 SHR PUSH1 0xFF AND PUSH2 0x6203 JUMP JUMPDEST CALLVALUE PUSH2 0x31E JUMPI PUSH1 0x20 CALLDATASIZE PUSH1 0x3 NOT ADD SLT PUSH2 0x31E JUMPI PUSH1 0x1 PUSH1 0x1 PUSH1 0xA0 SHL SUB PUSH2 0x667C PUSH2 0x896A JUMP JUMPDEST AND PUSH1 0x0 MSTORE PUSH1 0x0 PUSH1 0x20 MSTORE PUSH1 0x40 PUSH1 0x0 KECCAK256 DUP1 SLOAD PUSH1 0x2 PUSH1 0x40 MLOAD SWAP3 PUSH2 0x66A3 DUP5 PUSH2 0x50AC DUP2 PUSH1 0x1 DUP6 ADD PUSH2 0x8BEE JUMP JUMPDEST ADD SLOAD PUSH1 0xFF PUSH2 0x66C3 PUSH1 0x40 MLOAD SWAP5 DUP6 SWAP5 DUP6 MSTORE PUSH1 0x80 PUSH1 0x20 DUP7 ADD MSTORE PUSH1 0x80 DUP6 ADD SWAP1 PUSH2 0x88FD JUMP JUMPDEST PUSH1 0x1 PUSH1 0x1 PUSH1 0xA0 SHL SUB DUP4 AND PUSH1 0x40 DUP6 ADD MSTORE PUSH1 0xA0 SWAP3 SWAP1 SWAP3 SHR AND ISZERO ISZERO PUSH1 0x60 DUP4 ADD MSTORE SUB SWAP1 RETURN JUMPDEST CALLVALUE PUSH2 0x31E JUMPI PUSH1 0x20 CALLDATASIZE PUSH1 0x3 NOT ADD SLT PUSH2 0x31E JUMPI PUSH1 0x60 PUSH2 0x100 PUSH1 0x40 MLOAD PUSH2 0x6706 DUP2 PUSH2 0x89FB JUMP JUMPDEST PUSH1 0x0 DUP2 MSTORE PUSH1 0x0 PUSH1 0x20 DUP3 ADD MSTORE PUSH1 0x0 PUSH1 0x40 DUP3 ADD MSTORE PUSH1 0x0 DUP4 DUP3 ADD MSTORE PUSH1 0x0 PUSH1 0x80 DUP3 ADD MSTORE PUSH1 0x0 PUSH1 0xA0 DUP3 ADD MSTORE DUP3 PUSH1 0xC0 DUP3 ADD MSTORE PUSH1 0x0 PUSH1 0xE0 DUP3 ADD MSTORE ADD MSTORE PUSH1 0x4 CALLDATALOAD PUSH1 0x0 MSTORE PUSH1 0x5 PUSH1 0x20 MSTORE PUSH1 0x40 PUSH1 0x0 KECCAK256 PUSH1 0x40 MLOAD PUSH2 0x6757 DUP2 PUSH2 0x89FB JUMP JUMPDEST DUP2 SLOAD DUP2 MSTORE PUSH2 0x626 PUSH1 0x1 DUP1 PUSH1 0xA0 SHL SUB PUSH1 0x1 DUP5 ADD SLOAD AND SWAP3 PUSH1 0x20 DUP4 ADD SWAP4 DUP5 MSTORE PUSH1 0x8 PUSH2 0x6849 PUSH1 0x1 DUP1 PUSH1 0xA0 SHL SUB PUSH1 0x2 DUP5 ADD SLOAD AND PUSH1 0x40 DUP7 ADD SWAP1 DUP2 MSTORE PUSH1 0x3 DUP5 ADD SLOAD PUSH1 0x60 DUP8 ADD SWAP1 DUP2 MSTORE PUSH1 0x4 DUP6 ADD SLOAD PUSH1 0x80 DUP9 ADD SWAP1 DUP2 MSTORE PUSH1 0x5 DUP7 ADD SLOAD SWAP2 PUSH1 0xA0 DUP10 ADD SWAP3 DUP4 MSTORE PUSH1 0x40 MLOAD SWAP4 PUSH2 0x67C6 DUP6 PUSH2 0xD50 DUP2 PUSH1 0x6 DUP13 ADD PUSH2 0x8BEE JUMP JUMPDEST PUSH1 0xC0 DUP11 ADD SWAP5 DUP6 MSTORE PUSH2 0x67ED PUSH1 0x7 DUP10 ADD SLOAD SWAP9 PUSH1 0xE0 DUP13 ADD SWAP10 DUP11 MSTORE PUSH2 0x3713 PUSH1 0x40 MLOAD DUP1 SWAP11 DUP2 SWAP4 ADD PUSH2 0x8BEE JUMP JUMPDEST PUSH2 0x100 DUP11 ADD SWAP7 DUP8 MSTORE PUSH1 0x40 MLOAD SWAP11 DUP12 SWAP11 PUSH1 0x20 DUP13 MSTORE MLOAD PUSH1 0x20 DUP13 ADD MSTORE PUSH1 0x1 DUP1 PUSH1 0xA0 SHL SUB SWAP1 MLOAD AND PUSH1 0x40 DUP12 ADD MSTORE PUSH1 0x1 DUP1 PUSH1 0xA0 SHL SUB SWAP1 MLOAD AND PUSH1 0x60 DUP11 ADD MSTORE MLOAD PUSH1 0x80 DUP10 ADD MSTORE MLOAD PUSH1 0xA0 DUP9 ADD MSTORE MLOAD PUSH1 0xC0 DUP8 ADD MSTORE MLOAD PUSH2 0x120 PUSH1 0xE0 DUP8 ADD MSTORE PUSH2 0x140 DUP7 ADD SWAP1 PUSH2 0x88FD JUMP JUMPDEST SWAP2 MLOAD PUSH2 0x100 DUP6 ADD MSTORE MLOAD DUP4 DUP3 SUB PUSH1 0x1F NOT ADD PUSH2 0x120 DUP6 ADD MSTORE PUSH2 0x88FD JUMP JUMPDEST CALLVALUE PUSH2 0x31E JUMPI PUSH1 0x20 CALLDATASIZE PUSH1 0x3 NOT ADD SLT PUSH2 0x31E JUMPI PUSH1 0x4 CALLDATALOAD PUSH1 0x0 PUSH2 0x100 PUSH1 0x40 MLOAD PUSH2 0x6889 DUP2 PUSH2 0x89FB JUMP JUMPDEST DUP3 DUP2 MSTORE DUP3 PUSH1 0x20 DUP3 ADD MSTORE DUP3 PUSH1 0x40 DUP3 ADD MSTORE DUP3 PUSH1 0x60 DUP3 ADD MSTORE DUP3 PUSH1 0x80 DUP3 ADD MSTORE DUP3 PUSH1 0xA0 DUP3 ADD MSTORE PUSH1 0x60 PUSH1 0xC0 DUP3 ADD MSTORE PUSH1 0x60 PUSH1 0xE0 DUP3 ADD MSTORE ADD MSTORE DUP1 PUSH1 0x0 MSTORE PUSH1 0x2 PUSH1 0x20 MSTORE PUSH1 0xFF PUSH1 0x8 PUSH1 0x40 PUSH1 0x0 KECCAK256 ADD SLOAD AND ISZERO PUSH2 0x69FE JUMPI PUSH1 0x0 MSTORE PUSH1 0x2 PUSH1 0x20 MSTORE PUSH1 0x40 PUSH1 0x0 KECCAK256 PUSH1 0x40 MLOAD PUSH2 0x68ED DUP2 PUSH2 0x89FB JUMP JUMPDEST DUP2 SLOAD DUP2 MSTORE PUSH1 0x1 DUP1 PUSH1 0xA0 SHL SUB PUSH1 0x1 DUP4 ADD SLOAD AND SWAP2 PUSH1 0x20 DUP3 ADD SWAP3 DUP4 MSTORE PUSH2 0x69F0 PUSH1 0x1 DUP1 PUSH1 0xA0 SHL SUB PUSH1 0x2 DUP4 ADD SLOAD AND SWAP2 PUSH1 0x40 DUP5 ADD SWAP3 DUP4 MSTORE PUSH2 0x69DC PUSH1 0x3 DUP3 ADD SLOAD PUSH1 0x60 DUP7 ADD SWAP1 DUP2 MSTORE PUSH1 0x4 DUP4 ADD SLOAD PUSH1 0x80 DUP8 ADD SWAP1 DUP2 MSTORE PUSH1 0x5 DUP5 ADD SLOAD SWAP1 PUSH1 0xA0 DUP9 ADD SWAP2 DUP3 MSTORE PUSH1 0x40 MLOAD SWAP3 PUSH2 0x695B DUP5 PUSH2 0x50AC DUP2 PUSH1 0x6 DUP11 ADD PUSH2 0x8BEE JUMP JUMPDEST PUSH1 0xC0 DUP10 ADD SWAP4 DUP5 MSTORE PUSH1 0xFF PUSH1 0x8 PUSH2 0x6972 PUSH1 0x7 DUP10 ADD PUSH2 0x9ACC JUMP JUMPDEST SWAP8 PUSH1 0xE0 DUP13 ADD SWAP9 DUP10 MSTORE ADD SLOAD AND SWAP8 PUSH2 0x100 DUP11 ADD SWAP9 ISZERO ISZERO DUP10 MSTORE PUSH1 0x40 MLOAD SWAP11 DUP12 SWAP11 PUSH1 0x20 DUP13 MSTORE MLOAD PUSH1 0x20 DUP13 ADD MSTORE PUSH1 0x1 DUP1 PUSH1 0xA0 SHL SUB SWAP1 MLOAD AND PUSH1 0x40 DUP12 ADD MSTORE PUSH1 0x1 DUP1 PUSH1 0xA0 SHL SUB SWAP1 MLOAD AND PUSH1 0x60 DUP11 ADD MSTORE MLOAD PUSH1 0x80 DUP10 ADD MSTORE MLOAD PUSH1 0xA0 DUP9 ADD MSTORE MLOAD PUSH1 0xC0 DUP8 ADD MSTORE MLOAD PUSH2 0x120 PUSH1 0xE0 DUP8 ADD MSTORE PUSH2 0x140 DUP7 ADD SWAP1 PUSH2 0x88FD JUMP JUMPDEST SWAP1 MLOAD DUP5 DUP3 SUB PUSH1 0x1F NOT ADD PUSH2 0x100 DUP7 ADD MSTORE PUSH2 0x8B4E JUMP JUMPDEST SWAP1 MLOAD ISZERO ISZERO PUSH2 0x120 DUP4 ADD MSTORE SUB SWAP1 RETURN JUMPDEST PUSH1 0x40 MLOAD PUSH3 0x461BCD PUSH1 0xE5 SHL DUP2 MSTORE PUSH1 0x20 PUSH1 0x4 DUP3 ADD MSTORE PUSH1 0x16 PUSH1 0x24 DUP3 ADD MSTORE PUSH22 0x14995B185D1A5BDB9CDA1A5C081B9BDD08199BDD5B99 PUSH1 0x52 SHL PUSH1 0x44 DUP3 ADD MSTORE PUSH1 0x64 SWAP1 REVERT JUMPDEST CALLVALUE PUSH2 0x31E JUMPI PUSH1 0x20 CALLDATASIZE PUSH1 0x3 NOT ADD SLT PUSH2 0x31E JUMPI PUSH1 0x4 CALLDATALOAD DUP1 PUSH1 0x0 MSTORE PUSH1 0x4 PUSH1 0x20 MSTORE PUSH2 0x6A6D PUSH1 0xFF PUSH1 0xE PUSH1 0x40 PUSH1 0x0 KECCAK256 ADD SLOAD AND PUSH2 0x926B JUMP JUMPDEST DUP1 PUSH1 0x0 MSTORE PUSH1 0x4 PUSH1 0x20 MSTORE PUSH1 0x1 DUP1 PUSH1 0xA0 SHL SUB PUSH1 0x1 PUSH1 0x40 PUSH1 0x0 KECCAK256 ADD SLOAD AND CALLER EQ DUP1 ISZERO PUSH2 0x6DE9 JUMPI JUMPDEST PUSH2 0x6A99 SWAP1 PUSH2 0x9A84 JUMP JUMPDEST DUP1 PUSH1 0x0 MSTORE PUSH1 0x4 PUSH1 0x20 MSTORE PUSH1 0x40 PUSH1 0x0 KECCAK256 SWAP1 PUSH1 0x8 DUP3 ADD PUSH1 0x40 MLOAD SWAP1 PUSH2 0x6AC5 DUP3 PUSH2 0x6ABE DUP2 DUP5 PUSH2 0x8BEE JUMP JUMPDEST SUB DUP4 PUSH2 0x8A85 JUMP JUMPDEST PUSH1 0x0 PUSH1 0x20 SWAP5 PUSH1 0x40 MLOAD PUSH2 0x6AD7 DUP8 DUP3 PUSH2 0x8A85 JUMP JUMPDEST DUP3 DUP2 MSTORE SWAP4 DUP1 MLOAD SWAP1 DUP8 DUP2 ADD SWAP2 DUP3 KECCAK256 PUSH2 0x6AEC PUSH2 0x8F44 JUMP JUMPDEST DUP10 DUP2 MLOAD SWAP2 ADD KECCAK256 EQ DUP1 PUSH2 0x6DDC JUMPI JUMPDEST ISZERO PUSH2 0x6BD8 JUMPI POP POP POP POP SWAP1 POP PUSH1 0x1 SWAP1 PUSH1 0x40 MLOAD PUSH2 0x6B15 PUSH1 0x40 DUP3 PUSH2 0x8A85 JUMP JUMPDEST PUSH1 0x1A DUP2 MSTORE PUSH26 0x105C1C1C9BDD985B08191958591B1A5B9948195E18D959591959 PUSH1 0x32 SHL DUP6 DUP3 ADD MSTORE SWAP2 JUMPDEST ISZERO PUSH2 0x6B97 JUMPI SWAP3 DUP4 PUSH2 0x6B73 PUSH2 0xCC5 PUSH32 0x1084667F3BACB264CB7154FF48636E12255D167F23739B4724EB3AF4F152B05A SWAP6 SWAP7 SLOAD PUSH2 0x8BB4 JUMP JUMPDEST PUSH1 0xE PUSH7 0x195E1C1A5C9959 PUSH1 0xCA SHL ADD SWAP1 SSTORE PUSH2 0x9A1 PUSH1 0x40 MLOAD SWAP3 DUP3 DUP5 SWAP4 DUP5 MSTORE DUP4 ADD SWAP1 PUSH2 0x88FD JUMP JUMPDEST PUSH1 0x40 MLOAD PUSH3 0x461BCD PUSH1 0xE5 SHL DUP2 MSTORE PUSH1 0x4 DUP2 ADD DUP6 SWAP1 MSTORE PUSH1 0x19 PUSH1 0x24 DUP3 ADD MSTORE PUSH25 0x13DC99195C8818D85B9B9BDD0818994818D85B98D95B1B1959 PUSH1 0x3A SHL PUSH1 0x44 DUP3 ADD MSTORE PUSH1 0x64 SWAP1 REVERT JUMPDEST MLOAD SWAP1 KECCAK256 PUSH2 0x6BE3 PUSH2 0x9A1E JUMP JUMPDEST DUP8 DUP2 MLOAD SWAP2 ADD KECCAK256 EQ SWAP1 DUP2 PUSH2 0x6DCE JUMPI JUMPDEST POP ISZERO PUSH2 0x6B3D JUMPI POP SWAP1 POP PUSH1 0x1 SWAP1 PUSH1 0x40 SWAP2 DUP3 MLOAD PUSH2 0x6C0C DUP5 DUP3 PUSH2 0x8A85 JUMP JUMPDEST PUSH1 0x19 DUP2 MSTORE PUSH25 0x14185E5B595B9D08191958591B1A5B9948195E18D959591959 PUSH1 0x3A SHL DUP7 DUP3 ADD MSTORE SWAP3 DUP5 PUSH1 0x0 MSTORE PUSH1 0x4 DUP7 MSTORE DUP1 PUSH1 0x0 KECCAK256 SWAP1 PUSH1 0xFF PUSH1 0xE DUP4 ADD SLOAD PUSH1 0x8 SHR AND PUSH1 0x0 EQ PUSH2 0x6CD5 JUMPI PUSH1 0x3 DUP3 ADD SLOAD PUSH1 0x0 MSTORE DUP3 DUP8 MSTORE DUP1 PUSH1 0x0 KECCAK256 PUSH1 0xB DUP2 ADD SWAP2 DUP3 SLOAD SWAP2 PUSH1 0xFF DUP4 AND SWAP1 DUP2 PUSH2 0x6CB7 JUMPI JUMPDEST POP PUSH2 0x6C82 JUMPI JUMPDEST POP POP POP POP PUSH2 0x6B3D JUMP JUMPDEST PUSH1 0x7 SWAP3 PUSH1 0x4 SWAP3 PUSH1 0xFF NOT AND SWAP1 SSTORE PUSH1 0xF DUP5 ADD SLOAD PUSH1 0x0 MSTORE DUP5 DUP10 MSTORE PUSH1 0x0 KECCAK256 SWAP3 ADD SLOAD SWAP2 ADD DUP1 SLOAD SWAP2 DUP3 ADD DUP1 SWAP3 GT PUSH2 0x38B JUMPI SSTORE DUP6 DUP1 DUP1 DUP1 PUSH2 0x6C79 JUMP JUMPDEST PUSH1 0x9 ADD SLOAD DUP6 DUP8 ADD SLOAD PUSH1 0x1 PUSH1 0x1 PUSH1 0xA0 SHL SUB SWAP1 DUP2 AND SWAP2 AND EQ SWAP1 POP DUP11 PUSH2 0x6C73 JUMP JUMPDEST PUSH1 0x3 DUP3 ADD SLOAD PUSH1 0x0 SWAP1 DUP2 MSTORE DUP4 DUP9 MSTORE KECCAK256 PUSH1 0x9 DUP2 ADD DUP1 SLOAD DUP5 DUP5 ADD DUP1 SLOAD SWAP1 SWAP5 SWAP4 SWAP3 SWAP2 PUSH1 0x1 PUSH1 0x1 PUSH1 0xA0 SHL SUB SWAP2 DUP3 AND SWAP2 AND EQ PUSH2 0x6D0E JUMPI POP POP POP POP PUSH2 0x6B3D JUMP JUMPDEST PUSH1 0x2 SWAP1 SWAP3 ADD SLOAD DUP3 SLOAD PUSH1 0x1 PUSH1 0x1 PUSH1 0xA0 SHL SUB NOT AND PUSH1 0x1 PUSH1 0x1 PUSH1 0xA0 SHL SUB SWAP2 SWAP1 SWAP2 AND OR SWAP1 SWAP2 SSTORE PUSH1 0x6 ADD DUP1 SLOAD SWAP1 SWAP2 DUP2 ISZERO SWAP1 DUP2 ISZERO SWAP1 DUP2 PUSH2 0x6D94 JUMPI JUMPDEST POP PUSH2 0x6D4F JUMPI JUMPDEST DUP1 PUSH2 0x6C79 JUMP JUMPDEST PUSH2 0x6D7E JUMPI PUSH1 0x0 NOT ADD SWAP1 PUSH2 0x6D62 DUP3 DUP3 PUSH2 0x8D15 JUMP JUMPDEST DUP2 SLOAD SWAP1 PUSH1 0x1 DUP1 PUSH1 0xA0 SHL SUB SWAP1 PUSH1 0x3 SHL SHL NOT AND SWAP1 SSTORE SSTORE DUP6 DUP1 DUP1 PUSH2 0x6D49 JUMP JUMPDEST PUSH4 0x4E487B71 PUSH1 0xE0 SHL PUSH1 0x0 MSTORE PUSH1 0x31 PUSH1 0x4 MSTORE PUSH1 0x24 PUSH1 0x0 REVERT JUMPDEST SWAP1 POP PUSH1 0x0 NOT DUP4 ADD DUP4 DUP2 GT PUSH2 0x38B JUMPI PUSH2 0x6DAC SWAP1 DUP6 PUSH2 0x8D15 JUMP JUMPDEST SWAP1 SLOAD SWAP2 SLOAD PUSH1 0x3 SWAP2 SWAP1 SWAP2 SHL SWAP2 SWAP1 SWAP2 SHR PUSH1 0x1 PUSH1 0x1 PUSH1 0xA0 SHL SUB SWAP1 DUP2 AND SWAP2 AND EQ DUP10 PUSH2 0x6D43 JUMP JUMPDEST PUSH1 0xB SWAP2 POP ADD SLOAD TIMESTAMP GT DUP7 PUSH2 0x6BF1 JUMP JUMPDEST POP PUSH1 0xA DUP4 ADD SLOAD TIMESTAMP GT PUSH2 0x6AF9 JUMP JUMPDEST POP PUSH1 0x0 DUP2 DUP2 MSTORE PUSH1 0x4 PUSH1 0x20 MSTORE PUSH1 0x40 SWAP1 KECCAK256 PUSH1 0x2 ADD SLOAD PUSH1 0x1 PUSH1 0x1 PUSH1 0xA0 SHL SUB AND CALLER EQ PUSH2 0x6A90 JUMP JUMPDEST CALLVALUE PUSH2 0x31E JUMPI PUSH1 0x60 CALLDATASIZE PUSH1 0x3 NOT ADD SLT PUSH2 0x31E JUMPI PUSH2 0x6E78 PUSH1 0x4 CALLDATALOAD PUSH2 0x6E2B PUSH2 0x8980 JUMP JUMPDEST SWAP1 DUP1 PUSH1 0x0 MSTORE PUSH1 0x1 PUSH1 0x20 MSTORE PUSH2 0x6E49 PUSH1 0xFF PUSH1 0xB PUSH1 0x40 PUSH1 0x0 KECCAK256 ADD SLOAD AND PUSH2 0x90DF JUMP JUMPDEST DUP1 PUSH1 0x0 MSTORE PUSH1 0x1 PUSH1 0x20 MSTORE PUSH2 0x6E6D PUSH1 0x1 DUP1 PUSH1 0xA0 SHL SUB PUSH1 0x9 PUSH1 0x40 PUSH1 0x0 KECCAK256 ADD SLOAD AND CALLER EQ PUSH2 0x9A44 JUMP JUMPDEST CALLER SWAP2 PUSH1 0x44 CALLDATALOAD SWAP2 PUSH2 0xA166 JUMP JUMPDEST STOP JUMPDEST CALLVALUE PUSH2 0x31E JUMPI PUSH1 0x20 CALLDATASIZE PUSH1 0x3 NOT ADD SLT PUSH2 0x31E JUMPI PUSH1 0x1 PUSH1 0x1 PUSH1 0xA0 SHL SUB PUSH2 0x6E9B PUSH2 0x896A JUMP JUMPDEST AND DUP1 PUSH1 0x0 MSTORE PUSH1 0x9 PUSH1 0x20 MSTORE PUSH1 0x40 PUSH1 0x0 KECCAK256 SWAP1 PUSH1 0x40 MLOAD DUP1 DUP4 PUSH1 0x20 DUP3 SWAP6 SLOAD SWAP4 DUP5 DUP2 MSTORE ADD SWAP1 PUSH1 0x0 MSTORE PUSH1 0x20 PUSH1 0x0 KECCAK256 SWAP3 PUSH1 0x0 JUMPDEST DUP2 DUP2 LT PUSH2 0x6FDE JUMPI POP POP PUSH2 0x6EDC SWAP3 POP SUB DUP4 PUSH2 0x8A85 JUMP JUMPDEST PUSH2 0x6EE6 DUP3 MLOAD PUSH2 0x93A5 JUMP JUMPDEST SWAP2 PUSH1 0x0 SWAP1 DUP2 JUMPDEST DUP2 MLOAD DUP2 LT ISZERO PUSH2 0x6F93 JUMPI PUSH2 0x6EFF DUP2 DUP4 PUSH2 0x93E4 JUMP JUMPDEST MLOAD PUSH1 0x0 SWAP1 DUP2 MSTORE PUSH1 0x4 PUSH1 0x20 MSTORE PUSH1 0x40 SWAP1 KECCAK256 PUSH1 0x2 ADD SLOAD PUSH1 0x1 PUSH1 0x1 PUSH1 0xA0 SHL SUB AND DUP5 EQ DUP1 PUSH2 0x6F49 JUMPI JUMPDEST PUSH2 0x6F30 JUMPI JUMPDEST PUSH1 0x1 ADD PUSH2 0x6EEC JUMP JUMPDEST SWAP2 PUSH2 0x6F41 PUSH1 0x1 SWAP2 PUSH2 0x597 DUP6 DUP6 PUSH2 0x93E4 JUMP JUMPDEST SWAP3 SWAP1 POP PUSH2 0x6F28 JUMP JUMPDEST POP PUSH2 0x6F54 DUP2 DUP4 PUSH2 0x93E4 JUMP JUMPDEST MLOAD PUSH1 0x0 MSTORE PUSH1 0x4 PUSH1 0x20 MSTORE PUSH2 0x3E7 PUSH2 0x6F77 PUSH1 0x8 PUSH1 0x40 PUSH1 0x0 KECCAK256 ADD PUSH1 0x40 MLOAD SWAP3 DUP4 DUP1 SWAP3 PUSH2 0x8BEE JUMP JUMPDEST PUSH1 0x20 DUP2 MLOAD SWAP2 ADD KECCAK256 PUSH2 0x6F86 PUSH2 0x9A1E JUMP JUMPDEST PUSH1 0x20 DUP2 MLOAD SWAP2 ADD KECCAK256 EQ PUSH2 0x6F23 JUMP JUMPDEST DUP5 DUP4 PUSH2 0x6F9E DUP2 PUSH2 0x93A5 JUMP JUMPDEST SWAP2 PUSH1 0x0 JUMPDEST DUP3 DUP2 LT PUSH2 0x6FBF JUMPI PUSH1 0x40 MLOAD PUSH1 0x20 DUP1 DUP3 MSTORE DUP2 SWAP1 PUSH2 0x626 SWAP1 DUP3 ADD DUP8 PUSH2 0x8996 JUMP JUMPDEST DUP1 PUSH2 0x6FCC PUSH1 0x1 SWAP3 DUP5 PUSH2 0x93E4 JUMP JUMPDEST MLOAD PUSH2 0x6FD7 DUP3 DUP8 PUSH2 0x93E4 JUMP JUMPDEST MSTORE ADD PUSH2 0x6FA2 JUMP JUMPDEST DUP5 SLOAD DUP4 MSTORE PUSH1 0x1 SWAP5 DUP6 ADD SWAP5 DUP8 SWAP5 POP PUSH1 0x20 SWAP1 SWAP4 ADD SWAP3 ADD PUSH2 0x6EC7 JUMP JUMPDEST CALLVALUE PUSH2 0x31E JUMPI PUSH1 0x0 CALLDATASIZE PUSH1 0x3 NOT ADD SLT PUSH2 0x31E JUMPI PUSH1 0x20 PUSH1 0xE SLOAD PUSH1 0x40 MLOAD SWAP1 DUP2 MSTORE RETURN JUMPDEST CALLVALUE PUSH2 0x31E JUMPI PUSH1 0x40 CALLDATASIZE PUSH1 0x3 NOT ADD SLT PUSH2 0x31E JUMPI PUSH1 0x4 CALLDATALOAD PUSH1 0x24 CALLDATALOAD PUSH1 0x1 PUSH1 0x1 PUSH1 0x40 SHL SUB DUP2 GT PUSH2 0x31E JUMPI PUSH2 0x7048 SWAP1 CALLDATASIZE SWAP1 PUSH1 0x4 ADD PUSH2 0x8AA8 JUMP JUMPDEST DUP2 PUSH1 0x0 MSTORE PUSH1 0x4 PUSH1 0x20 MSTORE PUSH2 0x7065 PUSH1 0xFF PUSH1 0xE PUSH1 0x40 PUSH1 0x0 KECCAK256 ADD SLOAD AND PUSH2 0x926B JUMP JUMPDEST PUSH1 0x0 DUP3 DUP2 MSTORE PUSH1 0x4 PUSH1 0x20 MSTORE PUSH1 0x40 SWAP1 KECCAK256 PUSH1 0x2 ADD SLOAD PUSH1 0x1 PUSH1 0x1 PUSH1 0xA0 SHL SUB AND CALLER SUB PUSH2 0x7175 JUMPI DUP2 PUSH1 0x0 MSTORE PUSH1 0x4 PUSH1 0x20 MSTORE PUSH2 0x3E7 PUSH2 0x70A9 PUSH1 0x8 PUSH1 0x40 PUSH1 0x0 KECCAK256 ADD PUSH1 0x40 MLOAD SWAP3 DUP4 DUP1 SWAP3 PUSH2 0x8BEE JUMP JUMPDEST PUSH1 0x20 DUP2 MLOAD SWAP2 ADD KECCAK256 PUSH2 0x70B8 PUSH2 0x8F44 JUMP JUMPDEST PUSH1 0x20 DUP2 MLOAD SWAP2 ADD KECCAK256 SUB PUSH2 0x7132 JUMPI PUSH2 0x9A1 PUSH32 0xB1544707A474E6118A9704A2715D102EB87F02B3B079F4BD32F085640173105E SWAP2 DUP4 PUSH1 0x0 MSTORE PUSH1 0x4 PUSH1 0x20 MSTORE PUSH1 0x8 PUSH1 0x40 PUSH1 0x0 KECCAK256 ADD PUSH2 0x7107 PUSH2 0xCC5 DUP3 SLOAD PUSH2 0x8BB4 JUMP JUMPDEST PUSH1 0x10 PUSH8 0x1C995A9958DD1959 PUSH1 0xC2 SHL ADD SWAP1 SSTORE PUSH1 0x40 MLOAD SWAP2 DUP3 SWAP2 CALLER DUP4 MSTORE PUSH1 0x40 PUSH1 0x20 DUP5 ADD MSTORE PUSH1 0x40 DUP4 ADD SWAP1 PUSH2 0x88FD JUMP JUMPDEST PUSH1 0x40 MLOAD PUSH3 0x461BCD PUSH1 0xE5 SHL DUP2 MSTORE PUSH1 0x20 PUSH1 0x4 DUP3 ADD MSTORE PUSH1 0x1B PUSH1 0x24 DUP3 ADD MSTORE PUSH27 0x4F72646572206E6F7420696E2070656E64696E6720737461747573 PUSH1 0x28 SHL PUSH1 0x44 DUP3 ADD MSTORE PUSH1 0x64 SWAP1 REVERT JUMPDEST PUSH1 0x40 MLOAD PUSH3 0x461BCD PUSH1 0xE5 SHL DUP2 MSTORE PUSH1 0x20 PUSH1 0x4 DUP3 ADD MSTORE PUSH1 0x1D PUSH1 0x24 DUP3 ADD MSTORE PUSH32 0x4F6E6C792073656C6C65722063616E2072656A656374206F7264657273000000 PUSH1 0x44 DUP3 ADD MSTORE PUSH1 0x64 SWAP1 REVERT JUMPDEST CALLVALUE PUSH2 0x31E JUMPI PUSH1 0x20 CALLDATASIZE PUSH1 0x3 NOT ADD SLT PUSH2 0x31E JUMPI PUSH1 0x4 CALLDATALOAD PUSH1 0x0 MSTORE PUSH1 0x3 PUSH1 0x20 MSTORE PUSH1 0xE0 PUSH1 0x40 PUSH1 0x0 KECCAK256 DUP1 SLOAD SWAP1 PUSH1 0x1 DUP2 ADD SLOAD SWAP1 PUSH1 0x1 DUP1 PUSH1 0xA0 SHL SUB PUSH1 0x2 DUP3 ADD SLOAD AND PUSH1 0x3 DUP3 ADD SLOAD PUSH1 0x4 DUP4 ADD SLOAD SWAP2 PUSH1 0xFF PUSH1 0x6 PUSH1 0x5 DUP7 ADD SLOAD SWAP6 ADD SLOAD AND SWAP5 PUSH1 0x40 MLOAD SWAP7 DUP8 MSTORE PUSH1 0x20 DUP8 ADD MSTORE PUSH1 0x40 DUP7 ADD MSTORE PUSH1 0x60 DUP6 ADD MSTORE PUSH1 0x80 DUP5 ADD MSTORE PUSH1 0xA0 DUP4 ADD MSTORE ISZERO ISZERO PUSH1 0xC0 DUP3 ADD MSTORE RETURN JUMPDEST CALLVALUE PUSH2 0x31E JUMPI PUSH2 0x7242 CALLDATASIZE PUSH2 0x8AFE JUMP JUMPDEST DUP3 PUSH1 0x0 SWAP4 SWAP3 SWAP4 MSTORE PUSH1 0x4 PUSH1 0x20 MSTORE PUSH2 0x7262 PUSH1 0xFF PUSH1 0xE PUSH1 0x40 PUSH1 0x0 KECCAK256 ADD SLOAD AND PUSH2 0x926B JUMP JUMPDEST DUP2 PUSH1 0x0 MSTORE PUSH1 0x4 PUSH1 0x20 MSTORE PUSH1 0x40 PUSH1 0x0 KECCAK256 SWAP1 PUSH1 0x1 DUP3 ADD SWAP4 PUSH1 0x1 DUP1 PUSH1 0xA0 SHL SUB DUP6 SLOAD AND CALLER SUB PUSH2 0x782F JUMPI PUSH1 0x0 SWAP4 PUSH1 0x0 PUSH1 0xD DUP6 ADD SWAP6 DUP7 SLOAD SWAP2 JUMPDEST DUP3 DUP2 LT PUSH2 0x77F3 JUMPI JUMPDEST POP ISZERO PUSH2 0x7799 JUMPI PUSH1 0x0 SWAP7 SWAP6 SWAP7 JUMPDEST DUP2 DUP2 LT PUSH2 0x7762 JUMPI POP POP PUSH2 0x7364 PUSH1 0x40 MLOAD SWAP7 PUSH22 0x2830BCB6B2B73A1031B7B6B83632BA32B2103B34B09 PUSH1 0x55 SHL PUSH1 0x20 DUP10 ADD MSTORE PUSH2 0x7336 PUSH1 0x1 PUSH1 0x6 DUP11 PUSH1 0x36 DUP9 MLOAD SWAP10 PUSH1 0x20 DUP11 ADD SWAP11 PUSH2 0x72F7 DUP2 DUP14 DUP6 DUP8 ADD SWAP1 PUSH2 0x88DA JUMP JUMPDEST DUP4 ADD PUSH6 0x101424A21D1 PUSH1 0xD5 SHL DUP4 DUP3 ADD MSTORE PUSH2 0x731B DUP3 MLOAD DUP1 SWAP4 PUSH1 0x20 PUSH1 0x3C DUP6 ADD SWAP2 ADD PUSH2 0x88DA JUMP JUMPDEST ADD ADD PUSH1 0x29 PUSH1 0xF8 SHL DUP4 DUP3 ADD MSTORE SUB ADD PUSH1 0x1E NOT DUP2 ADD DUP12 MSTORE ADD DUP10 PUSH2 0x8A85 JUMP JUMPDEST PUSH1 0x40 MLOAD SWAP1 PUSH2 0x7343 DUP3 PUSH2 0x89E0 JUMP JUMPDEST TIMESTAMP DUP3 MSTORE PUSH2 0x734E PUSH2 0x971D JUMP JUMPDEST PUSH1 0x20 DUP4 ADD MSTORE DUP9 PUSH1 0x40 DUP4 ADD MSTORE CALLER PUSH1 0x60 DUP4 ADD MSTORE PUSH2 0x9747 JUMP JUMPDEST PUSH1 0x8 DUP5 ADD PUSH2 0x7375 PUSH2 0xCC5 DUP3 SLOAD PUSH2 0x8BB4 JUMP JUMPDEST PUSH1 0x12 PUSH9 0x18DBDB5C1B195D1959 PUSH1 0xBA SHL ADD SWAP1 SSTORE PUSH1 0xF SLOAD SWAP3 PUSH1 0x1 DUP1 PUSH1 0xA0 SHL SUB DUP7 SLOAD AND SWAP4 PUSH1 0x2 DUP7 ADD SWAP5 PUSH1 0x1 DUP1 PUSH1 0xA0 SHL SUB DUP7 SLOAD AND SWAP1 PUSH2 0x73D9 PUSH1 0x3 DUP10 ADD SLOAD SWAP9 PUSH1 0x4 DUP2 ADD SLOAD PUSH1 0x7 PUSH1 0x6 DUP4 ADD SLOAD SWAP3 ADD SWAP11 PUSH2 0x73FD PUSH1 0x1 DUP14 DUP11 DUP14 PUSH2 0x73ED PUSH1 0x40 MLOAD SWAP10 DUP11 SWAP5 PUSH1 0x20 DUP7 ADD SWAP1 PUSH2 0x991B JUMP JUMPDEST SWAP2 PUSH1 0x5F PUSH1 0xF8 SHL DUP4 MSTORE MLOAD DUP1 SWAP4 DUP7 DUP5 ADD SWAP1 PUSH2 0x88DA JUMP JUMPDEST ADD SUB ADD PUSH1 0x1F NOT DUP2 ADD DUP7 MSTORE DUP6 PUSH2 0x8A85 JUMP JUMPDEST PUSH1 0x40 MLOAD SWAP6 PUSH2 0x740A DUP8 PUSH2 0x89FB JUMP JUMPDEST DUP8 DUP8 MSTORE PUSH1 0x20 DUP8 ADD SWAP6 DUP7 MSTORE PUSH1 0x40 DUP8 ADD SWAP1 DUP2 MSTORE PUSH1 0x60 DUP8 ADD SWAP2 DUP3 MSTORE PUSH1 0x80 DUP8 ADD SWAP3 DUP4 MSTORE PUSH1 0xA0 DUP8 ADD SWAP4 DUP5 MSTORE PUSH1 0xC0 DUP8 ADD SWAP5 DUP6 MSTORE PUSH1 0xE0 DUP8 ADD SWAP6 TIMESTAMP DUP8 MSTORE PUSH2 0x7447 PUSH2 0x9989 JUMP JUMPDEST PUSH2 0x100 DUP10 ADD SWAP1 DUP2 MSTORE PUSH1 0x0 SWAP10 DUP11 MSTORE PUSH1 0x5 PUSH1 0x20 DUP2 SWAP1 MSTORE PUSH1 0x40 SWAP1 SWAP11 KECCAK256 SWAP9 MLOAD DUP10 SSTORE SWAP1 MLOAD PUSH1 0x1 DUP10 ADD DUP1 SLOAD PUSH1 0x1 PUSH1 0x1 PUSH1 0xA0 SHL SUB NOT SWAP1 DUP2 AND PUSH1 0x1 PUSH1 0x1 PUSH1 0xA0 SHL SUB SWAP4 DUP5 AND OR SWAP1 SWAP2 SSTORE SWAP3 MLOAD PUSH1 0x2 DUP11 ADD DUP1 SLOAD SWAP1 SWAP5 AND SWAP2 AND OR SWAP1 SWAP2 SSTORE SWAP1 MLOAD PUSH1 0x3 DUP8 ADD SSTORE SWAP1 MLOAD PUSH1 0x4 DUP7 ADD SSTORE SWAP1 MLOAD SWAP5 DUP5 ADD SWAP5 SWAP1 SWAP5 SSTORE MLOAD DUP1 MLOAD PUSH1 0x6 DUP5 ADD SWAP2 PUSH1 0x1 PUSH1 0x1 PUSH1 0x40 SHL SUB DUP3 GT PUSH2 0x832 JUMPI PUSH2 0x74D3 DUP3 PUSH2 0xDF9 DUP6 SLOAD PUSH2 0x8BB4 JUMP JUMPDEST PUSH1 0x20 SWAP1 PUSH1 0x1F DUP4 GT PUSH1 0x1 EQ PUSH2 0x76F6 JUMPI SWAP2 DUP1 PUSH2 0x74FB SWAP3 PUSH1 0x8 SWAP8 SWAP7 SWAP6 SWAP5 PUSH1 0x0 SWAP3 PUSH2 0x2CDA JUMPI POP POP PUSH2 0x9586 JUMP JUMPDEST SWAP1 SSTORE JUMPDEST MLOAD PUSH1 0x7 DUP3 ADD SSTORE SWAP2 MLOAD DUP1 MLOAD SWAP2 SWAP1 SWAP3 ADD SWAP2 PUSH1 0x1 PUSH1 0x1 PUSH1 0x40 SHL SUB DUP3 GT PUSH2 0x832 JUMPI PUSH2 0x7529 DUP3 PUSH2 0xDF9 DUP6 SLOAD PUSH2 0x8BB4 JUMP JUMPDEST PUSH1 0x20 SWAP1 PUSH1 0x1F DUP4 GT PUSH1 0x1 EQ PUSH2 0x7657 JUMPI SWAP5 PUSH2 0xF2C SWAP5 DUP2 PUSH1 0x0 DUP1 MLOAD PUSH1 0x20 PUSH2 0xA60D DUP4 CODECOPY DUP2 MLOAD SWAP2 MSTORE PUSH2 0x75DB PUSH2 0xF34 SWAP15 PUSH2 0x73D9 SWAP15 SWAP14 SWAP12 SWAP9 PUSH2 0x7585 DUP10 PUSH1 0x0 DUP1 MLOAD PUSH1 0x20 PUSH2 0xA48D DUP4 CODECOPY DUP2 MLOAD SWAP2 MSTORE SWAP16 SWAP14 SWAP11 PUSH1 0x1 SWAP11 PUSH2 0x762E SWAP13 PUSH1 0x0 SWAP3 PUSH2 0x764C JUMPI POP POP PUSH2 0x9586 JUMP JUMPDEST SWAP1 SSTORE JUMPDEST DUP14 DUP8 DUP1 PUSH1 0xA0 SHL SUB SWAP1 SLOAD AND PUSH1 0x0 MSTORE PUSH1 0x8 PUSH1 0x20 MSTORE PUSH2 0x75AB PUSH1 0x40 PUSH1 0x0 KECCAK256 PUSH1 0xF SLOAD SWAP1 PUSH2 0x99B0 JUMP JUMPDEST DUP7 DUP1 PUSH1 0xA0 SHL SUB DUP12 SLOAD AND PUSH1 0x0 MSTORE PUSH1 0x8 PUSH1 0x20 MSTORE PUSH2 0x75CD PUSH1 0x40 PUSH1 0x0 KECCAK256 PUSH1 0xF SLOAD SWAP1 PUSH2 0x99B0 JUMP JUMPDEST PUSH1 0x40 MLOAD SWAP2 DUP3 SWAP2 CALLER SWAP1 DUP4 PUSH2 0x99D3 JUMP JUMPDEST SUB SWAP1 LOG2 PUSH1 0x40 MLOAD SWAP5 DUP6 SWAP3 PUSH1 0x0 DUP1 MLOAD PUSH1 0x20 PUSH2 0xA5ED DUP4 CODECOPY DUP2 MLOAD SWAP2 MSTORE PUSH1 0x0 DUP1 LOG2 PUSH2 0x761E PUSH1 0xF SLOAD SWAP13 DUP14 SWAP13 DUP7 DUP1 PUSH1 0xA0 SHL SUB SWAP1 SLOAD AND SWAP10 DUP7 DUP1 PUSH1 0xA0 SHL SUB SWAP1 SLOAD AND SWAP11 PUSH1 0x20 DUP7 ADD SWAP1 PUSH2 0x991B JUMP JUMPDEST ADD SUB ADD PUSH1 0x1F NOT DUP2 ADD DUP4 MSTORE DUP3 PUSH2 0x8A85 JUMP JUMPDEST PUSH1 0x40 MLOAD SWAP4 DUP5 SWAP4 DUP5 MSTORE PUSH1 0x20 DUP5 ADD MSTORE PUSH1 0x60 PUSH1 0x40 DUP5 ADD MSTORE PUSH1 0x60 DUP4 ADD SWAP1 PUSH2 0x88FD JUMP JUMPDEST ADD MLOAD SWAP1 POP CODESIZE DUP1 PUSH2 0xE21 JUMP JUMPDEST SWAP1 PUSH1 0x1F NOT DUP4 AND SWAP2 DUP5 PUSH1 0x0 MSTORE DUP2 PUSH1 0x0 KECCAK256 SWAP3 PUSH1 0x0 JUMPDEST DUP2 DUP2 LT PUSH2 0x76DE JUMPI POP SWAP7 PUSH1 0x0 DUP1 MLOAD PUSH1 0x20 PUSH2 0xA60D DUP4 CODECOPY DUP2 MLOAD SWAP2 MSTORE PUSH2 0x75DB PUSH2 0xF34 SWAP15 PUSH2 0x73D9 SWAP15 SWAP14 SWAP12 SWAP9 PUSH1 0x1 DUP10 PUSH1 0x0 DUP1 MLOAD PUSH1 0x20 PUSH2 0xA48D DUP4 CODECOPY DUP2 MLOAD SWAP2 MSTORE SWAP16 SWAP14 SWAP10 DUP8 SWAP10 PUSH2 0xF2C SWAP15 SWAP10 PUSH2 0x762E SWAP14 DUP6 SWAP14 LT PUSH2 0x76C5 JUMPI JUMPDEST POP POP POP DUP2 SHL ADD SWAP1 SSTORE PUSH2 0x7588 JUMP JUMPDEST ADD MLOAD PUSH1 0x0 NOT PUSH1 0xF8 DUP5 PUSH1 0x3 SHL AND SHR NOT AND SWAP1 SSTORE CODESIZE DUP1 DUP1 PUSH2 0x76B8 JUMP JUMPDEST SWAP3 SWAP4 PUSH1 0x20 PUSH1 0x1 DUP2 SWAP3 DUP8 DUP7 ADD MLOAD DUP2 SSTORE ADD SWAP6 ADD SWAP4 ADD PUSH2 0x766A JUMP JUMPDEST SWAP1 PUSH1 0x1F NOT DUP4 AND SWAP2 DUP5 PUSH1 0x0 MSTORE DUP2 PUSH1 0x0 KECCAK256 SWAP3 PUSH1 0x0 JUMPDEST DUP2 DUP2 LT PUSH2 0x774A JUMPI POP SWAP2 PUSH1 0x1 SWAP4 SWAP2 DUP6 PUSH1 0x8 SWAP10 SWAP9 SWAP8 SWAP7 SWAP5 LT PUSH2 0x7731 JUMPI JUMPDEST POP POP POP DUP2 SHL ADD SWAP1 SSTORE PUSH2 0x74FE JUMP JUMPDEST ADD MLOAD PUSH1 0x0 NOT PUSH1 0xF8 DUP5 PUSH1 0x3 SHL AND SHR NOT AND SWAP1 SSTORE DUP15 DUP1 DUP1 PUSH2 0x7724 JUMP JUMPDEST SWAP3 SWAP4 PUSH1 0x20 PUSH1 0x1 DUP2 SWAP3 DUP8 DUP7 ADD MLOAD DUP2 SSTORE ADD SWAP6 ADD SWAP4 ADD PUSH2 0x7709 JUMP JUMPDEST PUSH1 0x1 PUSH2 0x7773 PUSH2 0x108C DUP4 DUP12 SWAP11 SWAP12 PUSH2 0x96D4 JUMP JUMPDEST PUSH1 0x20 DUP2 MLOAD SWAP2 ADD KECCAK256 PUSH2 0x7782 PUSH2 0x971D JUMP JUMPDEST PUSH1 0x20 DUP2 MLOAD SWAP2 ADD KECCAK256 EQ PUSH2 0x10C0 JUMPI PUSH1 0x1 ADD SWAP7 SWAP6 SWAP7 PUSH2 0x72A8 JUMP JUMPDEST PUSH1 0x40 MLOAD PUSH3 0x461BCD PUSH1 0xE5 SHL DUP2 MSTORE PUSH1 0x20 PUSH1 0x4 DUP3 ADD MSTORE PUSH1 0x2C PUSH1 0x24 DUP3 ADD MSTORE PUSH32 0x43616E6E6F7420636F6D706C657465207061796D656E74206265666F72652071 PUSH1 0x44 DUP3 ADD MSTORE PUSH12 0x75616C69747920636865636B PUSH1 0xA0 SHL PUSH1 0x64 DUP3 ADD MSTORE PUSH1 0x84 SWAP1 REVERT JUMPDEST PUSH1 0x1 PUSH2 0x7802 PUSH2 0x108C DUP4 DUP12 PUSH2 0x96D4 JUMP JUMPDEST PUSH1 0x20 DUP2 MLOAD SWAP2 ADD KECCAK256 PUSH2 0x7811 PUSH2 0x96F0 JUMP JUMPDEST PUSH1 0x20 DUP2 MLOAD SWAP2 ADD KECCAK256 EQ PUSH2 0x7825 JUMPI PUSH1 0x1 ADD PUSH2 0x7294 JUMP JUMPDEST POP POP PUSH1 0x1 DUP9 PUSH2 0x729C JUMP JUMPDEST PUSH1 0x40 MLOAD PUSH3 0x461BCD PUSH1 0xE5 SHL DUP2 MSTORE PUSH1 0x20 PUSH1 0x4 DUP3 ADD MSTORE PUSH1 0x1F PUSH1 0x24 DUP3 ADD MSTORE PUSH32 0x4F6E6C792062757965722063616E20636F6D706C657465207061796D656E7400 PUSH1 0x44 DUP3 ADD MSTORE PUSH1 0x64 SWAP1 REVERT JUMPDEST CALLVALUE PUSH2 0x31E JUMPI PUSH1 0x20 CALLDATASIZE PUSH1 0x3 NOT ADD SLT PUSH2 0x31E JUMPI PUSH1 0x4 CALLDATALOAD PUSH1 0x0 DUP2 DUP2 MSTORE PUSH1 0x3 PUSH1 0x20 MSTORE PUSH1 0x40 SWAP1 KECCAK256 PUSH1 0x2 ADD SLOAD PUSH1 0x1 PUSH1 0x1 PUSH1 0xA0 SHL SUB AND CALLER SUB PUSH2 0x795D JUMPI DUP1 PUSH1 0x0 MSTORE PUSH1 0x3 PUSH1 0x20 MSTORE PUSH2 0x78C6 PUSH1 0xFF PUSH1 0x6 PUSH1 0x40 PUSH1 0x0 KECCAK256 ADD SLOAD AND PUSH2 0x9667 JUMP JUMPDEST PUSH1 0x0 DUP2 DUP2 MSTORE PUSH1 0x3 PUSH1 0x20 MSTORE PUSH1 0x40 DUP2 KECCAK256 PUSH1 0x6 ADD DUP1 SLOAD PUSH1 0xFF NOT AND SWAP1 SSTORE JUMPDEST PUSH1 0x6 SLOAD SWAP1 DUP2 DUP2 LT ISZERO PUSH2 0x7956 JUMPI DUP3 PUSH2 0x78F6 DUP3 PUSH2 0x8CE4 JUMP JUMPDEST SWAP1 SLOAD SWAP1 PUSH1 0x3 SHL SHR EQ PUSH2 0x790C JUMPI PUSH1 0x1 SWAP2 POP ADD PUSH2 0x78E0 JUMP JUMPDEST PUSH1 0x0 NOT DUP3 ADD SWAP2 DUP3 GT PUSH2 0x38B JUMPI PUSH2 0x7D4 PUSH2 0x2E7B PUSH2 0x7927 SWAP4 PUSH2 0x8CE4 JUMP JUMPDEST PUSH2 0x792F PUSH2 0x96A8 JUMP JUMPDEST PUSH32 0x5333791267C64429B07BC6933B19A87A45285FD89E3770EE3BBEB0BAC0D8F5C5 PUSH1 0x0 DUP1 LOG2 STOP JUMPDEST POP POP PUSH2 0x792F JUMP JUMPDEST PUSH1 0x40 MLOAD PUSH3 0x461BCD PUSH1 0xE5 SHL DUP2 MSTORE PUSH1 0x20 PUSH1 0x4 DUP3 ADD MSTORE PUSH1 0x11 PUSH1 0x24 DUP3 ADD MSTORE PUSH17 0x2737BA103634B9BA34B7339037BBB732B9 PUSH1 0x79 SHL PUSH1 0x44 DUP3 ADD MSTORE PUSH1 0x64 SWAP1 REVERT JUMPDEST CALLVALUE PUSH2 0x31E JUMPI PUSH1 0x20 CALLDATASIZE PUSH1 0x3 NOT ADD SLT PUSH2 0x31E JUMPI PUSH1 0x4 CALLDATALOAD DUP1 PUSH1 0x0 MSTORE PUSH1 0x2 PUSH1 0x20 MSTORE PUSH2 0x79C7 PUSH1 0xFF PUSH1 0x8 PUSH1 0x40 PUSH1 0x0 KECCAK256 ADD SLOAD AND PUSH2 0x8EAF JUMP JUMPDEST DUP1 PUSH1 0x0 MSTORE PUSH1 0x2 PUSH1 0x20 MSTORE PUSH1 0x1 DUP1 PUSH1 0xA0 SHL SUB PUSH1 0x1 PUSH1 0x40 PUSH1 0x0 KECCAK256 ADD SLOAD AND CALLER EQ DUP1 ISZERO PUSH2 0x7B14 JUMPI JUMPDEST PUSH2 0x79F3 SWAP1 PUSH2 0x8EF9 JUMP JUMPDEST DUP1 PUSH1 0x0 MSTORE PUSH1 0x2 PUSH1 0x20 MSTORE PUSH2 0x7A19 PUSH2 0x3E7 PUSH2 0x8C5 PUSH1 0x6 PUSH1 0x40 PUSH1 0x0 KECCAK256 ADD PUSH1 0x40 MLOAD SWAP3 DUP4 DUP1 SWAP3 PUSH2 0x8BEE JUMP JUMPDEST DUP1 PUSH1 0x0 MSTORE PUSH1 0x2 PUSH1 0x20 MSTORE PUSH1 0x7 PUSH1 0x40 PUSH1 0x0 KECCAK256 ADD DUP1 SLOAD PUSH2 0x7A37 DUP2 ISZERO ISZERO PUSH2 0x8FC0 JUMP JUMPDEST PUSH1 0x0 NOT DUP2 ADD SWAP1 DUP2 GT PUSH2 0x38B JUMPI PUSH2 0x7A4C SWAP2 PUSH2 0x9012 JUMP JUMPDEST POP PUSH1 0x2 ADD SLOAD PUSH1 0x1 PUSH1 0x1 PUSH1 0xA0 SHL SUB AND CALLER EQ PUSH2 0x7AB6 JUMPI DUP1 PUSH1 0x0 MSTORE PUSH1 0x2 PUSH1 0x20 MSTORE PUSH1 0x6 PUSH1 0x40 PUSH1 0x0 KECCAK256 ADD PUSH2 0x7A7E PUSH2 0xCC5 DUP3 SLOAD PUSH2 0x8BB4 JUMP JUMPDEST PUSH1 0x10 PUSH8 0x1858D8D95C1D1959 PUSH1 0xC2 SHL ADD SWAP1 SSTORE PUSH32 0x42AEA235215A6EB33E63DBAC8060EFCA06D7C4ECF0AE69E5E718BFF4B58D432E PUSH1 0x0 DUP1 LOG2 STOP JUMPDEST PUSH1 0x40 MLOAD PUSH3 0x461BCD PUSH1 0xE5 SHL DUP2 MSTORE PUSH1 0x20 PUSH1 0x4 DUP3 ADD MSTORE PUSH1 0x30 PUSH1 0x24 DUP3 ADD MSTORE PUSH32 0x43616E6E6F7420616363657074207768656E20796F7520617265207468652072 PUSH1 0x44 DUP3 ADD MSTORE PUSH16 0x65717565737446726F6D207061727479 PUSH1 0x80 SHL PUSH1 0x64 DUP3 ADD MSTORE PUSH1 0x84 SWAP1 REVERT JUMPDEST POP PUSH1 0x0 DUP2 DUP2 MSTORE PUSH1 0x2 PUSH1 0x20 DUP2 SWAP1 MSTORE PUSH1 0x40 SWAP1 SWAP2 KECCAK256 ADD SLOAD PUSH1 0x1 PUSH1 0x1 PUSH1 0xA0 SHL SUB AND CALLER EQ PUSH2 0x79EA JUMP JUMPDEST CALLVALUE PUSH2 0x31E JUMPI PUSH1 0xA0 CALLDATASIZE PUSH1 0x3 NOT ADD SLT PUSH2 0x31E JUMPI PUSH1 0x4 CALLDATALOAD PUSH1 0x1 PUSH1 0x1 PUSH1 0x40 SHL SUB DUP2 GT PUSH2 0x31E JUMPI PUSH2 0x7B68 SWAP1 CALLDATASIZE SWAP1 PUSH1 0x4 ADD PUSH2 0x8AA8 JUMP JUMPDEST PUSH1 0x24 CALLDATALOAD PUSH1 0x1 PUSH1 0x1 PUSH1 0x40 SHL SUB DUP2 GT PUSH2 0x31E JUMPI PUSH2 0x7B87 SWAP1 CALLDATASIZE SWAP1 PUSH1 0x4 ADD PUSH2 0x8AA8 JUMP JUMPDEST PUSH1 0x44 CALLDATALOAD PUSH1 0x1 PUSH1 0x1 PUSH1 0x40 SHL SUB DUP2 GT PUSH2 0x31E JUMPI PUSH2 0x7BA6 SWAP1 CALLDATASIZE SWAP1 PUSH1 0x4 ADD PUSH2 0x8AA8 JUMP JUMPDEST SWAP2 PUSH1 0x64 CALLDATALOAD SWAP2 PUSH1 0x84 CALLDATALOAD SWAP1 CALLER PUSH1 0x0 MSTORE PUSH1 0x0 PUSH1 0x20 MSTORE PUSH2 0x7BCF PUSH1 0xFF PUSH1 0x2 PUSH1 0x40 PUSH1 0x0 KECCAK256 ADD SLOAD PUSH1 0xA0 SHR AND PUSH2 0x9407 JUMP JUMPDEST PUSH2 0x7BDB DUP4 MLOAD ISZERO ISZERO PUSH2 0x944C JUMP JUMPDEST PUSH2 0x7BE7 DUP2 MLOAD ISZERO ISZERO PUSH2 0x9497 JUMP JUMPDEST PUSH2 0x7BF2 DUP5 ISZERO ISZERO PUSH2 0x94EF JUMP JUMPDEST PUSH2 0x7BFD DUP3 ISZERO ISZERO PUSH2 0x953B JUMP JUMPDEST PUSH1 0xB SLOAD PUSH1 0x0 DUP2 DUP2 MSTORE PUSH1 0x1 PUSH1 0x20 DUP2 SWAP1 MSTORE PUSH1 0x40 SWAP1 SWAP2 KECCAK256 SWAP2 DUP3 SSTORE DUP5 MLOAD SWAP2 ADD SWAP1 PUSH1 0x1 PUSH1 0x1 PUSH1 0x40 SHL SUB DUP2 GT PUSH2 0x832 JUMPI PUSH2 0x7C35 DUP2 PUSH2 0xE52 DUP5 SLOAD PUSH2 0x8BB4 JUMP JUMPDEST PUSH1 0x20 PUSH1 0x1F DUP3 GT PUSH1 0x1 EQ PUSH2 0x7EAC JUMPI SWAP1 DUP1 PUSH2 0x7C55 SWAP3 PUSH1 0x0 SWAP2 PUSH2 0x4ECF JUMPI POP PUSH2 0x9586 JUMP JUMPDEST SWAP1 SSTORE JUMPDEST PUSH1 0xB SLOAD PUSH1 0x0 MSTORE PUSH1 0x1 PUSH1 0x20 MSTORE PUSH1 0x2 PUSH1 0x40 PUSH1 0x0 KECCAK256 ADD SWAP1 DUP1 MLOAD SWAP1 PUSH1 0x1 DUP1 PUSH1 0x40 SHL SUB DUP3 GT PUSH2 0x832 JUMPI PUSH2 0x7C8A DUP3 PUSH2 0xDF9 DUP6 SLOAD PUSH2 0x8BB4 JUMP JUMPDEST PUSH1 0x20 SWAP1 PUSH1 0x1F DUP4 GT PUSH1 0x1 EQ PUSH2 0x7E45 JUMPI PUSH2 0x7CAC SWAP3 SWAP2 PUSH1 0x0 SWAP2 DUP4 PUSH2 0x5F9A JUMPI POP POP PUSH2 0x9586 JUMP JUMPDEST SWAP1 SSTORE JUMPDEST PUSH1 0xB SLOAD PUSH1 0x0 MSTORE PUSH1 0x1 PUSH1 0x20 MSTORE PUSH1 0x3 PUSH1 0x40 PUSH1 0x0 KECCAK256 ADD DUP5 MLOAD SWAP5 PUSH1 0x1 DUP1 PUSH1 0x40 SHL SUB DUP7 GT PUSH2 0x832 JUMPI PUSH2 0x7CE0 DUP7 PUSH2 0xE52 DUP5 SLOAD PUSH2 0x8BB4 JUMP JUMPDEST PUSH1 0x20 SWAP1 PUSH1 0x1F DUP8 GT PUSH1 0x1 EQ PUSH2 0x7DDB JUMPI SWAP6 DUP1 PUSH2 0x7D06 SWAP3 PUSH2 0x3DB2 SWAP9 PUSH1 0x0 SWAP3 PUSH2 0x5F9A JUMPI POP POP PUSH2 0x9586 JUMP JUMPDEST SWAP1 SSTORE JUMPDEST PUSH1 0xB DUP1 SLOAD PUSH1 0x0 SWAP1 DUP2 MSTORE PUSH1 0x1 PUSH1 0x20 DUP2 SWAP1 MSTORE PUSH1 0x40 DUP1 DUP4 KECCAK256 PUSH1 0x7 ADD DUP8 SWAP1 SSTORE DUP4 SLOAD DUP4 MSTORE DUP1 DUP4 KECCAK256 PUSH1 0x8 ADD SWAP5 SWAP1 SWAP5 SSTORE DUP3 SLOAD DUP3 MSTORE DUP4 DUP3 KECCAK256 PUSH1 0x9 ADD DUP1 SLOAD PUSH1 0x1 PUSH1 0x1 PUSH1 0xA0 SHL SUB NOT AND CALLER SWAP1 DUP2 OR SWAP1 SWAP2 SSTORE DUP4 SLOAD DUP4 MSTORE DUP5 DUP4 KECCAK256 TIMESTAMP PUSH1 0xA SWAP2 SWAP1 SWAP2 ADD SSTORE DUP4 SLOAD DUP4 MSTORE DUP5 DUP4 KECCAK256 DUP5 ADD DUP1 SLOAD PUSH1 0xFF NOT SWAP1 DUP2 AND SWAP1 SWAP4 OR SWAP1 SSTORE DUP4 SLOAD DUP4 MSTORE DUP5 DUP4 KECCAK256 PUSH1 0x5 SWAP1 DUP2 ADD DUP1 SLOAD SWAP1 SWAP4 AND SWAP1 SWAP3 SSTORE SWAP3 SLOAD DUP3 MSTORE SWAP3 SWAP1 KECCAK256 PUSH2 0x7D99 SWAP3 ADD PUSH2 0x95AA JUMP JUMPDEST PUSH1 0xB SLOAD PUSH1 0x0 MSTORE PUSH1 0x1 PUSH1 0x20 MSTORE PUSH2 0x7DB5 CALLER PUSH1 0x6 PUSH1 0x40 PUSH1 0x0 KECCAK256 ADD PUSH2 0x9618 JUMP JUMPDEST PUSH1 0x0 DUP1 MLOAD PUSH1 0x20 PUSH2 0xA52D DUP4 CODECOPY DUP2 MLOAD SWAP2 MSTORE PUSH1 0xB SLOAD SWAP3 DUP4 SWAP3 PUSH2 0xF2C PUSH1 0x40 MLOAD SWAP3 DUP4 SWAP3 CALLER SWAP1 DUP5 PUSH2 0x963B JUMP JUMPDEST SWAP1 PUSH1 0x1F NOT DUP8 AND SWAP2 DUP4 PUSH1 0x0 MSTORE DUP2 PUSH1 0x0 KECCAK256 SWAP3 PUSH1 0x0 JUMPDEST DUP2 DUP2 LT PUSH2 0x7E2D JUMPI POP SWAP2 PUSH1 0x1 SWAP4 SWAP2 DUP10 PUSH2 0x3DB2 SWAP11 SWAP5 LT PUSH2 0x7E14 JUMPI JUMPDEST POP POP POP DUP2 SHL ADD SWAP1 SSTORE PUSH2 0x7D09 JUMP JUMPDEST ADD MLOAD PUSH1 0x0 NOT PUSH1 0xF8 DUP5 PUSH1 0x3 SHL AND SHR NOT AND SWAP1 SSTORE DUP8 DUP1 DUP1 PUSH2 0x7E07 JUMP JUMPDEST SWAP3 SWAP4 PUSH1 0x20 PUSH1 0x1 DUP2 SWAP3 DUP8 DUP7 ADD MLOAD DUP2 SSTORE ADD SWAP6 ADD SWAP4 ADD PUSH2 0x7DEE JUMP JUMPDEST SWAP1 PUSH1 0x1F NOT DUP4 AND SWAP2 DUP5 PUSH1 0x0 MSTORE DUP2 PUSH1 0x0 KECCAK256 SWAP3 PUSH1 0x0 JUMPDEST DUP2 DUP2 LT PUSH2 0x7E94 JUMPI POP SWAP1 DUP5 PUSH1 0x1 SWAP6 SWAP5 SWAP4 SWAP3 LT PUSH2 0x7E7B JUMPI JUMPDEST POP POP POP DUP2 SHL ADD SWAP1 SSTORE PUSH2 0x7CAF JUMP JUMPDEST ADD MLOAD PUSH1 0x0 NOT PUSH1 0xF8 DUP5 PUSH1 0x3 SHL AND SHR NOT AND SWAP1 SSTORE DUP8 DUP1 DUP1 PUSH2 0x7E6E JUMP JUMPDEST SWAP3 SWAP4 PUSH1 0x20 PUSH1 0x1 DUP2 SWAP3 DUP8 DUP7 ADD MLOAD DUP2 SSTORE ADD SWAP6 ADD SWAP4 ADD PUSH2 0x7E58 JUMP JUMPDEST PUSH1 0x1F NOT DUP3 AND SWAP1 DUP4 PUSH1 0x0 MSTORE DUP1 PUSH1 0x0 KECCAK256 SWAP2 PUSH1 0x0 JUMPDEST DUP2 DUP2 LT PUSH2 0x7EF8 JUMPI POP SWAP1 DUP4 PUSH1 0x1 SWAP5 SWAP4 SWAP3 LT PUSH2 0x7EDF JUMPI JUMPDEST POP POP DUP2 SHL ADD SWAP1 SSTORE PUSH2 0x7C58 JUMP JUMPDEST DUP8 ADD MLOAD PUSH1 0x0 NOT PUSH1 0xF8 DUP5 PUSH1 0x3 SHL AND SHR NOT AND SWAP1 SSTORE DUP9 DUP1 PUSH2 0x7ED3 JUMP JUMPDEST SWAP2 SWAP3 PUSH1 0x20 PUSH1 0x1 DUP2 SWAP3 DUP7 DUP13 ADD MLOAD DUP2 SSTORE ADD SWAP5 ADD SWAP3 ADD PUSH2 0x7EBE JUMP JUMPDEST CALLVALUE PUSH2 0x31E JUMPI PUSH2 0x7F1E CALLDATASIZE PUSH2 0x89CA JUMP JUMPDEST SWAP1 DUP1 PUSH1 0x0 MSTORE PUSH1 0x2 PUSH1 0x20 MSTORE PUSH2 0x7F3C PUSH1 0xFF PUSH1 0x8 PUSH1 0x40 PUSH1 0x0 KECCAK256 ADD SLOAD AND PUSH2 0x8EAF JUMP JUMPDEST PUSH1 0x40 MLOAD PUSH1 0x20 SWAP2 PUSH2 0x7F4C DUP4 DUP4 PUSH2 0x8A85 JUMP JUMPDEST PUSH1 0x0 DUP3 MSTORE DUP1 PUSH1 0x0 MSTORE PUSH1 0x2 DUP4 MSTORE PUSH2 0x7F6C PUSH1 0xFF PUSH1 0x8 PUSH1 0x40 PUSH1 0x0 KECCAK256 ADD SLOAD AND PUSH2 0x8EAF JUMP JUMPDEST DUP1 PUSH1 0x0 MSTORE PUSH1 0x2 DUP4 MSTORE PUSH2 0x3E7 PUSH2 0x7F8E PUSH1 0x6 PUSH1 0x40 PUSH1 0x0 KECCAK256 ADD PUSH1 0x40 MLOAD SWAP3 DUP4 DUP1 SWAP3 PUSH2 0x8BEE JUMP JUMPDEST DUP4 DUP2 MLOAD SWAP2 ADD KECCAK256 PUSH2 0x7F9C PUSH2 0x9D29 JUMP JUMPDEST DUP5 DUP2 MLOAD SWAP2 ADD KECCAK256 SUB PUSH2 0x84DD JUMPI PUSH1 0x0 DUP2 DUP2 MSTORE PUSH1 0x2 DUP1 DUP6 MSTORE PUSH1 0x40 SWAP1 SWAP2 KECCAK256 ADD SLOAD PUSH1 0x1 PUSH1 0x1 PUSH1 0xA0 SHL SUB AND CALLER SUB PUSH2 0x849A JUMPI PUSH2 0x7FD2 DUP5 ISZERO ISZERO PUSH2 0x94EF JUMP JUMPDEST DUP1 PUSH1 0x0 MSTORE PUSH1 0x2 DUP4 MSTORE PUSH1 0x4 PUSH1 0x40 PUSH1 0x0 KECCAK256 ADD SLOAD TIMESTAMP LT ISZERO DUP1 PUSH2 0x8480 JUMPI JUMPDEST ISZERO PUSH2 0x8438 JUMPI DUP1 PUSH1 0x0 MSTORE PUSH1 0x2 DUP4 MSTORE PUSH1 0x3 PUSH1 0x40 PUSH1 0x0 KECCAK256 ADD SLOAD PUSH1 0x0 MSTORE PUSH1 0x1 DUP4 MSTORE PUSH1 0x40 PUSH1 0x0 KECCAK256 PUSH1 0x1 DUP1 PUSH1 0xA0 SHL SUB PUSH1 0x9 DUP3 ADD SLOAD AND DUP3 PUSH1 0x0 MSTORE PUSH1 0x2 DUP6 MSTORE PUSH1 0x1 DUP1 PUSH1 0xA0 SHL SUB PUSH1 0x1 PUSH1 0x40 PUSH1 0x0 KECCAK256 ADD SLOAD AND SUB PUSH2 0x83F9 JUMPI DUP5 PUSH1 0x7 PUSH2 0x8049 SWAP3 ADD SLOAD LT ISZERO PUSH2 0x9CCD JUMP JUMPDEST PUSH1 0x0 MSTORE PUSH1 0x2 DUP3 MSTORE PUSH1 0x40 PUSH1 0x0 KECCAK256 SWAP3 PUSH1 0x7 DUP5 ADD DUP1 SLOAD SWAP1 PUSH1 0x0 NOT DUP3 ADD SWAP2 DUP3 GT PUSH2 0x38B JUMPI PUSH1 0x1 SWAP2 PUSH2 0x8075 SWAP2 PUSH2 0x9012 JUMP JUMPDEST POP ADD SLOAD SWAP2 DUP3 ISZERO PUSH2 0x2EDE JUMPI PUSH2 0x808F DUP4 PUSH1 0x0 NOT DIV DUP4 GT ISZERO PUSH2 0x9C76 JUMP JUMPDEST PUSH2 0x8099 DUP3 DUP5 PUSH2 0x9CBA JUMP JUMPDEST PUSH1 0xE SLOAD SWAP4 DUP5 PUSH1 0x0 MSTORE PUSH1 0x4 DUP7 MSTORE DUP5 PUSH1 0x40 PUSH1 0x0 KECCAK256 SSTORE PUSH1 0x2 DUP8 ADD SWAP5 PUSH1 0x1 DUP1 PUSH1 0xA0 SHL SUB DUP7 SLOAD AND SWAP1 PUSH1 0x0 MSTORE PUSH1 0x4 DUP8 MSTORE PUSH1 0x1 PUSH1 0x40 PUSH1 0x0 KECCAK256 ADD SWAP1 PUSH1 0x1 DUP1 PUSH1 0xA0 SHL SUB AND PUSH1 0x1 DUP1 PUSH1 0xA0 SHL SUB NOT DUP3 SLOAD AND OR SWAP1 SSTORE PUSH1 0x3 PUSH1 0x1 DUP9 ADD SWAP8 PUSH1 0x1 DUP1 PUSH1 0xA0 SHL SUB DUP10 SLOAD AND PUSH1 0xE SLOAD PUSH1 0x0 MSTORE PUSH1 0x4 DUP10 MSTORE PUSH1 0x2 PUSH1 0x40 PUSH1 0x0 KECCAK256 ADD SWAP1 PUSH1 0x1 DUP1 PUSH1 0xA0 SHL SUB AND PUSH1 0x1 DUP1 PUSH1 0xA0 SHL SUB NOT DUP3 SLOAD AND OR SWAP1 SSTORE ADD SLOAD PUSH1 0xE SLOAD PUSH1 0x0 MSTORE PUSH1 0x4 DUP8 MSTORE PUSH1 0x3 PUSH1 0x40 PUSH1 0x0 KECCAK256 ADD SSTORE PUSH1 0xE SLOAD PUSH1 0x0 MSTORE PUSH1 0x4 DUP7 MSTORE DUP4 PUSH1 0x4 PUSH1 0x40 PUSH1 0x0 KECCAK256 ADD SSTORE PUSH1 0xE SLOAD PUSH1 0x0 MSTORE PUSH1 0x4 DUP7 MSTORE PUSH1 0x5 PUSH1 0x40 PUSH1 0x0 KECCAK256 ADD SSTORE PUSH1 0xE SLOAD PUSH1 0x0 MSTORE PUSH1 0x4 DUP6 MSTORE PUSH1 0x6 PUSH1 0x40 PUSH1 0x0 KECCAK256 ADD SSTORE PUSH1 0xE SLOAD PUSH1 0x0 MSTORE PUSH1 0x4 DUP5 MSTORE PUSH1 0x7 PUSH1 0x40 PUSH1 0x0 KECCAK256 ADD PUSH2 0x818A PUSH2 0xCC5 DUP3 SLOAD PUSH2 0x8BB4 JUMP JUMPDEST PUSH1 0x18 PUSH12 0x72656C6174696F6E7368697 PUSH1 0xA4 SHL ADD SWAP1 SSTORE PUSH1 0xE SLOAD PUSH1 0x0 MSTORE PUSH1 0x4 DUP5 MSTORE PUSH1 0x8 PUSH1 0x40 PUSH1 0x0 KECCAK256 ADD PUSH2 0x81BE PUSH2 0xCC5 DUP3 SLOAD PUSH2 0x8BB4 JUMP JUMPDEST PUSH1 0xE PUSH7 0x70656E64696E67 PUSH1 0xC8 SHL ADD SWAP1 SSTORE PUSH1 0xE SLOAD PUSH1 0x0 MSTORE PUSH1 0x4 DUP5 MSTORE TIMESTAMP PUSH1 0x9 PUSH1 0x40 PUSH1 0x0 KECCAK256 ADD SSTORE PUSH3 0x2A300 TIMESTAMP ADD DUP1 TIMESTAMP GT PUSH2 0x38B JUMPI PUSH1 0xE SLOAD PUSH1 0x0 MSTORE PUSH1 0x4 DUP6 MSTORE PUSH1 0xA PUSH1 0x40 PUSH1 0x0 KECCAK256 ADD SSTORE PUSH1 0xE SLOAD PUSH1 0x0 MSTORE PUSH1 0x4 DUP5 MSTORE PUSH1 0x0 PUSH1 0xB PUSH1 0x40 DUP3 KECCAK256 ADD SSTORE PUSH1 0xE SLOAD PUSH1 0x0 MSTORE PUSH1 0x4 DUP5 MSTORE PUSH1 0xC PUSH1 0x40 PUSH1 0x0 KECCAK256 ADD SWAP1 DUP1 MLOAD SWAP1 PUSH1 0x1 DUP1 PUSH1 0x40 SHL SUB DUP3 GT PUSH2 0x832 JUMPI PUSH2 0x8247 DUP3 PUSH2 0xDF9 DUP6 SLOAD PUSH2 0x8BB4 JUMP JUMPDEST DUP6 SWAP1 PUSH1 0x1F DUP4 GT PUSH1 0x1 EQ PUSH2 0x837C JUMPI SWAP3 PUSH2 0x8280 DUP4 PUSH2 0x58CD SWAP10 SWAP5 PUSH1 0x0 DUP1 MLOAD PUSH1 0x20 PUSH2 0xA44D DUP4 CODECOPY DUP2 MLOAD SWAP2 MSTORE SWAP8 SWAP5 PUSH1 0xC0 SWAP8 PUSH1 0x0 SWAP3 PUSH2 0x3090 JUMPI POP POP PUSH2 0x9586 JUMP JUMPDEST SWAP1 SSTORE JUMPDEST PUSH1 0xE SLOAD PUSH1 0x0 MSTORE PUSH1 0x4 DUP7 MSTORE PUSH1 0xE PUSH1 0x40 PUSH1 0x0 KECCAK256 ADD PUSH1 0x1 PUSH1 0xFF NOT DUP3 SLOAD AND OR SWAP1 SSTORE PUSH1 0xE SLOAD PUSH1 0x0 MSTORE PUSH1 0x4 DUP7 MSTORE PUSH1 0xE PUSH1 0x40 PUSH1 0x0 KECCAK256 ADD PUSH2 0xFF00 NOT DUP2 SLOAD AND SWAP1 SSTORE PUSH1 0xE SLOAD PUSH1 0x0 MSTORE PUSH1 0x4 DUP7 MSTORE PUSH1 0x0 PUSH1 0xF PUSH1 0x40 DUP3 KECCAK256 ADD SSTORE PUSH1 0xE SLOAD PUSH1 0x0 MSTORE PUSH1 0x4 DUP7 MSTORE PUSH1 0x0 PUSH1 0x10 PUSH1 0x40 DUP3 KECCAK256 ADD SSTORE PUSH1 0x1 DUP1 PUSH1 0xA0 SHL SUB DUP6 SLOAD AND PUSH1 0x0 MSTORE PUSH1 0x9 DUP7 MSTORE PUSH2 0x8305 PUSH1 0x40 PUSH1 0x0 KECCAK256 PUSH1 0xE SLOAD SWAP1 PUSH2 0x99B0 JUMP JUMPDEST DUP2 SLOAD PUSH1 0x1 PUSH1 0x1 PUSH1 0xA0 SHL SUB AND PUSH1 0x0 SWAP1 DUP2 MSTORE PUSH1 0x9 DUP8 MSTORE PUSH1 0x40 SWAP1 KECCAK256 PUSH1 0xE SLOAD PUSH2 0x8329 SWAP2 PUSH2 0x99B0 JUMP JUMPDEST PUSH1 0xE SLOAD SWAP6 DUP7 SWAP6 PUSH1 0x1 DUP1 PUSH1 0xA0 SHL SUB SWAP1 SLOAD AND SWAP3 PUSH1 0x1 DUP1 PUSH1 0xA0 SHL SUB SWAP1 SLOAD AND SWAP1 PUSH1 0x40 MLOAD SWAP4 DUP5 MSTORE DUP4 ADD MSTORE PUSH1 0x40 DUP3 ADD MSTORE PUSH1 0x80 PUSH1 0x60 DUP3 ADD MSTORE PUSH1 0xC PUSH1 0x80 DUP3 ADD MSTORE PUSH12 0x72656C6174696F6E7368697 PUSH1 0xA4 SHL PUSH1 0xA0 DUP3 ADD MSTORE LOG2 PUSH2 0x93F8 JUMP JUMPDEST SWAP1 PUSH1 0x1F NOT DUP4 AND SWAP2 DUP5 PUSH1 0x0 MSTORE DUP8 PUSH1 0x0 KECCAK256 SWAP3 PUSH1 0x0 JUMPDEST DUP2 DUP2 LT PUSH2 0x83E2 JUMPI POP SWAP4 PUSH1 0x0 DUP1 MLOAD PUSH1 0x20 PUSH2 0xA44D DUP4 CODECOPY DUP2 MLOAD SWAP2 MSTORE SWAP7 SWAP4 PUSH1 0xC0 SWAP7 SWAP4 PUSH1 0x1 SWAP4 DUP4 PUSH2 0x58CD SWAP14 SWAP9 LT PUSH2 0x83C9 JUMPI JUMPDEST POP POP POP DUP2 SHL ADD SWAP1 SSTORE PUSH2 0x8283 JUMP JUMPDEST ADD MLOAD PUSH1 0x0 NOT PUSH1 0xF8 DUP5 PUSH1 0x3 SHL AND SHR NOT AND SWAP1 SSTORE DUP11 DUP1 DUP1 PUSH2 0x83BC JUMP JUMPDEST SWAP3 SWAP4 DUP10 PUSH1 0x1 DUP2 SWAP3 DUP8 DUP7 ADD MLOAD DUP2 SSTORE ADD SWAP6 ADD SWAP4 ADD PUSH2 0x838F JUMP JUMPDEST PUSH1 0x40 MLOAD PUSH3 0x461BCD PUSH1 0xE5 SHL DUP2 MSTORE PUSH1 0x4 DUP2 ADD DUP6 SWAP1 MSTORE PUSH1 0x24 DUP1 DUP3 ADD MSTORE PUSH1 0x0 DUP1 MLOAD PUSH1 0x20 PUSH2 0xA58D DUP4 CODECOPY DUP2 MLOAD SWAP2 MSTORE PUSH1 0x44 DUP3 ADD MSTORE PUSH4 0x191D58DD PUSH1 0xE2 SHL PUSH1 0x64 DUP3 ADD MSTORE PUSH1 0x84 SWAP1 REVERT JUMPDEST PUSH1 0x40 MLOAD PUSH3 0x461BCD PUSH1 0xE5 SHL DUP2 MSTORE PUSH1 0x4 DUP2 ADD DUP5 SWAP1 MSTORE PUSH1 0x2C PUSH1 0x24 DUP3 ADD MSTORE PUSH1 0x0 DUP1 MLOAD PUSH1 0x20 PUSH2 0xA4AD DUP4 CODECOPY DUP2 MLOAD SWAP2 MSTORE PUSH1 0x44 DUP3 ADD MSTORE PUSH12 0x6520666F72206F7264657273 PUSH1 0xA0 SHL PUSH1 0x64 DUP3 ADD MSTORE PUSH1 0x84 SWAP1 REVERT JUMPDEST POP DUP1 PUSH1 0x0 MSTORE PUSH1 0x2 DUP4 MSTORE PUSH1 0x5 PUSH1 0x40 PUSH1 0x0 KECCAK256 ADD SLOAD TIMESTAMP GT ISZERO PUSH2 0x7FEC JUMP JUMPDEST PUSH1 0x40 MLOAD PUSH3 0x461BCD PUSH1 0xE5 SHL DUP2 MSTORE PUSH1 0x4 DUP2 ADD DUP5 SWAP1 MSTORE PUSH1 0x1B PUSH1 0x24 DUP3 ADD MSTORE PUSH27 0x4F6E6C792062757965722063616E20706C616365206F7264657273 PUSH1 0x28 SHL PUSH1 0x44 DUP3 ADD MSTORE PUSH1 0x64 SWAP1 REVERT JUMPDEST PUSH1 0x40 MLOAD PUSH3 0x461BCD PUSH1 0xE5 SHL DUP2 MSTORE PUSH1 0x4 DUP2 ADD DUP5 SWAP1 MSTORE PUSH1 0x19 PUSH1 0x24 DUP3 ADD MSTORE PUSH25 0x14995B185D1A5BDB9CDA1A5C081B9BDD081858D8D95C1D1959 PUSH1 0x3A SHL PUSH1 0x44 DUP3 ADD MSTORE PUSH1 0x64 SWAP1 REVERT JUMPDEST CALLVALUE PUSH2 0x31E JUMPI PUSH1 0x20 CALLDATASIZE PUSH1 0x3 NOT ADD SLT PUSH2 0x31E JUMPI PUSH2 0x8537 PUSH2 0x896A JUMP JUMPDEST PUSH1 0xB SLOAD SWAP1 PUSH2 0x8544 DUP3 PUSH2 0x93A5 JUMP JUMPDEST SWAP2 PUSH1 0x0 SWAP2 PUSH1 0x1 JUMPDEST DUP3 DUP2 LT PUSH2 0x859E JUMPI POP POP POP PUSH2 0x855E DUP2 PUSH2 0x93A5 JUMP JUMPDEST SWAP2 PUSH1 0x0 JUMPDEST DUP3 DUP2 LT PUSH2 0x857F JUMPI PUSH1 0x40 MLOAD PUSH1 0x20 DUP1 DUP3 MSTORE DUP2 SWAP1 PUSH2 0x626 SWAP1 DUP3 ADD DUP8 PUSH2 0x8996 JUMP JUMPDEST DUP1 PUSH2 0x858C PUSH1 0x1 SWAP3 DUP5 PUSH2 0x93E4 JUMP JUMPDEST MLOAD PUSH2 0x8597 DUP3 DUP8 PUSH2 0x93E4 JUMP JUMPDEST MSTORE ADD PUSH2 0x8562 JUMP JUMPDEST DUP1 PUSH1 0x0 MSTORE PUSH1 0x1 PUSH1 0x20 MSTORE PUSH1 0xFF PUSH1 0xB PUSH1 0x40 PUSH1 0x0 KECCAK256 ADD SLOAD AND DUP1 PUSH2 0x8600 JUMPI JUMPDEST DUP1 PUSH2 0x85E6 JUMPI JUMPDEST PUSH2 0x85CC JUMPI JUMPDEST PUSH1 0x1 ADD PUSH2 0x854B JUMP JUMPDEST SWAP3 PUSH2 0x85DE DUP2 DUP6 PUSH2 0x5A2 PUSH1 0x1 SWAP5 DUP10 PUSH2 0x93E4 JUMP JUMPDEST SWAP4 SWAP1 POP PUSH2 0x85C4 JUMP JUMPDEST POP DUP1 PUSH1 0x0 MSTORE PUSH1 0x1 PUSH1 0x20 MSTORE PUSH1 0x7 PUSH1 0x40 PUSH1 0x0 KECCAK256 ADD SLOAD ISZERO ISZERO PUSH2 0x85BF JUMP JUMPDEST POP PUSH1 0x0 DUP2 DUP2 MSTORE PUSH1 0x1 PUSH1 0x20 MSTORE PUSH1 0x40 SWAP1 KECCAK256 PUSH1 0x9 ADD SLOAD PUSH1 0x1 PUSH1 0x1 PUSH1 0xA0 SHL SUB DUP4 DUP2 AND SWAP2 AND EQ PUSH2 0x85B9 JUMP JUMPDEST CALLVALUE PUSH2 0x31E JUMPI PUSH1 0x20 CALLDATASIZE PUSH1 0x3 NOT ADD SLT PUSH2 0x31E JUMPI PUSH1 0x4 CALLDATALOAD DUP1 PUSH1 0x0 MSTORE PUSH1 0x4 PUSH1 0x20 MSTORE PUSH2 0x8657 PUSH1 0xFF PUSH1 0xE PUSH1 0x40 PUSH1 0x0 KECCAK256 ADD SLOAD AND PUSH2 0x926B JUMP JUMPDEST PUSH1 0x0 MSTORE PUSH1 0x4 PUSH1 0x20 MSTORE PUSH2 0x866F PUSH1 0xD PUSH1 0x40 PUSH1 0x0 KECCAK256 ADD PUSH2 0x9307 JUMP JUMPDEST PUSH1 0x40 MLOAD DUP1 SWAP2 PUSH1 0x20 DUP3 ADD PUSH1 0x20 DUP4 MSTORE DUP2 MLOAD DUP1 SWAP2 MSTORE PUSH1 0x40 DUP4 ADD SWAP1 PUSH1 0x20 PUSH1 0x40 DUP3 PUSH1 0x5 SHL DUP7 ADD ADD SWAP4 ADD SWAP2 PUSH1 0x0 SWAP1 JUMPDEST DUP3 DUP3 LT PUSH2 0x86A7 JUMPI POP POP POP POP SUB SWAP1 RETURN JUMPDEST SWAP2 SWAP4 PUSH1 0x1 SWAP2 SWAP4 SWAP6 POP PUSH1 0x20 PUSH2 0x86C6 DUP2 SWAP3 PUSH1 0x3F NOT DUP11 DUP3 SUB ADD DUP7 MSTORE DUP9 MLOAD PUSH2 0x8922 JUMP JUMPDEST SWAP7 ADD SWAP3 ADD SWAP3 ADD DUP6 SWAP5 SWAP4 SWAP2 SWAP3 PUSH2 0x8698 JUMP JUMPDEST CALLVALUE PUSH2 0x31E JUMPI PUSH1 0x20 CALLDATASIZE PUSH1 0x3 NOT ADD SLT PUSH2 0x31E JUMPI PUSH2 0x626 PUSH2 0x615F PUSH1 0x4 CALLDATALOAD PUSH2 0x9178 JUMP JUMPDEST CALLVALUE PUSH2 0x31E JUMPI PUSH1 0x20 CALLDATASIZE PUSH1 0x3 NOT ADD SLT PUSH2 0x31E JUMPI PUSH1 0x4 CALLDATALOAD DUP1 PUSH1 0x0 MSTORE PUSH1 0x2 PUSH1 0x20 MSTORE PUSH2 0x8726 PUSH1 0xFF PUSH1 0x8 PUSH1 0x40 PUSH1 0x0 KECCAK256 ADD SLOAD AND PUSH2 0x8EAF JUMP JUMPDEST DUP1 PUSH1 0x0 MSTORE PUSH1 0x2 PUSH1 0x20 MSTORE PUSH1 0x1 DUP1 PUSH1 0xA0 SHL SUB PUSH1 0x1 PUSH1 0x40 PUSH1 0x0 KECCAK256 ADD SLOAD AND CALLER EQ DUP1 ISZERO PUSH2 0x8873 JUMPI JUMPDEST PUSH2 0x8752 SWAP1 PUSH2 0x8EF9 JUMP JUMPDEST DUP1 PUSH1 0x0 MSTORE PUSH1 0x2 PUSH1 0x20 MSTORE PUSH2 0x8778 PUSH2 0x3E7 PUSH2 0x8C5 PUSH1 0x6 PUSH1 0x40 PUSH1 0x0 KECCAK256 ADD PUSH1 0x40 MLOAD SWAP3 DUP4 DUP1 SWAP3 PUSH2 0x8BEE JUMP JUMPDEST DUP1 PUSH1 0x0 MSTORE PUSH1 0x2 PUSH1 0x20 MSTORE PUSH1 0x7 PUSH1 0x40 PUSH1 0x0 KECCAK256 ADD DUP1 SLOAD PUSH2 0x8796 DUP2 ISZERO ISZERO PUSH2 0x8FC0 JUMP JUMPDEST PUSH1 0x0 NOT DUP2 ADD SWAP1 DUP2 GT PUSH2 0x38B JUMPI PUSH2 0x87AB SWAP2 PUSH2 0x9012 JUMP JUMPDEST POP PUSH1 0x2 ADD SLOAD PUSH1 0x1 PUSH1 0x1 PUSH1 0xA0 SHL SUB AND CALLER EQ PUSH2 0x8815 JUMPI DUP1 PUSH1 0x0 MSTORE PUSH1 0x2 PUSH1 0x20 MSTORE PUSH1 0x6 PUSH1 0x40 PUSH1 0x0 KECCAK256 ADD PUSH2 0x87DD PUSH2 0xCC5 DUP3 SLOAD PUSH2 0x8BB4 JUMP JUMPDEST PUSH1 0x10 PUSH8 0x1C995A9958DD1959 PUSH1 0xC2 SHL ADD SWAP1 SSTORE PUSH32 0x1C032CA7C9258C119A8E5426C4FE45B5D5F475140C11627D904BE2619683669C PUSH1 0x0 DUP1 LOG2 STOP JUMPDEST PUSH1 0x40 MLOAD PUSH3 0x461BCD PUSH1 0xE5 SHL DUP2 MSTORE PUSH1 0x20 PUSH1 0x4 DUP3 ADD MSTORE PUSH1 0x30 PUSH1 0x24 DUP3 ADD MSTORE PUSH32 0x43616E6E6F742072656A656374207768656E20796F7520617265207468652072 PUSH1 0x44 DUP3 ADD MSTORE PUSH16 0x65717565737446726F6D207061727479 PUSH1 0x80 SHL PUSH1 0x64 DUP3 ADD MSTORE PUSH1 0x84 SWAP1 REVERT JUMPDEST POP PUSH1 0x0 DUP2 DUP2 MSTORE PUSH1 0x2 PUSH1 0x20 DUP2 SWAP1 MSTORE PUSH1 0x40 SWAP1 SWAP2 KECCAK256 ADD SLOAD PUSH1 0x1 PUSH1 0x1 PUSH1 0xA0 SHL SUB AND CALLER EQ PUSH2 0x8749 JUMP JUMPDEST PUSH1 0x20 PUSH1 0x40 DUP2 DUP4 ADD SWAP3 DUP3 DUP2 MSTORE DUP5 MLOAD DUP1 SWAP5 MSTORE ADD SWAP3 ADD SWAP1 PUSH1 0x0 JUMPDEST DUP2 DUP2 LT PUSH2 0x88BB JUMPI POP POP POP SWAP1 JUMP JUMPDEST DUP3 MLOAD PUSH1 0x1 PUSH1 0x1 PUSH1 0xA0 SHL SUB AND DUP5 MSTORE PUSH1 0x20 SWAP4 DUP5 ADD SWAP4 SWAP1 SWAP3 ADD SWAP2 PUSH1 0x1 ADD PUSH2 0x88AE JUMP JUMPDEST PUSH1 0x0 JUMPDEST DUP4 DUP2 LT PUSH2 0x88ED JUMPI POP POP PUSH1 0x0 SWAP2 ADD MSTORE JUMP JUMPDEST DUP2 DUP2 ADD MLOAD DUP4 DUP3 ADD MSTORE PUSH1 0x20 ADD PUSH2 0x88DD JUMP JUMPDEST SWAP1 PUSH1 0x20 SWAP2 PUSH2 0x8916 DUP2 MLOAD DUP1 SWAP3 DUP2 DUP6 MSTORE DUP6 DUP1 DUP7 ADD SWAP2 ADD PUSH2 0x88DA JUMP JUMPDEST PUSH1 0x1F ADD PUSH1 0x1F NOT AND ADD ADD SWAP1 JUMP JUMPDEST SWAP1 DUP2 MLOAD DUP2 MSTORE PUSH1 0x60 PUSH2 0x8957 PUSH2 0x8945 PUSH1 0x20 DUP6 ADD MLOAD PUSH1 0x80 PUSH1 0x20 DUP7 ADD MSTORE PUSH1 0x80 DUP6 ADD SWAP1 PUSH2 0x88FD JUMP JUMPDEST PUSH1 0x40 DUP6 ADD MLOAD DUP5 DUP3 SUB PUSH1 0x40 DUP7 ADD MSTORE PUSH2 0x88FD JUMP JUMPDEST SWAP3 DUP2 ADD MLOAD PUSH1 0x1 PUSH1 0x1 PUSH1 0xA0 SHL SUB AND SWAP2 ADD MSTORE SWAP1 JUMP JUMPDEST PUSH1 0x4 CALLDATALOAD SWAP1 PUSH1 0x1 PUSH1 0x1 PUSH1 0xA0 SHL SUB DUP3 AND DUP3 SUB PUSH2 0x31E JUMPI JUMP JUMPDEST PUSH1 0x24 CALLDATALOAD SWAP1 PUSH1 0x1 PUSH1 0x1 PUSH1 0xA0 SHL SUB DUP3 AND DUP3 SUB PUSH2 0x31E JUMPI JUMP JUMPDEST SWAP1 PUSH1 0x20 DUP1 DUP4 MLOAD SWAP3 DUP4 DUP2 MSTORE ADD SWAP3 ADD SWAP1 PUSH1 0x0 JUMPDEST DUP2 DUP2 LT PUSH2 0x89B4 JUMPI POP POP POP SWAP1 JUMP JUMPDEST DUP3 MLOAD DUP5 MSTORE PUSH1 0x20 SWAP4 DUP5 ADD SWAP4 SWAP1 SWAP3 ADD SWAP2 PUSH1 0x1 ADD PUSH2 0x89A7 JUMP JUMPDEST PUSH1 0x40 SWAP1 PUSH1 0x3 NOT ADD SLT PUSH2 0x31E JUMPI PUSH1 0x4 CALLDATALOAD SWAP1 PUSH1 0x24 CALLDATALOAD SWAP1 JUMP JUMPDEST PUSH1 0x80 DUP2 ADD SWAP1 DUP2 LT PUSH1 0x1 PUSH1 0x1 PUSH1 0x40 SHL SUB DUP3 GT OR PUSH2 0x832 JUMPI PUSH1 0x40 MSTORE JUMP JUMPDEST PUSH2 0x120 DUP2 ADD SWAP1 DUP2 LT PUSH1 0x1 PUSH1 0x1 PUSH1 0x40 SHL SUB DUP3 GT OR PUSH2 0x832 JUMPI PUSH1 0x40 MSTORE JUMP JUMPDEST PUSH1 0xA0 DUP2 ADD SWAP1 DUP2 LT PUSH1 0x1 PUSH1 0x1 PUSH1 0x40 SHL SUB DUP3 GT OR PUSH2 0x832 JUMPI PUSH1 0x40 MSTORE JUMP JUMPDEST PUSH1 0xE0 DUP2 ADD SWAP1 DUP2 LT PUSH1 0x1 PUSH1 0x1 PUSH1 0x40 SHL SUB DUP3 GT OR PUSH2 0x832 JUMPI PUSH1 0x40 MSTORE JUMP JUMPDEST PUSH2 0x1A0 DUP2 ADD SWAP1 DUP2 LT PUSH1 0x1 PUSH1 0x1 PUSH1 0x40 SHL SUB DUP3 GT OR PUSH2 0x832 JUMPI PUSH1 0x40 MSTORE JUMP JUMPDEST PUSH2 0x240 DUP2 ADD SWAP1 DUP2 LT PUSH1 0x1 PUSH1 0x1 PUSH1 0x40 SHL SUB DUP3 GT OR PUSH2 0x832 JUMPI PUSH1 0x40 MSTORE JUMP JUMPDEST PUSH1 0x1F SWAP1 SWAP2 ADD PUSH1 0x1F NOT AND DUP2 ADD SWAP1 PUSH1 0x1 PUSH1 0x1 PUSH1 0x40 SHL SUB DUP3 GT SWAP1 DUP3 LT OR PUSH2 0x832 JUMPI PUSH1 0x40 MSTORE JUMP JUMPDEST DUP2 PUSH1 0x1F DUP3 ADD SLT ISZERO PUSH2 0x31E JUMPI DUP1 CALLDATALOAD SWAP1 PUSH1 0x1 PUSH1 0x1 PUSH1 0x40 SHL SUB DUP3 GT PUSH2 0x832 JUMPI PUSH1 0x40 MLOAD SWAP3 PUSH2 0x8ADC PUSH1 0x1F DUP5 ADD PUSH1 0x1F NOT AND PUSH1 0x20 ADD DUP6 PUSH2 0x8A85 JUMP JUMPDEST DUP3 DUP5 MSTORE PUSH1 0x20 DUP4 DUP4 ADD ADD GT PUSH2 0x31E JUMPI DUP2 PUSH1 0x0 SWAP3 PUSH1 0x20 DUP1 SWAP4 ADD DUP4 DUP7 ADD CALLDATACOPY DUP4 ADD ADD MSTORE SWAP1 JUMP JUMPDEST PUSH1 0x60 PUSH1 0x3 NOT DUP3 ADD SLT PUSH2 0x31E JUMPI PUSH1 0x4 CALLDATALOAD SWAP2 PUSH1 0x24 CALLDATALOAD PUSH1 0x1 PUSH1 0x1 PUSH1 0x40 SHL SUB DUP2 GT PUSH2 0x31E JUMPI DUP3 PUSH2 0x8B2C SWAP2 PUSH1 0x4 ADD PUSH2 0x8AA8 JUMP JUMPDEST SWAP2 PUSH1 0x44 CALLDATALOAD SWAP1 PUSH1 0x1 PUSH1 0x1 PUSH1 0x40 SHL SUB DUP3 GT PUSH2 0x31E JUMPI PUSH2 0x8B4B SWAP2 PUSH1 0x4 ADD PUSH2 0x8AA8 JUMP JUMPDEST SWAP1 JUMP JUMPDEST SWAP1 PUSH1 0x20 DUP1 DUP4 MLOAD SWAP3 DUP4 DUP2 MSTORE ADD SWAP3 ADD SWAP1 PUSH1 0x0 JUMPDEST DUP2 DUP2 LT PUSH2 0x8B6C JUMPI POP POP POP SWAP1 JUMP JUMPDEST SWAP1 SWAP2 SWAP3 PUSH1 0x20 PUSH1 0xA0 PUSH1 0x1 SWAP3 PUSH1 0x80 DUP8 MLOAD DUP1 MLOAD DUP4 MSTORE DUP5 DUP2 ADD MLOAD DUP6 DUP5 ADD MSTORE DUP6 DUP1 DUP6 SHL SUB PUSH1 0x40 DUP3 ADD MLOAD AND PUSH1 0x40 DUP5 ADD MSTORE PUSH1 0x60 DUP2 ADD MLOAD PUSH1 0x60 DUP5 ADD MSTORE ADD MLOAD PUSH1 0x80 DUP3 ADD MSTORE ADD SWAP5 ADD SWAP2 ADD SWAP2 SWAP1 SWAP2 PUSH2 0x8B5F JUMP JUMPDEST SWAP1 PUSH1 0x1 DUP3 DUP2 SHR SWAP3 AND DUP1 ISZERO PUSH2 0x8BE4 JUMPI JUMPDEST PUSH1 0x20 DUP4 LT EQ PUSH2 0x8BCE JUMPI JUMP JUMPDEST PUSH4 0x4E487B71 PUSH1 0xE0 SHL PUSH1 0x0 MSTORE PUSH1 0x22 PUSH1 0x4 MSTORE PUSH1 0x24 PUSH1 0x0 REVERT JUMPDEST SWAP2 PUSH1 0x7F AND SWAP2 PUSH2 0x8BC3 JUMP JUMPDEST PUSH1 0x0 SWAP3 SWAP2 DUP2 SLOAD SWAP2 PUSH2 0x8BFE DUP4 PUSH2 0x8BB4 JUMP JUMPDEST DUP1 DUP4 MSTORE SWAP3 PUSH1 0x1 DUP2 AND SWAP1 DUP2 ISZERO PUSH2 0x8C54 JUMPI POP PUSH1 0x1 EQ PUSH2 0x8C1A JUMPI POP POP POP JUMP JUMPDEST PUSH1 0x0 SWAP1 DUP2 MSTORE PUSH1 0x20 DUP2 KECCAK256 SWAP4 SWAP5 POP SWAP2 SWAP3 JUMPDEST DUP4 DUP4 LT PUSH2 0x8C3A JUMPI POP PUSH1 0x20 SWAP3 POP ADD ADD SWAP1 JUMP JUMPDEST PUSH1 0x1 DUP2 PUSH1 0x20 SWAP3 SWAP5 SWAP4 SWAP5 SLOAD DUP4 DUP6 DUP8 ADD ADD MSTORE ADD SWAP2 ADD SWAP2 SWAP1 PUSH2 0x8C29 JUMP JUMPDEST SWAP2 POP POP PUSH1 0x20 SWAP4 SWAP5 POP PUSH1 0xFF SWAP3 SWAP2 SWAP3 NOT AND DUP4 DUP4 ADD MSTORE ISZERO ISZERO PUSH1 0x5 SHL ADD ADD SWAP1 JUMP JUMPDEST CALLVALUE PUSH2 0x31E JUMPI PUSH1 0x20 CALLDATASIZE PUSH1 0x3 NOT ADD SLT PUSH2 0x31E JUMPI PUSH2 0x8C8A PUSH2 0x896A JUMP JUMPDEST PUSH1 0x0 SWAP1 PUSH1 0x1 DUP1 PUSH1 0xA0 SHL SUB AND DUP2 MSTORE PUSH1 0x9 PUSH1 0x20 MSTORE PUSH1 0x40 DUP2 KECCAK256 PUSH1 0x40 MLOAD SWAP2 DUP3 PUSH1 0x20 DUP4 SLOAD SWAP2 DUP3 DUP2 MSTORE ADD SWAP3 DUP3 MSTORE PUSH1 0x20 DUP3 KECCAK256 SWAP2 JUMPDEST DUP2 DUP2 LT PUSH2 0x8CCE JUMPI PUSH2 0x626 DUP6 PUSH2 0xB01 DUP2 DUP8 SUB DUP3 PUSH2 0x8A85 JUMP JUMPDEST DUP3 SLOAD DUP5 MSTORE PUSH1 0x20 SWAP1 SWAP4 ADD SWAP3 PUSH1 0x1 SWAP3 DUP4 ADD SWAP3 ADD PUSH2 0x8CB7 JUMP JUMPDEST PUSH1 0x6 SLOAD DUP2 LT ISZERO PUSH2 0x8CFF JUMPI PUSH1 0x6 PUSH1 0x0 MSTORE PUSH1 0x20 PUSH1 0x0 KECCAK256 ADD SWAP1 PUSH1 0x0 SWAP1 JUMP JUMPDEST PUSH4 0x4E487B71 PUSH1 0xE0 SHL PUSH1 0x0 MSTORE PUSH1 0x32 PUSH1 0x4 MSTORE PUSH1 0x24 PUSH1 0x0 REVERT JUMPDEST DUP1 SLOAD DUP3 LT ISZERO PUSH2 0x8CFF JUMPI PUSH1 0x0 MSTORE PUSH1 0x20 PUSH1 0x0 KECCAK256 ADD SWAP1 PUSH1 0x0 SWAP1 JUMP JUMPDEST PUSH1 0x60 PUSH1 0x3 NOT DUP3 ADD SLT PUSH2 0x31E JUMPI PUSH1 0x4 CALLDATALOAD SWAP2 PUSH1 0x24 CALLDATALOAD SWAP2 PUSH1 0x44 CALLDATALOAD SWAP1 PUSH1 0x1 PUSH1 0x1 PUSH1 0x40 SHL SUB DUP3 GT PUSH2 0x31E JUMPI PUSH2 0x8B4B SWAP2 PUSH1 0x4 ADD PUSH2 0x8AA8 JUMP JUMPDEST SWAP1 DUP2 MSTORE PUSH1 0x20 DUP2 ADD SWAP2 SWAP1 SWAP2 MSTORE PUSH1 0x1 PUSH1 0x1 PUSH1 0xA0 SHL SUB SWAP1 SWAP2 AND PUSH1 0x40 DUP3 ADD MSTORE PUSH1 0x60 ADD SWAP1 JUMP JUMPDEST PUSH1 0x40 PUSH1 0x3 NOT DUP3 ADD SLT PUSH2 0x31E JUMPI PUSH1 0x4 CALLDATALOAD SWAP1 PUSH1 0x1 PUSH1 0x1 PUSH1 0x40 SHL SUB DUP3 GT PUSH2 0x31E JUMPI PUSH2 0x8DAA SWAP2 PUSH1 0x4 ADD PUSH2 0x8AA8 JUMP JUMPDEST SWAP1 PUSH1 0x24 CALLDATALOAD PUSH1 0x1 PUSH1 0x1 PUSH1 0xA0 SHL SUB DUP2 AND DUP2 SUB PUSH2 0x31E JUMPI SWAP1 JUMP JUMPDEST PUSH1 0x1 PUSH1 0x1 PUSH1 0x40 SHL SUB DUP2 GT PUSH2 0x832 JUMPI PUSH1 0x5 SHL PUSH1 0x20 ADD SWAP1 JUMP JUMPDEST SWAP1 DUP1 PUSH1 0x1F DUP4 ADD SLT ISZERO PUSH2 0x31E JUMPI DUP2 CALLDATALOAD PUSH2 0x8DEF DUP2 PUSH2 0x8DC1 JUMP JUMPDEST SWAP3 PUSH2 0x8DFD PUSH1 0x40 MLOAD SWAP5 DUP6 PUSH2 0x8A85 JUMP JUMPDEST DUP2 DUP5 MSTORE PUSH1 0x20 DUP1 DUP6 ADD SWAP3 PUSH1 0x5 SHL DUP3 ADD ADD SWAP3 DUP4 GT PUSH2 0x31E JUMPI PUSH1 0x20 ADD SWAP1 JUMPDEST DUP3 DUP3 LT PUSH2 0x8E25 JUMPI POP POP POP SWAP1 JUMP JUMPDEST DUP2 CALLDATALOAD DUP2 MSTORE PUSH1 0x20 SWAP2 DUP3 ADD SWAP2 ADD PUSH2 0x8E18 JUMP JUMPDEST SWAP1 PUSH1 0x20 DUP1 DUP4 MLOAD SWAP3 DUP4 DUP2 MSTORE ADD SWAP3 ADD SWAP1 PUSH1 0x0 JUMPDEST DUP2 DUP2 LT PUSH2 0x8E53 JUMPI POP POP POP SWAP1 JUMP JUMPDEST DUP3 MLOAD DUP1 MLOAD DUP6 MSTORE PUSH1 0x20 DUP2 DUP2 ADD MLOAD DUP2 DUP8 ADD MSTORE PUSH1 0x40 DUP1 DUP4 ADD MLOAD PUSH1 0x1 PUSH1 0x1 PUSH1 0xA0 SHL SUB AND SWAP1 DUP8 ADD MSTORE PUSH1 0x60 SWAP2 DUP3 ADD MLOAD SWAP2 DUP7 ADD SWAP2 SWAP1 SWAP2 MSTORE PUSH1 0x80 SWAP1 SWAP5 ADD SWAP4 SWAP1 SWAP3 ADD SWAP2 PUSH1 0x1 ADD PUSH2 0x8E46 JUMP JUMPDEST PUSH1 0x60 SWAP1 PUSH1 0x3 NOT ADD SLT PUSH2 0x31E JUMPI PUSH1 0x4 CALLDATALOAD SWAP1 PUSH1 0x24 CALLDATALOAD SWAP1 PUSH1 0x44 CALLDATALOAD SWAP1 JUMP JUMPDEST ISZERO PUSH2 0x8EB6 JUMPI JUMP JUMPDEST PUSH1 0x40 MLOAD PUSH3 0x461BCD PUSH1 0xE5 SHL DUP2 MSTORE PUSH1 0x20 PUSH1 0x4 DUP3 ADD MSTORE PUSH1 0x1B PUSH1 0x24 DUP3 ADD MSTORE PUSH27 0x14995B185D1A5BDB9CDA1A5C08191BD95CC81B9BDD08195E1A5CDD PUSH1 0x2A SHL PUSH1 0x44 DUP3 ADD MSTORE PUSH1 0x64 SWAP1 REVERT JUMPDEST ISZERO PUSH2 0x8F00 JUMPI JUMP JUMPDEST PUSH1 0x64 PUSH1 0x40 MLOAD PUSH3 0x461BCD PUSH1 0xE5 SHL DUP2 MSTORE PUSH1 0x20 PUSH1 0x4 DUP3 ADD MSTORE PUSH1 0x20 PUSH1 0x24 DUP3 ADD MSTORE PUSH32 0x4E6F74206120706172747920746F20746869732072656C6174696F6E73686970 PUSH1 0x44 DUP3 ADD MSTORE REVERT JUMPDEST PUSH1 0x40 MLOAD SWAP1 PUSH2 0x8F53 PUSH1 0x40 DUP4 PUSH2 0x8A85 JUMP JUMPDEST PUSH1 0x7 DUP3 MSTORE PUSH7 0x70656E64696E67 PUSH1 0xC8 SHL PUSH1 0x20 DUP4 ADD MSTORE JUMP JUMPDEST ISZERO PUSH2 0x8F70 JUMPI JUMP JUMPDEST PUSH1 0x40 MLOAD PUSH3 0x461BCD PUSH1 0xE5 SHL DUP2 MSTORE PUSH1 0x20 PUSH1 0x4 DUP3 ADD MSTORE PUSH1 0x22 PUSH1 0x24 DUP3 ADD MSTORE PUSH32 0x52656C6174696F6E73686970206E6F7420696E2070656E64696E672073746174 PUSH1 0x44 DUP3 ADD MSTORE PUSH2 0x7573 PUSH1 0xF0 SHL PUSH1 0x64 DUP3 ADD MSTORE PUSH1 0x84 SWAP1 REVERT JUMPDEST ISZERO PUSH2 0x8FC7 JUMPI JUMP JUMPDEST PUSH1 0x40 MLOAD PUSH3 0x461BCD PUSH1 0xE5 SHL DUP2 MSTORE PUSH1 0x20 PUSH1 0x4 DUP3 ADD MSTORE PUSH1 0x16 PUSH1 0x24 DUP3 ADD MSTORE PUSH22 0x4E6F206E65676F74696174696F6E20686973746F7279 PUSH1 0x50 SHL PUSH1 0x44 DUP3 ADD MSTORE PUSH1 0x64 SWAP1 REVERT JUMPDEST SWAP2 SWAP1 DUP3 SUB SWAP2 DUP3 GT PUSH2 0x38B JUMPI JUMP JUMPDEST DUP1 SLOAD DUP3 LT ISZERO PUSH2 0x8CFF JUMPI PUSH1 0x0 MSTORE PUSH1 0x5 PUSH1 0x20 PUSH1 0x0 KECCAK256 SWAP2 MUL ADD SWAP1 PUSH1 0x0 SWAP1 JUMP JUMPDEST DUP2 DUP2 LT PUSH2 0x9039 JUMPI POP POP JUMP JUMPDEST PUSH1 0x0 DUP2 SSTORE PUSH1 0x1 ADD PUSH2 0x902E JUMP JUMPDEST SWAP1 PUSH1 0x1F DUP2 GT PUSH2 0x9052 JUMPI POP POP JUMP JUMPDEST PUSH2 0x906D SWAP2 PUSH1 0x0 MSTORE PUSH1 0x1F PUSH1 0x20 PUSH1 0x0 KECCAK256 SWAP2 ADD PUSH1 0x5 SHR DUP2 ADD SWAP1 PUSH2 0x902E JUMP JUMPDEST JUMP JUMPDEST SWAP1 PUSH1 0x1F DUP2 GT PUSH2 0x907C JUMPI POP POP JUMP JUMPDEST PUSH2 0x906D SWAP2 PUSH1 0x0 MSTORE PUSH1 0x2 PUSH1 0x1F PUSH1 0x20 PUSH1 0x0 KECCAK256 SWAP3 ADD PUSH1 0x5 SHR DUP3 ADD SWAP2 ADD PUSH2 0x902E JUMP JUMPDEST SWAP2 SWAP1 PUSH1 0x1F DUP2 GT PUSH2 0x90A9 JUMPI POP POP POP JUMP JUMPDEST PUSH2 0x906D SWAP3 PUSH1 0x0 MSTORE PUSH1 0x20 PUSH1 0x0 KECCAK256 SWAP1 PUSH1 0x20 PUSH1 0x1F DUP5 ADD PUSH1 0x5 SHR DUP4 ADD SWAP4 LT PUSH2 0x90D5 JUMPI JUMPDEST PUSH1 0x1F ADD PUSH1 0x5 SHR ADD SWAP1 PUSH2 0x902E JUMP JUMPDEST SWAP1 SWAP2 POP DUP2 SWAP1 PUSH2 0x90C8 JUMP JUMPDEST ISZERO PUSH2 0x90E6 JUMPI JUMP JUMPDEST PUSH1 0x40 MLOAD PUSH3 0x461BCD PUSH1 0xE5 SHL DUP2 MSTORE PUSH1 0x20 PUSH1 0x4 DUP3 ADD MSTORE PUSH1 0x16 PUSH1 0x24 DUP3 ADD MSTORE PUSH22 0x141C9BD91D58DD08191BD95CC81B9BDD08195E1A5CDD PUSH1 0x52 SHL PUSH1 0x44 DUP3 ADD MSTORE PUSH1 0x64 SWAP1 REVERT JUMPDEST SWAP1 PUSH1 0x40 MLOAD SWAP2 DUP3 DUP2 SLOAD SWAP2 DUP3 DUP3 MSTORE PUSH1 0x20 DUP3 ADD SWAP1 PUSH1 0x0 MSTORE PUSH1 0x20 PUSH1 0x0 KECCAK256 SWAP3 PUSH1 0x0 JUMPDEST DUP2 DUP2 LT PUSH2 0x9156 JUMPI POP POP PUSH2 0x906D SWAP3 POP SUB DUP4 PUSH2 0x8A85 JUMP JUMPDEST DUP5 SLOAD PUSH1 0x1 PUSH1 0x1 PUSH1 0xA0 SHL SUB AND DUP4 MSTORE PUSH1 0x1 SWAP5 DUP6 ADD SWAP5 DUP8 SWAP5 POP PUSH1 0x20 SWAP1 SWAP4 ADD SWAP3 ADD PUSH2 0x9141 JUMP JUMPDEST DUP1 PUSH1 0x0 MSTORE PUSH1 0x1 PUSH1 0x20 MSTORE PUSH2 0x9195 PUSH1 0xFF PUSH1 0xB PUSH1 0x40 PUSH1 0x0 KECCAK256 ADD SLOAD AND PUSH2 0x90DF JUMP JUMPDEST DUP1 PUSH1 0x0 MSTORE PUSH1 0x1 PUSH1 0x20 MSTORE PUSH1 0xFF PUSH1 0x5 PUSH1 0x40 PUSH1 0x0 KECCAK256 ADD SLOAD AND PUSH1 0x0 EQ PUSH2 0x9253 JUMPI DUP1 PUSH1 0x0 MSTORE PUSH1 0x1 PUSH1 0x20 MSTORE PUSH2 0x91CE PUSH1 0xFF PUSH1 0xB PUSH1 0x40 PUSH1 0x0 KECCAK256 ADD SLOAD AND PUSH2 0x90DF JUMP JUMPDEST PUSH1 0x0 MSTORE PUSH1 0x1 PUSH1 0x20 MSTORE PUSH2 0x91E6 PUSH1 0x4 PUSH1 0x40 PUSH1 0x0 KECCAK256 ADD PUSH2 0x9F74 JUMP JUMPDEST SWAP1 DUP2 MLOAD PUSH2 0x91F2 DUP2 PUSH2 0x8DC1 JUMP JUMPDEST SWAP1 PUSH2 0x9200 PUSH1 0x40 MLOAD SWAP3 DUP4 PUSH2 0x8A85 JUMP JUMPDEST DUP1 DUP3 MSTORE PUSH2 0x920F PUSH1 0x1F NOT SWAP2 PUSH2 0x8DC1 JUMP JUMPDEST ADD CALLDATASIZE PUSH1 0x20 DUP4 ADD CALLDATACOPY PUSH1 0x0 JUMPDEST DUP4 MLOAD DUP2 LT ISZERO PUSH2 0x924E JUMPI PUSH1 0x1 SWAP1 PUSH1 0x1 PUSH1 0x1 PUSH1 0xA0 SHL SUB PUSH1 0x40 PUSH2 0x9239 DUP4 DUP9 PUSH2 0x93E4 JUMP JUMPDEST MLOAD ADD MLOAD AND PUSH2 0x9247 DUP3 DUP6 PUSH2 0x93E4 JUMP JUMPDEST MSTORE ADD PUSH2 0x9219 JUMP JUMPDEST POP SWAP2 POP JUMP JUMPDEST PUSH1 0x0 MSTORE PUSH1 0x1 PUSH1 0x20 MSTORE PUSH2 0x8B4B PUSH1 0x6 PUSH1 0x40 PUSH1 0x0 KECCAK256 ADD PUSH2 0x9124 JUMP JUMPDEST ISZERO PUSH2 0x9272 JUMPI JUMP JUMPDEST PUSH1 0x40 MLOAD PUSH3 0x461BCD PUSH1 0xE5 SHL DUP2 MSTORE PUSH1 0x20 PUSH1 0x4 DUP3 ADD MSTORE PUSH1 0x14 PUSH1 0x24 DUP3 ADD MSTORE PUSH20 0x13DC99195C88191BD95CC81B9BDD08195E1A5CDD PUSH1 0x62 SHL PUSH1 0x44 DUP3 ADD MSTORE PUSH1 0x64 SWAP1 REVERT JUMPDEST SWAP1 PUSH1 0x40 MLOAD PUSH2 0x92BB DUP2 PUSH2 0x89E0 JUMP JUMPDEST PUSH1 0x60 DUP2 SWAP4 DUP1 SLOAD DUP4 MSTORE PUSH1 0x40 MLOAD PUSH2 0x92D7 DUP2 PUSH2 0x3E7 DUP2 PUSH1 0x1 DUP7 ADD PUSH2 0x8BEE JUMP JUMPDEST PUSH1 0x20 DUP5 ADD MSTORE PUSH1 0x40 MLOAD PUSH2 0x92F0 DUP2 PUSH2 0x3E7 DUP2 PUSH1 0x2 DUP7 ADD PUSH2 0x8BEE JUMP JUMPDEST PUSH1 0x40 DUP5 ADD MSTORE PUSH1 0x3 ADD SLOAD PUSH1 0x1 PUSH1 0x1 PUSH1 0xA0 SHL SUB AND SWAP2 ADD MSTORE JUMP JUMPDEST SWAP1 DUP2 SLOAD PUSH2 0x9313 DUP2 PUSH2 0x8DC1 JUMP JUMPDEST SWAP3 PUSH2 0x9321 PUSH1 0x40 MLOAD SWAP5 DUP6 PUSH2 0x8A85 JUMP JUMPDEST DUP2 DUP5 MSTORE PUSH1 0x20 DUP5 ADD SWAP1 PUSH1 0x0 MSTORE PUSH1 0x20 PUSH1 0x0 KECCAK256 PUSH1 0x0 SWAP2 JUMPDEST DUP4 DUP4 LT PUSH2 0x9342 JUMPI POP POP POP POP JUMP JUMPDEST PUSH1 0x4 PUSH1 0x20 PUSH1 0x1 SWAP3 PUSH2 0x9352 DUP6 PUSH2 0x92AE JUMP JUMPDEST DUP2 MSTORE ADD SWAP3 ADD SWAP3 ADD SWAP2 SWAP1 PUSH2 0x9335 JUMP JUMPDEST PUSH1 0x40 DUP1 MLOAD SWAP1 SWAP2 SWAP1 PUSH2 0x9371 DUP4 DUP3 PUSH2 0x8A85 JUMP JUMPDEST PUSH1 0x1 DUP2 MSTORE SWAP2 PUSH1 0x1F NOT ADD CALLDATASIZE PUSH1 0x20 DUP5 ADD CALLDATACOPY JUMP JUMPDEST PUSH1 0x40 MLOAD PUSH2 0xCA0 SWAP2 SWAP1 PUSH2 0x9394 DUP4 DUP3 PUSH2 0x8A85 JUMP JUMPDEST PUSH1 0x64 DUP2 MSTORE SWAP2 PUSH1 0x1F NOT ADD CALLDATASIZE PUSH1 0x20 DUP5 ADD CALLDATACOPY JUMP JUMPDEST SWAP1 PUSH2 0x93AF DUP3 PUSH2 0x8DC1 JUMP JUMPDEST PUSH2 0x93BC PUSH1 0x40 MLOAD SWAP2 DUP3 PUSH2 0x8A85 JUMP JUMPDEST DUP3 DUP2 MSTORE DUP1 SWAP3 PUSH2 0x93CD PUSH1 0x1F NOT SWAP2 PUSH2 0x8DC1 JUMP JUMPDEST ADD SWAP1 PUSH1 0x20 CALLDATASIZE SWAP2 ADD CALLDATACOPY JUMP JUMPDEST DUP1 MLOAD ISZERO PUSH2 0x8CFF JUMPI PUSH1 0x20 ADD SWAP1 JUMP JUMPDEST DUP1 MLOAD DUP3 LT ISZERO PUSH2 0x8CFF JUMPI PUSH1 0x20 SWAP2 PUSH1 0x5 SHL ADD ADD SWAP1 JUMP JUMPDEST PUSH1 0x0 NOT DUP2 EQ PUSH2 0x38B JUMPI PUSH1 0x1 ADD SWAP1 JUMP JUMPDEST ISZERO PUSH2 0x940E JUMPI JUMP JUMPDEST PUSH1 0x40 MLOAD PUSH3 0x461BCD PUSH1 0xE5 SHL DUP2 MSTORE PUSH1 0x20 PUSH1 0x4 DUP3 ADD MSTORE PUSH1 0x16 PUSH1 0x24 DUP3 ADD MSTORE PUSH22 0x10DBDB5C185B9E481B9BDD081C9959DA5CDD195C9959 PUSH1 0x52 SHL PUSH1 0x44 DUP3 ADD MSTORE PUSH1 0x64 SWAP1 REVERT JUMPDEST ISZERO PUSH2 0x9453 JUMPI JUMP JUMPDEST PUSH1 0x40 MLOAD PUSH3 0x461BCD PUSH1 0xE5 SHL DUP2 MSTORE PUSH1 0x20 PUSH1 0x4 DUP3 ADD MSTORE PUSH1 0x1C PUSH1 0x24 DUP3 ADD MSTORE PUSH28 0x50726F64756374206E616D652063616E6E6F7420626520656D707479 PUSH1 0x20 SHL PUSH1 0x44 DUP3 ADD MSTORE PUSH1 0x64 SWAP1 REVERT JUMPDEST ISZERO PUSH2 0x949E JUMPI JUMP JUMPDEST PUSH1 0x40 MLOAD PUSH3 0x461BCD PUSH1 0xE5 SHL DUP2 MSTORE PUSH1 0x20 PUSH1 0x4 DUP3 ADD MSTORE PUSH1 0x23 PUSH1 0x24 DUP3 ADD MSTORE PUSH32 0x50726F64756374206465736372697074696F6E2063616E6E6F7420626520656D PUSH1 0x44 DUP3 ADD MSTORE PUSH3 0x707479 PUSH1 0xE8 SHL PUSH1 0x64 DUP3 ADD MSTORE PUSH1 0x84 SWAP1 REVERT JUMPDEST ISZERO PUSH2 0x94F6 JUMPI JUMP JUMPDEST PUSH1 0x40 MLOAD PUSH3 0x461BCD PUSH1 0xE5 SHL DUP2 MSTORE PUSH1 0x20 PUSH1 0x4 DUP3 ADD MSTORE PUSH1 0x1F PUSH1 0x24 DUP3 ADD MSTORE PUSH32 0x5175616E74697479206D7573742062652067726561746572207468616E203000 PUSH1 0x44 DUP3 ADD MSTORE PUSH1 0x64 SWAP1 REVERT JUMPDEST ISZERO PUSH2 0x9542 JUMPI JUMP JUMPDEST PUSH1 0x40 MLOAD PUSH3 0x461BCD PUSH1 0xE5 SHL DUP2 MSTORE PUSH1 0x20 PUSH1 0x4 DUP3 ADD MSTORE PUSH1 0x1C PUSH1 0x24 DUP3 ADD MSTORE PUSH28 0x5072696365206D7573742062652067726561746572207468616E203 PUSH1 0x24 SHL PUSH1 0x44 DUP3 ADD MSTORE PUSH1 0x64 SWAP1 REVERT JUMPDEST DUP2 PUSH1 0x1 SHL SWAP2 PUSH1 0x0 NOT SWAP1 PUSH1 0x3 SHL SHR NOT AND OR SWAP1 JUMP JUMPDEST SWAP1 PUSH1 0xFF DUP1 NOT DUP4 SLOAD AND SWAP2 ISZERO ISZERO AND OR SWAP1 SSTORE JUMP JUMPDEST DUP1 SLOAD PUSH2 0x100 PUSH1 0x1 PUSH1 0xA8 SHL SUB NOT AND PUSH1 0x8 SWAP3 SWAP1 SWAP3 SHL PUSH2 0x100 PUSH1 0x1 PUSH1 0xA8 SHL SUB AND SWAP2 SWAP1 SWAP2 OR SWAP1 SSTORE JUMP JUMPDEST DUP1 SLOAD PUSH1 0x1 PUSH1 0x40 SHL DUP2 LT ISZERO PUSH2 0x832 JUMPI PUSH2 0x95EC SWAP2 PUSH1 0x1 DUP3 ADD DUP2 SSTORE PUSH2 0x8D15 JUMP JUMPDEST DUP2 SLOAD PUSH1 0x1 PUSH1 0x1 PUSH1 0xA0 SHL SUB PUSH1 0x3 SWAP3 SWAP1 SWAP3 SHL SWAP2 DUP3 SHL NOT AND PUSH1 0x0 DUP1 MLOAD PUSH1 0x20 PUSH2 0xA4ED DUP4 CODECOPY DUP2 MLOAD SWAP2 MSTORE SWAP1 SWAP2 SHL OR SWAP1 SSTORE JUMP JUMPDEST DUP1 SLOAD SWAP2 SWAP1 PUSH1 0x1 PUSH1 0x40 SHL DUP4 LT ISZERO PUSH2 0x832 JUMPI DUP3 PUSH2 0x3025 SWAP2 PUSH1 0x1 PUSH2 0x906D SWAP6 ADD DUP2 SSTORE PUSH2 0x8D15 JUMP JUMPDEST PUSH2 0x9653 PUSH1 0x40 SWAP3 SWAP6 SWAP5 SWAP4 SWAP6 PUSH1 0x60 DUP4 MSTORE PUSH1 0x60 DUP4 ADD SWAP1 PUSH2 0x88FD JUMP JUMPDEST PUSH1 0x1 PUSH1 0x1 PUSH1 0xA0 SHL SUB SWAP1 SWAP6 AND PUSH1 0x20 DUP3 ADD MSTORE ADD MSTORE JUMP JUMPDEST ISZERO PUSH2 0x966E JUMPI JUMP JUMPDEST PUSH1 0x40 MLOAD PUSH3 0x461BCD PUSH1 0xE5 SHL DUP2 MSTORE PUSH1 0x20 PUSH1 0x4 DUP3 ADD MSTORE PUSH1 0x12 PUSH1 0x24 DUP3 ADD MSTORE PUSH18 0x4C697374696E67206E6F7420616374697665 PUSH1 0x70 SHL PUSH1 0x44 DUP3 ADD MSTORE PUSH1 0x64 SWAP1 REVERT JUMPDEST PUSH1 0x6 SLOAD DUP1 ISZERO PUSH2 0x6D7E JUMPI PUSH1 0x0 NOT ADD PUSH2 0x96C0 DUP2 PUSH1 0x6 PUSH2 0x8D15 JUMP JUMPDEST DUP2 SLOAD SWAP1 PUSH1 0x0 NOT SWAP1 PUSH1 0x3 SHL SHL NOT AND SWAP1 SSTORE PUSH1 0x6 SSTORE JUMP JUMPDEST DUP1 SLOAD DUP3 LT ISZERO PUSH2 0x8CFF JUMPI PUSH1 0x0 MSTORE PUSH1 0x20 PUSH1 0x0 KECCAK256 SWAP1 PUSH1 0x2 SHL ADD SWAP1 PUSH1 0x0 SWAP1 JUMP JUMPDEST PUSH1 0x40 MLOAD SWAP1 PUSH2 0x96FF PUSH1 0x40 DUP4 PUSH2 0x8A85 JUMP JUMPDEST PUSH1 0xF DUP3 MSTORE PUSH15 0x1C5D585B1A5D1E57D8DA1958DAD959 PUSH1 0x8A SHL PUSH1 0x20 DUP4 ADD MSTORE JUMP JUMPDEST PUSH1 0x40 MLOAD SWAP1 PUSH2 0x972C PUSH1 0x40 DUP4 PUSH2 0x8A85 JUMP JUMPDEST PUSH1 0xC DUP3 MSTORE PUSH12 0x1C185E5B595B9D17DCD95B9D PUSH1 0xA2 SHL PUSH1 0x20 DUP4 ADD MSTORE JUMP JUMPDEST DUP1 SLOAD PUSH1 0x1 PUSH1 0x40 SHL DUP2 LT ISZERO PUSH2 0x832 JUMPI PUSH2 0x9764 SWAP2 PUSH1 0x1 DUP3 ADD DUP2 SSTORE PUSH2 0x96D4 JUMP JUMPDEST SWAP2 SWAP1 SWAP2 PUSH2 0x9905 JUMPI DUP1 MLOAD DUP3 SSTORE PUSH1 0x20 DUP2 ADD MLOAD DUP1 MLOAD PUSH1 0x1 DUP5 ADD SWAP2 PUSH1 0x1 PUSH1 0x1 PUSH1 0x40 SHL SUB DUP3 GT PUSH2 0x832 JUMPI PUSH2 0x9797 DUP3 PUSH2 0xDF9 DUP6 SLOAD PUSH2 0x8BB4 JUMP JUMPDEST PUSH1 0x20 SWAP1 PUSH1 0x1F DUP4 GT PUSH1 0x1 EQ PUSH2 0x989E JUMPI PUSH2 0x97B9 SWAP3 SWAP2 PUSH1 0x0 SWAP2 DUP4 PUSH2 0x764C JUMPI POP POP PUSH2 0x9586 JUMP JUMPDEST SWAP1 SSTORE JUMPDEST PUSH1 0x40 DUP2 ADD MLOAD DUP1 MLOAD PUSH1 0x2 DUP5 ADD SWAP2 PUSH1 0x1 PUSH1 0x1 PUSH1 0x40 SHL SUB DUP3 GT PUSH2 0x832 JUMPI PUSH2 0x97E4 DUP3 PUSH2 0xDF9 DUP6 SLOAD PUSH2 0x8BB4 JUMP JUMPDEST PUSH1 0x20 SWAP1 PUSH1 0x1F DUP4 GT PUSH1 0x1 EQ PUSH2 0x9834 JUMPI SWAP2 DUP1 PUSH2 0x980B SWAP3 PUSH1 0x3 SWAP7 SWAP6 SWAP5 PUSH1 0x0 SWAP3 PUSH2 0x764C JUMPI POP POP PUSH2 0x9586 JUMP JUMPDEST SWAP1 SSTORE JUMPDEST PUSH1 0x60 ADD MLOAD SWAP2 ADD DUP1 SLOAD PUSH1 0x1 PUSH1 0x1 PUSH1 0xA0 SHL SUB NOT AND PUSH1 0x1 PUSH1 0x1 PUSH1 0xA0 SHL SUB SWAP3 SWAP1 SWAP3 AND SWAP2 SWAP1 SWAP2 OR SWAP1 SSTORE JUMP JUMPDEST SWAP1 PUSH1 0x1F NOT DUP4 AND SWAP2 DUP5 PUSH1 0x0 MSTORE DUP2 PUSH1 0x0 KECCAK256 SWAP3 PUSH1 0x0 JUMPDEST DUP2 DUP2 LT PUSH2 0x9886 JUMPI POP SWAP2 PUSH1 0x1 SWAP4 SWAP2 DUP6 PUSH1 0x3 SWAP9 SWAP8 SWAP7 SWAP5 LT PUSH2 0x986E JUMPI JUMPDEST POP POP POP DUP2 SHL ADD SWAP1 SSTORE PUSH2 0x980E JUMP JUMPDEST ADD MLOAD PUSH1 0x0 NOT DUP4 DUP9 SHL PUSH1 0xF8 AND SHR NOT AND SWAP1 SSTORE CODESIZE DUP1 DUP1 PUSH2 0x9861 JUMP JUMPDEST SWAP3 SWAP4 PUSH1 0x20 PUSH1 0x1 DUP2 SWAP3 DUP8 DUP7 ADD MLOAD DUP2 SSTORE ADD SWAP6 ADD SWAP4 ADD PUSH2 0x9847 JUMP JUMPDEST SWAP1 PUSH1 0x1F NOT DUP4 AND SWAP2 DUP5 PUSH1 0x0 MSTORE DUP2 PUSH1 0x0 KECCAK256 SWAP3 PUSH1 0x0 JUMPDEST DUP2 DUP2 LT PUSH2 0x98ED JUMPI POP SWAP1 DUP5 PUSH1 0x1 SWAP6 SWAP5 SWAP4 SWAP3 LT PUSH2 0x98D4 JUMPI JUMPDEST POP POP POP DUP2 SHL ADD SWAP1 SSTORE PUSH2 0x97BC JUMP JUMPDEST ADD MLOAD PUSH1 0x0 NOT PUSH1 0xF8 DUP5 PUSH1 0x3 SHL AND SHR NOT AND SWAP1 SSTORE CODESIZE DUP1 DUP1 PUSH2 0x98C7 JUMP JUMPDEST SWAP3 SWAP4 PUSH1 0x20 PUSH1 0x1 DUP2 SWAP3 DUP8 DUP7 ADD MLOAD DUP2 SSTORE ADD SWAP6 ADD SWAP4 ADD PUSH2 0x98B1 JUMP JUMPDEST PUSH4 0x4E487B71 PUSH1 0xE0 SHL PUSH1 0x0 MSTORE PUSH1 0x0 PUSH1 0x4 MSTORE PUSH1 0x24 PUSH1 0x0 REVERT JUMPDEST PUSH1 0x0 SWAP3 SWAP2 DUP2 SLOAD SWAP2 PUSH2 0x992B DUP4 PUSH2 0x8BB4 JUMP JUMPDEST SWAP3 PUSH1 0x1 DUP2 AND SWAP1 DUP2 ISZERO PUSH2 0x9976 JUMPI POP PUSH1 0x1 EQ PUSH2 0x9944 JUMPI POP POP POP JUMP JUMPDEST SWAP1 SWAP2 SWAP3 SWAP4 POP PUSH1 0x0 MSTORE PUSH1 0x20 PUSH1 0x0 KECCAK256 PUSH1 0x0 SWAP1 JUMPDEST DUP4 DUP3 LT PUSH2 0x9962 JUMPI POP POP ADD SWAP1 JUMP JUMPDEST PUSH1 0x1 DUP2 PUSH1 0x20 SWAP3 SLOAD DUP5 DUP7 ADD MSTORE ADD SWAP2 ADD SWAP1 PUSH2 0x9955 JUMP JUMPDEST PUSH1 0xFF NOT AND DUP4 MSTORE POP POP DUP2 ISZERO ISZERO SWAP1 SWAP2 MUL ADD SWAP2 POP JUMP JUMPDEST PUSH1 0x40 MLOAD SWAP1 PUSH2 0x9998 PUSH1 0x40 DUP4 PUSH2 0x8A85 JUMP JUMPDEST PUSH1 0x9 DUP3 MSTORE PUSH9 0x18DBDB5C1B195D1959 PUSH1 0xBA SHL PUSH1 0x20 DUP4 ADD MSTORE JUMP JUMPDEST DUP1 SLOAD SWAP2 SWAP1 PUSH1 0x1 PUSH1 0x40 SHL DUP4 LT ISZERO PUSH2 0x832 JUMPI DUP3 PUSH2 0x7D4 SWAP2 PUSH1 0x1 PUSH2 0x906D SWAP6 ADD DUP2 SSTORE PUSH2 0x8D15 JUMP JUMPDEST SWAP1 PUSH2 0x9A0E PUSH1 0x40 SWAP2 SWAP5 SWAP4 SWAP5 PUSH1 0x60 DUP5 MSTORE PUSH1 0xC PUSH1 0x60 DUP6 ADD MSTORE PUSH12 0x1C185E5B595B9D17DCD95B9D PUSH1 0xA2 SHL PUSH1 0x80 DUP6 ADD MSTORE PUSH1 0xA0 PUSH1 0x20 DUP6 ADD MSTORE PUSH1 0xA0 DUP5 ADD SWAP1 PUSH2 0x88FD JUMP JUMPDEST PUSH1 0x1 PUSH1 0x1 PUSH1 0xA0 SHL SUB SWAP1 SWAP5 AND SWAP2 ADD MSTORE JUMP JUMPDEST PUSH1 0x40 MLOAD SWAP1 PUSH2 0x9A2D PUSH1 0x40 DUP4 PUSH2 0x8A85 JUMP JUMPDEST PUSH1 0x8 DUP3 MSTORE PUSH8 0x185C1C1C9BDD9959 PUSH1 0xC2 SHL PUSH1 0x20 DUP4 ADD MSTORE JUMP JUMPDEST ISZERO PUSH2 0x9A4B JUMPI JUMP JUMPDEST PUSH1 0x40 MLOAD PUSH3 0x461BCD PUSH1 0xE5 SHL DUP2 MSTORE PUSH1 0x20 PUSH1 0x4 DUP3 ADD MSTORE PUSH1 0x11 PUSH1 0x24 DUP3 ADD MSTORE PUSH17 0x2737BA10383937B23AB1BA1037BBB732B9 PUSH1 0x79 SHL PUSH1 0x44 DUP3 ADD MSTORE PUSH1 0x64 SWAP1 REVERT JUMPDEST ISZERO PUSH2 0x9A8B JUMPI JUMP JUMPDEST PUSH1 0x40 MLOAD PUSH3 0x461BCD PUSH1 0xE5 SHL DUP2 MSTORE PUSH1 0x20 PUSH1 0x4 DUP3 ADD MSTORE PUSH1 0x19 PUSH1 0x24 DUP3 ADD MSTORE PUSH25 0x2737BA1030903830B93A3C903A37903A3434B99037B93232B9 PUSH1 0x39 SHL PUSH1 0x44 DUP3 ADD MSTORE PUSH1 0x64 SWAP1 REVERT JUMPDEST SWAP1 DUP2 SLOAD PUSH2 0x9AD8 DUP2 PUSH2 0x8DC1 JUMP JUMPDEST SWAP3 PUSH2 0x9AE6 PUSH1 0x40 MLOAD SWAP5 DUP6 PUSH2 0x8A85 JUMP JUMPDEST DUP2 DUP5 MSTORE PUSH1 0x20 DUP5 ADD SWAP1 PUSH1 0x0 MSTORE PUSH1 0x20 PUSH1 0x0 KECCAK256 PUSH1 0x0 SWAP2 JUMPDEST DUP4 DUP4 LT PUSH2 0x9B07 JUMPI POP POP POP POP JUMP JUMPDEST PUSH1 0x5 PUSH1 0x20 PUSH1 0x1 SWAP3 PUSH1 0x40 MLOAD PUSH2 0x9B1A DUP2 PUSH2 0x8A17 JUMP JUMPDEST DUP6 SLOAD DUP2 MSTORE DUP5 DUP7 ADD SLOAD DUP4 DUP3 ADD MSTORE DUP5 DUP1 PUSH1 0xA0 SHL SUB PUSH1 0x2 DUP8 ADD SLOAD AND PUSH1 0x40 DUP3 ADD MSTORE PUSH1 0x3 DUP7 ADD SLOAD PUSH1 0x60 DUP3 ADD MSTORE PUSH1 0x4 DUP7 ADD SLOAD PUSH1 0x80 DUP3 ADD MSTORE DUP2 MSTORE ADD SWAP3 ADD SWAP3 ADD SWAP2 SWAP1 PUSH2 0x9AFA JUMP JUMPDEST DUP1 SLOAD PUSH1 0x1 PUSH1 0x40 SHL DUP2 LT ISZERO PUSH2 0x832 JUMPI PUSH2 0x9B76 SWAP2 PUSH1 0x1 DUP3 ADD DUP2 SSTORE PUSH2 0x9012 JUMP JUMPDEST SWAP2 SWAP1 SWAP2 PUSH2 0x9905 JUMPI DUP1 MLOAD DUP3 SSTORE PUSH1 0x20 DUP2 ADD MLOAD PUSH1 0x1 DUP4 ADD SSTORE PUSH1 0x40 DUP2 ADD MLOAD PUSH1 0x2 DUP4 ADD DUP1 SLOAD PUSH1 0x1 PUSH1 0x1 PUSH1 0xA0 SHL SUB NOT AND PUSH1 0x1 PUSH1 0x1 PUSH1 0xA0 SHL SUB SWAP3 SWAP1 SWAP3 AND SWAP2 SWAP1 SWAP2 OR SWAP1 SSTORE PUSH1 0x60 DUP2 ADD MLOAD PUSH1 0x3 DUP4 ADD SSTORE PUSH1 0x80 ADD MLOAD PUSH1 0x4 SWAP2 SWAP1 SWAP2 ADD SSTORE JUMP JUMPDEST PUSH1 0x1 PUSH1 0x1 PUSH1 0xA0 SHL SUB SWAP2 DUP3 AND DUP2 MSTORE SWAP2 AND PUSH1 0x20 DUP3 ADD MSTORE PUSH1 0x40 DUP2 ADD SWAP2 SWAP1 SWAP2 MSTORE PUSH1 0x60 ADD SWAP1 JUMP JUMPDEST ISZERO PUSH2 0x9BF2 JUMPI JUMP JUMPDEST PUSH1 0x40 MLOAD PUSH3 0x461BCD PUSH1 0xE5 SHL DUP2 MSTORE PUSH1 0x20 PUSH1 0x4 DUP3 ADD MSTORE PUSH1 0x15 PUSH1 0x24 DUP3 ADD MSTORE PUSH21 0x496E73756666696369656E74207175616E74697479 PUSH1 0x58 SHL PUSH1 0x44 DUP3 ADD MSTORE PUSH1 0x64 SWAP1 REVERT JUMPDEST ISZERO PUSH2 0x9C36 JUMPI JUMP JUMPDEST PUSH1 0x40 MLOAD PUSH3 0x461BCD PUSH1 0xE5 SHL DUP2 MSTORE PUSH1 0x20 PUSH1 0x4 DUP3 ADD MSTORE PUSH1 0x18 PUSH1 0x24 DUP3 ADD MSTORE PUSH24 0x21B0B73737BA10313ABC90333937B6903CB7BAB939B2B633 PUSH1 0x41 SHL PUSH1 0x44 DUP3 ADD MSTORE PUSH1 0x64 SWAP1 REVERT JUMPDEST ISZERO PUSH2 0x9C7D JUMPI JUMP JUMPDEST PUSH1 0x40 MLOAD PUSH3 0x461BCD PUSH1 0xE5 SHL DUP2 MSTORE PUSH1 0x20 PUSH1 0x4 DUP3 ADD MSTORE PUSH1 0x15 PUSH1 0x24 DUP3 ADD MSTORE PUSH21 0x4F726465722076616C756520746F6F206C61726765 PUSH1 0x58 SHL PUSH1 0x44 DUP3 ADD MSTORE PUSH1 0x64 SWAP1 REVERT JUMPDEST DUP2 DUP2 MUL SWAP3 SWAP2 DUP2 ISZERO SWAP2 DUP5 DIV EQ OR ISZERO PUSH2 0x38B JUMPI JUMP JUMPDEST ISZERO PUSH2 0x9CD4 JUMPI JUMP JUMPDEST PUSH1 0x40 MLOAD PUSH3 0x461BCD PUSH1 0xE5 SHL DUP2 MSTORE PUSH1 0x20 PUSH1 0x4 DUP3 ADD MSTORE PUSH1 0x27 PUSH1 0x24 DUP3 ADD MSTORE PUSH32 0x496E73756666696369656E742070726F64756374207175616E74697479206176 PUSH1 0x44 DUP3 ADD MSTORE PUSH7 0x61696C61626C65 PUSH1 0xC8 SHL PUSH1 0x64 DUP3 ADD MSTORE PUSH1 0x84 SWAP1 REVERT JUMPDEST PUSH1 0x40 MLOAD SWAP1 PUSH2 0x9D38 PUSH1 0x40 DUP4 PUSH2 0x8A85 JUMP JUMPDEST PUSH1 0x8 DUP3 MSTORE PUSH8 0x1858D8D95C1D1959 PUSH1 0xC2 SHL PUSH1 0x20 DUP4 ADD MSTORE JUMP JUMPDEST ISZERO PUSH2 0x9D56 JUMPI JUMP JUMPDEST PUSH1 0x40 MLOAD PUSH3 0x461BCD PUSH1 0xE5 SHL DUP2 MSTORE PUSH1 0x20 PUSH1 0x4 DUP3 ADD MSTORE PUSH1 0x14 PUSH1 0x24 DUP3 ADD MSTORE PUSH20 0x4E616D652063616E6E6F7420626520656D707479 PUSH1 0x60 SHL PUSH1 0x44 DUP3 ADD MSTORE PUSH1 0x64 SWAP1 REVERT JUMPDEST ISZERO PUSH2 0x9D99 JUMPI JUMP JUMPDEST PUSH1 0x40 MLOAD PUSH3 0x461BCD PUSH1 0xE5 SHL DUP2 MSTORE PUSH1 0x20 PUSH1 0x4 DUP3 ADD MSTORE PUSH1 0xF PUSH1 0x24 DUP3 ADD MSTORE PUSH15 0x496E76616C69642061646472657373 PUSH1 0x88 SHL PUSH1 0x44 DUP3 ADD MSTORE PUSH1 0x64 SWAP1 REVERT JUMPDEST PUSH1 0x40 MLOAD SWAP1 PUSH2 0x9DDF PUSH1 0x40 DUP4 PUSH2 0x8A85 JUMP JUMPDEST PUSH1 0x6 DUP3 MSTORE PUSH6 0x1C1858DAD959 PUSH1 0xD2 SHL PUSH1 0x20 DUP4 ADD MSTORE JUMP JUMPDEST PUSH1 0x40 MLOAD SWAP1 PUSH2 0x9E03 PUSH1 0x40 DUP4 PUSH2 0x8A85 JUMP JUMPDEST PUSH1 0x7 DUP3 MSTORE PUSH7 0x1CDA1A5C1C1959 PUSH1 0xCA SHL PUSH1 0x20 DUP4 ADD MSTORE JUMP JUMPDEST PUSH1 0x40 MLOAD SWAP1 PUSH2 0x9E28 PUSH1 0x40 DUP4 PUSH2 0x8A85 JUMP JUMPDEST PUSH1 0x9 DUP3 MSTORE PUSH9 0x19195B1A5D995C9959 PUSH1 0xBA SHL PUSH1 0x20 DUP4 ADD MSTORE JUMP JUMPDEST SWAP2 SWAP1 SWAP2 DUP3 DUP2 EQ PUSH2 0x9F09 JUMPI PUSH2 0x9E54 DUP4 SLOAD PUSH2 0x8BB4 JUMP JUMPDEST PUSH1 0x1 PUSH1 0x1 PUSH1 0x40 SHL SUB DUP2 GT PUSH2 0x832 JUMPI PUSH2 0x9E70 DUP2 PUSH2 0xE52 DUP5 SLOAD PUSH2 0x8BB4 JUMP JUMPDEST PUSH1 0x0 SWAP4 PUSH1 0x1F DUP3 GT PUSH1 0x1 EQ PUSH2 0x9EA3 JUMPI PUSH2 0x9E94 SWAP3 SWAP4 SWAP5 DUP3 SWAP2 PUSH1 0x0 SWAP3 PUSH2 0x9E98 JUMPI POP POP PUSH2 0x9586 JUMP JUMPDEST SWAP1 SSTORE JUMP JUMPDEST ADD SLOAD SWAP1 POP CODESIZE DUP1 PUSH2 0xE21 JUMP JUMPDEST DUP5 MSTORE PUSH1 0x20 DUP1 DUP6 KECCAK256 DUP4 DUP7 MSTORE SWAP1 DUP6 KECCAK256 SWAP1 SWAP5 PUSH1 0x1F NOT DUP4 AND DUP2 JUMPDEST DUP2 DUP2 LT PUSH2 0x9EF1 JUMPI POP SWAP6 DUP4 PUSH1 0x1 SWAP6 SWAP7 SWAP8 LT PUSH2 0x9ED8 JUMPI JUMPDEST POP POP POP DUP2 SHL ADD SWAP1 SSTORE JUMP JUMPDEST ADD SLOAD PUSH1 0x0 NOT PUSH1 0xF8 DUP5 PUSH1 0x3 SHL AND SHR NOT AND SWAP1 SSTORE CODESIZE DUP1 DUP1 PUSH2 0x9ECE JUMP JUMPDEST SWAP2 SWAP3 PUSH1 0x1 DUP1 PUSH1 0x20 SWAP3 DUP7 DUP12 ADD SLOAD DUP2 SSTORE ADD SWAP5 ADD SWAP3 ADD PUSH2 0x9EB9 JUMP JUMPDEST POP SWAP1 POP JUMP JUMPDEST DUP1 SLOAD PUSH1 0x1 PUSH1 0x40 SHL DUP2 LT ISZERO PUSH2 0x832 JUMPI PUSH2 0x9F2B SWAP2 PUSH1 0x1 DUP3 ADD DUP2 SSTORE PUSH2 0x96D4 JUMP JUMPDEST SWAP2 SWAP1 SWAP2 PUSH2 0x9905 JUMPI DUP1 MLOAD DUP3 SSTORE PUSH1 0x20 DUP2 ADD MLOAD PUSH1 0x1 DUP4 ADD SSTORE PUSH1 0x40 DUP2 ADD MLOAD PUSH1 0x2 DUP4 ADD DUP1 SLOAD PUSH1 0x1 PUSH1 0x1 PUSH1 0xA0 SHL SUB NOT AND PUSH1 0x1 PUSH1 0x1 PUSH1 0xA0 SHL SUB SWAP3 SWAP1 SWAP3 AND SWAP2 SWAP1 SWAP2 OR SWAP1 SSTORE PUSH1 0x60 ADD MLOAD PUSH1 0x3 SWAP2 SWAP1 SWAP2 ADD SSTORE JUMP JUMPDEST SWAP1 DUP2 SLOAD PUSH2 0x9F80 DUP2 PUSH2 0x8DC1 JUMP JUMPDEST SWAP3 PUSH2 0x9F8E PUSH1 0x40 MLOAD SWAP5 DUP6 PUSH2 0x8A85 JUMP JUMPDEST DUP2 DUP5 MSTORE PUSH1 0x20 DUP5 ADD SWAP1 PUSH1 0x0 MSTORE PUSH1 0x20 PUSH1 0x0 KECCAK256 PUSH1 0x0 SWAP2 JUMPDEST DUP4 DUP4 LT PUSH2 0x9FAF JUMPI POP POP POP POP JUMP JUMPDEST PUSH1 0x4 PUSH1 0x20 PUSH1 0x1 SWAP3 PUSH1 0x40 MLOAD PUSH2 0x9FC2 DUP2 PUSH2 0x89E0 JUMP JUMPDEST DUP6 SLOAD DUP2 MSTORE DUP5 DUP7 ADD SLOAD DUP4 DUP3 ADD MSTORE DUP5 DUP1 PUSH1 0xA0 SHL SUB PUSH1 0x2 DUP8 ADD SLOAD AND PUSH1 0x40 DUP3 ADD MSTORE PUSH1 0x3 DUP7 ADD SLOAD PUSH1 0x60 DUP3 ADD MSTORE DUP2 MSTORE ADD SWAP3 ADD SWAP3 ADD SWAP2 SWAP1 PUSH2 0x9FA2 JUMP JUMPDEST ISZERO PUSH2 0x9FFE JUMPI JUMP JUMPDEST PUSH1 0x40 MLOAD PUSH3 0x461BCD PUSH1 0xE5 SHL DUP2 MSTORE PUSH1 0x20 PUSH1 0x4 DUP3 ADD MSTORE PUSH1 0x14 PUSH1 0x24 DUP3 ADD MSTORE PUSH20 0x125B9CDD59999A58DA595B9D081C185E5B595B9D PUSH1 0x62 SHL PUSH1 0x44 DUP3 ADD MSTORE PUSH1 0x64 SWAP1 REVERT JUMPDEST PUSH2 0xA063 PUSH2 0xA05E PUSH1 0xB PUSH2 0xA056 DUP5 PUSH1 0x0 MSTORE PUSH1 0x1 PUSH1 0x20 MSTORE PUSH1 0x40 PUSH1 0x0 KECCAK256 SWAP1 JUMP JUMPDEST ADD SLOAD PUSH1 0xFF AND SWAP1 JUMP JUMPDEST PUSH2 0x90DF JUMP JUMPDEST PUSH2 0xA083 PUSH2 0xA07F PUSH1 0x5 PUSH2 0xA056 DUP5 PUSH1 0x0 MSTORE PUSH1 0x1 PUSH1 0x20 MSTORE PUSH1 0x40 PUSH1 0x0 KECCAK256 SWAP1 JUMP JUMPDEST ISZERO SWAP1 JUMP JUMPDEST PUSH2 0xA150 JUMPI PUSH1 0x4 PUSH2 0xA0A0 PUSH2 0xA0A6 SWAP3 PUSH1 0x0 MSTORE PUSH1 0x1 PUSH1 0x20 MSTORE PUSH1 0x40 PUSH1 0x0 KECCAK256 SWAP1 JUMP JUMPDEST ADD PUSH2 0x9F74 JUMP JUMPDEST SWAP1 PUSH2 0xA0AF PUSH2 0x9382 JUMP JUMPDEST PUSH1 0x0 SWAP3 DUP4 SWAP2 JUMPDEST DUP2 MLOAD DUP4 LT ISZERO PUSH2 0xA112 JUMPI PUSH2 0xA0D2 PUSH2 0xA0CB DUP5 DUP5 PUSH2 0x93E4 JUMP JUMPDEST MLOAD MLOAD PUSH2 0xA03A JUMP JUMPDEST SWAP4 PUSH1 0x0 SWAP6 JUMPDEST DUP6 MLOAD DUP8 LT ISZERO PUSH2 0xA103 JUMPI PUSH2 0xA0FB PUSH1 0x1 SWAP2 PUSH2 0xA0F0 DUP10 DUP10 PUSH2 0x93E4 JUMP JUMPDEST MLOAD PUSH2 0x5A2 DUP3 DUP8 PUSH2 0x93E4 JUMP JUMPDEST SWAP7 ADD SWAP6 PUSH2 0xA0D7 JUMP JUMPDEST SWAP6 POP SWAP4 POP PUSH1 0x1 SWAP1 SWAP3 ADD SWAP2 PUSH2 0xA0B5 JUMP JUMPDEST SWAP4 SWAP2 POP POP PUSH2 0xA11F DUP2 PUSH2 0x93A5 JUMP JUMPDEST SWAP1 PUSH1 0x0 JUMPDEST DUP2 DUP2 LT PUSH2 0xA131 JUMPI POP SWAP1 SWAP3 POP POP JUMP JUMPDEST DUP1 PUSH2 0xA13E PUSH1 0x1 SWAP3 DUP8 PUSH2 0x93E4 JUMP JUMPDEST MLOAD PUSH2 0xA149 DUP3 DUP7 PUSH2 0x93E4 JUMP JUMPDEST MSTORE ADD PUSH2 0xA123 JUMP JUMPDEST PUSH2 0xA158 PUSH2 0x9360 JUMP JUMPDEST SWAP1 PUSH2 0xA162 DUP3 PUSH2 0x93D7 JUMP JUMPDEST MSTORE SWAP1 JUMP JUMPDEST SWAP2 SWAP4 SWAP3 PUSH1 0x1 DUP1 PUSH1 0xA0 SHL SUB DUP3 AND SWAP5 DUP6 PUSH1 0x0 MSTORE PUSH1 0x0 PUSH1 0x20 MSTORE PUSH1 0xFF PUSH1 0x2 PUSH1 0x40 PUSH1 0x0 KECCAK256 ADD SLOAD PUSH1 0xA0 SHR AND ISZERO PUSH2 0xA40C JUMPI PUSH2 0xA19B DUP2 ISZERO ISZERO PUSH2 0x94EF JUMP JUMPDEST DUP4 PUSH1 0x0 MSTORE PUSH1 0x1 PUSH1 0x20 MSTORE PUSH2 0xA1B8 DUP2 PUSH1 0x7 PUSH1 0x40 PUSH1 0x0 KECCAK256 ADD SLOAD LT ISZERO PUSH2 0x9BEB JUMP JUMPDEST PUSH1 0x0 DUP5 DUP2 MSTORE PUSH1 0x1 PUSH1 0x20 MSTORE PUSH1 0x40 SWAP1 KECCAK256 PUSH1 0x9 ADD SLOAD PUSH1 0x1 PUSH1 0x1 PUSH1 0xA0 SHL SUB SWAP1 DUP2 AND SWAP1 DUP4 AND SUB PUSH2 0xA3D3 JUMPI DUP4 PUSH1 0x0 MSTORE PUSH1 0x1 PUSH1 0x20 MSTORE PUSH1 0x40 PUSH1 0x0 KECCAK256 PUSH1 0x7 DUP2 ADD DUP1 SLOAD DUP1 DUP5 EQ PUSH1 0x0 EQ PUSH2 0xA247 JUMPI POP POP DUP4 SWAP3 SWAP2 PUSH2 0xA235 PUSH1 0x0 DUP1 MLOAD PUSH1 0x20 PUSH2 0xA54D DUP4 CODECOPY DUP2 MLOAD SWAP2 MSTORE SWAP6 PUSH1 0x6 DUP5 DUP10 SWAP11 SWAP12 PUSH1 0x9 PUSH2 0xA241 SWAP8 ADD SWAP1 PUSH1 0x1 DUP1 PUSH1 0xA0 SHL SUB NOT DUP3 SLOAD AND OR SWAP1 SSTORE ADD PUSH2 0x9618 JUMP JUMPDEST PUSH1 0x40 MLOAD SWAP4 DUP5 SWAP4 DUP5 PUSH2 0x9BC9 JUMP JUMPDEST SUB SWAP1 LOG2 SWAP1 JUMP JUMPDEST DUP4 PUSH2 0xA259 SWAP2 SWAP10 SWAP9 SWAP7 SWAP5 SWAP8 SWAP6 SWAP4 SWAP10 PUSH2 0x9005 JUMP JUMPDEST SWAP1 SSTORE PUSH1 0xB SLOAD SWAP5 DUP6 PUSH1 0x0 MSTORE PUSH1 0x1 PUSH1 0x20 MSTORE DUP6 PUSH1 0x40 PUSH1 0x0 KECCAK256 SSTORE PUSH1 0x1 DUP9 ADD DUP7 PUSH1 0x0 MSTORE PUSH1 0x1 PUSH1 0x20 MSTORE PUSH2 0xA28D DUP2 PUSH1 0x1 PUSH1 0x40 PUSH1 0x0 KECCAK256 ADD PUSH2 0x9E40 JUMP JUMPDEST DUP7 PUSH1 0x0 MSTORE PUSH1 0x1 PUSH1 0x20 MSTORE PUSH2 0xA2AA PUSH1 0x2 DUP11 ADD PUSH1 0x2 PUSH1 0x40 PUSH1 0x0 KECCAK256 ADD PUSH2 0x9E40 JUMP JUMPDEST DUP7 PUSH1 0x0 MSTORE PUSH1 0x1 PUSH1 0x20 MSTORE PUSH2 0xA2C7 PUSH1 0x3 DUP11 ADD PUSH1 0x3 PUSH1 0x40 PUSH1 0x0 KECCAK256 ADD PUSH2 0x9E40 JUMP JUMPDEST PUSH1 0x0 DUP8 DUP2 MSTORE PUSH1 0x1 PUSH1 0x20 DUP2 SWAP1 MSTORE PUSH1 0x40 DUP3 KECCAK256 PUSH1 0x7 DUP2 ADD DUP6 SWAP1 SSTORE PUSH1 0x8 DUP13 DUP2 ADD SLOAD SWAP1 DUP3 ADD SSTORE PUSH1 0x9 DUP2 ADD DUP1 SLOAD PUSH1 0x1 PUSH1 0x1 PUSH1 0xA0 SHL SUB NOT AND DUP13 OR SWAP1 SSTORE TIMESTAMP PUSH1 0xA DUP3 ADD SSTORE PUSH1 0xB ADD DUP1 SLOAD PUSH1 0xFF NOT AND SWAP1 SWAP2 OR SWAP1 SSTORE PUSH1 0x6 SWAP1 SWAP10 ADD SWAP9 JUMPDEST DUP10 SLOAD DUP2 LT ISZERO PUSH2 0xA347 JUMPI PUSH1 0x1 SWAP1 DUP9 PUSH1 0x0 MSTORE DUP2 PUSH1 0x20 MSTORE PUSH2 0xA341 DUP12 PUSH2 0x44D8 DUP4 PUSH1 0x6 PUSH1 0x40 PUSH1 0x0 KECCAK256 ADD SWAP3 PUSH2 0x8D15 JUMP JUMPDEST ADD PUSH2 0xA317 JUMP JUMPDEST POP PUSH1 0x0 DUP1 MLOAD PUSH1 0x20 PUSH2 0xA54D DUP4 CODECOPY DUP2 MLOAD SWAP2 MSTORE SWAP6 SWAP9 POP SWAP6 PUSH1 0x0 DUP1 MLOAD PUSH1 0x20 PUSH2 0xA52D DUP4 CODECOPY DUP2 MLOAD SWAP2 MSTORE PUSH2 0xA3A4 PUSH2 0xA3BF SWAP5 SWAP6 SWAP7 SWAP9 DUP4 SWAP11 DUP5 PUSH1 0x0 MSTORE PUSH1 0x1 PUSH1 0x20 MSTORE PUSH2 0xA390 DUP10 PUSH1 0x6 PUSH1 0x40 PUSH1 0x0 KECCAK256 ADD PUSH2 0x9618 JUMP JUMPDEST PUSH1 0x40 MLOAD SWAP3 DUP4 SWAP3 PUSH1 0x60 DUP5 MSTORE PUSH1 0x60 DUP5 ADD SWAP1 PUSH2 0x8BEE JUMP JUMPDEST SWAP1 PUSH1 0x20 DUP4 ADD MSTORE DUP6 PUSH1 0x40 DUP4 ADD MSTORE SUB SWAP1 LOG2 PUSH1 0x40 MLOAD SWAP4 DUP5 SWAP4 DUP5 PUSH2 0x9BC9 JUMP JUMPDEST SUB SWAP1 LOG2 PUSH2 0xA3CD PUSH1 0xB SLOAD PUSH2 0x93F8 JUMP JUMPDEST PUSH1 0xB SSTORE SWAP1 JUMP JUMPDEST PUSH1 0x40 MLOAD PUSH3 0x461BCD PUSH1 0xE5 SHL DUP2 MSTORE PUSH1 0x20 PUSH1 0x4 DUP3 ADD MSTORE PUSH1 0x11 PUSH1 0x24 DUP3 ADD MSTORE PUSH17 0x2737BA1031BAB93932B73A1037BBB732B9 PUSH1 0x79 SHL PUSH1 0x44 DUP3 ADD MSTORE PUSH1 0x64 SWAP1 REVERT JUMPDEST PUSH1 0x40 MLOAD PUSH3 0x461BCD PUSH1 0xE5 SHL DUP2 MSTORE PUSH1 0x20 PUSH1 0x4 DUP3 ADD MSTORE PUSH1 0x18 PUSH1 0x24 DUP3 ADD MSTORE PUSH24 0x13995DC81BDDDB995C881B9BDD081C9959DA5CDD195C9959 PUSH1 0x42 SHL PUSH1 0x44 DUP3 ADD MSTORE PUSH1 0x64 SWAP1 REVERT INVALID 0xB1 EQ PUSH32 0x852FC43E7F848E0139B512FEB6AD9E1B0C47D4071CC28AF776EBEAC77DCBBD8F BLOBBASEFEE 0xD2 0xC SWAP2 0xD5 DUP4 DUP2 PUSH5 0xF748449BCE DUP5 PUSH23 0xC20C52238490777ED4849DE7BB1DCD962C0667E8227B57 SLOAD 0x4C BLOBHASH LOG3 PUSH4 0x5B0610E7 RETURNDATACOPY 0xE1 0xA8 SIGNEXTEND EXTCODEHASH 0x2D 0x2A 0x29 DUP2 SWAP6 CALLER DUP6 LOG4 0xD8 MSTORE PUSH6 0x6C6174696F6E PUSH20 0x686970206E6F742063757272656E746C79206163 PUSH21 0x69764814AC4B507B4DF7E154F88AD93B88DE62D66A ADDMOD 0xC2 0xCB SWAP5 DUP11 0xB2 0x26 ADD PUSH26 0x579C62FA00000000000000000000000070997970C51812DC3A01 0xC PUSH30 0x1B50E0D17DC79C875716F34647A7837716B716C6E70786D63706D677032 PUSH2 0x6171 PUSH7 0x65000000000090 SWAP4 0x4F 0xC9 0xDC LT SWAP6 0xF9 PUSH9 0xF4207CB62E27DA1DA3 0xE3 AND MSTORE8 SELFDESTRUCT CALLVALUE 0xCB 0xF8 CALLDATACOPY 0xB6 0xC3 BLOBHASH 0xDE 0xD7 PUSH1 0x51 PUSH13 0x8B339C132041F2A10D0E873C5E 0xAF BLOBHASH PREVRANDAO 0x29 SWAP13 MUL 0xB4 PC 0xD7 BLOBHASH SHL PUSH32 0x7AC1574D2FFEE75731DD0F0C7597F1E678D53E565826519F6F5FA21034C8F8ED PUSH23 0xB78A4C7537570706C696572206E6F206C6F6E67657220 PUSH16 0x776E7320746869732070726F00000000 STOP STOP STOP STOP STOP STOP STOP STOP RETURN SWAP16 0xD6 0xE5 BYTE 0xAD DUP9 0xF6 DELEGATECALL 0xCE PUSH11 0xB8827279CFFFB92266B11B LT CALLVALUE LOG3 LOG4 PUSH12 0x9059BC31AF66803491535CD2 SWAP1 LOG0 PUSH14 0x8722E4BAD4433B34E46E02A7D4D9 SELFBALANCE 0x2A 0xF7 GT DUP7 PREVRANDAO DUP9 0x4B SWAP11 0xE 0xE4 NUMBER SLOAD 0xC STOP 0x27 0xE9 CODESIZE 0xDD EXP LOG3 JUMPDEST 0xE8 0xEC 0xBE SWAP5 PUSH13 0xA8823D408BEAFC186CCD333D2 0xFB CREATE PUSH10 0x853D25C06F7205D4C208 0xDD ADDMOD CALLDATASIZE SDIV DUP8 0xB2 0x4E PUSH3 0x61666B PUSH19 0x656966766D747537786D6C6A6563367A6E6871 PUSH26 0x357865346A3361A2646970667358221220239C0F48F655DE6534 COINBASE 0xCB 0xC2 BLOBHASH 0x4E DUP5 SWAP1 0xD6 0xA7 SWAP4 0xE2 0xAB LOG2 LT 0xAE CALLDATASIZE SWAP4 0xCD SWAP4 0x2F 0xE 0xA8 ISZERO PUSH5 0x736F6C6343 STOP ADDMOD SHR STOP CALLER "},"methodIdentifiers":{"acceptRelationship(uint256)":"1bbe77d6","activeSpotListings(uint256)":"fcdaeb64","addDeliveryEvent(uint256,string,string)":"988ce1fe","allCompanies(uint256)":"42c53c76","buyFromSpotMarket(uint256,uint256)":"bd70baa8","cancelExpiredOrder(uint256)":"3227851b","companies(address)":"355e6ce8","completeOrderWithExternalPayment(uint256,string,string)":"1f061794","createMarketplaceOrder(uint256,uint256,string)":"4877d744","createProduct(string,string,string,uint256,uint256)":"1a481ecf","getActiveRelationships(address)":"872a84ea","getAllCompanies()":"408bf4c3","getApprovedOrdersForBuyer(address)":"e810f824","getApprovedOrdersForSeller(address)":"2c95f83c","getCompany(address)":"62bc56e6","getContractStats()":"dfe6b5d6","getCurrentNegotiationTerms(uint256)":"56cbee91","getLatestDeliveryEvent(uint256)":"c922121a","getNegotiationHistory(uint256)":"b9cd1805","getOrder(uint256)":"d09ef241","getOrderDeliveryHistory(uint256)":"0946e5de","getOrderStats()":"ec35356e","getOrdersByBuyer(address)":"3a875a43","getOrdersBySeller(address)":"7a202cc1","getOrdersByStatus(address,string)":"785c63c7","getPendingOrdersForSeller(address)":"d1fa4be2","getPendingRelationships(address)":"51f2ea9e","getProduct(uint256)":"b9db15b4","getProductTraceability(uint256)":"04f1c5fa","getProductTree(uint256)":"c589ee1f","getProductsByOwner(address)":"0fecef48","getRawMaterialSources(uint256)":"dcd50ae6","getRelationship(uint256)":"322e41b5","getSpotListing(uint256)":"7d16d1cc","getTransaction(uint256)":"33ea3dc8","getTransactionHistory(address)":"d20cf0e8","isCompanyRegistered(address)":"56ea04a3","listProductForSale(uint256,uint256,uint256)":"e32eca8d","manufactureProduct(string,string,string,uint256,uint256[],uint256[],uint256)":"9ac5508b","negotiateRelationship(uint256,uint256,uint256)":"e0a20193","nextCompanyId()":"d8d3c829","nextOrderId()":"2a58b330","nextProductId()":"4de91a63","nextRelationshipId()":"43acd106","nextSpotListingId()":"f7dc795c","nextTransactionId()":"d7ca38f3","orders(uint256)":"a85c38ef","payForOrder(uint256)":"d9c2dcee","placeOrder(uint256,uint256,string)":"55a5b04f","placeRelationshipOrder(uint256,uint256)":"10f30553","products(uint256)":"7acc0b20","registerCompany(string,address)":"bb23a31a","rejectOrder(uint256,string)":"24a37576","rejectRelationship(uint256)":"001978b9","relationships(uint256)":"94aa2718","removeSpotListing(uint256)":"1cf93677","requestRelationship(address,address,uint256,uint256,uint256,uint256)":"37a6acde","seedTestData()":"c332b842","spotListings(uint256)":"1f2bf469","transactions(uint256)":"9ace38c2","transferProduct(uint256,address,uint256)":"313aa18e","updateCompanyDetails(string,address)":"849d827f","userOrders(address,uint256)":"856652e9","userTransactions(address,uint256)":"b842ec44","viewAllActiveListings()":"8eb933a1"}}}}}